:100000000C949C000C94C4000C94C4000C94C40088
:100010000C94C4000C94C4000C94C4000C94C40050
:100020000C94C4000C94C4000C9420130C9404147D
:100030000C94C4000C947D140C94B8130C94C4005C
:100040000C94B7110C94C4000C9485110C945F119E
:100050000C94C4000C94C4000C94C4000C94C40010
:100060000C9401120C94C400084AD73B3BCE016E9D
:1000700084BCBFFDC12F3D6C74319ABD56833DDAFF
:100080003D00C77F11BED9E4BB4C3E916BAAAABE0E
:10009000000000803F072C7AA5BA6CC590DA3B932C
:1000A00065FC8BBC53F810FD3C5692834DBD879D7B
:1000B0003AB63DCBC9BF5BBE73DA0FC93F05A84C4A
:1000C000CDB2D44EB93836A9020C50B99186880801
:1000D0003CA6AAAA2ABE000000803F000000000043
:1000E000240027002A0000000000250028002B0023
:1000F0000000000023002600290004040404040476
:1001000004040202020202020303030303030102C6
:100110000408102040800102040810200102040895
:100120001020000000080002010000030407000086
:10013000000000000000A31411241FBECFEFD8E080
:10014000DEBFCDBF26E0A4EFB3E001C01D92AF3902
:10015000B207E1F713E0A0E0B1E0E8EBF4E502C09C
:1001600005900D92A43FB107D9F710E0CCE9D0E09B
:1001700004C02197FE010E946228CB39D107C9F73C
:100180000E94DC140C945A2A0C940000E2EFF5E073
:10019000A089B18982E08C93A089B1891C92A48541
:1001A000B5851C92A685B78580E18C93108EA489B5
:1001B000B58986E08C93A289B3898C9180618C93F8
:1001C000A289B3898C9188608C93A289B3898C9120
:1001D00080688C930288F389E02D80818F7D8083F5
:1001E0000895982F2091F10581E0213208F043C055
:1001F0008091CD058111FCCF8091F00532E03093E4
:10020000CD059093CC059FEF9093CB051092CA0536
:100210002093C905A0EDB5E0E9EAF5E090E02913E7
:1002200031C01092A8059091A805880F892B809362
:10023000A8058091A705813049F51092A705809106
:10024000A8058093BB008091BC0083FDF8CF85ECAE
:100250008093BC008091CD058230E1F38091CB0585
:100260008F3FB1F08091CB058032A1F08091CB051A
:10027000803391F084E01092CF051092F105109236
:10028000CE0508953D9131939F5FC9CF85EEE0CFB4
:1002900080E0F1CF82E0EFCF83E0EDCF08950895C5
:1002A000AF92BF92CF92DF92EF92FF920F931F9384
:1002B000CF93DF936C017B018B01040F151FEB01C2
:1002C0005E01AE18BF08C017D10759F06991D60179
:1002D000ED91FC910190F081E02DC6010995892BEB
:1002E00079F7C501DF91CF911F910F91FF90EF90AA
:1002F000DF90CF90BF90AF900895FC01538D448D57
:10030000252F30E0842F90E0821B930B541710F0C0
:10031000CF96089501970895FC01918D828D9817CD
:1003200061F0A28DAE0FBF2FB11D5D968C91928DA5
:100330009F5F9F73928F90E008958FEF9FEF0895D6
:10034000FC01918D828D981731F0828DE80FF11D9F
:10035000858D90E008958FEF9FEF0895FC01918DBA
:10036000228D892F90E0805C9F4F821B91098F73B3
:100370009927089582EF95E00E94AE0121E0892B34
:1003800009F420E0822F089580E090E0892B29F085
:100390000E94BA0181110C9400000895FC01A48D03
:1003A000A80FB92FB11DA35ABF4F2C91848D90E097
:1003B00001968F739927848FA689B7892C93A0897A
:1003C000B1898C91837080648C93938D848D981304
:1003D00006C00288F389E02D80818F7D8083089597
:1003E000EF92FF920F931F93CF93DF93EC0181E085
:1003F000888F9B8D8C8D98131AC0E889F98980812C
:1004000085FF15C09FB7F894EE89FF896083E8895E
:10041000F98980818370806480839FBF81E090E050
:10042000DF91CF911F910F91FF90EF900895F62EDD
:100430000B8D10E00F5F1F4F0F731127E02E8C8D77
:100440008E110CC00FB607FCFACFE889F9898081BC
:1004500085FFF5CFCE010E94CE01F1CFEB8DEC0FE1
:10046000FD2FF11DE35AFF4FF0829FB7F8940B8FD9
:10047000EA89FB8980818062CFCF682F82EF95E087
:100480000C94F001CF93DF93EC01888D8823B9F0B1
:10049000AA89BB89E889F9898C9185FD03C080818F
:1004A00086FD0DC00FB607FCF7CF8C9185FFF2CF0C
:1004B000808185FFEDCFCE010E94CE01E9CFDF9193
:1004C000CF910895833081F028F4813099F0823003
:1004D000A9F008958730A9F08830C9F08430B1F4CC
:1004E000809180008F7D03C0809180008F77809302
:1004F0008000089584B58F7784BD089584B58F7D7D
:10050000FBCF8091B0008F778093B00008958091E9
:10051000B0008F7DF9CFCF93DF93282F30E0F90122
:10052000EE5DFE4F8491F901E25FFE4FD491F90137
:10053000E650FF4FC491CC23A1F081110E946202CA
:10054000EC2FF0E0EE0FFF1FE051FF4FA591B491AB
:10055000EC91ED2381E090E009F480E0DF91CF9110
:10056000089580E090E0FACF1F93CF93DF93282F78
:1005700030E0F901EE5DFE4F8491F901E25FFE4F3C
:10058000D491F901E650FF4FC491CC23A9F0162F66
:1005900081110E946202EC2FF0E0EE0FFF1FEA5182
:1005A000FF4FA591B4918FB7F894EC91111108C049
:1005B000D095DE23DC938FBFDF91CF911F910895FB
:1005C000DE2BF8CFCF93DF9390E0FC01E25FFE4F8C
:1005D000249186509F4FFC0184918823D1F090E0B4
:1005E000880F991FFC01E452FF4FA591B491FC01C3
:1005F000EA51FF4FC591D49161110EC09FB7F89495
:100600008C91E22FE0958E238C932881E223E8835E
:100610009FBFDF91CF9108958FB7F894EC91E22BB3
:10062000EC938FBFF6CF3FB7F894809183049091FD
:100630008404A0918504B091860426B5A89B05C0CA
:100640002F3F19F00196A11DB11D3FBFBA2FA92F51
:10065000982F8827BC01CD01620F711D811D911D4E
:1006600042E0660F771F881F991F4A95D1F70895BA
:100670008F929F92AF92BF92CF92DF92EF92FF92B2
:100680004B015C010E9413036B017C010E94130368
:100690006C197D098E099F09683E7340810591059B
:1006A000A8F321E0821A9108A108B10888EEC80ECB
:1006B00083E0D81EE11CF11C81149104A104B10453
:1006C00029F7FF90EF90DF90CF90BF90AF909F9071
:1006D0008F90089585ED8093BC008091BC0084FDCF
:1006E000FCCF1092CD05089520915B04260F33278F
:1006F000331F21323105ECF42091CD05FC0190E04F
:1007000080E0243069F082E00895A0915B0421919B
:10071000AC01455C5B4FA40FB52FB11D2C93019626
:10072000861798F380915B04680F60935B0480E008
:10073000089581E008950895E0918C0480918B04E0
:10074000E81730F4F0E0E55EFB4F808190E008951B
:100750008FEF9FEF089590918C0480918B042FEF81
:100760003FEF981748F4E92FF0E0E55EFB4F20815A
:1007700030E09F5F90938C04C901089580918B04B1
:1007800090918C04891B990B0895CF92DF92EF9280
:10079000FF920F931F93CF93DF937C01CB018A01CC
:1007A0002091CE05222389F0EB016B01C40ED51EEA
:1007B000CC15DD0569F06991D701ED91FC910190AF
:1007C000F081E02DC7010995F3CF642F0E947403D7
:1007D000C801DF91CF911F910F91FF90EF90DF90B3
:1007E000CF900895CF93DF931F92CDB7DEB7698383
:1007F0002091CE052223F9F02091F105203258F006
:1008000021E030E0FC013383228390E080E00F9010
:10081000DF91CF9108958091CF05E82FF0E0E0536C
:10082000FA4F998190838F5F8093CF058093F10574
:1008300081E090E0ECCF61E0CE0101960E9474036C
:10084000F7CF90E080E00895CF9320918D04309110
:100850008E04232BB9F0C42F91E09093CE058093A2
:10086000F0051092CF051092F1058FE896E00E94F6
:10087000F2036C2F8FE896E00E94F20381E0CF91A3
:100880000C94F100CF910895DC0114966D917C9148
:1008900015974091970550E0461757070CF130E047
:1008A00020E0461B570B26173707C4F4FA01E20F66
:1008B000F31FE95EFA4F80812617370768F4ED9140
:1008C000FC911197309741F0E20FF31F908189134B
:1008D00007C02F5F3F4FE7CF90E0F9CF81E0089549
:1008E00080E00895FC0101900020E9F73197AF0105
:1008F000481B590BBC0182EF95E00C9450018F927C
:100900009F92AF92BF920F931F93CF93DF93CDB778
:10091000DEB7A1970FB6F894DEBF0FBECDBF19A208
:10092000423008F44AE08E010F5D1F4F842E912C57
:10093000B12CA12CA50194010E942C28E62FB9010D
:10094000CA01EA30F4F4E05DD801EE938D01232B67
:10095000242B252B79F790E080E0109719F0CD013A
:100960000E947204A1960FB6F894DEBF0FBECDBFF1
:10097000DF91CF911F910F91BF90AF909F908F907B
:100980000895E95CE1CF0C947204CF93DF930E9449
:100990007204EC0183EC91E00E9472048C0F9D1FA5
:1009A000DF91CF910895CF92DF92EF92FF92CF9394
:1009B000DF9397FF1BC06B017C016DE282EF95E036
:1009C0000E94F001EC0166277727CB016C197D09A5
:1009D0008E099F094AE00E947F048C0F9D1FDF91C2
:1009E000CF91FF90EF90DF90CF9008954AE0DF9194
:1009F000CF91FF90EF90DF90CF900C947F04BC01DB
:100A0000990F880B990B0C94D304CF93DF930E941A
:100A1000FF04EC0183EC91E00E9472048C0F9D1F97
:100A2000DF91CF9108954F925F926F927F928F9254
:100A30009F92AF92BF92CF92DF92EF92FF920F936D
:100A40001F93CF936B017C01742EAC019B010E941C
:100A5000EA27882399F086EC91E0CF911F910F91BE
:100A6000FF90EF90DF90CF90BF90AF909F908F90CE
:100A70007F906F905F904F900C94720446015701E5
:100A8000E894B7F82FEF3FEF4FE75FE7C501B401F8
:100A90000E94EA2781110DC02FEF3FEF4FE75FE77C
:100AA000C501B4010E943A2418161CF48AEC91E0A6
:100AB000D4CF2FEF3FEF4FE75FE4C701B6010E94AD
:100AC0008B2718161CF48EEC91E0C7CF2FEF3FEF69
:100AD0004FE75FECC701B6010E943A2487FDF3CFD0
:100AE00020E030E0A901C701B6010E943A2410E0DD
:100AF00000E087FF0AC06DE282EF95E00E94F001FE
:100B00008C01F7FAF094F7F8F094C0E060E070E040
:100B100080E09FE37C1641F020E030E040E251E4C9
:100B20000E945D26CF5FF6CFA70196010E94BD25EA
:100B30002B013C010E94D6264B015C014AE00E9439
:100B40007F047C01E00EF11ECC23C1F1C501B4018C
:100B50000E943F249B01AC01C301B2010E94BC254D
:100B60004B015C016EE282EF95E00E94F001E80E1D
:100B7000F91EC15018F120E030E040E251E4C50117
:100B8000B4010E94A0242B013C010E94D6264B01F7
:100B9000B12CA12C4AE0C501B4010E947F04E80EEB
:100BA000F91EC501B4010E943F249B01AC01C301A1
:100BB000B2010E94BC254B015C01DBCFC701CF9184
:100BC0001F910F91FF90EF90DF90CF90BF90AF906B
:100BD0009F908F907F906F905F904F90089542E02C
:100BE0000C941305CF93DF9342E00E941305EC01B0
:100BF00083EC91E00E9472048C0F9D1FDF91CF91D6
:100C000008950F931F93CF93DF9320918D0430911C
:100C10008E04232B09F478C0142FEC0101E000931B
:100C2000CE058093F0051092CF051092F1058FE864
:100C300096E00E94F20381E00E94F1000093CE054D
:100C40001092CF051092F1058091CD058111FCCF56
:100C5000912F81E08093CD058093CC052FEF2093D9
:100C6000CB051092CA05210F2093C9058093A805D2
:100C70008091A805CC0FDD1FC82BC093A8058091DB
:100C8000A7058130A1F51092A7058091A805809352
:100C9000BB008091BC0083FDF8CF85EC8093BC0045
:100CA0008091CD058130E1F38091CA05811710F460
:100CB0009091CA05A9EAB5E0EBE1F4E0C0E0C91300
:100CC00018C010928C04C0938B04D0E080918C04E7
:100CD000C81799F08FE896E00E94AB03ED2F0D2E18
:100CE000000CFF0BEF5EFB4F8083DF5FEFCF85EEE5
:100CF000D5CF8D918193CF5FE2CF81E0DF91CF910E
:100D00001F910F910C94F100DF91CF911F910F91E2
:100D100008950F931F93CF93DF9346E062E383E53B
:100D200090E00E9401068091110490911204919527
:100D300081959109092E000CAA0BBB0B8093DF044F
:100D40009093E004A093E104B093E2048091130433
:100D500090911404919581959109092E000CAA0B8C
:100D6000BB0B8093E3049093E404A093E504B09359
:100D7000E6048091150490911604092E000CAA0B2C
:100D8000BB0B8093E7049093E804A093E904B0932D
:100D9000EA0446E06DE188E690E00E940106609179
:100DA000110470911204762767277627072E000C0E
:100DB000880B990B0E9441246093050470930604EC
:100DC00080930704909308046091130470911404B5
:100DD000762767277627719561957109072E000C94
:100DE000880B990B0E9441246093090470930A04B4
:100DF00080930B0490930C04609115047091160479
:100E0000762767277627719561957109072E000C63
:100E1000880B990B0E94412460930D0470930E047B
:100E200080930F049093100446E063E08EE190E01D
:100E30000E940106C1E1D4E003ED14E068818981DC
:100E4000762F682F072E000C880B990B0E944124E7
:100E5000F80161937193819391938F012296F4E04D
:100E6000C731DF0759F7DF91CF911F910F91089597
:100E7000AF92BF92CF92DF92EF92FF920F931F93A8
:100E8000CF93DF9394E6E92EF12C0E948906C4E00B
:100E9000D5E085E0C82E84E0D82E8E01F80161915E
:100EA0007191819191918F01F6012191319141913F
:100EB00051916F015801F4E0AF1AB1080E94BD25AD
:100EC000F5016083718382839383F5E000311F070E
:100ED00029F781E0E81AF108C1F6699179918991C1
:100EE00099918E010450110920E030E048EC52E461
:100EF0000E945D26F8016083718382839383F5E00D
:100F0000C031DF0751F7DF91CF911F910F91FF9013
:100F1000EF90DF90CF90BF90AF900895CF93DF9385
:100F200041E060E088E690E00E940106C1E1D4E083
:100F300088818093B10441E060E083E590E00E9405
:100F4000010688818093B2044BE061E383E590E081
:100F50000E94240441E060E08EE190E00E940106DE
:100F600088818093B00448E166E188E690E00E94C1
:100F7000240440E06DE283E590E00E94240440E117
:100F80006DE283E590E00E94240448E06DE283E591
:100F900090E00E94240440E062E08EE190E00E9434
:100FA0002404DF91CF910C943807FC01808191815A
:100FB000009711F00C9404290895EF92FF920F937B
:100FC0001F93CF93DF93EC017B01198218821B8260
:100FD0001A821D821C82FB0101900020E9F73197E3
:100FE0008F01061B170BB8016F5F7F4F90E080E009
:100FF0000E948D290097B9F0998388831B830A8307
:101000002C813D81232B11F4FC0110821D830C8364
:10101000B70188819981DF91CF911F910F91FF9046
:10102000EF900C94532A88819981009711F00E94C7
:101030000429198218821D821C821B821A82DF9168
:10104000CF911F910F91FF90EF9008954F925F9273
:101050006F927F928F929F92AF92BF92CF92DF92C8
:10106000EF92FF92CF93DF93CDB7DEB764970FB6C1
:10107000F894DEBF0FBECDBF6091D7047091D80445
:101080008091D9049091DA0490582091B70430915E
:10109000B8044091B9045091BA040E94A0246B0195
:1010A0007C016091DB047091DC048091DD049091FF
:1010B000DE0490582091BB043091BC044091BD04E3
:1010C0005091BE040E94A0242B013C012091B30446
:1010D0003091B4044091B5045091B6046091D304AA
:1010E0007091D4048091D5049091D6040E94A024DC
:1010F0002091F8043091F9044091FA045091FB04D6
:101100000E94BC254B015C018092D3049092D404D0
:10111000A092D504B092D6042091FC043091FD0435
:101120004091FE045091FF04C701B6010E94BC2506
:101130006B017C01C092D704D092D804E092D9040C
:10114000F092DA04209100053091010540910205EA
:1011500050910305C301B2010E94BC256D877E87B3
:101160008F87988B6093DB047093DC048093DD049D
:101170009093DE0420E030E044EB52E460910D01F6
:1011800070910E0180910F01909110010E94BC2579
:1011900023E333E345E652E40E945D262B013C0144
:1011A0000E94582669837A838B839C83C301B20192
:1011B0000E9498276D837E838F83988720E030E09C
:1011C00044EB52E4609190047091910480919204F8
:1011D000909193040E94BC2523E333E345E652E457
:1011E0000E945D262B013C010E94982769877A871F
:1011F0008B879C87C301B2010E945826698B7A8B2A
:101200008B8B9C8B29853A854B855C85C501B40108
:101210000E94A0242D813E814F8158850E94A024E8
:101220002B013C0129893A894B895C896D857E8532
:101230008F8598890E94A0249B01AC01C301B20153
:101240000E94BD252B013C0129853A854B855C8593
:10125000C701B6010E94A02429813A814B815C819B
:101260000E94A0249B01AC01C301B2010E94BC25D5
:101270002B013C0129813A814B815C81C501B4017C
:101280000E94A0244B015C012D813E814F81588535
:10129000C701B6010E94A0249B01AC01C501B401A5
:1012A0000E94BD25A30192010E945D260E9429266D
:1012B00023E333E345E652E40E94A02420E030E03B
:1012C00044EB52E40E94BD256B017C0120E030E03C
:1012D000A901C301B2010E943A2487FD4FC0C09208
:1012E000A004D092A104E092A204F092A304209161
:1012F000A0043091A1044091A2045091A3046091F4
:1013000094047091950480919604909197040E94A2
:10131000BC256B017C0120E030E044E353E40E94F3
:101320008B271816E4F520E030E044EB53E4C701C6
:10133000B6010E94BC256B017C01F7FAF094F7F826
:10134000F094C092A004D092A104E092A204F09282
:10135000A30464960FB6F894DEBF0FBECDBFDF9135
:10136000CF91FF90EF90DF90CF90BF90AF909F9084
:101370008F907F906F905F904F90089520E030E0C5
:1013800044E353E4C701B6010E94BD256093A00465
:101390007093A1048093A2049093A304A8CF20E0AB
:1013A00030E044E353ECC701B6010E943A2487FFC2
:1013B000C4CF20E030E044EB53E4C701B6010E9403
:1013C000BD25B9CF4F925F926F927F928F929F927D
:1013D000AF92BF92CF92DF92EF92FF920F931F9343
:1013E000CF93DF938091F2049091F304092E000CC7
:1013F000AA0BBB0B4091DF045091E0046091E10423
:101400007091E204840F951FA61FB71F8093DF041D
:101410009093E004A093E104B093E2048091F4047B
:101420009091F504092E000CAA0BBB0B4091E3042C
:101430005091E4046091E5047091E604840F951FD7
:10144000A61FB71F8093E3049093E404A093E504E0
:10145000B093E6048091F6049091F704092E000CF5
:10146000AA0BBB0B4091E7045091E8046091E9049A
:101470007091EA04840F951FA61FB71F8093E7049D
:101480009093E804A093E904B093EA040FED14E00C
:10149000C9EFD3E07E01F801619171918191919141
:1014A0008F010E94412420E030E040E85BE30E948D
:1014B000A024F70161937193819391937F01F4E0EC
:1014C0000B3E1F0741F76091F9037091FA03809179
:1014D000FB039091FC038090FD039090FE03A0908D
:1014E000FF03B0900004C0900104D0900204E0908B
:1014F0000304F09004049B01AC010E94A0242B0182
:101500003C01A5019401C501B4010E94A0249B01E6
:10151000AC01C301B2010E94BD254B015C01A701D2
:101520009601C701B6010E94A0249B01AC01C50130
:10153000B4010E94BD250E94A6276B017C0126E60E
:1015400036E646EA5FE30E943A2487FF26C023E39B
:1015500033E343E35FE3C701B6010E948B2718160C
:10156000E4F404EA14E06991799189919991A701D1
:1015700096010E945D260E94AB2523E333E345E6F6
:1015800052E40E94A024F801619371938193919396
:101590008F01F4E0C530DF0731F7DF91CF911F9164
:1015A0000F91FF90EF90DF90CF90BF90AF909F9002
:1015B0008F907F906F905F904F9008954F925F92C1
:1015C0006F927F928F929F92AF92BF92CF92DF9253
:1015D000EF92FF92CF93DF93CDB7DEB76C970FB644
:1015E000F894DEBF0FBECDBF80919601813009F027
:1015F00048C0109296011092940410929504109293
:101600009604109297040E9489060E94E2090E94A3
:1016100026081092110110921201109213011092DB
:1016200014018091A4049091A504A091A604B09106
:10163000A7048093CF049093D004A093D104B093D7
:10164000D2048091A0049091A104A091A204B09131
:10165000A3048093940490939504A0939604B0936C
:1016600097048091A8049091A904A091AA04B09134
:10167000AB048093CB049093CC04A093CD04B0939F
:10168000CE04209104053091050540910605509146
:1016900007056091050470910604809107049091FC
:1016A00008040E94BC25698B7A8B8B8B9C8B809164
:1016B0000D0190910E01A0910F01B09110018D8349
:1016C0009E83AF83B88720E030E044EB52E4BC0156
:1016D000CD010E94BC2523E333E345E652E40E949A
:1016E0005D266B017C010E9458264B015C01209114
:1016F0000C0530910D0540910E0550910F0560913C
:101700000D0470910E0480910F04909110040E94BA
:10171000BC2569837A838B839C83C701B6010E94B1
:1017200098272B013C01C0907D01D0907E01E09074
:101730007F01F0908001A701960160E070E080E8F1
:101740009FE30E94BC256D8B7E8B8F8B988FA501AC
:10175000940169897A898B899C890E94A0244B0114
:101760005C01A301920169817A818B819C810E9435
:10177000A0249B01AC01C501B4010E94BD2520E05D
:1017800030E040ED54E40E945D26209190043091B9
:10179000910440919204509193040E94BD25A701A9
:1017A00096010E94A0244B015C012091A804309175
:1017B000A9044091AA045091AB046D897E898F8958
:1017C000988D0E94A0249B01AC01C501B4010E9428
:1017D000BD2569877A878B879C8760939004709377
:1017E0009104809392049093930420910805309182
:1017F000090540910A0550910B056091090470910B
:101800000A0480910B0490910C040E94BC25698FFE
:101810007A8F8B8F9C8F20E030E044EB52E4698517
:101820007A858B859C850E94BC2523E333E345E6BE
:1018300052E40E945D264B015C010E9458262B0158
:101840003C01C501B4010E9498276D877E878F8770
:10185000988BA3019201698D7A8D8B8D9C8D0E944E
:10186000A0244B015C012D853E854F8558896981F7
:101870007A818B819C810E94A0249B01AC01C501CF
:10188000B4010E94BC2520E030E040ED54E40E9409
:101890005D262D813E814F8158850E94BD25A7017F
:1018A00096010E94A0244B015C012091A404309178
:1018B000A5044091A6045091A7046D897E898F8963
:1018C000988D0E94A0249B01AC01C501B4010E9427
:1018D000BD256D837E838F83988760930D01709300
:1018E0000E0180930F019093100120E030E044EB53
:1018F00052E40E94BC2523E333E345E652E40E9410
:101900005D266B017C010E9458262B013C01C7011A
:10191000B6010E9498279B01AC01C0907901D0903C
:101920007A01E0907B01F0907C0169897A898B894A
:101930009C8990580E94A0244B015C01A301920154
:1019400069817A818B819C810E94A0249B01AC01DA
:10195000C501B4010E94BD254B015C012D853E856A
:101960004F855889698D7A8D8B8D9C8D0E94A0241E
:101970009B01AC01C501B4010E94BD2520E030E00F
:1019800040ED54E40E945D26209111013091120136
:1019900040911301509114010E94BD25A7019601A9
:1019A0000E94A0244B015C01A701960160E070E059
:1019B00080E89FE30E94BC252091A0043091A104FF
:1019C0004091A2045091A3040E94A0249B01AC0169
:1019D000C501B4010E94BD2569837A838B839C83F2
:1019E000609311017093120180931301909314017D
:1019F00080918F04882309F4EEC180908501909036
:101A00008601A0908701B0908801A501940160E053
:101A100070E080E89FE30E94BC252B013C012091EF
:101A2000090130910A0140910B0150910C010E9473
:101A3000A0246B017C01A50194016D817E818F81C1
:101A400098850E94A0249B01AC01C701B6010E94A9
:101A5000BD256B017C01C0921D01D0921E01E09258
:101A60001F01F0922001C0920901D0920A01E09278
:101A70000B01F0920C01209105013091060140917B
:101A8000070150910801C301B2010E94A0242B015B
:101A90003C01A501940169857A858B859C850E940E
:101AA000A0249B01AC01C301B2010E94BD254B01E2
:101AB0005C018092190190921A01A0921B01B092D0
:101AC0001C018092050190920601A0920701B0923C
:101AD00008014090810150908201609083017090D4
:101AE0008401A301920160E070E080E89FE30E941E
:101AF000BC252091010130910201409103015091D8
:101B000004010E94A02469877A878B879C87A301A0
:101B1000920169817A818B819C810E94A0249B0122
:101B2000AC0169857A858B859C850E94BD252B013A
:101B30003C0140921501509216016092170170927B
:101B400018014092010150920201609203017092CB
:101B5000040160916A01062E000C770B880B990B2B
:101B60000E944124A30192010E94A02420917101AE
:101B70003091720140917301509174010E94A02430
:101B80002B013C016091660170916701719561952F
:101B90007109072E000C880B990B0E944124A301A8
:101BA00092010E943A2487FF34C0609164017091D1
:101BB0006501072E000C880B990B0E944124A3019C
:101BC00092010E948B27181624F590915501E4E0AC
:101BD0009E9FD0011124AF5DBE4FBA83A98360914F
:101BE000680170916901072E000C880B990B0E9407
:101BF0004124A30192010E94BD250E94CF26072EF9
:101C0000000C880B990BE981FA81608371838283D0
:101C100093832091CF043091D0044091D10450910E
:101C2000D204C701B6010E94BC256B017C01609102
:101C30006C01062E000C770B880B990B0E94412437
:101C40009B01AC01C701B6010E94A024209175013F
:101C50003091760140917701509178010E94A02443
:101C60006B017C01609160017091610171956195DA
:101C70007109072E000C880B990B0E944124A701C3
:101C800096010E943A2487FF35C060915E017091F1
:101C90005F01072E000C880B990B0E944124A701BD
:101CA00096010E948B2718162CF5F0915601A4E09E
:101CB000FA9FC00111248F5D9E4F9A8389836091A2
:101CC000620170916301072E000C880B990B0E9432
:101CD0004124A70196010E94BD250E94CF26072E10
:101CE000000C880B990BA981BA816D937D938D931C
:101CF0009C9313972091CB043091CC044091CD0458
:101D00005091CE04C501B4010E94BC256B017C0139
:101D100060916B01062E000C770B880B990B0E94CB
:101D200041249B01AC01C701B6010E94A02420916F
:101D30006D0130916E0140916F01509170010E94D0
:101D4000A0246B017C0160915A0170915B01719537
:101D500061957109072E000C880B990B0E94412494
:101D6000A70196010E943A2487FF35C0609158016F
:101D700070915901072E000C880B990B0E94412489
:101D8000A70196010E948B2718162CF5B0915701D8
:101D900024E0B29FF0011124EF5DFE4FFA83E98346
:101DA00060915C0170915D01072E000C880B990B0E
:101DB0000E944124A70196010E94BD250E94CF26C2
:101DC000072E000C880B990BA981BA816D937D9326
:101DD0008D939C9313976C960FB6F894DEBF0FBE4D
:101DE000CDBFDF91CF91FF90EF90DF90CF90BF906C
:101DF000AF909F908F907F906F905F904F900895DD
:101E00000C9466250F931F93CF93DF93C2EFD4E01A
:101E1000088119810053184F602F8EEC90E00E94CA
:101E2000000F612F8FEC90E00E94000F0A811B8150
:101E30000053184F602F80ED90E00E94000F612F3B
:101E400081ED90E00E94000F0C811D810053184F1E
:101E5000602F82ED90E00E94000F612F83ED90E0F3
:101E60000E94000F82ED91E00E94C3048881998155
:101E70000E94FF0486EE91E00E94C3048A819B8148
:101E80000E94FF0486EE91E00E94C3048C819D8134
:101E9000DF91CF911F910F910C9405051F93CF9364
:101EA000DF93C8EFD4E020E030E04AEF54E46881EB
:101EB00079818A819B810E94BD250E94CF26172FA0
:101EC00088EC90E00E94000F612F89EC90E00E9466
:101ED000000F20E030E04AEF54E46C817D818E8178
:101EE0009F810E94BD250E94CF26172F8AEC90E08B
:101EF0000E94000F612F8BEC90E00E94000F20E009
:101F000030E04AEF54E4688579858A859B850E9494
:101F1000BD250E94CF26172F8CEC90E00E94000F69
:101F2000612F8DEC90E00E94000F88EE91E00E94FE
:101F3000C304688179818A819B810E94EF058CEFBF
:101F400091E00E94C3046C817D818E819F810E94FB
:101F5000EF058CEF91E00E94C304688579858A853E
:101F60009B85DF91CF911F910C94F2051F93CF9326
:101F7000DF9320E030E048EC52E4609185017091FD
:101F8000860180918701909188010E94A0240E947F
:101F9000D62681E090E00E94000F20E030E048EC7F
:101FA00052E460918101709182018091830190914E
:101FB00084010E94A0240E94D62682E090E00E9424
:101FC000000F20E030E048EC52E460917D01709118
:101FD0007E0180917F01909180010E94A0240E9447
:101FE000D62683E090E00E94000F20E030E048EC2D
:101FF00052E46091790170917A0180917B01909116
:102000007C010E94A0240E94D62684E090E00E94D9
:10201000000F6091160585E090E00E94000F60912E
:10202000680187E090E00E94000F6091690188E0FC
:1020300090E00E94000F20E030E040E251E4609127
:1020400075017091760180917701909178010E94DD
:10205000A0240E94D62689E090E00E94000F20E094
:1020600030E040E251E46091750170917601809119
:102070007701909178010E94A0240E94CF26672FBB
:102080008AE090E00E94000F20E030E040E251E45E
:10209000609171017091720180917301909174014E
:1020A0000E94A0240E94D6268BE090E00E94000FA0
:1020B00020E030E040E251E46091710170917201E2
:1020C00080917301909174010E94A0240E94CF26F8
:1020D000672F8CE090E00E94000F20E030E040E2AB
:1020E00051E460916D0170916E0180916F0190914A
:1020F00070010E94A0240E94D6268DE090E00E94EC
:10210000000F20E030E040E251E460916D017091F9
:102110006E0180916F01909170010E94A0240E9435
:10212000CF26672F8EE090E00E94000F6091620141
:1021300080E190E00E94000F6091630181E190E0F6
:102140000E94000F60915C0182E190E00E94000F0C
:1021500060915D0183E190E00E94000F6091640155
:1021600084E190E00E94000F6091650185E190E0BC
:102170000E94000F6091660186E190E00E94000FCE
:102180006091670187E190E00E94000F60915E011D
:1021900088E190E00E94000F60915F0189E190E08A
:1021A0000E94000F609160018AE190E00E94000FA0
:1021B000609161018BE190E00E94000F60915801F5
:1021C0008CE190E00E94000F609159018DE190E058
:1021D0000E94000F60915A018EE190E00E94000F72
:1021E00060915B018FE190E00E94000FC5E5D1E0B6
:1021F000688180E290E00E94000F698181E290E0B6
:102200000E94000F6A8182E290E00E94000FC4E009
:10221000D5E020E030E44AEF53E4688179818A8197
:102220009B810E94BD250E94CF26172F83E290E05C
:102230000E94000F612F84E290E00E94000F20E0D6
:1022400030E44AEF53E46C817D818E819F810E944E
:10225000BD250E94CF26172F85E290E00E94000F37
:10226000612F86E290E00E94000F20E030E44AEF08
:1022700053E4688579858A859B850E94BD250E94E7
:10228000CF26C72F87E290E00E94000F6C2F88E2D4
:1022900090E00E94000F6091A30589E290E00E9407
:1022A000000F6BE090E080E00E94000F8FEF91E064
:1022B000DF91CF911F910C94C5040C945E251F9261
:1022C0000F920FB60F9211242F933F934F935F936A
:1022D0006F937F938F939F93AF93BF93EF93FF93EE
:1022E00082EF95E00E94CE01FF91EF91BF91AF91F7
:1022F0009F918F917F916F915F914F913F912F911E
:102300000F900FBE0F901F9018951F920F920FB64F
:102310000F9211242F938F939F93EF93FF93E0914C
:102320000206F09103068081E0910806F09109060B
:1023300082FD1BC0908180910B068F5F8F7320916F
:102340000C06821741F0E0910B06F0E0EE50FA4FD8
:10235000958F80930B06FF91EF919F918F912F9115
:102360000F900FBE0F901F9018958081F4CF1F9291
:102370000F920FB60F9211242F933F938F939F9339
:10238000AF93BF9380917F0490918004A0918104CA
:10239000B091820430917E0423E0230F2D3758F54D
:1023A0000196A11DB11D20937E0480937F0490931C
:1023B0008004A0938104B09382048091830490915F
:1023C0008404A0918504B09186040196A11DB11DDD
:1023D0008093830490938404A0938504B09386042F
:1023E000BF91AF919F918F913F912F910F900FBE11
:1023F0000F901F90189526E8230F0296A11DB11D7E
:10240000D2CF1F920F920FB60F9211242F933F93AA
:102410004F935F936F937F938F939F93AF93BF93EC
:10242000EF93FF938091B900887F803609F44AC00A
:10243000F0F5883209F4A7C018F5803109F49BC083
:10244000B8F4882309F4F9C0883009F494C0FF91E6
:10245000EF91BF91AF919F918F917F916F915F911C
:102460004F913F912F910F900FBE0F901F90189595
:10247000883109F488C0803251F78093CB0514C0AD
:10248000803409F49DC040F48033B9F38833F9F601
:102490008093CB0585ECB0C0803509F485C08835C4
:1024A00009F496C0883499F60E946A03D0CF88391F
:1024B00009F48CC038F5883729F050F4883611F0CB
:1024C000803729F683E08093CD0510927D0457C0B4
:1024D000883809F47BC0803919F0803809F0B7CF0B
:1024E00080917D04803208F071C0E0917D0481E02C
:1024F0008E0F80937D048091BB00F0E0E35AFB4F88
:1025000080833DC0803B39F0E0F4803A09F479C023
:10251000883A09F09CCF84E08093CD0510925C044A
:1025200010925B04E0918904F0918A0409958091EE
:102530005B0481110FC081E080935B0410923B0427
:1025400009C0803C09F4A6CF883C09F4A3CF883B9E
:1025500009F07DCFE0915C0481E08E0F80935C04F4
:10256000F0E0E55CFB4F80818093BB0090915C04C0
:1025700080915B0429C08091A8058093BB0085EC05
:102580008093BC0064CF9091CA058091C9059817CB
:1025900058F5E091CA0581E08E0F8093CA05F0E0FE
:1025A000E755FA4F8081E9CFE091CA0581E08E0FAF
:1025B0008093CA058091BB00F0E0E755FA4F808315
:1025C0009091CA058091C9059817C8F285E8D8CFBF
:1025D000E091CA0581E08E0F8093CA058091BB000F
:1025E000F0E0E755FA4F80838091CC0581115CCFF4
:1025F00081E08093A70584EA8093BC001092CD050A
:1026000026CF85EC8093BC001092CD0580917D048F
:10261000803230F4E0917D04F0E0E35AFB4F108209
:1026200060917D0470E0E0918704F09188048DE56D
:1026300094E0099510927D040ACF1092CB0534CF17
:102640001F920F920FB60F9211242F933F934F9327
:102650005F938F939F93AF93BF93EF93FF9380917B
:102660006F008F7D80936F00809181008091810049
:1026700090E4892780938100809186009091870063
:102680002091F5033091F603AC018217930750F5C2
:1026900048535045421B530B5093F8034093F703A4
:1026A0009093F6038093F5032091F7033091F8039C
:1026B0002D3755E13507E8F01092F40380916F0053
:1026C000806280936F00FF91EF91BF91AF919F91D6
:1026D0008F915F914F913F912F910F900FBE0F906F
:1026E0001F901895421B530B5093F8034093F70328
:1026F000D7CFE091F403E4319CF5293E83E038071D
:10270000E8F2203A4FE0340778F58E2F0E2E000CB9
:10271000990B0196409155014817190679F240919D
:1027200056014817190651F24091570148171906EA
:1027300029F2EF5FE093F4030E2E000CFF0BE75736
:10274000FE4FE08154E0E59FF0011124EF5DFE4F64
:10275000C901B0E0A0E080839183A283B383AECFB0
:10276000293E334008F4AACFEF5FE093F403A6CFED
:102770001F920F920FB60F9211242F933F934F93F6
:102780005F936F937F938F939F93AF93BF93EF93D9
:10279000FF9381E08093F10480919C058F5F80938B
:1027A0009C058091A5058F5F8093A50580919E056E
:1027B0008F5F80939E058091A005882339F08091DA
:1027C0009F058F5F80319CF480939F05FF91EF916F
:1027D000BF91AF919F918F917F916F915F914F9139
:1027E0003F912F910F900FBE0F901F901895109250
:1027F0009F058DE00E948B0261E0892B09F060E06B
:102800008DE00E94B402E2CF1F920F920FB60F929A
:1028100011242F933F934F935F936F937F938F93E5
:102820009F93AF93BF93EF93FF9380918800909114
:102830008900883C9F4A91F480EC8093800081E07D
:102840008093000184E893E090938900809388004E
:1028500080918100877F8093810022C08091000158
:10286000813019F480E4809380004091000141316F
:10287000D0F5E42FF0E0CF01019762E070E00E9414
:1028800018280197F1F480918800909189008C5765
:102890009C4F90938900809388004F5F4093000184
:1028A000FF91EF91BF91AF919F918F917F916F9128
:1028B0005F914F913F912F910F900FBE0F901F90FE
:1028C000189580918800909189003196F595E7954B
:1028D000EE0FFF1FEE0FFF1FEF5DFE4F20813181D6
:1028E000820F931FD6CF88EC9FEA90938900809344
:1028F0008800809181008860AECF1F920F920FB642
:102900000F9211242F933F934F935F936F937F9375
:102910008F939F93AF93BF93EF93FF9388EE93E0D2
:102920000E94C304FF91EF91BF91AF919F918F914E
:102930007F916F915F914F913F912F910F900FBEBB
:102940000F901F901895E2EFF5E01382128288EE47
:1029500093E0A0E0B0E084839583A683B78323EA65
:1029600031E03183208325EC30E03587248724EC67
:1029700030E03787268720EC30E0318B208B21EC4C
:1029800030E0338B228B22EC30E0358B248B26EC2D
:1029900030E0378B268B118E128E138E148EEFE85B
:1029A000F6E01382128284839583A683B78385EB36
:1029B00091E0918380830895CF93DF93CDB7DEB705
:1029C000CA54D1090FB6F894DEBF0FBECDBF7894BC
:1029D00084B5826084BD84B5816084BD85B5826024
:1029E00085BD85B5816085BD80916E0081608093D5
:1029F0006E0010928100809181008260809381003E
:102A0000809181008160809381008091800081604D
:102A1000809380008091B10084608093B1008091A8
:102A2000B00081608093B00080917A0084608093D0
:102A30007A0080917A00826080937A0080917A0097
:102A4000816080937A0080917A00806880937A0018
:102A50001092C10061E089E00E94E20261E082E040
:102A60000E94B40261E083E00E94B40260E080E072
:102A70000E94E20260E081E00E94E20260E082E007
:102A80000E94E20260E083E00E94E20260E086E0F1
:102A90000E94E20260E087E00E94E20260E088E0DB
:102AA0000E94E20261E08CE00E94E20261E08CE0C0
:102AB0000E94B40260E08BE00E94E20261E08BE0E1
:102AC0000E94B40260E080E00E94B40260E081E015
:102AD0000E94B40261E082E00E94B40261E083E0FF
:102AE0000E94B40261E08DE00E94E20261E08DE0AC
:102AF0000E94B4028BE00E948B02892B81F4109219
:102B0000A2051092A1058BE00E948B02892B69F42B
:102B100064E670E080E090E00E943803F4CF81E04A
:102B200090E09093A2058093A10568EC70E080E0AE
:102B300090E00E94380360E08DE00E94B4021092A1
:102B40008C0410928B041092CF051092F105109214
:102B5000CD0511E01093CC051092A70561E082E14C
:102B60000E94B40261E083E10E94B4028091B90046
:102B70008E7F8093B9008091B9008D7F8093B900DA
:102B800088E48093B80085E48093BC008EE491E0F3
:102B900090938A04809389048FE491E09093880451
:102BA000809387041093CE0583E58093F0051092FF
:102BB000CF051092F10581E00E94F100811106C05D
:102BC00081E090E090938E0480938D0490E080E00B
:102BD0000E945D118B3058F46091A30589E290E06A
:102BE0000E94000F6BE090E080E00E94000F90E0F8
:102BF00080E00E945D118B3071F080918D04909186
:102C00008E04892B11F00E948E070E94B60F0E943D
:102C10004E0F0E94020F81E090E00E945D11682F2C
:102C200070E090E080E00E943F2420E030E048EC3B
:102C300052E40E945D266093850170938601809323
:102C400087019093880182E090E00E945D11682FD7
:102C500070E090E080E00E943F2420E030E048EC0B
:102C600052E40E945D2660938101709382018093FB
:102C700083019093840183E090E00E945D11682FAE
:102C800070E090E080E00E943F2420E030E048ECDB
:102C900052E40E945D2660937D0170937E018093D3
:102CA0007F019093800184E090E00E945D11682F85
:102CB00070E090E080E00E943F2420E030E048ECAB
:102CC00052E40E945D266093790170937A018093AB
:102CD0007B0190937C0181E080936C0180936B0178
:102CE00080936A0185E090E00E945D1180FF03C03F
:102CF0009FEF90936C0181FF03C09FEF90936B0156
:102D000082FF03C08FEF80936A0187E090E00E940A
:102D10005D11182F88E090E00E945D1190E0982FDF
:102D20008827810F911D909369018093680189E044
:102D300090E00E945D11182F8AE090E00E945D11E2
:102D4000682F70E0762F6627610F711D072E000C2B
:102D5000880B990B0E94412420E030E040E251E4CE
:102D60000E945D26609375017093760180937701D0
:102D7000909378018BE090E00E945D11182F8CE019
:102D800090E00E945D11682F70E0762F6627610F3A
:102D9000711D072E000C880B990B0E94412420E026
:102DA00030E040E251E40E945D266093710170932F
:102DB000720180937301909374018DE090E00E9402
:102DC0005D11182F8EE090E00E945D11682F70E079
:102DD000762F6627610F711D072E000C880B990B4B
:102DE0000E94412420E030E040E251E40E945D2650
:102DF00060936D0170936E0180936F0190937001E9
:102E000080E190E00E945D11182F81E190E00E9426
:102E10005D1190E0982F8827810F911D9093630199
:102E20008093620182E190E00E945D11182F83E19E
:102E300090E00E945D1190E0982F8827810F911DEE
:102E400090935D0180935C0184E190E00E945D11AC
:102E5000182F85E190E00E945D1190E0982F88275F
:102E6000810F911D909365018093640186E190E04C
:102E70000E945D11182F87E190E00E945D1190E0A3
:102E8000982F8827810F911D909367018093660189
:102E900088E190E00E945D11182F89E190E00E9486
:102EA0005D1190E0982F8827810F911D90935F010D
:102EB00080935E018AE190E00E945D11182F8BE102
:102EC00090E00E945D1190E0982F8827810F911D5E
:102ED00090936101809360018CE190E00E945D110C
:102EE000182F8DE190E00E945D1190E0982F8827C7
:102EF000810F911D90935901809358018EE190E0CC
:102F00000E945D11182F8FE190E00E945D1190E00A
:102F1000982F8827810F911D90935B0180935A0110
:102F200080E290E00E945D118093550181E290E083
:102F30000E945D118093560182E290E00E945D1133
:102F40008093570183E290E00E945D11182F84E284
:102F500090E00E945D11682F70E0762F6627610F68
:102F6000711D645F7140072E000C880B990B0E9445
:102F700041246093040570930505809306059093A2
:102F8000070585E290E00E945D11182F86E290E02F
:102F90000E945D11682F70E0762F6627610F711D0A
:102FA000645F7140072E000C880B990B0E9441242E
:102FB000609308057093090580930A0590930B05AB
:102FC00087E290E00E945D11182F88E290E00E9455
:102FD0005D11682F70E0762F6627610F711D645FA9
:102FE0007140072E000C880B990B0E9441246093BE
:102FF0000C0570930D0580930E0590930F0588ECDA
:1030000090E00E945D11182F89EC90E00E945D1104
:10301000682F70E0762F6627610F711D605D774025
:10302000072E000C880B990B0E9441246093F80432
:103030007093F9048093FA049093FB048AEC90E077
:103040000E945D11182F8BEC90E00E945D11682F9B
:1030500070E0762F6627610F711D605D7740072E47
:10306000000C880B990B0E9441246093FC04709320
:10307000FD048093FE049093FF048CEC90E00E948A
:103080005D11182F8DEC90E00E945D11682F70E0AB
:10309000762F6627610F711D605D7740072E000C4B
:1030A000880B990B0E9441246093000570930105E1
:1030B00080930205909303058EEC90E00E945D11D1
:1030C000182F8FEC90E00E945D1190E0982F8827D8
:1030D000810F911D805D97409093F3048093F204DB
:1030E00080ED90E00E945D11182F81ED90E00E942C
:1030F0005D1190E0982F8827810F911D805D97408A
:103100009093F5048093F40482ED90E00E945D11A9
:10311000182F83ED90E00E945D1190E0982F882792
:10312000810F911D805D97409093F7048093F60482
:1031300089E290E00E945D11182F8093A3058823F7
:1031400039F08091A1059091A205892B09F05AC20E
:103150000E94C600113089F080E4809380008AECE0
:10316000809381001092820082E080936F0084E857
:1031700093E0909389008093880082E084BD95E07D
:1031800095BD80936E0080E887BD8091A305823055
:1031900009F46AC180918D0490918E04892B11F0FD
:1031A0000E948E0741E160E08EE190E00E942404DD
:1031B00018E20E9489061150E1F76091D3047091E2
:1031C000D4048091D5049091D6040E94CF262B017F
:1031D0007093C0046093BF046091D7047091D804C9
:1031E0008091D9049091DA040E94CF2623966CAF87
:1031F0007DAF8EAF9FAF239721968EAD9FAD219768
:103200009093C2048093C1046091DB047091DC044C
:103210008091DD049091DE040E94CF2627966CAF4A
:103220007DAF8EAF9FAF27972596EEADFFAD25976B
:10323000F093C404E093C30442E160E08EE190E0C7
:103240000E94240418E20E9489061150E1F760915F
:10325000D3047091D4048091D5049091D6040E9437
:10326000CF264B017093C6046093C5046091D704C8
:103270007091D8048091D9049091DA040E94CF26ED
:103280006B017093C8046093C7046091DB04709174
:10329000DC048091DD049091DE040E94CF262B9601
:1032A0006CAF7DAF8EAF9FAF2B9729968EAD9FAD44
:1032B00029979093CA048093C90440E160E08EE1AD
:1032C00090E00E94240484189508B401990C880B9E
:1032D000990B0E9441249B01AC0160E070E48CE1F9
:1032E00095EC0E945D266093B3047093B4048093C0
:1032F000B5049093B6042196EEADFFAD2197CE1A9A
:10330000DF0AB601DD0C880B990B0E9441249B015A
:10331000AC0160E070E48CE195EC0E945D26609366
:10332000B7047093B8048093B9049093BA042996B3
:103330006EAD7FAD299725968EAD9FAD2597681B05
:10334000790B072E000C880B990B0E9441249B01DE
:10335000AC0160E070E48CE195EC0E945D26609326
:10336000BB047093BC048093BD049093BE0418E228
:103370000E9489061150E1F7109296011AEF0E94FF
:1033800089060E94E2090E9426080E94DE0A115066
:10339000B1F78091A4049091A504A091A604B091E6
:1033A000A7048093CF049093D004A093D104B0934A
:1033B000D2048091A0049091A104A091A204B091A4
:1033C000A3048093940490939504A0939604B093DF
:1033D00097048091A8049091A904A091AA04B091A7
:1033E000AB048093CB049093CC04A093CD04B09312
:1033F000CE040E9489060E94E2090E9426080E94CB
:10340000DE0A8091A0049091A104A091A204B09141
:10341000A3048093110190931201A0931301B09320
:1034200014018091A4049091A504A091A604B091E8
:10343000A70480930D0190930E01A0930F01B09308
:1034400010018091A8049091A904A091AA04B091C0
:10345000AB048093900490939104A0939204B09352
:10346000930481E080938F0482E084BD95E095BD54
:1034700080936E0080E887BD9AE0E92E8E010F5F91
:103480001F4FFF24F394BCE28B2E99249A9480E082
:10349000A82E80E0B82E8BE00E948B02DD24D3940E
:1034A000009709F0D12C2091A605D2121092A50503
:1034B0002091A505243068F12091A405D21649F188
:1034C0002091A305D092A405892B09F0A5C0223034
:1034D00009F09FC08091A1059091A205019709F084
:1034E00098C08EE590E00E943D021092A0051092D7
:1034F0009F0510929801F092970110929E051092EC
:103500009D0510929C0510929B0561E08DE00E9444
:10351000B402C090A40591E0C91226C080919B0519
:10352000811122C080919C058E35F0F08091A30519
:10353000823009F077C08091A1059091A205019792
:1035400009F070C08AE290E00E943D021092A0054E
:1035500010929F0510929701C092980110929E05BB
:1035600010929D05F0929B05D092A605D090A305E0
:10357000E2E0DE1234C08091A1059091A20501978E
:1035800071F580919801811113C080919E058D3055
:1035900078F080919D0583305CF48F5F80939D056A
:1035A000F092A00510929E058EE590E00E943D02EB
:1035B00080919701811113C080919E058D3078F024
:1035C00080919D0583305CF48F5F80939D05F09220
:1035D000A00510929E058AE290E00E943D0282EFD3
:1035E00095E00E94AE01892BB9F182EF95E00E942F
:1035F0008C01843209F5F092990510929805109289
:1036000097052AC00E94C60060E08CE00E94B402C8
:10361000A1CDF092960175CF8091A0058111A4CF24
:1036200060E074CF81E090919A05911180E08093E1
:103630009A05F092960196CF8E3509F097C01092B8
:1036400099051092980510929705F0929601F2E074
:10365000DF127DC0F09298018091F104813009F071
:103660006AC080919A05811166C0D090A30582E05E
:10367000D81609F460C00E9489060E94E2090E94DF
:1036800026080E94DE0A91E0D91279C78091A1052F
:103690009091A205019709F072C7E091550184E06D
:1036A000E89FF0011124EF5DFE4FC080D180809132
:1036B000EF049091F0048C199D0997FF03C0919538
:1036C0008195910906977CF085E290E00E943D0289
:1036D000C6010E94FF0480E590E00E943D02D09266
:1036E000F004C092EF04E091560194E0E99FF001EC
:1036F0001124EF5DFE4FC080D1808091ED04909148
:10370000EE048C199D0997FF03C09195819591094D
:1037100006977CF085E290E00E943D02C6010E947F
:10372000FF0484E590E00E943D02D092EE04C09236
:10373000ED041092F104A114B10409F4ACCE0E947E
:10374000BA01882309F49DCE0E9400009ACE81E040
:10375000D81282CF8091A1059091A205019709F01E
:103760007BCF8EE590E00E943D0276CF8A3211F544
:1037700010929905109298051092970581E090910A
:103780009A05911180E080939A05F092960192E05B
:10379000D91203C0F09297015FCFE1E0DE125CCF57
:1037A0008091A1059091A205019709F055CF8AE279
:1037B00090E0D9CF853241F4F2E0DF1205C01092DB
:1037C0009905F09298051BCF90919905913009F0D9
:1037D0007CC6E0919705DD24D394DE0ED092970548
:1037E000F0E0E95EFA4F80838EE0D8121CC0809131
:1037F00023058334C1F4809124058834A1F4A7E122
:10380000B5E080E0ED918F5FEE3334F40E2E000CC6
:10381000FF0BE75AFE4F80838D30A1F78EE092E0D8
:103820000E94C504D2C267E272E0C8010E94DD07AF
:10383000C8010E944404C82EC8010E94D507CC20AC
:1038400009F431C18091A1059091A205892B21F441
:103850008AE292E00E94C504F801882D11928A95AF
:10386000E9F7209197052250330BD12C50E040E02E
:103870008D2D90E0821793071CF5895E9A4FFC010D
:1038800080818C3221F44F5F5F4FD394F1CF90ED64
:10389000980F9A30D0F7FA01EE0FFF1FE00FF11FDB
:1038A000A081B181EA9EB001EB9E700D1124082E1B
:1038B000000C990BC097860F971F91838083E5CFEB
:1038C00069817A81072E000C880B990B0E94412494
:1038D00020E030E048EC52E40E945D2660938501D0
:1038E0007093860180938701909388016B817C811E
:1038F000072E000C880B990B0E94412420E030E039
:1039000048EC52E40E945D2660938101709382012D
:1039100080938301909384016D817E81072E000C3A
:10392000880B990B0E94412420E030E048EC52E4DF
:103930000E945D2660937D0170937E0180937F01DC
:10394000909380016F817885072E000C880B990B6E
:103950000E94412420E030E048EC52E40E945D26C1
:103960006093790170937A0180937B0190937C013D
:1039700069857A85072E000C880B990B0E944124DB
:1039800020E030E040E251E40E945D266093750142
:103990007093760180937701909378016B857C8595
:1039A000072E000C880B990B0E94412420E030E088
:1039B00040E251E40E945D266093710170937201B0
:1039C00080937301909374016D857E85072E000CA2
:1039D000880B990B0E94412420E030E040E251E442
:1039E0000E945D2660936D0170936E0180936F015C
:1039F000909370018F8580931605F0926C01F09280
:103A00006B0182FD4DC0F0926A0181FD90926B01C5
:103A100080FD90926C0189899A89909369018093C5
:103A200068018B899C8990936701809366018D89D9
:103A30009E8990936501809364018F89988D9093FE
:103A4000630180936201898D9A8D909361018093C7
:103A500060018B8D9C8D90935F0180935E018D8DB5
:103A60009E8D90935D0180935C018F8D98A19093C2
:103A70005B0180935A0189A19AA190935901809387
:103A800058018BA1809355018DA1809356018FA180
:103A90008093570189A58093A3050E94B60F95C115
:103AA00090926A01B2CF6EE372E0C8010E94DD0716
:103AB000C8010E944404C82EC8010E94D507CC202A
:103AC00009F488C183EC91E00E94720484E492E0DE
:103AD0000E94C5048CE592E00E94C3046FE175E882
:103AE0008BE89FE30E94F20589E692E00E94C304FE
:103AF00082E792E00E94C5048AE792E00E94C30434
:103B00006091A30570E090E080E04AE00E947F04AD
:103B100083EC91E00E94720484E892E00E94C30466
:103B20006091850170918601809187019091880153
:103B30000E94F20583E992E00E94C3046091810132
:103B40007091820180918301909184010E94F2051D
:103B50008DE992E00E94C30460917D0170917E0125
:103B600080917F01909180010E94F20582EB92E0AA
:103B70000E94C3046091790170917A0180917B0168
:103B800090917C010E94F20582EC92E00E94C304B5
:103B900080916801909169010E94050583ED92E092
:103BA0000E94C30480916201909163010E94050507
:103BB00085EE92E00E94C30480915C0190915D01CA
:103BC0000E94050587EF92E00E94C3046091750191
:103BD0007091760180917701909178010E94F205B1
:103BE00084E093E00E94C3046091710170917201BE
:103BF00080917301909174010E94F20580E193E03D
:103C00000E94C3046091040570910505809106052A
:103C1000909107050E94EF0586EE91E00E94C30493
:103C2000609108057091090580910A0590910B0536
:103C30000E94EF0586EE91E00E94C30460910C059E
:103C400070910D0580910E0590910F050E94F2056F
:103C50008FEE91E00E94C3046091F8047091F90422
:103C60008091FA049091FB040E94EF0586EE91E0AA
:103C70000E94C3046091FC047091FD048091FE04D5
:103C80009091FF040E94EF0586EE91E00E94C3042C
:103C900060910005709101058091020590910305E6
:103CA0000E94F20589ED91E00E94C3048091F20424
:103CB0009091F3040E94FF0486EE91E00E94C304F9
:103CC0008091F4049091F5040E94FF0486EE91E047
:103CD0000E94C3048091F6049091F7040E940505A8
:103CE0008EE193E00E94C3048091C5049091C604C4
:103CF0002091BF043091C004821B930B0E94FF04EB
:103D000086EE91E00E94C3048091C7049091C8049C
:103D10002091C1043091C204821B930B0E94FF04C6
:103D200086EE91E00E94C3048091C9049091CA0478
:103D30002091C3043091C404821B930B0E94FF04A2
:103D400086EE91E00E94C3046091B3047091B404C4
:103D50008091B5049091B6040E94EF0586EE91E043
:103D60000E94C3046091B7047091B8048091B904B3
:103D70009091BA040E94EF0586EE91E00E94C30480
:103D80006091BB047091BC048091BD049091BE040D
:103D90000E94F20587E293E00E94C3048091B2047E
:103DA00090E00E94050584E393E00E94C3048091A3
:103DB000B10490E00E94050581E493E00E94C304F1
:103DC0008091B00490E00E94050510929705109232
:103DD000990542CC6AE473E0C8010E94DD07C8017E
:103DE0000E944404C82EC8010E94D507CC20F1F0DF
:103DF0008FE493E00E94C3046FE175E88BE89FE3D2
:103E00000E94F20510929705109299058091A105E4
:103E10009091A205019709F01FCC1092A205109273
:103E2000A10561E08CE00E94B40216CC64E573E069
:103E3000C8010E94DD07C8010E944404C82EC801C1
:103E40000E94D507CC2039F089E593E00E94C30495
:103E500082E792E0E5CC6EE573E0C8010E94DD07E1
:103E6000C8010E944404C82E811131C063E673E08A
:103E7000CE018D960E94DD07CE018D960E944404EE
:103E8000C82E811120C068E673E0CE01C3960E945F
:103E9000DD07CE01C3960E944404C82E81110FC0D5
:103EA0006DE673E0CE01C9960E94DD07CE01C9968A
:103EB0000E944404C82ECE01C9960E94D507CE01A7
:103EC000C3960E94D507CE018D960E94D507C801E2
:103ED0000E94D507CC2049F01092150510921405C8
:103EE000109213051092120516C062E773E0C80124
:103EF0000E94DD07C8010E944404C82EC8010E9428
:103F0000D507CC2069F0F092150510921405109297
:103F1000120510921305109211051092100555CF3D
:103F200067E773E0C8010E94DD07C8010E944404EE
:103F3000C82EC8010E94D507CC2029F0F0921405A4
:103F400010921505E4CF6CE773E0C8010E94DD070D
:103F5000C8010E944404C82EC8010E94D507CC2085
:103F600039F0F09212051092150510921405D1CF78
:103F700061E873E0C8010E94DD07C8010E944404A3
:103F8000C82EC8010E94D507CC2039F0F092130545
:103F90001092150510921405A5CF66E873E0C801CC
:103FA0000E94DD07C8010E944404C82EC8010E9477
:103FB000D507CC2069F010921505109214051092C7
:103FC0001205F09211051092100510921305FDCE06
:103FD0006BE873E0C8010E94DD07C8010E94440439
:103FE000C82EC8010E94D507CC2059F010921505A3
:103FF000109214051092120510921105F0921005FE
:10400000E4CF61E973E0C8010E94DD07C8010E94A6
:104010004404C82EC8010E94D507C1103ECD66E9F0
:1040200073E0C8010E94DD07C8010E944404C82E45
:10403000C8010E94D507CC2079F10E9438070E9460
:10404000B60F8BE993E00E94C30460910405709160
:10405000050580910605909107050E94EF0586EE03
:1040600091E00E94C3046091080570910905809158
:104070000A0590910B050E94EF0586EE91E00E94E3
:10408000C30460910C0570910D0580910E0590910F
:104090000F050E94F20599CE61EB73E0C8010E9402
:1040A000DD07C8010E944404C82EC8010E94D5073C
:1040B000CC2009F46DC0F8018E2D11928A95E9F794
:1040C000C12C30E020E0ED2DE350FF0BAF018C2D33
:1040D00090E084179507FCF4895E9A4FFC0180817B
:1040E0008C3221F42F5F3F4FC394F1CFF901EE0FD3
:1040F000FF1FE00FF11FA081B181EA9EB001EB9E8E
:10410000700D1124082E000C990BC097860F971F75
:1041100091838083E9CF69817A81605D7740072E42
:10412000000C880B990B0E9441246093F804709353
:10413000F9048093FA049093FB046D817E81605DA5
:104140007740072E000C880B990B0E944124609346
:10415000FC047093FD048093FE049093FF046B8134
:104160007C81605D7740072E000C880B990B0E94C4
:10417000412460930005709301058093020590939C
:10418000030510929705109299050E944E0F64CA7C
:1041900065EB73E0C8010E94DD07C8010E9444047A
:1041A000C82EC8010E94D507CC2009F44FC0F801E1
:1041B0008E2D11928A95E9F7C12C30E020E0ED2D8B
:1041C000E350FF0BAF018C2D90E084179507FCF4B2
:1041D000895E9A4FFC0180818C3221F42F5F3F4F22
:1041E000C394F1CFF901EE0FFF1FE00FF11FA08183
:1041F000B181EA9EB001EB9E700D1124082E000CD7
:10420000990BC097860F971F91838083E9CF89818F
:104210009A81805D97409093F3048093F2048B81A0
:104220009C81805D97409093F5048093F4048D8188
:104230009E81805D97409093F7048093F6041092DE
:104240009705109299050E94020F06CA69EB73E068
:10425000C8010E94DD07C8010E944404C82EC8019D
:104260000E94D507CC2009F429C18EEB93E00E946F
:10427000C30420E030E048EC52E460918501709185
:10428000860180918701909188010E94A0240E945C
:10429000EF0586EE91E00E94C30420E030E048EC98
:1042A00052E460918101709182018091830190912B
:1042B00084010E94A0240E94EF0586EE91E00E94F6
:1042C000C30420E030E048EC52E460917D0170913D
:1042D0007E0180917F01909180010E94A0240E9424
:1042E000EF0586EE91E00E94C30420E030E048EC48
:1042F00052E46091790170917A0180917B019091F3
:104300007C010E94A0240E94EF0586EE91E00E94AD
:10431000C30420E030E040E251E460917501709107
:10432000760180917701909178010E94A0240E94EB
:10433000EF0586EE91E00E94C30420E030E040E209
:1043400051E46091710170917201809173019091BB
:1043500074010E94A0240E94EF0586EE91E00E9465
:10436000C30420E030E040E251E460916D017091BF
:104370006E0180916F01909170010E94A0240E94B3
:10438000EF0586EE91E00E94C3046091160570E08F
:1043900090E080E04AE00E947F0486EE91E00E9477
:1043A000C30480916801909169010E94FF0486EE28
:1043B00091E00E94C30480916601909167010E9480
:1043C000FF0486EE91E00E94C30480916401909105
:1043D00065010E94FF0486EE91E00E94C304809173
:1043E0006201909163010E94FF0486EE91E00E94B9
:1043F000C30480916001909161010E94FF0486EEE8
:1044000091E00E94C30480915E0190915F010E943F
:10441000FF0486EE91E00E94C30480915C019091BC
:104420005D010E94FF0486EE91E00E94C30480912A
:104430005A0190915B010E94FF0486EE91E00E9478
:10444000C30480915801909159010E94FF0486EEA7
:1044500091E00E94C3046091550170E090E080E01B
:104460004AE00E947F0486EE91E00E94C3046091BE
:10447000560170E090E080E04AE00E947F0486EE02
:1044800091E00E94C3046091570170E090E080E0E9
:104490004AE00E947F0486EE91E00E94C30460918E
:1044A000A30570E090E080E04AE00E947F0483EC86
:1044B00091E00E94720484EC93E0B2C9F8E7FD1524
:1044C00008F0CAC887ED93E0ABC990919805913088
:1044D00009F0C2C8843569F5E0919705E33020F111
:1044E000F0E0E95EFA4FE08267E175E0C8010E9402
:1044F000DD07C0905601D12C89819A81009719F06F
:104500000E94FE2303C060E070E0CB01F601EE0FD5
:10451000FF1FEE0FFF1FEF5DFE4F608371838283ED
:104520009383C8010E94D5071092970510929805B1
:1045300093C8803581F4E0919705E330A8F3F0E06B
:10454000E95EFA4FE08267E175E0C8010E94DD078D
:10455000C0905501D0CF282F082E000C330B2053CC
:1045600031092A30310500F7E091970591E09E0F5F
:1045700090939705F0E0E95EFA4F80836DC88091D3
:10458000EB049091EC049C012F5F3F4F3093EC04BF
:104590002093EB040A970CF4CCC88091130581306A
:1045A00009F051C02091CF043091D0044091D10442
:1045B0005091D20460911D0170911E0180911F01E4
:1045C000909120010E94BC2520E030E044EB52E4B1
:1045D0000E94BD250E94EF0586EE91E00E94C30473
:1045E0002091CB043091CC044091CD045091CE0465
:1045F0006091190170911A0180911B0190911C0129
:104600000E94BC2520E030E044EB52E40E94BD252E
:104610000E94EF0586EE91E00E94C30420E030E0A6
:1046200044E353E4609115017091160180911701E4
:10463000909118010E94BD250E94F2051092EC0491
:104640001092EB0476C880911505813009F056C0B0
:104650006091D3047091D4048091D5049091D604D4
:104660000E94CF26CB018854944F0E94FF0486EE0F
:1046700091E00E94C3046091D7047091D8048091A6
:10468000D9049091DA040E94CF26CB018854944F2C
:104690000E94FF0486EE91E00E94C3046091DB0457
:1046A0007091DC048091DD049091DE040E94CF269D
:1046B000CB018854944F0E94FF0486EE91E00E9443
:1046C000C3048091DF049091E0048854944F0E94C9
:1046D000FF0486EE91E00E94C3048091E304909170
:1046E000E4048854944F0E94FF0486EE91E00E94F7
:1046F000C3048091E7049091E80435C080911405CB
:104700008130B1F56091D3047091D4048091D504C7
:104710009091D6040E94CF26CB018854944F0E94DA
:10472000FF0486EE91E00E94C3046091D70470916B
:10473000D8048091D9049091DA040E94CF26CB014D
:104740008854944F0E94FF0486EE91E00E94C304B7
:104750006091DB047091DC048091DD049091DE04B3
:104760000E94CF26CB018854944F0E94050566CF46
:1047700080911205813009F4A4CF80911105813018
:1047800009F45CCF80911005813009F057CFE0919A
:10479000560184E0E89FF0011124EF5DFE4F608137
:1047A0007181828193810E94D30486EE91E00E9400
:1047B000C304E091570194E0E99FF0011124EF5DFB
:1047C000FE4F60817181828193810E94D30486EEC5
:1047D00091E00E94C304E091550184E0E89FF0015C
:1047E0001124EF5DFE4F60817181828193810E946F
:1047F000D30483EC91E00E94720420CF1F93FC014C
:1048000099278827BC01E89411911032E9F31930F7
:1048100010F01E30C8F31B3251F01D3249F4689479
:1048200006C00E942524610F711D811D911D1191EB
:1048300010531A30B0F33EF49095809570956195C1
:104840007F4F8F4F9F4F1F910895592F482F372F1C
:10485000262F660F771F881F991F660F771F881FE7
:10486000991F620F731F841F951F660F771F881F84
:10487000991F08950E947C2408F481E00895E8942B
:1048800009C097FB3EF490958095709561957F4F98
:104890008F4F9F4F9923A9F0F92F96E9BB27939546
:1048A000F695879577956795B795F111F8CFFAF456
:1048B000BB0F11F460FF1BC06F5F7F4F8F4F9F4F87
:1048C00016C0882311F096E911C0772321F09EE8E5
:1048D000872F762F05C0662371F096E8862F70E04B
:1048E00060E02AF09A95660F771F881FDAF7880F25
:1048F0009695879597F90895990F0008550FAA0B7B
:10490000E0E8FEEF16161706E807F907C0F01216E2
:104910001306E407F50798F0621B730B840B950BE5
:1049200039F40A2661F0232B242B252B21F408953A
:104930000A2609F4A140A6958FEF811D811D0895D7
:104940000E94B3240C9424250E94162538F00E945E
:104950001D2520F0952311F00C940D250C941325A2
:1049600011240C9458250E94352570F3959FC1F3AE
:10497000950F50E0551F629FF001729FBB27F00D0D
:10498000B11D639FAA27F00DB11DAA1F649F662762
:10499000B00DA11D661F829F2227B00DA11D621FB1
:1049A000739FB00DA11D621F839FA00D611D221F6B
:1049B000749F3327A00D611D231F849F600D211D4F
:1049C000822F762F6A2F11249F5750409AF0F1F0D2
:1049D00088234AF0EE0FFF1FBB1F661F771F881F3B
:1049E00091505040A9F79E3F510580F00C940D2541
:1049F0000C9458255F3FE4F3983ED4F38695779561
:104A00006795B795F795E7959F5FC1F7FE2B880FE0
:104A1000911D9695879597F9089597F99F6780E876
:104A200070E060E008959FEF80EC089500240A9400
:104A30001616170618060906089500240A94121679
:104A40001306140605060895092E0394000C11F4AC
:104A5000882352F0BB0F40F4BF2B11F460FF04C059
:104A60006F5F7F4F8F4F9F4F089557FD9058440FB2
:104A7000551F59F05F3F71F04795880F97FB991FBD
:104A800061F09F3F79F0879508951216130614067A
:104A9000551FF2CF4695F1DF08C016161706180607
:104AA000991FF1CF86957105610508940895E894E2
:104AB000BB2766277727CB0197F90895F999FECF91
:104AC00092BD81BDF89A992780B50895262FF9994E
:104AD000FECF1FBA92BD81BD20BD0FB6F894FA9AE1
:104AE000F99A0FBE019608952F923F924F925F92CE
:104AF0006F927F928F929F92AF92BF92CF92DF92EE
:104B0000EF92FF920F931F93CF93DF93CDB7DEB752
:104B1000CA1BDB0B0FB6F894DEBF0FBECDBF0994E6
:104B20002A88398848885F846E847D848C849B843D
:104B3000AA84B984C884DF80EE80FD800C811B814B
:104B4000AA81B981CE0FD11D0FB6F894DEBF0FBE7A
:104B5000CDBFED0108959F939F770E9405270F9089
:104B6000002042F49058A2EA2AED3FE049E450E4E4
:104B70000E94D4250C9424255058BB27AA270E94B4
:104B8000D4250C9424250E94162538F00E941D255A
:104B900020F039F49F3F19F426F40C9413250EF4F9
:104BA000E095E7FB0C940D25E92F0E94352558F37D
:104BB000BA17620773078407950720F079F4A6F502
:104BC0000C9457250EF4E0950B2EBA2FA02D0B0157
:104BD000B90190010C01CA01A0011124FF27591B42
:104BE00099F0593F50F4503E68F11A16F040A22F48
:104BF000232F342F4427585FF3CF469537952795B9
:104C0000A795F0405395C9F77EF41F16BA0B620BB7
:104C1000730B840BBAF09150A1F0FF0FBB1F661FFE
:104C2000771F881FC2F70EC0BA0F621F731F841F41
:104C300048F4879577956795B795F7959E3F08F067
:104C4000B0CF9395880F08F09927EE0F9795879529
:104C50000895DF93DD27B92FBF7740E85FE316168D
:104C6000170648075B0718F4D92F0E9490279F93D7
:104C70008F937F936F930E94E627E8E6F0E00E940F
:104C800025270E9424252F913F914F915F910E94EB
:104C9000B324DD2351F09058A2EA2AED3FE049EC1D
:104CA0005FE3D0785D270E94D425DF910C94242502
:104CB0000E944E27E3950C9477270E9471260C944E
:104CC00024250E941D2558F00E94162540F029F445
:104CD0005F3F29F00C940D2551110C9458250C942C
:104CE00013250E94352568F39923B1F3552391F3D9
:104CF000951B550BBB27AA2762177307840738F04B
:104D00009F5F5F4F220F331F441FAA1FA9F335D0A7
:104D10000E2E3AF0E0E832D091505040E695001C5B
:104D2000CAF72BD0FE2F29D0660F771F881FBB1F15
:104D3000261737074807AB07B0E809F0BB0B802DF3
:104D4000BF01FF2793585F4F3AF09E3F510578F01F
:104D50000C940D250C9458255F3FE4F3983ED4F352
:104D6000869577956795B795F7959F5FC9F7880FF3
:104D7000911D9695879597F90895E1E0660F771F45
:104D8000881FBB1F621773078407BA0720F0621BD6
:104D9000730B840BBA0BEE1F88F7E09508950E9401
:104DA000D6266894B1110C94582508950E943D258B
:104DB00088F09F5798F0B92F9927B751B0F0E1F0DC
:104DC000660F771F881F991F1AF0BA95C9F714C08C
:104DD000B13091F00E945725B1E008950C94572509
:104DE000672F782F8827B85F39F0B93FCCF38695C5
:104DF00077956795B395D9F73EF490958095709522
:104E000061957F4F8F4F9F4F0895DF93CF931F93EF
:104E10000F938B01EC01E5E9F0E00E9425270E9449
:104E200024259801AE018B01EC0160E070E080E880
:104E30009FE30E94BC250E94A6279801AE010F9116
:104E40001F91CF91DF910C94B324DF93CF931F93E5
:104E50000F93FF92EF92DF927B018C01689406C062
:104E6000DA2EEF010E94B324FE01E894A59125916A
:104E7000359145915591A6F3EF010E94D425FE018D
:104E80009701A801DA9469F7DF90EF90FF900F91F6
:104E90001F91CF91DF9108950C9413250E943D2519
:104EA000D8F3E894E0E0BB279F57F0F02AED3FE00D
:104EB00049EC06C0EE0FBB0F661F771F881F28F056
:104EC000B23A62077307840728F0B25A620B730B79
:104ED000840BE3959A9572F7803830F49A95BB0F5E
:104EE000661F771F881FD2F790480C94F127EF9325
:104EF000E0FF07C0A2EA2AED3FE049EC5FEB0E9429
:104F0000D4250E9424250F90039401FC9058EDEBCA
:104F1000F0E00C9404280E947C2408F48FEF08959C
:104F20009B01AC0160E070E080E89FE30C945D269B
:104F30009F930E944E270F9007FCEE5F0C947727FB
:104F400019F416F40C9413250C94EF270E943D25B8
:104F5000B8F39923C9F3B6F39F57550B87FF0E9407
:104F6000FD270024A0E640EA9001805856959795C9
:104F700028F4805C660F771F881F20F026173707FC
:104F8000480730F4621B730B840B202931294A2B0C
:104F9000A69517940794202531254A2758F7660FC0
:104FA000771F881F20F026173707480730F4620B59
:104FB000730B840B200D311D411DA09581F7B901A4
:104FC000842F9158880F9695879508959B01AC0181
:104FD0000C94A0240E947C24880B990B08959F3F79
:104FE00031F0915020F4879577956795B795880FA4
:104FF000911D9695879597F9089591505040660FA9
:10500000771F881FD2F708959F938F937F936F9395
:10501000FF93EF939B01AC010E94A024EF91FF91BD
:105020000E9425272F913F914F915F910C94A024CE
:1050300097FB072E16F4009407D077FD09D00E9445
:105040004E2807FC05D03EF4909581959F4F08951A
:10505000709561957F4F0895A1E21A2EAA1BBB1B84
:10506000FD010DC0AA1FBB1FEE1FFF1FA217B30734
:10507000E407F50720F0A21BB30BE40BF50B661F4A
:10508000771F881F991F1A9469F76095709580950E
:1050900090959B01AC01BD01CF010895AA1BBB1BDC
:1050A00051E107C0AA1FBB1FA617B70710F0A61B28
:1050B000B70B881F991F5A95A9F780959095BC0149
:1050C000CD010895EE0FFF1F0590F491E02D099496
:1050D0000F931F93CF93DF938230910510F482E0FA
:1050E00090E0E0919D06F0919E0630E020E0B0E077
:1050F000A0E0309799F42115310509F44AC0281B26
:10510000390B24303105D8F58A819B8161157105F1
:1051100089F1FB0193838283FE0111C0408151819B
:105120000281138148175907E0F04817590799F48D
:10513000109761F012960C93129713961C93329667
:10514000CF01DF91CF911F910F91089500939D069C
:1051500010939E06F4CF2115310551F042175307E5
:1051600038F0A901DB019A01BD01DF01F801C1CFCF
:10517000EF01F9CF90939E0680939D06CDCFFE015F
:10518000E20FF31F819391932250310939832883D1
:10519000D7CF20919B0630919C06232B41F4209180
:1051A0009B0130919C0130939C0620939B0620919B
:1051B000990130919A012115310541F42DB73EB77F
:1051C00040919D0150919E01241B350BE0919B065F
:1051D000F0919C06E217F307A0F42E1B3F0B281753
:1051E000390778F0AC014E5F5F4F2417350748F060
:1051F0004E0F5F1F50939C0640939B0681939193A3
:105200009FCFF0E0E0E09CCFCF93DF930097E9F0F1
:10521000FC01329713821282A0919D06B0919E06E6
:10522000ED0130E020E01097A1F420813181820F60
:10523000931F20919B0630919C062817390709F08F
:1052400061C0F0939C06E0939B06DF91CF91089597
:10525000EA01CE17DF07E8F54A815B819E0141151F
:105260005105B1F7E901FB83EA8349915991C40FD4
:10527000D51FEC17FD0761F4808191810296840FA0
:10528000951FE90199838883828193819B838A8317
:10529000F0E0E0E012968D919C9113970097B9F59C
:1052A0002D913C911197CD010296820F931F209171
:1052B0009B0630919C062817390739F6309751F52F
:1052C00010929E0610929D06B0939C06A0939B069A
:1052D000BCCFD383C28340815181840F951FC817EF
:1052E000D90761F44E5F5F4F88819981480F591F3C
:1052F000518340838A819B81938382832115310569
:1053000009F0B0CFF0939E06E0939D069ECFFD017D
:10531000DC01C0CF13821282D7CFB0E0A0E0E3E976
:10532000F9E20C9476258C01009751F4CB010E9490
:1053300068288C01C801CDB7DEB7E0E10C94922556
:10534000FC01E60FF71F9C0122503109E217F30719
:1053500008F49DC0D901CD91DC911197C617D707EC
:1053600098F0C530D10530F3CE0104978617970722
:1053700008F3C61BD70B2297C193D1936D937C93EF
:10538000CF010E940429D6CF5B01AC1ABD0A4C01A3
:105390008C0E9D1EA0919D06B0919E06512C412C15
:1053A000F12CE12C109731F580919B0690919C0691
:1053B0008815990509F05CC04616570608F058C0D4
:1053C0008091990190919A01009741F48DB79EB711
:1053D00040919D0150919E01841B950BE817F907A0
:1053E00008F055C0F0939C06E0939B06F901718389
:1053F0006083A0CF8D919C91119712966C9012971B
:1054000013967C901397A815B90559F56C0142E0E5
:10541000C40ED11CCA14DB0420F1AC014A195B098B
:10542000DA011296159780F062827382518340836D
:10543000D9016D937C93E114F10471F0D7011396B7
:10544000FC93EE93129776CF22968C0F9D1FF90155
:1054500091838083F301EFCFF0939E06E0939D0646
:1054600069CF4816590608F42C017D01D3019ACF63
:10547000CB010E9468287C01009749F0AE01B80179
:105480000E944A2AC8010E940429870153CF10E0D4
:1054900000E050CFFB01DC0102C001900D924150B1
:1054A0005040D8F70895FB01DC0101900D920020D7
:0854B000E1F70895F894FFCF25
:1054B800010000B4420000B4420000B4420000B44D
:1054C800420000B4420000B4420000B4420000B4FC
:1054D8004234080000340800003408000034080092
:1054E80000340800003408000034080000340800C4
:1054F80000340800003408000034080000340800B4
:1055080000340800000807067E047E0434087E0480
:105518007E0434087E047E043408FFFFFF00008800
:1055280041000088410000884148E17A3F48E17A1B
:105538003F0000403F0000403F0001020304050611
:105548000708090A0B0C01010100009F06800000F2
:10555800000000F00150017D014202AE018C01A063
:105568000100000000F203C50321049B03BE03AB46
:10557800039C030D0A006E616E00696E66006F760B
:105588006600536176696E6720416363206F6666C3
:105598007365743A20002C00536176696E67204D5C
:1055A8006167206F66667365743A20002C2000538B
:1055B800657474696E677320736176656400436807
:1055C800616E6E656C206D617070696E67207265C2
:1055D80063656976656400484500485420636F6ECA
:1055E8006669672072656365697665643A00444553
:1055F800425547002D2D2D2D2D2D204465627567B0
:1056080020696E666F2D2D2D2D2D2D0046572056A5
:10561800657273696F6E3A200053656E736F723AE4
:105628002000484D4335383833004254204D6F64CC
:10563800653A200074696C74526F6C6C42657461D1
:105648003A200070616E426574613A200067797291
:105658006F57656967687454696C74526F6C6C3AFB
:1056680020004779726F57656967687450616E3AB0
:105678002000736572766F50616E43656E74657253
:105688003A2000736572766F54696C7443656E7462
:1056980065723A2000736572766F526F6C6C436561
:1056A8006E7465723A200074696C74466163746F35
:1056B800723A200070616E466163746F723A20001E
:1056C8004779726F206F66667365743A20004D6182
:1056D800672063616C3A004144584C3334352049A3
:1056E800443A2000495447333230352049443A205F
:1056F80000484D432049443A20005645525300463D
:10570800573A2000484152440048573A2000434D38
:105718004145004341454E004752454E00504C45D7
:105728004E00434D415300434153540047524156A4
:1057380000504C535400444247530043484E4C5386
:1057480000534156450043414C47004779726F204A
:105758006F6666736574206D656173757265643A0A
:10576800004D4147004143430047534554002453EB
:105778004554240053657474696E677320526574C8
:10578800726965766564004C696E6520697320747A
:105798006F6F206C6F6E670054696D6572203120E1
:0457A8004F56460012
:00000001FF
