:100000000C949C000C94C4000C94C4000C94C40088
:100010000C94C4000C94C4000C94C4000C94C40050
:100020000C94C4000C94C4000C94A01C0C94841D6B
:100030000C94C4000C94FD1D0C94381D0C94C40049
:100040000C94371B0C94C4000C94051B0C94DF1A01
:100050000C94C4000C94C4000C94C4000C94C40010
:100060000C94811B0C94C400084AD73B3BCE016E14
:1000700084BCBFFDC12F3D6C74319ABD56833DDAFF
:100080003D00C77F11BED9E4BB4C3E916BAAAABE0E
:10009000000000803F072C7AA5BA6CC590DA3B932C
:1000A00065FC8BBC53F810FD3C5692834DBD879D7B
:1000B0003AB63DCBC9BF5BBE73DA0FC93F05A84C4A
:1000C000CDB2D44EB93836A9020C50B99186880801
:1000D0003CA6AAAA2ABE000000803F000000000043
:1000E000240027002A0000000000250028002B0023
:1000F0000000000023002600290004040404040476
:1001000004040202020202020303030303030102C6
:100110000408102040800102040810200102040895
:100120001020000000080002010000030407000086
:10013000000000000000231E11241FBECFEFD8E0F6
:10014000DEBFCDBF27E0A0E1B4E001C01D92A8371B
:10015000B207E1F714E0A0E0B1E0E4ECF7E602C09A
:1001600005900D92A031B107D9F710E0CCE9D0E0AD
:1001700004C02197FE010E94E831CB39D107C9F7AD
:100180000E94B51E0C94E0330C940000EFEAF5E0F9
:10019000A089B18982E08C93A089B1891C92A48541
:1001A000B5851C92A685B78580E18C93108EA489B5
:1001B000B58986E08C93A289B3898C9180618C93F8
:1001C000A289B3898C9188608C93A289B3898C9120
:1001D00080688C930288F389E02D80818F7D8083F5
:1001E0000895982F2091AE0581E0213208F043C098
:1001F00080918A058111FCCF8091AD0532E030936A
:100200008A05909389059FEF909388051092870542
:1002100020938605ADE8B5E0E6E6F5E090E0291329
:1002200031C01092650590916505880F892B8093E8
:10023000650580916405813049F5109264058091CF
:1002400065058093BB008091BC0083FDF8CF85ECF1
:100250008093BC0080918A058230E1F3809188050B
:100260008F3FB1F0809188058032A1F080918805A0
:10027000803391F084E010928C051092AE051092BC
:100280008B0508953D9131939F5FC9CF85EEE0CFF7
:1002900080E0F1CF82E0EFCF83E0EDCF08950895C5
:1002A000AF92BF92CF92DF92EF92FF920F931F9384
:1002B000CF93DF936C017B018B01040F151FEB01C2
:1002C0005E01AE18BF08C017D10759F06991D60179
:1002D000ED91FC910190F081E02DC6010995892BEB
:1002E00079F7C501DF91CF911F910F91FF90EF90AA
:1002F000DF90CF90BF90AF900895FC01538D448D57
:10030000252F30E0842F90E0821B930B541710F0C0
:10031000CF96089501970895FC01918D828D9817CD
:1003200061F0A28DAE0FBF2FB11D5D968C91928DA5
:100330009F5F9F73928F90E008958FEF9FEF0895D6
:10034000FC01918D828D981731F0828DE80FF11D9F
:10035000858D90E008958FEF9FEF0895FC01918DBA
:10036000228D892F90E0805C9F4F821B91098F73B3
:10037000992708958FEA95E00E94AE0121E0892B2C
:1003800009F420E0822F089580E090E0892B29F085
:100390000E94BA0181110C9400000895FC01A48D03
:1003A000A80FB92FB11DA35ABF4F2C91848D90E097
:1003B00001968F739927848FA689B7892C93A0897A
:1003C000B1898C91837080648C93938D848D981304
:1003D00006C00288F389E02D80818F7D8083089597
:1003E000EF92FF920F931F93CF93DF93EC0181E085
:1003F000888F9B8D8C8D98131AC0E889F98980812C
:1004000085FF15C09FB7F894EE89FF896083E8895E
:10041000F98980818370806480839FBF81E090E050
:10042000DF91CF911F910F91FF90EF900895F62EDD
:100430000B8D10E00F5F1F4F0F731127E02E8C8D77
:100440008E110CC00FB607FCFACFE889F9898081BC
:1004500085FFF5CFCE010E94CE01F1CFEB8DEC0FE1
:10046000FD2FF11DE35AFF4FF0829FB7F8940B8FD9
:10047000EA89FB8980818062CFCF682F8FEA95E07F
:100480000C94F001CF93DF93EC01888D8823B9F0B1
:10049000AA89BB89E889F9898C9185FD03C080818F
:1004A00086FD0DC00FB607FCF7CF8C9185FFF2CF0C
:1004B000808185FFEDCFCE010E94CE01E9CFDF9193
:1004C000CF910895833081F028F4813099F0823003
:1004D000A9F008958730A9F08830C9F08430B1F4CC
:1004E000809180008F7D03C0809180008F77809302
:1004F0008000089584B58F7784BD089584B58F7D7D
:10050000FBCF8091B0008F778093B00008958091E9
:10051000B0008F7DF9CFCF93DF93282F30E0F90122
:10052000EE5DFE4F8491F901E25FFE4FD491F90137
:10053000E650FF4FC491CC23A1F081110E946202CA
:10054000EC2FF0E0EE0FFF1FE051FF4FA591B491AB
:10055000EC91ED2381E090E009F480E0DF91CF9110
:10056000089580E090E0FACF1F93CF93DF93282F78
:1005700030E0F901EE5DFE4F8491F901E25FFE4F3C
:10058000D491F901E650FF4FC491CC23A9F0162F66
:1005900081110E946202EC2FF0E0EE0FFF1FEA5182
:1005A000FF4FA591B4918FB7F894EC91111108C049
:1005B000D095DE23DC938FBFDF91CF911F910895FB
:1005C000DE2BF8CF109243051092420510928C0555
:1005D0001092AE0510928A0581E0809389051092F1
:1005E000640561E082E10E94B40261E083E10E945F
:1005F000B402E9EBF0E080818E7F808380818D7F83
:10060000808388E48093B80085E48093BC008EE406
:1006100091E090934105809340058FE491E09093A1
:100620003F0580933E050895CF93DF9390E0FC0152
:10063000E25FFE4F249186509F4FFC0184918823F6
:10064000D1F090E0880F991FFC01E452FF4FA59173
:10065000B491FC01EA51FF4FC591D49161110EC0D4
:100660009FB7F8948C91E22FE0958E238C9328818C
:10067000E223E8839FBFDF91CF9108958FB7F8946D
:10068000EC91E22BEC938FBFF6CF3FB7F8948091BB
:100690005D0490915E04A0915F04B091600426B562
:1006A000A89B05C02F3F19F00196A11DB11D3FBFAA
:1006B000BA2FA92F982F8827BC01CD01620F711D79
:1006C000811D911D42E0660F771F881F991F4A9573
:1006D000D1F708958F929F92AF92BF92CF92DF92FF
:1006E000EF92FF924B015C010E9445036B017C017C
:1006F0000E9445036C197D098E099F09683E73406D
:1007000081059105A8F321E0821A9108A108B1089A
:1007100088EEC80E83E0D81EE11CF11C8114910400
:10072000A104B10429F7FF90EF90DF90CF90BF9024
:10073000AF909F908F90089585ED8093BC0080913D
:10074000BC0084FDFCCF10928A05089520913504E9
:10075000260F3327331F21323105ECF420918A050F
:10076000FC0190E080E0243069F082E00895A091DF
:1007700035042191AC014B5E5B4FA40FB52FB11D29
:100780002C930196861798F380913504680F609337
:10079000350480E0089581E008950895E0914305CF
:1007A00080914205E81730F4F0E0EC5BFA4F80816D
:1007B00090E008958FEF9FEF089590914305809109
:1007C00042052FEF3FEF981748F4E92FF0E0EC5B7C
:1007D000FA4F208130E09F5F90934305C90108954F
:1007E0008091420590914305891B990B0895CF9202
:1007F000DF92EF92FF920F931F93CF93DF937C01D1
:10080000CB018A0120918B05222389F0EB016B013A
:10081000C40ED51ECC15DD0569F06991D701ED91A7
:10082000FC910190F081E02DC7010995F3CF642F71
:100830000E94A603C801DF91CF911F910F91FF90F5
:10084000EF90DF90CF900895CF93DF931F92CDB7B5
:10085000DEB7698320918B052223F9F02091AE0544
:10086000203258F021E030E0FC013383228390E015
:1008700080E00F90DF91CF91089580918C05E82F53
:10088000F0E0E357FA4F998190838F5F80938C0556
:100890008093AE0581E090E0ECCF61E0CE0101965F
:1008A0000E94A603F7CF90E080E008958F929F9278
:1008B000AF92BF92CF92DF92EF92FF92CF93DF93EE
:1008C000C62FFC01D0816181062E000C770B880BAE
:1008D000990B0E94842D4B015C0184E0C89FF001BC
:1008E0001124E157FB4F20E030E040E251E4608109
:1008F0007181828193810E94E32F6B017C01D11170
:100900001BC02091A5063091A6064091A7065091E4
:10091000A806C501B4010E94E32DA70196010E941B
:10092000FF2EDF91CF91FF90EF90DF90CF90BF909F
:10093000AF909F908F900895D13049F42091A106F7
:100940003091A2064091A3065091A406E2CF609197
:10095000A9067091AA068091AB069091AC069058BA
:10096000A5019401D8CFCF92DF92EF92FF92CF935F
:10097000FC01C0816281062E000C770B880B990B5D
:100980000E94842D6B017C01C11118C023E333E365
:1009900045E652E46091990670919A0680919B0613
:1009A00090919C060E94E32DA70196010E94E32DE1
:1009B000CF91FF90EF90DF90CF900895C13071F408
:1009C0006091950670919606809197069091980691
:1009D000905823E333E345E652E4E4CF23E333E3E3
:1009E00045E652E460919D0670919E0680919F06B7
:1009F0009091A006D7CFCF92DF92EF92FF92CF9344
:100A0000FC01C0816181062E000C770B880B990BCD
:100A10000E94842D6B017C01C11119C060918D066B
:100A200070918E0680918F069091900690582DECD3
:100A30003CEC4CE151E40E94E32FA70196010E9497
:100A4000E32DCF91FF90EF90DF90CF900895C130CC
:100A500049F46091890670918A0680918B06909185
:100A60008C06E4CF2DEC3CEC4CE151E46091910616
:100A7000709192068091930690919406DCCFDC01F0
:100A800014966D917C91159740912E0550E0461774
:100A900057070CF130E020E0461B570B26173707AD
:100AA000C4F4FA01E20FF31FE255FB4F80812617D1
:100AB000370768F4ED91FC911197309741F0E20F00
:100AC000F31F9081891307C02F5F3F4FE7CF90E05E
:100AD000F9CF81E0089580E00895FC0101900020A5
:100AE000E9F73197AF01481B590BBC018FEA95E03C
:100AF0000C9450018F929F92AF92BF920F931F93CD
:100B0000CF93DF93CDB7DEB7A1970FB6F894DEBFD2
:100B10000FBECDBF19A2423008F44AE08E010F5D2E
:100B20001F4F842E912CB12CA12CA50194010E9461
:100B3000B231E62FB901CA01EA30F4F4E05DD80120
:100B4000EE938D01232B242B252B79F790E080E069
:100B5000109719F0CD010E946D05A1960FB6F8947B
:100B6000DEBF0FBECDBFDF91CF911F910F91BF9020
:100B7000AF909F908F900895E95CE1CF0C946D0544
:100B80008EEC91E00C946D05CF93DF930E946D0580
:100B9000EC010E94C0058C0F9D1FDF91CF9108953D
:100BA000CF92DF92EF92FF92CF93DF9397FF1BC01C
:100BB0006B017C016DE28FEA95E00E94F001EC018F
:100BC00066277727CB016C197D098E099F094AE0BA
:100BD0000E947A058C0F9D1FDF91CF91FF90EF90BF
:100BE000DF90CF9008954AE0DF91CF91FF90EF9092
:100BF000DF90CF900C947A05CF93DF930E94D005BD
:100C0000EC010E94C0058C0F9D1FDF91CF910895CC
:100C1000BC01990F880B990B0C94D005CF93DF93EF
:100C20000E940806EC010E94C0058C0F9D1FDF91F9
:100C3000CF9108954F925F926F927F928F929F9281
:100C4000AF92BF92CF92DF92EF92FF920F931F93DA
:100C5000CF936B017C01742EAC019B010E9470311B
:100C6000882399F081ED91E0CF911F910F91FF9032
:100C7000EF90DF90CF90BF90AF909F908F907F903C
:100C80006F905F904F900C946D0546015701E8946A
:100C9000B7F82FEF3FEF4FE75FE7C501B4010E94C0
:100CA000703181110DC02FEF3FEF4FE75FE7C501B6
:100CB000B4010E947D2D18161CF485ED91E0D4CF6F
:100CC0002FEF3FEF4FE75FE4C701B6010E941131FC
:100CD00018161CF489ED91E0C7CF2FEF3FEF4FE7D7
:100CE0005FECC701B6010E947D2D87FDF3CF20E0A8
:100CF00030E0A901C701B6010E947D2D10E000E09F
:100D000087FF0AC06DE28FEA95E00E94F0018C0136
:100D1000F7FAF094F7F8F094C0E060E070E080E05B
:100D20009FE37C1641F020E030E040E251E40E9475
:100D3000E32FCF5FF6CFA70196010E94002F2B0172
:100D40003C010E945C304B015C014AE00E947A0544
:100D50007C01E00EF11ECC23C1F1C501B4010E945B
:100D6000822D9B01AC01C301B2010E94FF2E4B01F9
:100D70005C016EE28FEA95E00E94F001E80EF91E38
:100D8000C15018F120E030E040E251E4C501B40167
:100D90000E94E32D2B013C010E945C304B01B12CE1
:100DA000A12C4AE0C501B4010E947A05E80EF91EA3
:100DB000C501B4010E94822D9B01AC01C301B201A7
:100DC0000E94FF2E4B015C01DBCFC701CF911F9129
:100DD0000F91FF90EF90DF90CF90BF90AF909F90DA
:100DE0008F907F906F905F904F90089542E00C94A9
:100DF0001A06CF93DF9342E00E941A06EC010E948C
:100E0000C0058C0F9D1FDF91CF910895EF92FF9247
:100E10000F931F93CF93DF93C62FD42FF52EA0915E
:100E20005906B0915A069091580621E020938B05FF
:100E30009093AD0510928C051092AE05ED91FC914A
:100E400011970190F081E02D682FCD01099580E088
:100E50000E94F10080918A058111FCCF8091580693
:100E600091E090938A05909389052FEF2093880550
:100E7000109287052C0F209386059093650590911D
:100E80006505880F892B8093650580916405813005
:100E900009F049C010926405809165058093BB00FC
:100EA0008091BC0083FDF8CF85EC8093BC008091DD
:100EB0008A058130E1F3809187059C2F8C1710F40F
:100EC00090918705A6E6B5E0E4E4F5E080E08913BB
:100ED0002CC0109243058093420590E090935C06ED
:100EE00080935B06C817190621F5ED2E0D2F1F2DD7
:100EF0008091590690915A06DC01ED91FC91028493
:100F0000F385E02D0995F80181938F018E2F8E19BD
:100F10008C1770F381E090E0DF91CF911F910F91DA
:100F2000FF90EF90089585EEC0CF2D9121938F5FB4
:100F3000CECF8FEF9FEFF0CF2F923F924F925F92E5
:100F40006F927F928F929F92AF92BF92CF92DF92D9
:100F5000EF92FF920F931F93CF93DF9300D000D0B7
:100F600000D0CDB7DEB740E656E065E18BE30E94E6
:100F7000060797FD07C2A0906006B0906106BA24EC
:100F8000AB24BA24B0927606A092750660916206F0
:100F900070916306762767277627709378066093AB
:100FA0007706C0906406D0906506DC24CD24DC244E
:100FB000D0927A06C0927906809166069091670673
:100FC000382F292F3A832983309388062093870668
:100FD00000916806109169061027012710271093C9
:100FE0007C0600937B06E0906A06F0906B06FE2478
:100FF000EF24FE24F0927E06E0927D0680916C063E
:1010000090916D069827892798279E838D839093CA
:10101000800680937F0680906E0690906F06909277
:101020008206809281062090700630907106309280
:1010300084062092830620917206309173063C83C9
:101040002B8330938606209385064090B2065090FD
:10105000B3066090B4067090B506072E000C880B9E
:10106000990B0E94842DA30192010E94E32D2091EF
:101070000B0730910C0740910D0750910E070E940D
:10108000FF2E2091170730911807409119075091B2
:101090001A070E94E32D6093890670938A06809355
:1010A0008B0690938C06B501BB0C880B990B0E94A4
:1010B000842DA30192010E94E32D20910F0730910E
:1010C000100740911107509112070E94FF2E2091A6
:1010D0001B0730911C0740911D0750911E070E946D
:1010E000E32D60938D0670938E0680938F06909308
:1010F0009006B601DD0C880B990B0E94842D905848
:10110000A30192010E94E32D20911307309114074F
:1011100040911507509116070E94FF2E20911F073E
:101120003091200740912107509122070E94E32D22
:101130006093910670939206809393069093940621
:101140004090B6065090B7066090B8067090B90609
:10115000B701FF0C880B990B0E94842DA30192010B
:101160000E94E32D2091DB063091DC064091DD06E4
:101170005091DE060E94FF2E6093950670939606AE
:101180008093970690939806B801110F880B990BDE
:101190000E94842DA30192010E94E32D2091DF067D
:1011A0003091E0064091E1065091E2060E94FF2E48
:1011B0006093990670939A0680939B0690939C0681
:1011C0002D813E81B901330F880B990B0E94842D2C
:1011D0009058A30192010E94E32D2091E3063091E3
:1011E000E4064091E5065091E6060E94FF2E6093CA
:1011F0009D0670939E0680939F069093A006B4016F
:10120000990C880B990B0E94842D2091BA0630917D
:10121000BB064091BC065091BD060E94E32D209173
:1012200058073091590740915A0750915B070E9427
:10123000FF2E209164073091650740916607509119
:1012400067070E94E32D6093A1067093A206809326
:10125000A3069093A406B101330C880B990B0E944E
:10126000842D2091BE063091BF064091C00650915A
:10127000C1060E94E32D20915C0730915D074091EB
:101280005E0750915F070E94FF2E20916807309102
:10129000690740916A0750916B070E94E32D6093A4
:1012A000A5067093A6068093A7069093A8062B81A7
:1012B0003C81B901330F880B990B0E94842D20913A
:1012C000C2063091C3064091C4065091C5060E94E3
:1012D000E32D2091600730916107409162075091A2
:1012E00063070E94FF2E20916C0730916D0740919B
:1012F0006E0750916F070E94E32D6093A9067093CB
:10130000AA068093AB069093AC0629813A81B90175
:10131000330F880B990B0E94842D20E030E048EABF
:1013200051E40E94FF2E2CE53FEE46EA53E40E9472
:10133000E32F20E030E048EA51E40E94002F609360
:10134000AD067093AE068093AF069093B00681E031
:1013500090E026960FB6F894DEBF0FBECDBFDF91AA
:10136000CF911F910F91FF90EF90DF90CF90BF90A2
:10137000AF909F908F907F906F905F904F903F9035
:101380002F9008958FEF9FEFE4CF80910D01909102
:101390000E01892B11F00C949C070895CF93DF93D5
:1013A000D82FC62F8091590690915A062091580641
:1013B00031E030938B052093AD0510928C0510928F
:1013C000AE05DC01ED91FC910190F081E02D6D2FD7
:1013D00009958091590690915A06DC01ED91FC9196
:1013E0000190F081E02D6C2F099581E00E94F100C1
:1013F0006AE070E080E090E00E946A0340E656E018
:1014000061E08D2F0E94060780916006C81729F0C1
:101410008FEF9FEFDF91CF91089581E090E0FACFB9
:10142000CF93DF93EC0182309105A9F158F4009736
:10143000B9F0019709F1D093CB06C093CA0681E0B9
:1014400090E017C084309105B1F168F1059799F7E4
:1014500066E08DE10E94CE0966E097FF14C007C0E8
:1014600061E08DE10E94CE0961E097FF0CC08FEF33
:101470009FEFDF91CF91089562E08DE10E94CE0948
:1014800062E097FDF4CF8AE10E94CE0997FFD3CFA7
:101490008EEF9FEFEECF63E08DE10E94CE0963E017
:1014A00097FFF1CFE4CF64E08DE10E94CE0964E0C4
:1014B00097FFE9CFDCCF65E08DE10E94CE0965E0C2
:1014C00097FFE1CFD4CF0F931F93CF93DF93D82F04
:1014D000C62F8A016CE885E20E94CE0997FD21C0E3
:1014E0006D2F86E20E94CE0997FD1EC06C2F6068AA
:1014F00087E20E94CE0997FD1AC061E070E080E0AB
:1015000090E00E946A03A8016C2F89E40E940607FC
:1015100090935F0680935E06DF91CF911F910F91AC
:1015200008958FEF9FEFF8CF8EEF9FEFF5CF8DEF00
:101530009FEFF2CFCF93DF93D82FC62F6CE085E2D9
:101540000E94CE0997FD23C06D2F86E20E94CE092E
:1015500097FD20C06C2F83E60E94CE0997FD1DC029
:1015600061E887E20E94CE0997FD1AC040E656E086
:1015700061E08D2F0E94630A97FD15C0809160067F
:10158000C817A1F08AEF9FEFDF91CF9108958FEFF9
:101590009FEFFACF8EEF9FEFF7CF8DEF9FEFF4CF56
:1015A0008CEF9FEFF1CF8BEF9FEFEECF81E090E0DC
:1015B000EBCFCF93C82F63E189E10E94CE0997FD5D
:1015C00041C060E08AE0CA3060F10E949A0A97FF49
:1015D00004C08EEF9FEFCF91089564E670E080E045
:1015E00090E00E946A0362E18AE00E949A0A97FFF3
:1015F00003C08DEF9FEFEFCF64E670E080E090E0F6
:101600000E946A0340E656E067E083E00E94630AB6
:101610006C2F89E10E94CE0997FF0FC08CEF9FEFDE
:10162000DACF0E949A0A97FDD4CF64E670E080E09A
:1016300090E00E946A0366E1D7CFC093CC0681E0B8
:1016400090E0C9CF8FEF9FEFC6CFCF92DF92EF929E
:10165000FF92CF93DF930E94E2028CE08093B80068
:1016600061E08BE60E94CE0997FDCFC260E28AE678
:101670000E94CE0997FDCCC26DE084E20E94CE09A3
:1016800097FDC9C260E08AE00E949A0A60E88BE692
:101690000E94CE0961E070E080E090E00E946A0361
:1016A00061E08BE00E949A0A61E08BE60E94CE091D
:1016B00097FDB4C240E656E061E085E70E94060768
:1016C00097FD0DC080916006813749F460E08CE69B
:1016D0000E94CE0997FF12C08AEF9FEF3FC140E6FC
:1016E00056E061E085E70E94060797FD04C08091FF
:1016F0006006833759F38BEF9FEF30C168E18CE1CF
:101700000E94CE0997FD8DC286E19AEEACE9BBE35B
:101710008093B2069093B306A093B406B093B50637
:10172000C3E0D0E0D093C706C093C60668E18BE162
:101730000E94CE0997FD78C284EE90EAABE8BAE346
:101740008093B6069093B706A093B806B093B906F7
:10175000D093C906C093C80661E08DE10E94CE090E
:1017600097FD65C261E08AE10E94CE0997FD62C2E1
:101770001092CB061092CA0660E089E10E94CE0961
:1017800097FD5BC21092CC0660E28AE60E94CE0909
:1017900097FD56C26DE084E20E94CE0997FD53C2C8
:1017A00040E656E061E080E00E94630A97FD4EC289
:1017B00080916006883409F049C260E08AE00E94A6
:1017C0009A0A97FD46C264E670E080E090E00E94CD
:1017D0006A036FE08AE00E949A0A97FD3DC264E6C0
:1017E00070E080E090E00E946A0340E656E063E02B
:1017F00080E10E94630A6091600670E090E080E002
:101800000E94822D20E030E040E053E40E94FF2E51
:1018100020E030E040E85BE30E94E32D20E030E090
:1018200040E85FE30E94002F20E030E849E955E4FA
:101830000E94E32D20E030EF4FEF56E40E94E32FAB
:101840006093BA067093BB068093BC069093BD0666
:101850006091610670E090E080E00E94822D20E0BF
:1018600030E040E053E40E94FF2E20E030E040E80A
:101870005BE30E94E32D20E030E040E85FE30E945C
:10188000002F20E030E849E955E40E94E32D20E0F4
:1018900030EF4FEF56E40E94E32F6093BE06709343
:1018A000BF068093C0069093C1066091620670E007
:1018B00090E080E00E94822D20E030E040E053E4A0
:1018C0000E94FF2E20E030E040E85BE30E94E32D21
:1018D00020E030E040E85FE30E94002F20E030E8A5
:1018E00049E955E40E94E32D20E030EF4FEF56E444
:1018F0000E94E32F6093C2067093C3068093C406D0
:101900009093C50660E08AE00E949A0A97FDA7C1FD
:1019100064E670E080E090E00E946A0366E18AE09D
:101920000E949A0A97FD9EC164E670E080E090E014
:101930000E946A0361E08BE60E94CE0997FD95C183
:1019400040E656E067E083E00E94630A60E08BE1D6
:101950000E94CE0997FF09C08CEE9FEFDF91CF91D7
:10196000FF90EF90DF90CF90089584EE90EAABE087
:10197000B9E38093B6069093B706A093B806B093E8
:10198000B9061092C9061092C80683E090E00E9442
:10199000100A97FDE1CF83E10E94D90A97FDDCCFC1
:1019A0001092CF061092D0061092D1061092D20655
:1019B0001092D3061092D4061092D5061092D60635
:1019C0001092D7061092D8061092D9061092DA0615
:1019D000D0E0C0E08091CD069091CE06C817D9071F
:1019E00008F08CC00E949C076091CD067091CE06D5
:1019F00090E080E00E94822D6B017C012091DB064B
:101A00003091DC064091DD065091DE06609195062E
:101A10007091960680919706909198060E94002FEB
:101A2000A70196010E94E32F2091CF063091D006A6
:101A30004091D1065091D2060E94002F6093CF06AC
:101A40007093D0068093D1069093D2062091DF0642
:101A50003091E0064091E1065091E20660919906CE
:101A600070919A0680919B0690919C060E94002F8F
:101A7000A70196010E94E32F2091D3063091D4064E
:101A80004091D5065091D6060E94002F6093D30650
:101A90007093D4068093D5069093D6062091E306E2
:101AA0003091E4064091E5065091E60660919D066E
:101AB00070919E0680919F069091A0060E94002F33
:101AC000A70196010E94E32F2091D7063091D806F6
:101AD0004091D9065091DA060E94002F6093D706F4
:101AE0007093D8068093D9069093DA0664E170E08B
:101AF00080E090E00E946A0321966CCF8091CF062F
:101B00009091D006A091D106B091D2068093DB06C9
:101B10009093DC06A093DD06B093DE068091D30699
:101B20009091D406A091D506B091D6068093DF0699
:101B30009093E006A093E106B093E2068091D70669
:101B40009091D806A091D906B091DA068093E30669
:101B50009093E406A093E506B093E606C091C8060C
:101B6000D091C906C130D10579F1D8F0C230D10584
:101B7000B1F1C330D105F1F1D093C906C093C806C5
:101B80008091CA069091CB060E94100A97FDE4CE80
:101B90008091CC060E94D90A97FDDECE81E090E0CC
:101BA000DDCE60E08BE10E94CE0997FDD5CE84EEBC
:101BB00090EAABE0B9E38093B6069093B706A093A2
:101BC000B806B093B906D8CF68E08BE10E94CE0981
:101BD00097FDC2CE84EE90EAABE8B9E3ECCF60E1CA
:101BE0008BE10E94CE0997FDB7CE84EE90EAABE080
:101BF000BAE3E1CF68E18BE10E94CE0997FDACCE5C
:101C000084EE90EAABE8BAE3D6CF8FEF9FEFA6CE93
:101C10008EEF9FEFA3CE8DEF9FEFA0CE8CEF9FEFC7
:101C20009DCE89EF9FEF9ACE88EF9FEF97CE87EFFB
:101C30009FEF94CE86EF9FEF91CE85EF9FEF8ECEF4
:101C400084EF9FEF8BCE83EF9FEF88CE82EF9FEFE5
:101C500085CE81EF9FEF82CE80EF9FEF7FCE8FEE1C
:101C60009FEF7CCE8EEE9FEF79CE8DEE9FEF76CEFE
:101C70004F925F926F927F928F929F92AF92BF929C
:101C8000CF92DF92EF92FF9280910D0190910E0121
:101C9000892B61F08DED91E00E94BE050E94250B1D
:101CA00097FF11C010920E0110920D01FF90EF905E
:101CB000DF90CF90BF90AF909F908F907F906F906C
:101CC0005F904F90089560E08CE10E94CE0997FDEF
:101CD000E9C186E19AEEACE1BAE38093B206909353
:101CE000B306A093B406B093B5061092C70610923F
:101CF000C60683E090E00E94100A97FDD3C183E1FD
:101D00000E94D90A97FDCEC11092E7061092E8060C
:101D10001092E9061092EA061092EB061092EC0679
:101D20001092ED061092EE061092EF061092F00659
:101D30001092F1061092F206F12CE12C8091CD0662
:101D40009091CE06E816F90608F0ACC00E949C07F8
:101D50006091CD067091CE0690E080E00E94822DC9
:101D60004B015C012091170730911807409119072A
:101D700050911A076091890670918A0680918B06AE
:101D800090918C060E94E32F20910B0730910C0755
:101D900040910D0750910E070E94002FA50194015C
:101DA0000E94E32F2091E7063091E8064091E90672
:101DB0005091EA060E94002F6093E7067093E806B0
:101DC0008093E9069093EA0620911B0730911C0747
:101DD00040911D0750911E0760918D0670918E06EF
:101DE00080918F06909190060E94E32F20910F071B
:101DF0003091100740911107509112070E94002F57
:101E0000A50194010E94E32F2091EB063091EC068E
:101E10004091ED065091EE060E94002F6093EB0674
:101E20007093EC068093ED069093EE0620911F07C9
:101E3000309120074091210750912207609191062F
:101E40007091920680919306909194060E94E32FE0
:101E500020911307309114074091150750911607F0
:101E60000E94002FA50194010E94E32F2091EF060C
:101E70003091F0064091F1065091F2060E94002F39
:101E80006093EF067093F0068093F1069093F2064C
:101E900064E170E080E090E00E946A038FEFE81A4E
:101EA000F80A4CCF4090E7065090E8066090E906AB
:101EB0007090EA0620E030E040E151E4C301B20155
:101EC0000E941131181644F44092F3065092F40621
:101ED0006092F5067092F6068090EB069090EC0604
:101EE000A090ED06B090EE0620E030E040E151E435
:101EF000C501B4010E941131181644F48092F7060E
:101F00009092F806A092F906B092FA06C090EF06F9
:101F1000D090F006E090F106F090F20620E030E07C
:101F200040E151E4C701B6010E941131181644F492
:101F3000C092FB06D092FC06E092FD06F092FE06EF
:101F400020E030E040E151ECC301B2010E947D2D60
:101F500087FF08C04092FF06509200076092010779
:101F60007092020720E030E040E151ECC501B4017D
:101F70000E947D2D87FF08C080920307909204077E
:101F8000A0920507B092060720E030E040E151EC56
:101F9000C701B6010E947D2D87FF08C0C0920707C8
:101FA000D0920807E0920907F0920A07C090FF0656
:101FB000D0900007E0900107F090020720E030E0A9
:101FC000A901C701B6010E94113118160CF0B1C069
:101FD00020E030E040E151E4C701B6010E94113138
:101FE00018160CF4B0C0C0900307D0900407E0901E
:101FF0000507F090060720E030E0A901C701B6010F
:102000000E94113118160CF011C120E030E040E1BF
:1020100051E4C701B6010E94113118160CF410C129
:10202000C0900707D0900807E0900907F0900A07D2
:1020300020E030E0A901C701B6010E941131181655
:102040000CF071C120E030E040E151E4C701B6017D
:102050000E94113118160CF470C1E090C606F09081
:10206000C70681E0E816F10409F4EDC108F4D8C10F
:1020700082E0E816F10409F4F1C183E0E816F10406
:1020800009F4F7C1F092C706E092C6068091CA062D
:102090009091CB060E94100A97FD04C08091CC0657
:1020A0000E94D90A68E18CE10E94CE0997FD12C016
:1020B00086E19AEEACE9BBE38093B2069093B30657
:1020C000A093B406B093B50683E090E09093C70662
:1020D0008093C60668E08BE10E94CE0997FD12C08E
:1020E00084EE90EAABE8B9E38093B6069093B70626
:1020F000A093B806B093B90681E090E09093C9062A
:102100008093C80685E090E00E94100A83E10E9457
:10211000D90A8DEE91E0FF90EF90DF90CF90BF90C5
:10212000AF909F908F907F906F905F904F900C94A6
:10213000C40520E030E040E151ECC701B6010E9447
:102140007D2D87FF50CF8090F3069090F406A090ED
:10215000F506B090F60620E030E0A901C501B40113
:102160000E94113118160CF056C020E030E040E11A
:1021700051E4C501B4010E94113118160CF033CF9F
:10218000A5019401C701B6010E94002F20E030E0B4
:1021900040E05FE30E94E32D60930B0770930C0710
:1021A00080930D0790930E0720E030E0A901C7014E
:1021B000B6010E941131181624F0F7FAF094F7F8DE
:1021C000F09420E030E0A901C501B4010E94113172
:1021D000181624F0B7FAB094B7F8B094A50194019A
:1021E000C701B6010E94002F20E030E040E05FE32D
:1021F0000E94E32D9B01AC0169E779EE8CE191E44B
:102200000E94E32F609317077093180780931907B4
:1022100090931A07E8CE20E030E040E151ECC50190
:10222000B4010E947D2D87FFDECEAACF20E030E0F2
:1022300040E151ECC701B6010E947D2D87FFF0CE31
:102240008090F7069090F806A090F906B090FA06F4
:1022500020E030E0A901C501B4010E941131181637
:102260000CF056C020E030E040E151E4C501B4017B
:102270000E94113118160CF0D3CEA5019401C701AC
:10228000B6010E94002F20E030E040E05FE30E94B2
:10229000E32D60930F0770931007809311079093BD
:1022A000120720E030E0A901C701B6010E941131F8
:1022B000181624F0F7FAF094F7F8F09420E030E0E4
:1022C000A901C501B4010E941131181624F0B7FA12
:1022D000B094B7F8B094A5019401C701B6010E946B
:1022E000002F20E030E040E05FE30E94E32D9B01FF
:1022F000AC0169E779EE8CE191E40E94E32F6093F1
:102300001B0770931C0780931D0790931E0788CEB0
:1023100020E030E040E151ECC501B4010E947D2D88
:1023200087FF7ECEAACF20E030E040E151ECC7012C
:10233000B6010E947D2D87FF90CE8090FB06909085
:10234000FC06A090FD06B090FE0620E030E0A9015A
:10235000C501B4010E94113118160CF056C020E0DE
:1023600030E040E151E4C501B4010E94113118167A
:102370000CF073CEA5019401C701B6010E94002F95
:1023800020E030E040E05FE30E94E32D609313071C
:1023900070931407809315079093160720E030E0A0
:1023A000A901C701B6010E941131181624F0F7FAED
:1023B000F094F7F8F09420E030E0A901C501B401F1
:1023C0000E941131181624F0B7FAB094B7F8B094FF
:1023D000A5019401C701B6010E94002F20E030E062
:1023E00040E05FE30E94E32D9B01AC0169E779EED9
:1023F0008CE191E40E94E32F60931F077093200704
:10240000809321079093220728CE20E030E040E11E
:1024100051ECC501B4010E947D2D87FF1ECEAACFCD
:1024200060E08CE10E94CE0997FD3CCE86E19AEEF9
:10243000ACE1BAE38093B2069093B306A093B406DE
:10244000B093B5061FCE68E08CE10E94CE0997FDDF
:1024500029CE86E19AEEACE9BAE3ECCF60E18CE1FB
:102460000E94CE0997FD1ECE86E19AEEACE1BBE359
:10247000E1CF68E18CE10E94CE0997FD13CE86E1A1
:102480009AEEACE9BBE3D6CFFC0180819181009745
:1024900011F00C948A320895EF92FF920F931F93DC
:1024A000CF93DF93EC017B01198218821B821A8281
:1024B0001D821C82FB0101900020E9F731978F01FA
:1024C000061B170BB8016F5F7F4F90E080E00E9402
:1024D00013330097B9F0998388831B830A832C8177
:1024E0003D81232B11F4FC0110821D830C83B70165
:1024F00088819981DF91CF911F910F91FF90EF908B
:102500000C94D93388819981009711F00E948A3206
:10251000198218821D821C821B821A82DF91CF9140
:102520001F910F91FF90EF9008954F925F926F92DD
:102530007F928F929F92AF92BF92CF92DF92EF9253
:10254000FF92CF93DF93CDB7DEB764970FB6F894C1
:10255000DEBF0FBECDBF20E030E044EB52E460911F
:102560001F017091200180912101909122010E9410
:10257000FF2E23E333E345E652E40E94E32F4B01B1
:102580005C0120E030E044EB52E460917A04709109
:102590007B0480917C0490917D040E94FF2E23E3B4
:1025A00033E345E652E40E94E32F6B017C0160E0D7
:1025B00087EA91E00E94560469837A838B839C8327
:1025C000C501B4010E94DE2F6D837E838F839887BF
:1025D0009B01AC0169817A818B819C810E94E32DF2
:1025E0002B013C0161E081EA91E00E945604698779
:1025F0007A878B879C87C501B4010E941E316D8745
:102600007E878F87988B9B01AC0169857A858B8546
:102610009C850E94E32D9B01AC01C301B2010E9485
:10262000FF2E698B7A8B8B8B9C8B62E084EA91E026
:102630000E9456044B015C01C701B6010E94DE2FC7
:102640002B013C01C701B6010E941E316B017C01C8
:10265000A3019201C501B4010E94E32D4B015C016D
:10266000A701960169817A818B819C810E94E32D6B
:102670002D853E854F8558890E94E32D9B01AC0135
:10268000C501B4010E94FF2E4B015C01A701960118
:1026900069857A858B859C850E94E32D2D813E81FD
:1026A0004F8158850E94E32D9B01AC01C501B40107
:1026B0000E94FF2E29893A894B895C890E947F2FCD
:1026C00023E333E345E652E40E94E32D60937E0466
:1026D00070937F048093800490938104209166041A
:1026E0003091670440916804509169040E94FF2E64
:1026F0006B017C0120E030E044E353E40E9411319F
:1027000018163CF520E030E044EB53E4C701B60175
:102710000E94FF2E6B017C01C0926A04D0926B0470
:10272000E0926C04F0926D0464960FB6F894DEBFEC
:102730000FBECDBFDF91CF91FF90EF90DF90CF9094
:10274000BF90AF909F908F907F906F905F904F90D1
:10275000089520E030E044E353ECC701B6010E9445
:102760007D2D87FFD9CF20E030E044EB53E4C70153
:10277000B6010E94002FCECF4F925F926F927F9250
:102780008F929F92AF92BF92CF92DF92EF92FF9281
:10279000CF93DF9300D000D0CDB7DEB787EA91E0CA
:1027A0000E94FB042B013C0184EA91E00E94FB049F
:1027B0004B015C0181EA91E00E94FB0469837A830A
:1027C0008B839C83A3019201C301B2010E94E32D7C
:1027D0006B017C01A5019401C501B4010E94E32DA8
:1027E0009B01AC01C701B6010E94002F6B017C0167
:1027F00029813A814B815C81CA01B9010E94E32D94
:102800009B01AC01C701B6010E94002F0E942C3130
:102810006B017C0123E333E343E35FE30E94113167
:1028200018160CF050C026E636E646EA5FE3C7010C
:10283000B6010E947D2D87FF46C0A7019601C30106
:10284000B2010E947D2D87FF3EC0A7019601C50100
:10285000B4010E947D2D87FF36C0A70196016981D2
:102860007A818B819C810E947D2D87FF2CC0A701DE
:102870009601C301B2010E94E32F0E94EE2E23E3D2
:1028800033E345E652E40E94E32D60936E047093B7
:102890006F048093700490937104A7019601C501A1
:1028A000B4010E94E32F0E94EE2E23E333E345E6BA
:1028B00052E40E94E32D609362047093630480935A
:1028C0006404909365040F900F900F900F90DF9128
:1028D000CF91FF90EF90DF90CF90BF90AF909F90FF
:1028E0008F907F906F905F904F9008954F925F927E
:1028F0006F927F928F929F92AF92BF92CF92DF9210
:10290000EF92FF92CF93DF93CDB7DEB764970FB608
:10291000F894DEBF0FBECDBF80919801813009F0E1
:1029200058C0109298011092760410927704109279
:102930007804109279041092660410926704109241
:102940006804109269041092720410927304109239
:102950007404109275040E94C5090E94BC130E9461
:10296000951210920F011092100110921101109205
:10297000120180916E0490916F04A0917004B09147
:1029800071048093760490937704A0937804B093B5
:10299000790480916A0490916B04A0916C04B091C9
:1029A0006D048093660490936704A0936804B093C9
:1029B00069048091620490916304A0916404B091D1
:1029C00065048093720490937304A0937404B0938D
:1029D000750487EA91E00E94B3046B017C01809149
:1029E0001F0190912001A0912101B09122018987BE
:1029F0009A87AB87BC8720E030E044EB52E4BC010F
:102A0000CD010E94FF2E23E333E345E652E40E940A
:102A1000E32F2B013C010E94DE2F9B01AC01C7017B
:102A2000B6010E94E32D6B017C0181EA91E00E94D6
:102A3000B3044B015C01C301B2010E941E312B01A2
:102A40003C0180917F0190918001A0918101B09122
:102A5000820189839A83AB83BC839C01AD0160E0D2
:102A600070E080E89FE30E94FF2E698B7A8B8B8B4E
:102A70009C8BA3019201C501B4010E94E32DA70123
:102A800096010E94002F20E030E04AEF52E40E94BD
:102A9000E32F20917A0430917B0440917C04509183
:102AA0007D040E94002F29813A814B815C810E9424
:102AB000E32D6B017C01209162043091630440910D
:102AC00064045091650469897A898B899C890E9484
:102AD000E32D9B01AC01C701B6010E94002F6D835D
:102AE0007E838F83988760937A0470937B048093AE
:102AF0007C0490937D0484EA91E00E94B3044B012E
:102B00005C0120E030E044EB52E46D817E818F81F6
:102B100098850E94FF2E23E333E345E652E40E94AA
:102B2000E32F6B017C010E94DE2F9B01AC01C501EC
:102B3000B4010E94E32D2B013C0181EA91E00E9447
:102B4000B3044B015C01C701B6010E941E316D87C1
:102B50007E878F87988B9B01AC01C501B4010E94D1
:102B6000E32D9B01AC01C301B2010E94FF2E20E0C6
:102B700030E04AEF52E40E94E32F29853A854B85E5
:102B80005C850E94002F29813A814B815C810E94E3
:102B9000E32D6B017C0120916E0430916F04409114
:102BA00070045091710469897A898B899C890E948B
:102BB000E32D9B01AC01C701B6010E94002F6B0100
:102BC0007C01C0921F01D0922001E0922101F0927D
:102BD000220181EA91E00E94B3044B015C0120E0F4
:102BE00030E044EB52E4C701B6010E94FF2E23E31C
:102BF00033E345E652E40E94E32F2B013C010E949F
:102C0000DE2F9B01AC01C501B4010E94E32D698355
:102C10007A838B839C8387EA91E00E94B3044B0103
:102C20005C01C301B2010E941E319B01AC01C501D0
:102C3000B40190580E94E32D29813A814B815C8137
:102C40000E94002F2B013C0184EA91E00E94B30412
:102C50009B01AC0180907B0190907C01A0907D0154
:102C6000B0907E016D857E858F8598890E94E32DC9
:102C7000A30192010E94002F20E030E04AEF52E4CD
:102C80000E94E32F20910F0130911001409111011A
:102C9000509112010E94002FA50194010E94E32D82
:102CA0002B013C01A501940160E070E080E89FE306
:102CB0000E94FF2E20916A0430916B0440916C04B5
:102CC00050916D040E94E32D9B01AC01C301B20140
:102CD0000E94002F69837A838B839C8360930F010A
:102CE00070931001809311019093120180916104FF
:102CF000882309F4F0C18090870190908801A0900A
:102D00008901B0908A01A501940160E070E080E83B
:102D10009FE30E94FF2E2B013C012091090130917D
:102D20000A0140910B0150910C010E94E32D69872B
:102D30007A878B879C87A5019401C701B6010E9401
:102D4000E32D9B01AC0169857A858B859C850E946A
:102D5000002F6B017C01C0921B01D0921C01E092FC
:102D60001D01F0921E01C0920901D0920A01E09269
:102D70000B01F0920C012091050130910601409168
:102D8000070150910801C301B2010E94E32D2B01FC
:102D90003C01A50194016D817E818F8198850E94FF
:102DA000E32D9B01AC01C301B2010E94002F4B0136
:102DB0005C018092170190921801A0921901B092C3
:102DC0001A018092050190920601A0920701B0922B
:102DD00008014090830150908401609085017090BB
:102DE0008601A301920160E070E080E89FE30E9409
:102DF000FF2E209101013091020140910301509179
:102E000004010E94E32D6D837E838F839887A30145
:102E1000920169817A818B819C810E94E32D9B01C3
:102E2000AC016D817E818F8198850E94002F2B01DE
:102E30003C0140921301509214016092150170926E
:102E400016014092010150920201609203017092BA
:102E5000040160916C01062E000C770B880B990B16
:102E60000E94842DA30192010E94E32D2091730101
:102E70003091740140917501509176010E94E32DCB
:102E80002B013C0160916801709169017195619518
:102E90007109072E000C880B990B0E94842DA30149
:102EA00092010E947D2D87FF34C060916601709170
:102EB0006701072E000C880B990B0E94842DA3013B
:102EC00092010E941131181624F590915701E4E007
:102ED0009E9FD0011124AD5DBE4FBA83A98360913E
:102EE0006A0170916B01072E000C880B990B0E94F0
:102EF000842DA30192010E94002F0E945530072EBD
:102F0000000C880B990BE981FA81608371838283BD
:102F10009383209176043091770440917804509106
:102F20007904C701B6010E94FF2E6B017C016091FC
:102F30006E01062E000C770B880B990B0E94842DD6
:102F40009B01AC01C701B6010E94E32D20917701DE
:102F5000309178014091790150917A010E94E32DDE
:102F60006B017C01609162017091630171956195C3
:102F70007109072E000C880B990B0E94842DA70164
:102F800096010E947D2D87FF35C060916001709190
:102F90006101072E000C880B990B0E94842DA7015C
:102FA00096010E94113118162CF5F0915801A4E0F9
:102FB000FA9FC00111248D5D9E4F9A838983609191
:102FC000640170916501072E000C880B990B0E941B
:102FD000842DA70196010E94002F0E945530072ED4
:102FE000000C880B990BA981BA816D937D938D9309
:102FF0009C93139720917204309173044091740450
:1030000050917504C501B4010E94FF2E6B017C0133
:1030100060916D01062E000C770B880B990B0E94B6
:10302000842D9B01AC01C701B6010E94E32D2091C4
:103030006F013091700140917101509172010E94B5
:10304000E32D6B017C0160915C0170915D017195D4
:1030500061957109072E000C880B990B0E94842D35
:10306000A70196010E947D2D87FF35C060915A010E
:1030700070915B01072E000C880B990B0E94842D28
:10308000A70196010E94113118162CF5B091590133
:1030900024E0B29FF0011124ED5DFE4FFA83E98335
:1030A00060915E0170915F01072E000C880B990BF7
:1030B0000E94842DA70196010E94002F0E94553086
:1030C000072E000C880B990BA981BA816D937D9313
:1030D0008D939C93139764960FB6F894DEBF0FBE42
:1030E000CDBFDF91CF91FF90EF90DF90CF90BF9059
:1030F000AF909F908F907F906F905F904F900895CA
:103100000C94A92E0F931F93CF93DF93C9E8D4E0BB
:10311000088119810053184F602F8EEC90E00E94B7
:103120008018612F8FEC90E00E9480180A811B812B
:103130000053184F602F80ED90E00E948018612F9F
:1031400081ED90E00E9480180C811D810053184F82
:10315000602F82ED90E00E948018612F83ED90E057
:103160000E94801880EF91E00E94BE0588819981BD
:103170000E94080684E092E00E94BE058A819B813D
:103180000E94080684E092E00E94BE058C819D8129
:10319000DF91CF911F910F910C940E061F93CF9347
:1031A000DF93CFE8D4E020E030E04AEF54E46881D8
:1031B00079818A819B810E94002F0E945530172FB0
:1031C00088EC90E00E948018612F89EC90E00E94CA
:1031D000801820E030E04AEF54E46C817D818E81DC
:1031E0009F810E94002F0E945530172F8AEC90E09B
:1031F0000E948018612F8BEC90E00E94801820E0E4
:1032000030E04AEF54E4688579858A859B850E9481
:10321000002F0E945530172F8CEC90E00E948018F0
:10322000612F8DEC90E00E94801886E092E00E9471
:10323000BE05688179818A819B810E94F6068AE1B8
:1032400092E00E94BE056C817D818E819F810E94EB
:10325000F6068AE192E00E94BE05688579858A8536
:103260009B85DF91CF911F910C94F9061F93CF930B
:10327000DF9320E030E048EC52E4609187017091E8
:1032800088018091890190918A010E94E32D0E941A
:103290005C3081E090E00E94801820E030E048EC53
:1032A00052E4609183017091840180918501909135
:1032B00086010E94E32D0E945C3082E090E00E9433
:1032C000801820E030E048EC52E460917F0170917A
:1032D000800180918101909182010E94E32D0E94E2
:1032E0005C3083E090E00E94801820E030E048EC01
:1032F00052E460917B0170917C0180917D019091FD
:103300007E010E94E32D0E945C3084E090E00E94E8
:1033100080186091AD0485E090E00E948018609173
:103320006A0187E090E00E94801860916B0188E05C
:1033300090E00E94801820E030E040E251E460918B
:103340007701709178018091790190917A010E94C2
:10335000E32D0E945C3089E090E00E94801820E01C
:1033600030E040E251E46091770170917801809102
:10337000790190917A010E94E32D0E945530672FC8
:103380008AE090E00E94801820E030E040E251E4C2
:103390006091730170917401809175019091760133
:1033A0000E94E32D0E945C308BE090E00E94801828
:1033B00020E030E040E251E46091730170917401CB
:1033C00080917501909176010E94E32D0E94553005
:1033D000672F8CE090E00E94801820E030E040E20F
:1033E00051E460916F017091700180917101909131
:1033F00072010E94E32D0E945C308DE090E00E94FB
:10340000801820E030E040E251E460916F0170915B
:10341000700180917101909172010E94E32D0E94D0
:103420005530672F8EE090E00E9480186091640113
:1034300080E190E00E9480186091650181E190E058
:103440000E94801860915E0182E190E00E948018E5
:1034500060915F0183E190E00E94801860916601B5
:1034600084E190E00E9480186091670185E190E01E
:103470000E9480186091680186E190E00E948018A7
:103480006091690187E190E00E948018609160017D
:1034900088E190E00E9480186091610189E190E0EC
:1034A0000E948018609162018AE190E00E94801879
:1034B000609163018BE190E00E94801860915A0155
:1034C0008CE190E00E94801860915B018DE190E0BA
:1034D0000E94801860915C018EE190E00E9480184B
:1034E00060915D018FE190E00E948018C7E5D1E016
:1034F000688180E290E00E948018698181E290E01A
:103500000E9480186A8182E290E00E948018CBE9D4
:10351000D4E020E030E44AEF53E4688179818A8185
:103520009B810E94002F0E945530172F83E290E06C
:103530000E948018612F84E290E00E94801820E0B1
:1035400030E44AEF53E46C817D818E819F810E943B
:10355000002F0E945530172F85E290E00E948018BE
:10356000612F86E290E00E94801820E030E44AEF6C
:1035700053E4688579858A859B850E94002F0E9487
:103580005530C72F87E290E00E9480186C2F88E2A8
:1035900090E00E94801860913A0589E290E00E94D4
:1035A00080186BE090E080E00E9480188DE192E04E
:1035B000DF91CF911F910C94C4050C94A12E1F9202
:1035C0000F920FB60F9211242F933F934F935F9357
:1035D0006F937F938F939F93AF93BF93EF93FF93DB
:1035E0008FEA95E00E94CE01FF91EF91BF91AF91DC
:1035F0009F918F917F916F915F914F913F912F910B
:103600000F900FBE0F901F9018951F920F920FB63C
:103610000F9211242F938F939F93EF93FF93E09139
:10362000BF05F091C0058081E091C505F091C60508
:1036300082FD1BC090818091C8058F5F8F732091A0
:10364000C905821741F0E091C805F0E0E155FA4F55
:10365000958F8093C805FF91EF919F918F912F9146
:103660000F900FBE0F901F9018958081F4CF1F927E
:103670000F920FB60F9211242F933F938F939F9326
:10368000AF93BF938091590490915A04A0915B0429
:10369000B0915C043091580423E0230F2D3758F586
:1036A0000196A11DB11D2093580480935904909355
:1036B0005A04A0935B04B0935C0480915D049091E4
:1036C0005E04A0915F04B09160040196A11DB11D3C
:1036D00080935D0490935E04A0935F04B0936004B4
:1036E000BF91AF919F918F913F912F910F900FBEFE
:1036F0000F901F90189526E8230F0296A11DB11D6B
:10370000D2CF1F920F920FB60F9211242F933F9397
:103710004F935F936F937F938F939F93AF93BF93D9
:10372000EF93FF938091B900887F803609F44AC0F7
:10373000F0F5883209F4A7C018F5803109F49BC070
:10374000B8F4882309F4F9C0883009F494C0FF91D3
:10375000EF91BF91AF919F918F917F916F915F9109
:103760004F913F912F910F900FBE0F901F90189582
:10377000883109F488C0803251F78093880514C0DD
:10378000803409F49DC040F48033B9F38833F9F6EE
:103790008093880585ECB0C0803509F485C08835F4
:1037A00009F496C0883499F60E949C03D0CF8839DA
:1037B00009F48CC038F5883729F050F4883611F0B8
:1037C000803729F683E080938A051092570457C00A
:1037D000883809F47BC0803919F0803809F0B7CFF8
:1037E00080915704803208F071C0E091570481E065
:1037F0008E0F809357048091BB00F0E0E95CFB4F93
:1038000080833DC0803B39F0E0F4803A09F479C010
:10381000883A09F09CCF84E080938A0510923604A0
:1038200010923504E0914005F09141050995809191
:10383000350481110FC081E0809335041092150486
:1038400009C0803C09F4A6CF883C09F4A3CF883B8B
:1038500009F07DCFE091360481E08E0F809336042D
:10386000F0E0EB5EFB4F80818093BB0090913604CB
:103870008091350429C0809165058093BB0085EC5B
:103880008093BC0064CF909187058091860598173E
:1038900058F5E091870581E08E0F80938705F0E071
:1038A000EA59FA4F8081E9CFE091870581E08E0FD8
:1038B000809387058091BB00F0E0EA59FA4F80833E
:1038C00090918705809186059817C8F285E8D8CF32
:1038D000E091870581E08E0F809387058091BB0082
:1038E000F0E0EA59FA4F80838091890581115CCF1D
:1038F00081E08093640584EA8093BC0010928A057D
:1039000026CF85EC8093BC0010928A0580915704E5
:10391000803230F4E0915704F0E0E95CFB4F108214
:103920006091570470E0E0913E05F0913F0587E318
:1039300094E00995109257040ACF1092880534CF6D
:103940001F920F920FB60F9211242F933F934F9314
:103950005F938F939F93AF93BF93EF93FF93809168
:103960006F008F7D80936F00809181008091810036
:1039700090E4892780938100809186009091870050
:103980002091110430911204AC018217930750F575
:1039900048535045421B530B509314044093130457
:1039A0009093120480931104209113043091140415
:1039B0002D3755E13507E8F01092100480916F0023
:1039C000806280936F00FF91EF91BF91AF919F91C3
:1039D0008F915F914F913F912F910F900FBE0F905C
:1039E0001F901895421B530B5093140440931304DB
:1039F000D7CFE0911004E4319CF5293E83E03807ED
:103A0000E8F2203A4FE0340778F58E2F0E2E000CA6
:103A1000990B0196409157014817190679F2409188
:103A200058014817190651F24091590148171906D3
:103A300029F2EF5FE09310040E2E000CFF0BE55708
:103A4000FE4FE08154E0E59FF0011124ED5DFE4F53
:103A5000C901B0E0A0E080839183A283B383AECF9D
:103A6000293E334008F4AACFEF5FE0931004A6CFBD
:103A70001F920F920FB60F9211242F933F934F93E3
:103A80005F936F937F938F939F93AF93BF93EF93C6
:103A9000FF9381E080938804809133058F5F80934A
:103AA000330580913C058F5F80933C0580913505FF
:103AB0008F5F8093350580913705882339F0809199
:103AC00036058F5F80319CF480933605FF91EF912E
:103AD000BF91AF919F918F917F916F915F914F9126
:103AE0003F912F910F900FBE0F901F90189510923D
:103AF00036058DE00E948B0261E0892B09F060E0C1
:103B00008DE00E94B402E2CF1F920F920FB60F9287
:103B100011242F933F934F935F936F937F938F93D2
:103B20009F93AF93BF93EF93FF9380918800909101
:103B30008900883C9F4A91F480EC8093800081E06A
:103B40008093000184E893E090938900809388003B
:103B500080918100877F8093810022C08091000145
:103B6000813019F480E4809380004091000141315C
:103B7000D0F5E42FF0E0CF01019762E070E00E9401
:103B80009E310197F1F480918800909189008C57C3
:103B90009C4F90938900809388004F5F4093000171
:103BA000FF91EF91BF91AF919F918F917F916F9115
:103BB0005F914F913F912F910F900FBE0F901F90EB
:103BC000189580918800909189003196F595E79538
:103BD000EE0FFF1FEE0FFF1FED5DFE4F20813181C5
:103BE000820F931FD6CF88EC9FEA90938900809331
:103BF0008800809181008860AECF1F920F920FB62F
:103C00000F9211242F933F934F935F936F937F9362
:103C10008F939F93AF93BF93EF93FF9383E094E0D1
:103C20000E94BE05FF91EF91BF91AF919F918F913F
:103C30007F916F915F914F913F912F910F900FBEA8
:103C40000F901F901895CF93DF93EFEAF5E0138262
:103C5000128288EE93E0A0E0B0E084839583A6838F
:103C6000B7832EEA31E03183208325EC30E03587BD
:103C7000248724EC30E03787268720EC30E0318B36
:103C8000208B21EC30E0338B228B22EC30E0358B23
:103C9000248B26EC30E0378B268B118E128E138E00
:103CA000148EECE4F6E01382128284839583A6835B
:103CB000B78380EC91E091838083C8E5D6E084E609
:103CC00090E09093CE068093CD0680E090E0A0E84F
:103CD000BFE38093170790931807A0931907B09339
:103CE0001A0780931B0790931C07A0931D07B0939E
:103CF0001E0780931F0790932007A0932107B0937E
:103D0000220728EE33E030932407209323074AE963
:103D100059E969E97EE340932507509326076093AC
:103D200027077093280728E02093290780936407CA
:103D300090936507A0936607B09367078093680721
:103D400090936907A0936A07B0936B0780936C0701
:103D500090936D07A0936E07B0936F07FA83E98382
:103D600088E68883DF91CF910895CF93DF93CDB715
:103D7000DEB7EE970FB6F894DEBF0FBECDBF7894D6
:103D800084B5826084BD84B5816084BD85B5826060
:103D900085BD85B5816085BD80916E008160809311
:103DA0006E0010928100809181008260809381007A
:103DB000809181008160809381008091800081608A
:103DC000809380008091B10084608093B1008091E5
:103DD000B00081608093B00080917A00846080930D
:103DE0007A0080917A00826080937A0080917A00D4
:103DF000816080937A0080917A00806880937A0055
:103E00001092C10061E089E00E94140361E082E049
:103E10000E94B40261E083E00E94B40260E080E0AE
:103E20000E94140360E081E00E94140360E082E0DD
:103E30000E94140360E083E00E94140360E086E0C7
:103E40000E94140360E087E00E94140360E088E0B1
:103E50000E94140361E08CE00E94140361E08CE096
:103E60000E94B40260E08BE00E94140361E08BE0EA
:103E70000E94B40260E080E00E94B40260E081E051
:103E80000E94B40261E082E00E94B40261E083E03B
:103E90000E94B40261E08DE00E94140361E08DE0B5
:103EA0000E94B4028BE00E948B02892B81F4109255
:103EB0003905109238058BE00E948B02892B69F43A
:103EC00064E670E080E090E00E946A03F4CF81E055
:103ED00090E0909339058093380568EC70E080E0BD
:103EE00090E00E946A0360E08DE00E94B4020E94AC
:103EF000E2020E94250B97FD2DC481E090E0909393
:103F00000E0180930D0190E080E00E94DD1A8B305D
:103F100058F460913A0589E290E00E9480186BE0C5
:103F200090E080E00E94801890E080E00E94DD1A1E
:103F30008B3041F00E94380E0E9436190E94CE1834
:103F40000E94821881E090E00E94DD1A682F70E0E4
:103F500090E080E00E94822D20E030E048EC52E4C6
:103F60000E94E32F609387017093880180938901F9
:103F700090938A0182E090E00E94DD1A682F70E041
:103F800090E080E00E94822D20E030E048EC52E496
:103F90000E94E32F609383017093840180938501D5
:103FA0009093860183E090E00E94DD1A682F70E014
:103FB00090E080E00E94822D20E030E048EC52E466
:103FC0000E94E32F60937F017093800180938101B1
:103FD0009093820184E090E00E94DD1A682F70E0E7
:103FE00090E080E00E94822D20E030E048EC52E436
:103FF0000E94E32F60937B0170937C0180937D018D
:1040000090937E0181E080936E0180936D01809397
:104010006C0185E090E00E94DD1A80FF03C09FEFF5
:1040200090936E0181FF03C09FEF90936D0182FF1B
:1040300003C08FEF80936C0187E090E00E94DD1A4F
:10404000182F88E090E00E94DD1A90E0982F8827D2
:10405000810F911D90936B0180936A0189E090E03C
:104060000E94DD1A182F8AE090E00E94DD1A682F66
:1040700070E0762F6627610F711D072E000C880BEC
:10408000990B0E94842D20E030E040E251E40E9430
:10409000E32F609377017093780180937901909377
:1040A0007A018BE090E00E94DD1A182F8CE090E0FE
:1040B0000E94DD1A682F70E0762F6627610F711D50
:1040C000072E000C880B990B0E94842D20E030E015
:1040D00040E251E40E94E32F6093730170937401F6
:1040E00080937501909376018DE090E00E94DD1A37
:1040F000182F8EE090E00E94DD1A682F70E0762F76
:104100006627610F711D072E000C880B990B0E940A
:10411000842D20E030E040E251E40E94E32F6093E0
:104120006F0170937001809371019093720180E12F
:1041300090E00E94DD1A182F81E190E00E94DD1AC4
:1041400090E0982F8827810F911D909365018093AF
:10415000640182E190E00E94DD1A182F83E190E073
:104160000E94DD1A90E0982F8827810F911D90936F
:104170005F0180935E0184E190E00E94DD1A182FB8
:1041800085E190E00E94DD1A90E0982F8827810F4A
:10419000911D909367018093660186E190E00E94F3
:1041A000DD1A182F87E190E00E94DD1A90E0982F29
:1041B0008827810F911D909369018093680188E1A0
:1041C00090E00E94DD1A182F89E190E00E94DD1A2C
:1041D00090E0982F8827810F911D90936101809323
:1041E00060018AE190E00E94DD1A182F8BE190E0D7
:1041F0000E94DD1A90E0982F8827810F911D9093DF
:104200006301809362018CE190E00E94DD1A182F17
:104210008DE190E00E94DD1A90E0982F8827810FB1
:10422000911D90935B0180935A018EE190E00E9472
:10423000DD1A182F8FE190E00E94DD1A90E0982F90
:104240008827810F911D90935D0180935C0180E22E
:1042500090E00E94DD1A8093570181E290E00E9475
:10426000DD1A8093580182E290E00E94DD1A80936B
:10427000590183E290E00E94DD1A182F84E290E059
:104280000E94DD1A682F70E0762F6627610F711D7E
:10429000645F7140072E000C880B990B0E94842DDF
:1042A00060939B0470939C0480939D0490939E0460
:1042B00085E290E00E94DD1A182F86E290E00E94CD
:1042C000DD1A682F70E0762F6627610F711D645F1D
:1042D0007140072E000C880B990B0E94842D60936F
:1042E0009F047093A0048093A1049093A20487E29A
:1042F00090E00E94DD1A182F88E290E00E94DD1AFB
:10430000682F70E0762F6627610F711D645F714022
:10431000072E000C880B990B0E94842D6093A30438
:104320007093A4048093A5049093A60488EC90E075
:104330000E94DD1A182F89EC90E00E94DD1A682F88
:1043400070E0762F6627610F711D605D7740072E44
:10435000000C880B990B0E94842D60938F0470933E
:10436000900480939104909392048AEC90E00E94D0
:10437000DD1A182F8BEC90E00E94DD1A682F70E098
:10438000762F6627610F711D605D7740072E000C48
:10439000880B990B0E94842D60939304709394046E
:1043A00080939504909396048CEC90E00E94DD1A23
:1043B000182F8DEC90E00E94DD1A682F70E0762FA8
:1043C0006627610F711D605D7740072E000C880B1A
:1043D000990B0E94842D60939704709398048093A6
:1043E000990490939A048EEC90E00E94DD1A182FA5
:1043F0008FEC90E00E94DD1A90E0982F8827810FC3
:10440000911D805D974090938A048093890480ED8C
:1044100090E00E94DD1A182F81ED90E00E94DD1AD5
:1044200090E0982F8827810F911D805D9740909391
:104430008C0480938B0482ED90E00E94DD1A182F8B
:1044400083ED90E00E94DD1A90E0982F8827810F7D
:10445000911D805D974090938E0480938D0489E236
:1044600090E00E94DD1A182F80933A05882339F0D6
:104470008091380590913905892B09F070C10E940F
:10448000C600113089F080E4809380008AEC80932C
:1044900081001092820082E080936F0084E893E0B4
:1044A000909389008093880082E084BD95E095BD5B
:1044B00080936E0080E887BD80913A05823009F4D0
:1044C0007AC00E94380E109298011AEF0E94C50916
:1044D0000E94BC130E9495120E9476141150B1F7ED
:1044E00080916E0490916F04A0917004B09171045A
:1044F0008093760490937704A0937804B093790422
:1045000080916A0490916B04A0916C04B0916D0449
:104510008093660490936704A0936804B093690441
:104520008091620490916304A0916404B091650449
:104530008093720490937304A0937404B0937504F1
:104540000E94C5090E94BC130E9495120E94761415
:1045500080916A0490916B04A0916C04B0916D04F9
:1045600080930F0190931001A0931101B093120159
:1045700080916E0490916F04A0917004B0917104C9
:1045800080931F0190932001A0932101B0932201F9
:104590008091620490916304A0916404B0916504D9
:1045A00080937A0490937B04A0937C04B0937D0461
:1045B00081E08093610482E084BD95E095BD8093A5
:1045C0006E0080E887BD9AE0E92E8E010F5F1F4FD5
:1045D000FF24F394BCE28B2E99249A9480E0A82EB9
:1045E00080E0B82E8BE00E948B02DD24D3940097EC
:1045F00009F0D12C20913D05D21210923C0520915A
:104600003C05243068F120913B05D21649F12091F8
:104610003A05D0923B05892B09F0ABC0223009F056
:10462000A5C08091380590913905019709F09EC089
:104630008EE590E00E943D021092370510923605FB
:1046400010929A01F092990110923505109234055A
:10465000109233051092320561E08DE00E94B402A1
:10466000C0903B0581E0C81226C0809132058111BF
:1046700022C0809133058E35F0F080913A0582306A
:1046800009F07DC08091380590913905019709F0B6
:1046900076C08AE290E00E943D02109237051092A7
:1046A000360510929901C0929A0110923505109228
:1046B0003405F0923205D0923D05D0903A0592E053
:1046C000D91234C08091380590913905019771F560
:1046D00080919A01811113C0809135058D3078F059
:1046E0008091340583305CF48F5F80933405F092C1
:1046F0003705109235058EE590E00E943D028091CD
:104700009901811113C0809135058D3078F0809129
:10471000340583305CF48F5F80933405F092370565
:10472000109235058AE290E00E943D028FEA95E002
:104730000E94AE01892B09F43CC08FEA95E00E94EB
:104740008C01843231F5F092300510922F051092D1
:104750002E052FC010920E0110920D01D4CB0E9495
:10476000C60060E08CE00E94B4028BCEF09298010B
:104770006FCF8091370581119ECF60E06ECF81E0D1
:1047800090913105911180E080933105F09298016C
:1047900090CF8E3509F098C01092300510922F05F9
:1047A00010922E05F0929801E2E0DE127EC0F092A7
:1047B0009A0180918804813009F06BC080913105A5
:1047C000811167C080913A05823009F462C00E946D
:1047D000C5090E94BC130E9495120E947614809114
:1047E0003A05813009F0FCC6809138059091390571
:1047F000019709F0F5C6E091570184E0E89FF001C8
:104800001124ED5DFE4FC080D1808091860490918F
:1048100087048C199D0997FF03C091958195910993
:1048200006977CF085E290E00E943D02C6010E945E
:10483000080680E590E00E943D02D0928704C09275
:104840008604E091580194E0E99FF0011124ED5DA8
:10485000FE4FC080D18080918404909185048C1992
:104860009D0997FF03C091958195910906977CF06A
:1048700085E290E00E943D02C6010E94080684E5A0
:1048800090E00E943D02D0928504C0928404109270
:104890008804A114B10409F4A5CE0E94BA018823AA
:1048A00009F496CE0E94000093CEF1E0DF1281CF92
:1048B0008091380590913905019709F07ACF8EE5FE
:1048C00090E00E943D0275CF8A3211F510923005BA
:1048D00010922F0510922E0581E0909131059111D3
:1048E00080E080933105F092980182E0D81203C0F5
:1048F000F09299015ECF91E0D9125BCF809138059B
:1049000090913905019709F054CF8AE290E0D9CF10
:10491000853241F4E2E0DE1205C010923005F092DB
:104920002F0515CF90913005913009F0FFC5E0912A
:104930002E05DD24D394DE0ED0922E05F0E0E25554
:10494000FB4F8083FEE0DF121CC08091BA048334E9
:10495000C1F48091BB048834A1F4AEEAB4E080E0F5
:10496000ED918F5FEE3334F40E2E000CFF0BE55A01
:10497000FE4F80838D30A1F78CE292E00E94C40547
:1049800059C265E472E0C8010E944C12C8010E943D
:104990003F05C82EC8010E944412CC2009F431C141
:1049A0008091380590913905892B21F488E492E0B3
:1049B0000E94C405F801882D11928A95E9F720918B
:1049C0002E052250330BD12C50E040E08D2D90E08D
:1049D000821793071CF582559B4FFC0180818C3216
:1049E00021F44F5F5F4FD394F1CF90ED980F9A3041
:1049F000D0F7FA01EE0FFF1FE00FF11FA081B18188
:104A0000EA9EB001EB9E700D1124082E000C990B4C
:104A1000C097860F971F91838083E5CF69817A8144
:104A2000072E000C880B990B0E94842D20E030E0AB
:104A300048EC52E40E94E32F609387017093880151
:104A40008093890190938A016B817C81072E000CF1
:104A5000880B990B0E94842D20E030E048EC52E452
:104A60000E94E32F609383017093840180938501FA
:104A7000909386016D817E81072E000C880B990B27
:104A80000E94842D20E030E048EC52E40E94E32FA5
:104A900060937F01709380018093810190938201E4
:104AA0006F817885072E000C880B990B0E94842D4E
:104AB00020E030E048EC52E40E94E32F60937B0159
:104AC00070937C0180937D0190937E0169857A8546
:104AD000072E000C880B990B0E94842D20E030E0FB
:104AE00040E251E40E94E32F6093770170937801D4
:104AF0008093790190937A016B857C85072E000C59
:104B0000880B990B0E94842D20E030E040E251E4B4
:104B10000E94E32F60937301709374018093750179
:104B2000909376016D857E85072E000C880B990B7E
:104B30000E94842D20E030E040E251E40E94E32F07
:104B400060936F0170937001809371019093720173
:104B50008F858093AD04F0926E01F0926D0182FD1D
:104B60004DC0F0926C0181FD90926D0180FD90929C
:104B70006E0189899A8990936B0180936A018B8970
:104B80009C8990936901809368018D899E89909397
:104B90006701809366018F89988D9093650180935A
:104BA0006401898D9A8D90936301809362018B8D4E
:104BB0009C8D90936101809360018D8D9E8D90936B
:104BC0005F0180935E018F8D98A190935D0180932A
:104BD0005C0189A19AA190935B0180935A018BA1FA
:104BE000809357018DA1809358018FA18093590123
:104BF00089A580933A050E9436191CC190926C01D8
:104C0000B2CF6CE572E0C8010E944C12C8010E944C
:104C10003F05C82EC8010E944412CC2009F40FC1E0
:104C20000E94C00582E692E00E94C4058AE792E0F5
:104C30000E94BE056FE175E88BE89FE30E94F906CC
:104C400087E892E00E94BE0580E992E00E94C405D8
:104C500088E992E00E94BE0560913A0570E090E01C
:104C600080E04AE00E947A050E94C00582EA92E054
:104C70000E94BE0560918701709188018091890131
:104C800090918A010E94F90681EB92E00E94BE0594
:104C900060918301709184018091850190918601DA
:104CA0000E94F9068BEB92E00E94BE0560917F01A5
:104CB0007091800180918101909182010E94F9069A
:104CC00080ED92E00E94BE0560917B0170917C01B5
:104CD00080917D0190917E010E94F90680EE92E024
:104CE0000E94BE0580916A0190916B010E940E06A0
:104CF00081EF92E00E94BE05809164019091650170
:104D00000E940E0683E093E00E94BE0580915E0142
:104D100090915F010E940E0685E193E00E94BE051E
:104D200060917701709178018091790190917A0179
:104D30000E94F90682E293E00E94BE056091730131
:104D40007091740180917501909176010E94F9062D
:104D50008EE293E00E94BE0560919B0470919C04DA
:104D600080919D0490919E040E94F60684E092E05A
:104D70000E94BE0560919F047091A0048091A104DF
:104D80009091A2040E94F60684E092E00E94BE0583
:104D90006091A3047091A4048091A5049091A6044D
:104DA0000E94F9068DE092E00E94BE0560918F049A
:104DB0007091900480919104909192040E94F60663
:104DC00084E092E00E94BE05609193047091940487
:104DD00080919504909196040E94F60684E092E0FA
:104DE0000E94BE0560919704709198048091990487
:104DF00090919A040E94F90687EF91E00E94BE0507
:104E00008091890490918A040E94080684E092E0CF
:104E10000E94BE0580918B0490918C040E9408062C
:104E200084E092E00E94BE0580918D0490918E04F2
:104E30000E940E0610922E0510923005BACC6CE33B
:104E400073E0C8010E944C12C8010E943F05C82EA1
:104E5000C8010E944412CC20F1F081E493E00E944A
:104E6000BE056FE175E88BE89FE30E94F90610929A
:104E70002E051092300580913805909139050197E3
:104E800009F097CC109239051092380561E08CE05A
:104E90000E94B4028ECC66E473E0C8010E944C12FA
:104EA000C8010E943F05C82EC8010E944412CC20B0
:104EB00039F08BE493E00E94BE0580E992E05ECD7C
:104EC00060E573E0C8010E944C12C8010E943F05D2
:104ED000C82E811131C065E573E0CE018D960E9428
:104EE0004C12CE018D960E943F05C82E811120C024
:104EF0006AE573E0CE01C3960E944C12CE01C396C0
:104F00000E943F05C82E81110FC06FE573E0CE01EE
:104F1000C9960E944C12CE01C9960E943F05C82E28
:104F2000CE01C9960E944412CE01C3960E9444123B
:104F3000CE018D960E944412C8010E944412CC20DA
:104F400049F01092AC041092AB041092AA04109293
:104F5000A90416C064E673E0C8010E944C12C8019F
:104F60000E943F05C82EC8010E944412CC2069F05F
:104F7000F092AC041092AB041092A9041092AA040F
:104F80001092A8041092A70455CF69E673E0C801F7
:104F90000E944C12C8010E943F05C82EC8010E9401
:104FA0004412CC2029F0F092AB041092AC04E4CF70
:104FB0006EE673E0C8010E944C12C8010E943F05D2
:104FC000C82EC8010E944412CC2039F0F092A904E6
:104FD0001092AC041092AB04D1CF63E773E0C80128
:104FE0000E944C12C8010E943F05C82EC8010E94B1
:104FF0004412CC2039F0F092AA041092AC04109222
:10500000AB04A5CF68E773E0C8010E944C12C80149
:105010000E943F05C82EC8010E944412CC2069F0AE
:105020001092AC041092AB041092A904F092A80460
:105030001092A7041092AA04FDCE6DE773E0C80198
:105040000E944C12C8010E943F05C82EC8010E9450
:105050004412CC2059F01092AC041092AB04109280
:10506000A9041092A804F092A704E4CF63E873E0C7
:10507000C8010E944C12C8010E943F05C82EC801F9
:105080000E944412C110B7CD68E873E0C8010E94C5
:105090004C12C8010E943F05C82EC8010E9444124C
:1050A000CC2069F10E9436198DE893E00E94BE057C
:1050B00060919B0470919C0480919D0490919E044A
:1050C0000E94F60684E092E00E94BE0560919F0473
:1050D0007091A0048091A1049091A2040E94F60610
:1050E00084E092E00E94BE056091A3047091A40444
:1050F0008091A5049091A6040E94F9069BCE63EAD4
:1051000073E0C8010E944C12C8010E943F05C82EDE
:10511000C8010E944412CC2009F46DC0F8018E2D04
:1051200011928A95E9F7C12C30E020E0ED2DE35093
:10513000FF0BAF018C2D90E084179507FCF482558E
:105140009B4FFC0180818C3221F42F5F3F4FC39431
:10515000F1CFF901EE0FFF1FE00FF11FA081B18128
:10516000EA9EB001EB9E700D1124082E000C990BE5
:10517000C097860F971F91838083E9CF69817A81D9
:10518000605D7740072E000C880B990B0E94842DE0
:1051900060938F0470939004809391049093920491
:1051A0006D817E81605D7740072E000C880B990B26
:1051B0000E94842D609393047093940480939504CB
:1051C000909396046B817C81605D7740072E000C84
:1051D000880B990B0E94842D609397047093980418
:1051E0008093990490939A0410922E0510923005A2
:1051F0000E94CE18DECA67EA73E0C8010E944C1212
:10520000C8010E943F05C82EC8010E944412CC204C
:1052100009F44FC0F8018E2D11928A95E9F7C12C3F
:1052200030E020E0ED2DE350FF0BAF018C2D90E03E
:1052300084179507FCF482559B4FFC0180818C32CA
:1052400021F42F5F3F4FC394F1CFF901EE0FFF1F01
:10525000E00FF11FA081B181EA9EB001EB9E700DBD
:105260001124082E000C990BC097860F971F91836D
:105270008083E9CF89819A81805D974090938A04E9
:10528000809389048B819C81805D974090938C04EE
:1052900080938B048D819E81805D974090938E04D6
:1052A00080938D0410922E05109230050E94821872
:1052B00080CA6BEA73E0C8010E944C12C8010E94C8
:1052C0003F05C82EC8010E944412CC2009F427C112
:1052D00080EB93E00E94BE0520E030E048EC52E411
:1052E00060918701709188018091890190918A0174
:1052F0000E94E32D0E94F60684E092E00E94BE0523
:1053000020E030E048EC52E4609183017091840128
:1053100080918501909186010E94E32D0E94F606FE
:1053200084E092E00E94BE0520E030E048EC52E4C8
:1053300060917F0170918001809181019091820143
:105340000E94E32D0E94F60684E092E00E94BE05D2
:1053500020E030E048EC52E460917B0170917C01E8
:1053600080917D0190917E010E94E32D0E94F606BE
:1053700084E092E00E94BE0520E030E040E251E48B
:1053800060917701709178018091790190917A0113
:105390000E94E32D0E94F60684E092E00E94BE0582
:1053A00020E030E040E251E46091730170917401BB
:1053B00080917501909176010E94E32D0E94F6067E
:1053C00084E092E00E94BE0520E030E040E251E43B
:1053D00060916F01709170018091710190917201E3
:1053E0000E94E32D0E94F60684E092E00E94BE0532
:1053F0006091AD0470E090E080E04AE00E947A05A0
:1054000084E092E00E94BE0580916A0190916B0158
:105410000E94080684E092E00E94BE058091680127
:10542000909169010E94080684E092E00E94BE0506
:1054300080916601909167010E94080684E092E0E5
:105440000E94BE0580916401909165010E9408064A
:1054500084E092E00E94BE05809162019091630118
:105460000E94080684E092E00E94BE0580916001DF
:10547000909161010E94080684E092E00E94BE05BE
:1054800080915E0190915F010E94080684E092E0A5
:105490000E94BE0580915C0190915D010E9408060A
:1054A00084E092E00E94BE0580915A0190915B01D8
:1054B0000E94080684E092E00E94BE0560915701B8
:1054C00070E090E080E04AE00E947A0584E092E09B
:1054D0000E94BE056091580170E090E080E04AE0D3
:1054E0000E947A0584E092E00E94BE056091590115
:1054F00070E090E080E04AE00E947A0584E092E06B
:105500000E94BE0560913A0570E090E080E04AE0BC
:105510000E947A050E94C00586EB93E02FCAF8E747
:10552000FD1508F046C989EC93E028CA90912F0533
:10553000913009F03EC9843569F5E0912E05E330DC
:1055400020F1F0E0E255FB4FE0826EEA74E0C80122
:105550000E944C12C0905801D12C89819A810097E9
:1055600019F00E94412D03C060E070E0CB01F6010C
:10557000EE0FFF1FEE0FFF1FED5DFE4F6083718387
:1055800082839383C8010E94441210922E051092C8
:105590002F050FC9803581F4E0912E05E330A8F383
:1055A000F0E0E255FB4FE0826EEA74E0C8010E9431
:1055B0004C12C0905701D0CF282F082E000C330B6F
:1055C000205331092A30310500F7E0912E0591E092
:1055D0009E0F90932E05F0E0E255FB4F8083E9C8C3
:1055E00080918204909183049C012F5F3F4F309300
:1055F0008304209382040A970CF449C98091AA0479
:10560000813009F051C020917604309177044091A7
:1056100078045091790460911B0170911C01809174
:105620001D0190911E010E94FF2E20E030E044EB0E
:1056300052E40E94002F0E94F60684E092E00E944D
:10564000BE0520917204309173044091740450910E
:105650007504609117017091180180911901909162
:105660001A010E94FF2E20E030E044EB52E40E9439
:10567000002F0E94F60684E092E00E94BE0520E022
:1056800030E044E353E46091130170911401809180
:105690001501909116010E94002F0E94F9061092A8
:1056A000830410928204F3C88091AC04813009F025
:1056B00093C060E087EA91E00E94560420E030E069
:1056C00040E251E40E94E32D20E030E84BE355E452
:1056D0000E94002F0E945530CB010E94080684E0F2
:1056E00092E00E94BE0561E081EA91E00E945604CA
:1056F00020E030E040E251E40E94E32D20E030E879
:105700004BE355E40E94002F0E945530CB010E94CC
:10571000080684E092E00E94BE0562E084EA91E01F
:105720000E94560420E030E040E251E40E94E32D64
:1057300020E030E84BE355E40E94002F0E945530F2
:10574000CB010E94080684E092E00E94BE0587EA31
:1057500091E00E94FB0420E030E048EC52E40E941B
:10576000E32D20E030E84BE355E40E94002F0E9437
:1057700055300E94D00584E092E00E94BE0584EA84
:1057800091E00E94FB0420E030E048EC52E40E94EB
:10579000E32D20E030E84BE355E40E94002F0E9407
:1057A00055300E94D00584E092E00E94BE0581EA57
:1057B00091E00E94FB0420E030E048EC52E40E94BB
:1057C000E32D20E030E84BE355E40E94002F0E94D7
:1057D00055300E94FC0563CF8091AB04813009F005
:1057E0004BC060E087EA91E00E94560420E030E080
:1057F00040E251E40E94E32D20E030E84BE355E421
:105800000E94002F0E945530CB010E94080684E0C0
:1058100092E00E94BE0561E081EA91E00E94560498
:1058200020E030E040E251E40E94E32D20E030E847
:105830004BE355E40E94002F0E945530CB010E949B
:10584000080684E092E00E94BE0562E084EA91E0EE
:105850000E94560420E030E040E251E40E94E32D33
:1058600020E030E84BE355E40E94002F0E945530C1
:10587000CB010E940E0613CF8091A904813009F458
:1058800066CF8091A804813009F0C5C08AED93E00D
:105890000E94BE0587EA91E00E94FB040E94F60682
:1058A0008EED93E00E94BE0584EA91E00E94FB0425
:1058B0000E94F6068EED93E00E94BE0581EA91E01B
:1058C0000E94FB040E94F6068EED93E00E94BE0546
:1058D00080EE93E00E94BE0587EA91E00E94B30447
:1058E0000E945530CB010E9408068EED93E00E9485
:1058F000BE0584EA91E00E94B3040E945530CB01BA
:105900000E9408068EED93E00E94BE0581EA91E0B8
:105910000E94B3040E945530CB010E9408068EED10
:1059200093E00E94BE0587EE93E00E94BE0560E012
:1059300087EA91E00E9456040E945530CB010E94F4
:1059400008068EED93E00E94BE0562E084EA91E0D5
:105950000E9456040E945530CB010E9408068EED2D
:1059600093E00E94BE0561E081EA91E00E94560446
:105970000E945530CB010E9408068EED93E00E94F4
:10598000BE058DEE93E00E94BE0560917E0470918D
:105990007F0480918004909181040E945530CB0156
:1059A0000E9408068EED93E00E94BE0584EF93E00E
:1059B0000E94BE0520E030E044EB52E460911F01FC
:1059C0007091200180912101909122010E94FF2E6F
:1059D0000E945530CB010E9408068BEF93E00E9495
:1059E000BE0520E030E044EB52E460917A0470910F
:1059F0007B0480917C0490917D040E94FF2E0E9484
:105A00005530CB010E9408068EED93E00E94BE0542
:105A10000E94C00544CE8091A704813009F03FCE9A
:105A2000E091580184E0E89FF0011124ED5DFE4F04
:105A300060817181828193810E94D00584E092E02F
:105A40000E94BE05E091590194E0E99FF001112404
:105A5000ED5DFE4F60817181828193810E94D0054E
:105A600084E092E00E94BE05E091570184E0E89F47
:105A7000F0011124ED5DFE4F60817181828193817F
:105A8000A8CE1F93FC0199278827BC01E8941191A7
:105A90001032E9F3193010F01E30C8F31B3251F008
:105AA0001D3249F4689406C00E94682D610F711D73
:105AB000811D911D119110531A30B0F33EF4909551
:105AC0008095709561957F4F8F4F9F4F1F910895DF
:105AD000592F482F372F262F660F771F881F991FA2
