:100000000C9462000C948A000C948A000C948A0070
:100010000C948A000C948A000C948A000C948A0038
:100020000C948A000C948A000C94CA0B0C948B0CD0
:100030000C948A000C94040D0C94620C0C948A00AD
:100040000C94610A0C948A000C942F0A0C94090AEF
:100050000C948A000C948A000C948A000C948A00F8
:100060000C94AB0A0C948A000000000024002700C6
:100070002A0000000000250028002B0000000000DE
:1000800023002600290004040404040404040202DA
:100090000202020203030303030301020408102007
:1000A0004080010204081020010204081020000012
:1000B0000008000201000003040700000000000027
:1000C0000000370D11241FBECFEFD8E0DEBFCDBF3B
:1000D00014E0A0E0B1E0EAE2FAE302C005900D927C
:1000E000A039B107D9F726E0A0E9B4E001C01D921C
:1000F000A53BB207E1F710E0C2E6D0E004C02197CB
:10010000FE010E94D91BC136D107C9F70E94860D96
:100110000C94131D0C9400009091F7059111FCCFE5
:1001200091E09093F7059093F6052FEF2093F50556
:100130001092F405260F2093F3059093F205909109
:10014000F205880F892B8093F2058091F1058130AB
:10015000F9F41092F1058091F2058093BB00809133
:10016000BC0083FDF8CF85EC8093BC008091F7053F
:100170008130E1F38091F405861710F46091F40565
:10018000A1EDB5E0E1EBF5E080E0861303C0089552
:1001900085EEEACF9D9191938F5FF7CF08950895F3
:1001A000AF92BF92CF92DF92EF92FF920F931F9385
:1001B000CF93DF936C017B018B01040F151FEB01C3
:1001C0005E01AE18BF08C017D10759F06991D6017A
:1001D000ED91FC910190F081E02DC6010995892BEC
:1001E00079F7C501DF91CF911F910F91FF90EF90AB
:1001F000DF90CF90BF90AF900895FC01538D448D58
:10020000252F30E0842F90E0821B930B541710F0C1
:10021000CF96089501970895FC01918D828D9817CE
:1002200061F0A28DAE0FBF2FB11D5D968C91928DA6
:100230009F5F9F73928F90E008958FEF9FEF0895D7
:10024000FC01918D828D981731F0828DE80FF11DA0
:10025000858D90E008958FEF9FEF0895FC01918DBB
:10026000228D892F90E0805C9F4F821B91098F73B4
:10027000992708958CEF95E00E942E0121E0892BAB
:1002800009F420E0822F089580E090E0892B29F086
:100290000E943A0181110C9400000895FC01A48D84
:1002A000A80FB92FB11DA35ABF4F2C91848D90E098
:1002B00001968F739927848FA689B7892C93A0897B
:1002C000B1898C91837080648C93938D848D981305
:1002D00006C00288F389E02D80818F7D8083089598
:1002E000EF92FF920F931F93CF93DF93EC0181E086
:1002F000888F9B8D8C8D98131AC0E889F98980812D
:1003000085FF15C09FB7F894EE89FF896083E8895F
:10031000F98980818370806480839FBF81E090E051
:10032000DF91CF911F910F91FF90EF900895F62EDE
:100330000B8D10E00F5F1F4F0F731127E02E8C8D78
:100340008E110CC00FB607FCFACFE889F9898081BD
:1003500085FFF5CFCE010E944E01F1CFEB8DEC0F62
:10036000FD2FF11DE35AFF4FF0829FB7F8940B8FDA
:10037000EA89FB8980818062CFCFCF93DF93EC0144
:10038000888D8823B9F0AA89BB89E889F9898C917D
:1003900085FD03C0808186FD0DC00FB607FCF7CF39
:1003A0008C9185FFF2CF808185FFEDCFCE010E9439
:1003B0004E01E9CFDF91CF910895833081F028F489
:1003C000813099F08230A9F008958730A9F0883003
:1003D000C9F08430B1F4809180008F7D03C080919A
:1003E00080008F7780938000089584B58F7784BDD7
:1003F000089584B58F7DFBCF8091B0008F77809377
:10040000B00008958091B0008F7DF9CF1F93CF93F6
:10041000DF93282F30E0F901E255FF4F8491F90175
:10042000E656FF4FD491F901EA57FF4FC491CC2310
:10043000A9F0162F81110E94DD01EC2FF0E0EE0FE4
:10044000FF1FEE58FF4FA591B4918FB7F894EC9130
:10045000111108C0D095DE23DC938FBFDF91CF91BF
:100460001F910895DE2BF8CF1092B0051092AF05C2
:100470001092F9051092F8051092F70581E080932B
:10048000F6051092F10561E082E10E94060261E04A
:1004900083E10E940602E9EBF0E080818E7F808399
:1004A00080818D7F808388E48093B80085E4809389
:1004B000BC008EEC90E09093AE058093AD058FEC80
:1004C00090E09093AC058093AB050895CF93DF93B4
:1004D00090E0FC01E656FF4F24918A579F4FFC01A4
:1004E00084918823D1F090E0880F991FFC01E8598E
:1004F000FF4FA591B491FC01EE58FF4FC591D491E7
:1005000061110EC09FB7F8948C91E22FE0958E2375
:100510008C932881E223E8839FBFDF91CF910895D8
:100520008FB7F894EC91E22BEC938FBFF6CF3FB7E7
:10053000F8948091FD049091FE04A091FF04B09185
:10054000000526B5A89B05C02F3F19F00196A11DF7
:10055000B11D3FBFBA2FA92F982F8827BC01CD010D
:10056000620F711D811D911D42E0660F771F881F6C
:10057000991F4A95D1F708958F929F92AF92BF929B
:10058000CF92DF92EF92FF924B015C010E949702A3
:100590006B017C010E9497026C197D098E099F09ED
:1005A000683E734081059105A8F321E0821A910805
:1005B000A108B10888EEC80E83E0D81EE11CF11C2A
:1005C00081149104A104B10429F7FF90EF90DF900A
:1005D000CF90BF90AF909F908F9008950895089509
:1005E00085ED8093BC008091BC0084FDFCCF10920F
:1005F000F70508952091D504260F3327331F2132A4
:100600003105ECF42091F705FC0190E080E0243006
:1006100069F082E00895A091D5042191AC014B547A
:100620005B4FA40FB52FB11D2C930196861798F33D
:100630008091D504680F6093D50480E0089581E02F
:1006400008950895E091B0058091AF05E81730F462
:10065000F0E0EF54FA4F808190E008958FEF9FEF24
:1006600008959091B0058091AF052FEF3FEF981757
:1006700048F4E92FF0E0EF54FA4F208130E09F5F1B
:100680009093B005C90108958091AF059091B00590
:10069000891B990B0895CF92DF92EF92FF920F93EF
:1006A0001F93CF93DF937C01CB018A012091FB053F
:1006B000222389F0EB016B01C40ED51ECC15DD059C
:1006C00069F06991D701ED91FC910190F081E02DE5
:1006D000C7010995F3CF642F0E94FA02C801DF9188
:1006E000CF911F910F91FF90EF90DF90CF900895E1
:1006F000CF93DF931F92CDB7DEB769832091FB05BF
:100700002223F9F02091F805203258F021E030E062
:10071000FC013383228390E080E00F90DF91CF9142
:1007200008958091F905E82FF0E0EB56FB4F998191
:1007300090838F5F8093F9058093F80581E090E0C6
:10074000ECCF61E0CE0101960E94FA02F7CF209132
:10075000F80581E0213208F044C08091F70581114D
:10076000FCCF8091FA0592E09093F70591E0909389
:10077000F6059FEF9093F5051092F4052093F3058D
:10078000A5E9B4E0E1EDF5E090E0291331C0109265
:10079000F2059091F205880F892B8093F2058091E4
:1007A000F105813049F51092F1058091F2058093B1
:1007B000BB008091BC0083FDF8CF85EC8093BC002A
:1007C0008091F7058230E1F38091F5058F3FB1F01C
:1007D0008091F5058032A1F08091F505803391F08C
:1007E00084E01092F9051092F8051092FB05089527
:1007F0003D9131939F5FC9CF85EEE0CF80E0F1CF8F
:1008000082E0EFCF83E0EDCF1F93CF93DF93162FDE
:10081000C5EAD6E0AC81BD819B8121E02093FB0538
:100820009093FA051092F9051092F805ED91FC915C
:1008300011970190F081E02D682FCD0109958C81F1
:100840009D81DC01ED91FC910190F081E02D612F03
:1008500009958C819D810E94A70381E0DF91CF9152
:100860001F910895E5EAF6E082879387682F8DE36C
:1008700090E00E9404046EE170E080E090E00C944F
:10088000BC0290E080E00895FC0101900020E9F7AF
:100890003197AF01481B590BBC018CEF95E00C94CC
:1008A000D00084ED91E00C9444048F929F92AF921B
:1008B000BF920F931F93CF93DF93CDB7DEB7A1976E
:1008C0000FB6F894DEBF0FBECDBF19A2423008F4B8
:1008D0004AE08E010F5D1F4F842E912CB12CA12C6C
:1008E000A50194010E94A31BE62FB901CA01EA30B9
:1008F000F4F4E05DD801EE938D01232B242B252BFE
:1009000079F790E080E0109719F0CD010E9444043F
:10091000A1960FB6F894DEBF0FBECDBFDF91CF9189
:100920001F910F91BF90AF909F908F900895E95CB9
:10093000E1CFCF92DF92EF92FF92CF93DF934A30D5
:100940005105F1F44AE097FF1BC06B017C016DE299
:100950008CEF95E00E947001EC0166277727CB01B0
:100960006C197D098E099F094AE00E9455048C0F7D
:100970009D1FDF91CF91FF90EF90DF90CF90089572
:10098000DF91CF91FF90EF90DF90CF900C945504C2
:10099000AB01BC01990F880B990B0C949904CF9370
:1009A000DF930E94C804EC010E9451048C0F9D1F2C
:1009B000DF91CF910895462F682F70E090E080E09E
:1009C0000C945504CF93DF930E94DB04EC010E944A
:1009D00051048C0F9D1FDF91CF910895CF93DF932A
:1009E0000E944404EC010E9451048C0F9D1FDF9172
:1009F000CF9108950C944404FF920F931F93CF93CB
:100A0000DF93F0905901C5EAD6E00A851B8590E096
:100A100080E00E94320469E170E080E090E00E9492
:100A2000BC026F2D81E490E00E9404046AE070E053
:100A300080E090E00E94BC02C8010E94320464E1A0
:100A400070E080E090E00E94BC02109137050A84BB
:100A5000DB85C02D90E080E00E94320469E170E007
:100A600080E090E00E94BC02612F82E490E00E944E
:100A700004046AE070E080E090E00E94BC02CE01D5
:100A80000E94320464E170E080E090E00E94BC02C9
:100A900087ED91E00E94FA046AE070E080915901CC
:100AA0000E94DB0488EE91E00E94FA0460E170E0AD
:100AB000809159010E94DB0482EF91E00E94FA04C8
:100AC00060E170E0809137050E94DB0486ED91E0E3
:100AD000DF91CF911F910F91FF900C94EE044F92F4
:100AE0005F926F927F928F929F92AF92BF92CF92BE
:100AF000DF92EF92FF920F931F93CF936B017C01D4
:100B0000742EAC019B010E948A1B882399F08BEF05
:100B100091E0CF911F910F91FF90EF90DF90CF90D8
:100B2000BF90AF909F908F907F906F905F904F900D
:100B30000C94440446015701E894B7F82FEF3FEFB7
:100B40004FE75FE7C501B4010E948A1B81110DC008
:100B50002FEF3FEF4FE75FE7C501B4010E94611936
:100B600018161CF48FEF91E0D4CF2FEF3FEF4FE733
:100B70005FE4C701B6010E94181B18161CF483E03D
:100B800092E0C7CF2FEF3FEF4FE75FECC701B60111
:100B90000E94611987FDF3CF20E030E0A901C70171
:100BA000B6010E94611910E000E087FF0AC06DE203
:100BB0008CEF95E00E9470018C01F7FAF094F7F841
:100BC000F094C0E060E070E080E09FE37C1641F0CC
:100BD00020E030E040E251E40E946619CF5FF6CF9A
:100BE000A70196010E94F5182B013C010E94DF1914
:100BF0004B015C014AE00E9455047C01E00EF11EAD
:100C0000CC23C1F1C501B4010E940E1A9B01AC01B5
:100C1000C301B2010E94F4184B015C016EE28CEF3B
:100C200095E00E947001E80EF91EC15018F120E015
:100C300030E040E251E4C501B4010E941D1B2B01CC
:100C40003C010E94DF194B01B12CA12C4AE0C501E7
:100C5000B4010E945504E80EF91EC501B4010E94BA
:100C60000E1A9B01AC01C301B2010E94F4184B01A2
:100C70005C01DBCFC701CF911F910F91FF90EF90E7
:100C8000DF90CF90BF90AF909F908F907F906F90AC
:100C90005F904F90089542E00C946F05CF93DF93DF
:100CA000C5EAD6E0AC81BD819B8121E02093FB05A4
:100CB0009093FA051092F9051092F805ED91FC91C8
:100CC00011970190F081E02D682FCD0109958C815D
:100CD0009D810E94A70361E08B810E948C0010928D
:100CE000B0058093AF058C819D81DC01ED91FC9175
:100CF0000284F385E02D0995DF91CF9108958F92BD
:100D00009F92AF92BF92CF92DF92EF92FF920F939A
:100D10001F93CF93DF93CDB7DEB762970FB6F894EA
:100D2000DEBF0FBECDBF6C018B01FB01349680E2AC
:100D3000DF011D928A95E9F784E290E0A0E0B0E03F
:100D4000FB0180839183A283B383F601868197811F
:100D5000A085B185FB0184839583A683B78383E057
:100D600090E0A0E0B0E080879187A287B3872FB79B
:100D7000F8948091F9049091FA04A091FB04B09149
:100D8000FC042FBF808B918BA28BB38B8CE0FE0178
:100D90003196DF011D928A95E9F77E01BDE0EB0EE9
:100DA000F11C86E0F70111928A95E9F7D6011496B5
:100DB0008D919C91159713962C9131E03093FB0502
:100DC0002093FA051092F9051092F805DC01ED91D7
:100DD000FC910190F081E02D6AE10995F601848192
:100DE00095810E94A70366E0D60113968C910E941C
:100DF0008C001092B0058093AF055E01B3E1AB0E9D
:100E0000B11CF60184819581DC01ED91FC91028495
:100E1000F385E02D0995F70181937F01EA15FB0524
:100E200081F76D857E85072E000C880B990B0E943B
:100E3000101A20E030E040E85DE30E941D1B4B01EA
:100E40005C016F857889072E000C880B990B0E9436
:100E5000101A20E030E040E85DE30E941D1B6B01AA
:100E60007C0169897A89072E000C880B990B0E94F6
:100E7000101A20E030E040E85DE30E941D1BD8011D
:100E800054968D929D92AD92BC925797F801C08E68
:100E9000D18EE28EF38E5C966D937D938D939C93B1
:100EA0005F9781E062960FB6F894DEBF0FBECDBFAC
:100EB000DF91CF911F910F91FF90EF90DF90CF9036
:100EC000BF90AF909F908F9008950C947B1C0F93D0
:100ED0001F93CF93DF938C01EB0188E2FB0111920A
:100EE0008A95E9F74BE050E067E072E0CE010E949E
:100EF000041D1B8681E090E0A0E0B0E08C879D8718
:100F0000AE87BF87F80186819781A085B185888BE0
:100F1000998BAA8BBB8B83E090E0A0E0B0E08C8B38
:100F20009D8BAE8BBF8B1CA21DA21EA21FA2188E72
:100F3000198E1A8E1B8E1C8E1D8E1E8E1F8E8AE0A1
:100F400097EDA3E2BCE388A399A3AAA3BBA3DF9177
:100F5000CF911F910F9108950F931F93CF93DF931C
:100F6000CDB7DEB7A8970FB6F894DEBF0FBECDBFE2
:100F70000E94340290E080E00E944E06803A89F0A0
:100F800068EE73E080E090E00E94BC0290E080E0B8
:100F90000E944E06803A29F08EE092E00E94EE0414
:100FA000FFCF90E080E00E94320460E28FE390E0A7
:100FB0000E9404046EE170E080E090E00E94BC02B8
:100FC00090E080E00E944E06803A29F06AE070E0EE
:100FD00080E090E0F3CF62E370E080E090E00E9478
:100FE000BC0260E08EE390E00E9404046AE070E0DE
:100FF00080E090E00E94BC0260E087E090E00E9408
:10100000040460E08FE390E00E9404046AE070E072
:1010100080E090E00E94BC028CE090E00E943204EC
:1010200064E170E080E090E00E94BC020091AF06B5
:101030001091B00690E080E00E94320469E170E017
:1010400080E090E00E94BC0260E087E090E00E94B7
:10105000040460E88FE390E00E9404046AE070E01A
:1010600080E090E00E94BC02C8010E94320464E16A
:1010700070E080E090E00E94BC028CE090E00E9472
:101080003204BE016F5F7F4F85EA96E00E946707DA
:101090008BE492E00E94EE0480E792E00E94FA0462
:1010A000CE0101960E94EE048FE792E00E94FA04BE
:1010B0006D857E858F8598894AE050E00E9499046D
:1010C0000E9451048EE892E00E94FA0469897A89AC
:1010D0008B899C894AE050E00E9499040E94510447
:1010E0008DE992E00E94FA04698D7A8D8B8D9C8D3A
:1010F0000E944B0686ED91E00E94EE048CEA92E09D
:101100000E94FA046D8D7E8D8F8D98A10E944B06F2
:1011100086ED91E00E94EE048BEB92E00E94FA04CF
:1011200069A17AA18BA19CA10E944B0686ED91E05A
:101130000E94EE048BE492E00E94EE040E94FC0404
:101140008AEC92E00E94FA0484EE92E00E94FA0493
:1011500060E170E0809159010E94E20487ED92E025
:101160000E94FA048091370560E170E0082E000CBF
:10117000990B0E94CF04A8960FB6F894DEBF0FBE5D
:10118000CDBFDF91CF911F910F9108950C94E61878
:10119000CF93DF9320E030E048EC52E460918A0185
:1011A00070918B0180918C0190918D010E941D1B8B
:1011B0000E94DF1981E090E00E94C60820E030E044
:1011C00048EC52E46091860170918701809188011A
:1011D000909189010E941D1B0E94DF1982E090E01E
:1011E0000E94C6086091380585E090E00E94C6081C
:1011F00060916D0187E090E00E94C60860916E01E9
:1012000088E090E00E94C60820E030E040E251E42F
:1012100060917A0170917B0180917C0190917D01B8
:101220000E941D1B0E94DF1989E090E00E94C60801
:1012300020E030E040E251E460917A0170917B015E
:1012400080917C0190917D010E941D1B0E94D81904
:10125000672F8AE090E00E94C60820E030E040E27C
:1012600051E46091760170917701809178019091BD
:1012700079010E941D1B0E94DF198BE090E00E9403
:10128000C60820E030E040E251E4609176017091C0
:10129000770180917801909179010E941D1B0E9435
:1012A000D819672F8CE090E00E94C60820E030E05B
:1012B00040E251E460917201709173018091740178
:1012C000909175010E941D1B0E94DF198DE090E036
:1012D0000E94C60820E030E040E251E460917201D3
:1012E0007091730180917401909175010E941D1B92
:1012F0000E94D819672F8EE090E00E94C608609186
:10130000670180E190E00E94C6086091680181E178
:1013100090E00E94C6086091610182E190E00E9425
:10132000C6086091620183E190E00E94C608609166
:10133000690184E190E00E94C60860916A0185E13C
:1013400090E00E94C60860916B0186E190E00E94E7
:10135000C60860916C0187E190E00E94C608609128
:10136000630188E190E00E94C6086091640189E110
:1013700090E00E94C608609165018AE190E00E94B9
:10138000C608609166018BE190E00E94C6086091FA
:101390005D018CE190E00E94C60860915E018DE1E4
:1013A00090E00E94C60860915F018EE190E00E948B
:1013B000C608609160018FE190E00E94C608CAE50E
:1013C000D1E0688180E290E00E94C608698181E2F4
:1013D00090E00E94C6086A8182E290E00E94C608FE
:1013E0006091590183E290E00E94C6086091370540
:1013F00084E290E00E94C60868E090E080E00E94ED
:10140000C60888EE92E0DF91CF910C94EE040C9424
:10141000DE181F920F920FB60F9211242F933F9355
:101420004F935F936F937F938F939F93AF93BF93EC
:10143000EF93FF938CEF95E00E944E01FF91EF91A7
:10144000BF91AF919F918F917F916F915F914F91DC
:101450003F912F910F900FBE0F901F9018951F92E4
:101460000F920FB60F9211242F938F939F93EF93A8
:10147000FF93E0910C06F0910D068081E091120639
:10148000F091130682FD1BC09081809115068F5F3D
:101490008F7320911606821741F0E0911506F0E057
:1014A000E450FA4F958F80931506FF91EF919F912D
:1014B0008F912F910F900FBE0F901F9018958081E4
:1014C000F4CF1F920F920FB60F9211242F933F93D8
:1014D0008F939F93AF93BF938091F9049091FA04F7
:1014E000A091FB04B091FC043091F80423E0230F99
:1014F0002D3758F50196A11DB11D2093F804809356
:10150000F9049093FA04A093FB04B093FC04809137
:10151000FD049091FE04A091FF04B0910005019696
:10152000A11DB11D8093FD049093FE04A093FF04C0
:10153000B0930005BF91AF919F918F913F912F91F3
:101540000F900FBE0F901F90189526E8230F02965C
:10155000A11DB11DD2CF1F920F920FB60F92112471
:101560002F933F934F935F936F937F938F939F93AB
:10157000AF93BF93EF93FF938091B900887F80363C
:1015800009F44AC0F0F5883209F4A7C018F5803193
:1015900009F49BC0B8F4882309F4F9C0883009F431
:1015A00094C0FF91EF91BF91AF919F918F917F91E7
:1015B0006F915F914F913F912F910F900FBE0F90C0
:1015C0001F901895883109F488C0803251F78093B4
:1015D000F50514C0803409F49DC040F48033B9F39C
:1015E0008833F9F68093F50585ECB0C0803509F4B1
:1015F00085C0883509F496C0883499F60E94F002B7
:10160000D0CF883909F48CC038F5883729F050F4E8
:10161000883611F0803729F683E08093F705109221
:10162000F70457C0883809F47BC0803919F0803836
:1016300009F0B7CF8091F704803208F071C0E091D3
:10164000F70481E08E0F8093F7048091BB00F0E0F7
:10165000E952FB4F80833DC0803B39F0E0F4803A93
:1016600009F479C0883A09F09CCF84E08093F705AB
:101670001092D6041092D504E091AD05F091AE051C
:1016800009958091D50481110FC081E08093D50424
:101690001092B50409C0803C09F4A6CF883C09F437
:1016A000A3CF883B09F07DCFE091D60481E08E0F77
:1016B0008093D604F0E0EB54FB4F80818093BB0015
:1016C0009091D6048091D50429C08091F205809331
:1016D000BB0085EC8093BC0064CF9091F4058091B1
:1016E000F305981758F5E091F40581E08E0F80938B
:1016F000F405F0E0EF52FA4F8081E9CFE091F40574
:1017000081E08E0F8093F4058091BB00F0E0EF52F2
:10171000FA4F80839091F4058091F3059817C8F2F1
:1017200085E8D8CFE091F40581E08E0F8093F40531
:101730008091BB00F0E0EF52FA4F80838091F60574
:1017400081115CCF81E08093F10584EA8093BC0035
:101750001092F70526CF85EC8093BC001092F70518
:101760008091F704803230F4E091F704F0E0E95220
:10177000FB4F10826091F70470E0E091AB05F091AF
:10178000AC0587ED94E009951092F7040ACF10920A
:10179000F50534CF1F920F920FB60F9211242F939D
:1017A0003F934F935F938F939F93AF93BF93EF9329
:1017B000FF9380916F008F7D80936F0080918100F7
:1017C0008091810090E48927809381008091860038
:1017D000909187002091910430919204AC0182177E
:1017E000930750F545535045421B530B50939404B7
:1017F00040939304909392048093910420919304D6
:10180000309194042D3755E13507E8F0109290049B
:1018100080916F00806280936F00FF91EF91BF9184
:10182000AF919F918F915F914F913F912F910F9029
:101830000FBE0F901F901895421B530B50939404AA
:1018400040939304D7CFE0919004E4319CF5283E77
:1018500083E03807E8F2203A4FE0340758F58E2F3E
:101860000E2E000C990B019640915A01481719064B
:1018700079F240915B014817190651F240915C01E1
:101880004817190629F2EF5FE09390040E2E000C22
:10189000FF0BE257FE4FE08154E0E59FF001112479
:1018A000E35FFE4FC901B0E0A0E080839183A28393
:1018B000B383AECF293E334008F4AACFEF5FE09365
:1018C0009004A6CF1F920F920FB60F9211248F9300
:1018D0009F93AF93BF9316BC81E0809328058091BE
:1018E000A6059091A705A091A805B091A9054096DD
:1018F000A11DB11D8093A6059093A705A093A805EF
:10190000B093A905BF91AF919F918F910F900FBE9A
:101910000F901F9018951F920F920FB60F921124DF
:101920002F933F934F935F936F937F938F939F93E7
:10193000AF93BF93EF93FF938091880090918900BC
:101940008B3C9F4A91F480EC8093800081E08093EF
:10195000000180E293E09093890080938800809159
:101960008100877F8093810022C0809100018130B7
:1019700019F480E480938000409100014131D0F55A
:10198000E42FF0E0CF01019762E070E00E948F1B2E
:101990000197F1F48091880090918900805E9C4FBE
:1019A00090938900809388004F5F40930001FF91DE
:1019B000EF91BF91AF919F918F917F916F915F91C7
:1019C0004F913F912F910F900FBE0F901F90189540
:1019D00080918800909189003196F595E795EE0FFA
:1019E000FF1FEE0FFF1FE35FFE4F20813181820F4B
:1019F000931FD6CF8BEC9FEA909389008093880049
:101A0000809181008860AECF1F920F920FB60F9227
:101A100011242F933F934F935F936F937F938F93F3
:101A20009F93AF93BF93EF93FF9384E894E00E945A
:101A3000FA04FF91EF91BF91AF919F918F917F91A8
:101A40006F915F914F913F912F910F900FBE0F902B
:101A50001F901895CF93DF9342E00E946F05EC0131
:101A60000E9451048C0F9D1FDF91CF910895ECEFE0
:101A7000F5E01382128248EE53E060E070E04483A8
:101A800055836683778386EA91E09183808385EC32
:101A900090E09587848784EC90E09787868780EC38
:101AA00090E0918B808B81EC90E0938B828B82EC29
:101AB00090E0958B848B86EC90E0978B868B118ED3
:101AC000128E138E148EA9E9B6E013961C921E9204
:101AD000129714964D935D936D937C93179788EBB3
:101AE00091E011969C938E93E5EAF6E08AEC91E002
:101AF000918380834FEF5FEFBA01468357836087FE
:101B0000718788E28383B583A4830895CF93DF939D
:101B1000CDB7DEB7C654D1090FB6F894DEBF0FBEFD
:101B2000CDBF789484B5826084BD84B5816084BD66
:101B300085B5826085BD85B5816085BD80916E006B
:101B4000816080936E00109281008091810082609C
:101B500080938100809181008160809381008091D9
:101B600080008160809380008091B10084608093C8
:101B7000B1008091B00081608093B00080917A00C4
:101B8000846080937A0080917A00826080937A00EA
:101B900080917A00816080937A0080917A008068D9
:101BA00080937A001092C100E0910C06F0910D062E
:101BB00012E01083E0910C06F0910D061082E09186
:101BC0000806F09109061082E0910A06F0910B06D2
:101BD00080E1808310921406E0911006F0911106C6
:101BE00086E08083E0910E06F0910F06808180618F
:101BF0008083E0910E06F0910F06808188608083DB
:101C0000E0910E06F0910F06808180688083E0915C
:101C10000E06F0910F0680818F7D808361E089E060
:101C20000E94660261E082E00E94060261E083E0B9
:101C30000E94060260E080E00E94660260E081E0AF
:101C40000E94660260E082E00E94660260E083E03B
:101C50000E94660260E086E00E94660260E087E023
:101C60000E94660260E088E00E94660260E08BE00D
:101C70000E94660261E08BE00E94060260E080E064
:101C80000E94060260E081E00E94060261E082E0BC
:101C90000E94060261E083E00E94060261E08DE09E
:101CA0000E94660261E08DE00E94060268EC70E02E
:101CB00080E090E00E94BC0260E08DE00E9406029D
:101CC00080E4809380008AEC8093810010928200EF
:101CD00010936F0080E293E09093890080938800D6
:101CE0000E94340211E01093FB0508E20093FA050C
:101CF0001092F9051092F80589E996E00E94A70371
:101D000081111FC21092A7060093A80689E996E0E8
:101D10009093AA068093A9068FEF9FEFDC01809332
:101D2000AB069093AC06A093AD06B093AE061092AE
:101D3000B0061092AF0690E080E00E94070A88305B
:101D400041F088EF92E00E94EE040E94AC070E94EE
:101D5000C80881E090E00E94070A682F70E090E0D8
:101D600080E00E940E1A20E030E048EC52E40E942D
:101D7000661960938A0170938B0180938C01909314
:101D80008D0182E090E00E94070A682F70E090E0E9
:101D900080E00E940E1A20E030E048EC52E40E94FD
:101DA00066196093860170938701809388019093F0
:101DB000890181E0809371018093700180936F01AC
:101DC00085E090E00E94070A80FF03C09FEF909398
:101DD000710181FF03C09FEF9093700182FF03C0E8
:101DE0008FEF80936F0187E090E00E94070A182F21
:101DF00088E090E00E94070A90E0982F8827810FE2
:101E0000911D90936E0180936D0189E090E00E9496
:101E1000070A182F8AE090E00E94070A682F70E0F6
:101E2000762F6627610F711D072E000C880B990B0A
:101E30000E94101A20E030E040E251E40E9466194E
:101E400060937A0170937B0180937C0190937D0174
:101E50008BE090E00E94070A182F8CE090E00E942F
:101E6000070A682F70E0762F6627610F711D072E15
:101E7000000C880B990B0E94101A20E030E040E221
:101E800051E40E9466196093760170937701809304
:101E90007801909379018DE090E00E94070A182F55
:101EA0008EE090E00E94070A682F70E0762F662788
:101EB000610F711D072E000C880B990B0E94101AE0
:101EC00020E030E040E251E40E9466196093720124
:101ED00070937301809374019093750180E190E099
:101EE0000E94070A182F81E190E00E94070A90E003
:101EF000982F8827810F911D909368018093670127
:101F000082E190E00E94070A182F83E190E00E948E
:101F1000070A90E0982F8827810F911D9093620106
:101F20008093610184E190E00E94070A182F85E107
:101F300090E00E94070A90E0982F8827810F911D5A
:101F400090936A018093690186E190E00E94070AFC
:101F5000182F87E190E00E94070A90E0982F8827C9
:101F6000810F911D90936C0180936B0188E190E04B
:101F70000E94070A182F89E190E00E94070A90E06A
:101F8000982F8827810F911D90936401809363019E
:101F90008AE190E00E94070A182F8BE190E00E94EE
:101FA000070A90E0982F8827810F911D9093660172
:101FB000809365018CE190E00E94070A182F8DE163
:101FC00090E00E94070A90E0982F8827810F911DCA
:101FD00090935E0180935D018EE190E00E94070A7C
:101FE000182F8FE190E00E94070A90E0982F882731
:101FF000810F911D9093600180935F0180E290E0DA
:102000000E94070A80935A0181E290E00E94070A29
:1020100080935B0182E290E00E94070A80935C015A
:1020200083E290E00E94070A809359010E94AC0766
:1020300081E080939B018093010582E084BD85E06F
:1020400085BD83E080936E0080E888BD87BDBE01BA
:102050006F5F7F4F7EA76DA73324339422242A9489
:10206000E9EBF0E08491E5EAF0E00491E1E9F0E0E9
:10207000149111117AC08091AA05882309F489C0AE
:102080008091A505811118C08091A6059091A705A2
:10209000A091A805B091A9058D3D9540A105B10578
:1020A00058F081E09091A405911180E08093A405FF
:1020B00030929B013092A5058CEF95E00E942E0195
:1020C000892B09F41EC21091A305111106C0AEE3BD
:1020D000B5E0E4E61D92EA95E9F780913D0581308F
:1020E00011F00C94AF188CEF95E00E940C0151E0B8
:1020F000510F5093A305E12FF0E0E25CFA4F80838B
:102100005E3009F053C080914A05833409F04EC017
:1021100080914B05883409F049C0AEE3B5E080E01A
:10212000ED918F5FEE3334F40E2E000CFF0BE25A6C
:10213000FE4F80838D30A1F78BE193E00E94EE0487
:10214000DCC11093FB0519E21093FA051092F90512
:102150001092F80589E996E00E94A7038111EBCD62
:102160001092A7061093A806D1CD81110E94DD011F
:10217000E12FF0E0EE0FFF1FE458FF4FA591B4915F
:102180008C91082309F477CF1092A5051092AA0527
:1021900093CF30929B011092A6051092A705109242
:1021A000A8051092A9053092AA056ACF252F30E024
:1021B000C901825C9A4FFC0132974081483409F092
:1021C0004AC531966081653409F045C5553008F43B
:1021D0004BC090E080E024303105E9F0EEE3F5E01B
:1021E000B9018FEF9FEF419150E018E0DA01A82785
:1021F00096958795A0FF04C0A8E08A27A4E89A27AF
:1022000056954795115091F76150710964307105E9
:1022100051F78095909590933C0580933B05265C03
:102220003A4FF9018081918190933A058093390565
:102230002091390530913A0580913B0590913C05FC
:1022400028173907B1F084E393E00E94EE0480E0A0
:1022500090E0892B09F404CF0E943A01882309F405
:10226000FDCE0E940000F8CE10923C0510923B0576
:10227000DFCF8CE393E00E94EE04ADA5BEA5ECE2B7
:102280001D92EA95E9F72091A3052450330B10E045
:1022900050E040E0812F90E08217930724F5825CA4
:1022A0009A4FDC018C918C3221F44F5F5F4F1F5F9E
:1022B000F1CFFA01EE0FFF1F61E070E06C0F7D1FA0
:1022C000E60FF71FA081B1819AE09A9FB0019B9F12
:1022D000700D1124082E000C990BC097860F971FC4
:1022E00091838083E4CF69817A81072E000C880B6B
:1022F000990B0E94101A20E030E048EC52E40E9452
:10230000661960938A0170938B0180938C0190937E
:102310008D016B817C81072E000C880B990B0E942C
:10232000101A20E030E048EC52E40E9466196093F5
:1023300086017093870180938801909389016D8154
:102340007E81072E000C880B990B0E94101A20E04A
:1023500030E048EC52E40E94661960938201709369
:10236000830180938401909385016F817885072E86
:10237000000C880B990B0E94101A20E030E048EC0A
:1023800052E40E94661960937E0170937F018093EE
:1023900080019093810169857A85072E000C880B56
:1023A000990B0E94101A20E030E040E251E40E94B4
:1023B000661960937A0170937B0180937C019093FE
:1023C0007D016B857C85072E000C880B990B0E9484
:1023D000101A20E030E040E251E40E946619609358
:1023E00076017093770180937801909379016D85E0
:1023F0007E85072E000C880B990B0E94101A20E096
:1024000030E040E251E40E946619609372017093DB
:10241000730180937401909375018F8580933805C3
:10242000309271013092700182FD12C430926F01BE
:1024300081FD2092700180FD2092710189899A8925
:1024400090936E0180936D018B899C8990936C01B0
:1024500080936B018D899E8990936A0180936901B5
:102460008F89988D9093680180936701898D9A8DEB
:1024700090936601809365018B8D9C8D9093640190
:10248000809363018D8D9E8D909362018093610195
:102490008F8D98A19093600180935F0189A19AA18B
:1024A00090935E0180935D018BA180935A018DA171
:1024B00080935B018FA180935C0189A58093590172
:1024C0008BA58093370589E593E00E94FA046AE0C2
:1024D00070E0809159010E94DB0487E693E00E943E
:1024E000FA046AE070E0809137050E94DB0486ED13
:1024F00091E00E94EE040E94FC041092A305109249
:102500003D0580912805813009F0A1CE8091A40578
:1025100081119DCE62E075E085EA96E00E947F061B
:1025200060911E0570911F058091200590912105F5
:102530006FA778AB89AB9AAB60935101709352014E
:102540008093530190935401C0901605D0901705C5
:10255000E0901805F090190540901A0550901B0561
:1025600060901C0570901D054092550150925601D7
:10257000609257017092580180919B018130F1F473
:1025800010929B01409233055092340560923505BC
:1025900070923605C0922F05D0923005E092310539
:1025A000F09232058FA598A9A9A9BAA980932B0505
:1025B00090932C05A0932D05B0932E0560913305C3
:1025C0007091340580913505909136056FAB78AFE9
:1025D00089AF9AAF80912B0590912C05A0912D0584
:1025E000B0912E058BAF9CAFADAFBEAF20912F0544
:1025F000309130054091310550913205C701B60147
:102600000E94F41820E030E044E353E40E94F518FF
:102610006BAB7CAB8DAB9EAB20E030E044EB53E486
:102620000E9466190E944B1A23966CAF7DAF8EAF45
:102630009FAF239720E030E044E353E4C701B601A5
:102640000E94F5186B017C0120E030E044EB53E47C
:102650000E9466190E944B1A20E030E044EB53E4DC
:102660000E941D1B9B01AC01C701B6010E94F4181A
:1026700020E030E044E353E40E94F41860934D01FD
:1026800070934E0180934F0190935001809101050A
:10269000882309F417C2C0908A01D0908B01E09082
:1026A0008C01F0908D01A701960160E070E080E858
:1026B0009FE30E94F4184B015C01209109013091C5
:1026C0000A0140910B0150910C010E941D1B27969D
:1026D0006CAF7DAF8EAF9FAF27972FA938AD49ADB7
:1026E0005AADC301B2010E94F418A70196010E94DD
:1026F0001D1B9B01AC0127966CAD7DAD8EAD9FADD2
:1027000027970E94F5182B013C01409249015092F5
:102710004A0160924B0170924C0140920901509223
:102720000A0160920B0170920C0120910501309119
:1027300006014091070150910801C501B4010E94B2
:102740001D1B4B015C012BAD3CAD4DAD5EAD6FA5CE
:1027500078A989A99AA90E94F418A70196010E9454
:102760001D1B9B01AC01C501B4010E94F5186FA7A8
:1027700078AB89AB9AAB6093450170934601809327
:10278000470190934801609305017093060180937F
:10279000070190930801C0908601D0908701E090D6
:1027A0008801F090890120E030E044EB53E4239667
:1027B0006CAD7DAD8EAD9FAD23970E941D1B9B011F
:1027C000AC016BA97CA98DA99EA90E94F41820E0F8
:1027D00030E044E353E40E94F418A70196010E94FC
:1027E0001D1B4B015C01A701960160E070E080E8D1
:1027F0009FE30E94F4182091010130910201409161
:102800000301509104010E941D1B9B01AC01C501F5
:10281000B4010E94F5186B017C01C0924101D09275
:102820004201E0924301F0924401C0920101D09232
:102830000201E0920301F092040160916F01062E03
:10284000000C770B880B990B0E94101AA7019601B8
:102850000E941D1B209176013091770140917801F3
:10286000509179010E941D1B6B017C0160916D01EB
:1028700070916E01072E000C880B990B0E94101AA4
:102880009B01AC01C701B6010E94F5186B017C01E8
:1028900060916B0170916C01072E000C880B990BF5
:1028A0000E94101A5B018C019B01AC01B601C701AB
:1028B0000E94611987FD02C056018701609169017C
:1028C00070916A01072E000C880B990B0E94101A58
:1028D0006B017C019501A8010E94611987FD02C06E
:1028E0006501780100915A0194E0099F800111244B
:1028F000035F1E4FB601C7010E94D819D8016D931E
:102900007D938D939C93139760917101062E000C1B
:10291000770B880B990B0E94101AA30192010E9459
:102920001D1B20917A0130917B0140917C015091D7
:102930007D010E941D1B6B017C01609167017091FC
:102940006801072E000C880B990B0E94101A9B013E
:10295000AC01C701B6010E94F5186B017C016091C2
:10296000650170916601072E000C880B990B0E947F
:10297000101A5B018C019B01AC01B601C7010E94DA
:10298000611987FD02C05601870160916301709152
:102990006401072E000C880B990B0E94101A6B0122
:1029A0007C019501A8010E94611987FD02C06501A3
:1029B000780100915B01B4E00B9F80011124035F5B
:1029C0001E4FB601C7010E94D819F80160837183B8
:1029D0008283938360917001062E000C770B880B25
:1029E000990B0E94101A2FA538A949A95AA90E942B
:1029F0001D1B20917201309173014091740150911F
:102A000075010E941D1B6B017C0160916101709139
:102A10006201072E000C880B990B0E94101A9B0173
:102A2000AC01C701B6010E94F518B62EC72ED82EEC
:102A3000E92E60915F0170916001072E000C880BF8
:102A4000990B0E94101AA62EF72E8C01262F372FD5
:102A5000AC016B2D7C2D8D2D9E2D0E94611987FD63
:102A600004C0AB2CFC2C0D2D1E2D60915D017091CE
:102A70005E01072E000C880B990B0E94101AB62ECF
:102A8000C72ED82EE92E2A2D3F2DA8010E946119AC
:102A900087FD04C0BA2CCF2CD02EE12E00915C0112
:102AA000F4E00F9F80011124035F1E4F6B2D7C2DDE
:102AB0008D2D9E2D0E94D819D8016D937D938D93F5
:102AC0009C93139780912605909127059C012F5F79
:102AD0003F4F30932705209326050A970CF4B5C085
:102AE00080912905813009F0ACC085E390E00E9417
:102AF0004E06E82EE294E694E69493E0E922282F2D
:102B000030E0A90164E0559547956A95E1F7B42F47
:102B1000B370FB2E3595279535952795122F137099
:102B2000082F037081E894E00E94FA0480912A053E
:102B3000882309F41EC3609155017091560180915C
:102B40005701909158010E944B068BE694E00E9439
:102B5000FA0460915101709152018091530190915A
:102B600054010E944B068BE694E00E94FA046091A7
:102B70004D0170914E0180914F01909150010E9442
:102B80004B068BE694E00E94FA04E0915A0124E09F
:102B9000E29FF0011124E35FFE4F60817181828129
:102BA00093814AE050E00E9499048BE694E00E94F1
:102BB000FA04E0915B0164E0E69FF0011124E35F19
:102BC000FE4F60817181828193814AE050E00E94D2
:102BD00099048BE694E00E94FA04E0915C0174E0B1
:102BE000E79FF0011124E35FFE4F608171818281D4
:102BF00093814AE050E00E9499048BE694E00E94A1
:102C0000FA046AE070E08E2D0E94DB048BE694E00B
:102C10000E94FA046AE070E08F2D0E94DB048BE6CC
:102C200094E00E94FA046AE070E0812F0E94DB04C5
:102C30008BE694E00E94FA046AE070E0802F0E9424
:102C4000E204109227051092260510922805FFCA6B
:102C500020926F01EDCBFC013397208132973081B8
:102C6000343409F08BC031963081353409F086C098
:102C7000223409F083C0453509F0B6C0339630815F
:102C8000373409F0B1C00E9451040E9451040E94DF
:102C900051048DE693E00E94EE0485E893E00E94E3
:102CA000FA0460E070E080E090E40E942A0D82E97E
:102CB00093E00E94FA0460918A0170918B018091E7
:102CC0008C0190918D010E942A0D81EA93E00E946F
:102CD000FA0460918601709187018091880190913A
:102CE00089010E942A0D8BEA93E00E94FA046AE0AF
:102CF00070E080916D0190916E010E94CF048CEB89
:102D000093E00E94FA046AE070E08091670190917C
:102D100068010E94CF048EEC93E00E94FA046AE0FE
:102D200070E080916101909162010E94CF0480EE79
:102D300093E00E94FA0460917A0170917B01809186
:102D40007C0190917D010E942A0D8DEE93E00E94FE
:102D5000FA046091760170917701809178019091E9
:102D600079010E942A0D89EF93E00E94FA046AE03B
:102D700070E0809159010E94E204BFCB223571F4CA
:102D8000433591F5FC0131973081343569F585E0A3
:102D900094E00E94EE0430929B01B3CB233421F5E2
:102DA0004C3411F5FC01319730813235E9F48CE176
:102DB00094E00E94EE0410923305109234051092B4
:102DC00035051092360510922F051092300510929D
:102DD00031051092320510922B0510922C0510929D
:102DE0002D0510922E058DCBFC01349730813734A0
:102DF00029F5223581F4413409F0ADC10197DC0198
:102E00008C91873509F0A7C18DE294E00E94EE0411
:102E100030922A0576CB2F3409F059C0463409F098
:102E20009AC10197FC018081863409F094C185E440
:102E300094E00E94EE0410922A0563CB3635C9F463
:102E4000253409F088C1423509F085C10197DC01BC
:102E50008C91833509F07FC180E694E00E94FA04EA
:102E600060E070E080E090E40E944B0686ED91E027
:102E700065C93035D1F42C3409F06DC1433549F4BE
:102E80000197FC018081843509F065C130922905E4
:102E900034CB453409F05FC10197DC018C918E344D
:102EA00009F059C11092290528CB333509F053C1D7
:102EB000213409F050C1463509F04DC10197FC019C
:102EC0008081853409F047C10E94C80816CB23359C
:102ED00009F041C1453409F03EC10197DC018C91F4
:102EE000843509F038C185E694E00E94FA0420E0B8
:102EF00030E048EC52E460918A0170918B0180913E
:102F00008C0190918D010E941D1B0E944B068BE647
:102F100094E00E94FA0420E030E048EC52E4609132
:102F200086017091870180918801909189010E94AA
:102F30001D1B0E944B068BE694E00E94FA0420E0E1
:102F400030E048EC52E460918201709183018091FD
:102F50008401909185010E941D1B0E944B068BE607
:102F600094E00E94FA0420E030E048EC52E46091E2
:102F70007E0170917F0180918001909181010E947A
:102F80001D1B0E944B068BE694E00E94FA0420E091
:102F900030E040E251E460917A0170917B018091D0
:102FA0007C0190917D010E941D1B0E944B068BE6C7
:102FB00094E00E94FA0420E030E040E251E46091A5
:102FC00076017091770180917801909179010E944A
:102FD0001D1B0E944B068BE694E00E94FA0420E041
:102FE00030E040E251E46091720170917301809190
:102FF0007401909175010E941D1B0E944B068BE687
:1030000094E00E94FA046AE070E0809138050E9422
:10301000DB048BE694E00E94FA046AE070E08091A1
:103020006D0190916E010E94C8048BE694E00E94AD
:10303000FA046AE070E080916B0190916C010E944B
:10304000C8048BE694E00E94FA046AE070E0809184
:10305000690190916A010E94C8048BE694E00E9485
:10306000FA046AE070E080916701909168010E9423
:10307000C8048BE694E00E94FA046AE070E0809154
:103080006501909166010E94C8048BE694E00E945D
:10309000FA046AE070E080916301909164010E94FB
:1030A000C8048BE694E00E94FA046AE070E0809124
:1030B0006101909162010E94C8048BE694E00E9435
:1030C000FA046AE070E080915F01909160010E94D3
:1030D000C8048BE694E00E94FA046AE070E08091F4
:1030E0005D0190915E010E94C8048BE694E00E940D
:1030F000FA046AE070E080915A010E94DB048BE6DA
:1031000094E00E94FA046AE070E080915B010E9402
:10311000DB048BE694E00E94FA046AE070E08091A0
:103120005C010E94DB048BE694E00E94FA046AE0F2
:1031300070E0809159010E94DB048BE694E00E94CC
:10314000FA046AE070E0809137050E94E2048DE69F
:1031500094E00C949E10553608F4D3C9CEC98CEF78
:1031600095E00E940C01849709F0CBC930923D058F
:10317000C8C96091490170914A0180914B019091B9
:103180004C010E944B068BE694E00E94FA04609189
:1031900045017091460180914701909148010E943C
:1031A0004B068BE694E00E94FA0460914101709115
:1031B00042018091430190914401E1CCF999FECF05
:1031C00092BD81BDF89A992780B50895262FF99967
:1031D000FECF1FBA92BD81BD20BD0FB6F894FA9AFA
:1031E000F99A0FBE019608955058BB27AA270E944E
:1031F0000C190C94C61A0E94B81A38F00E94BF1A13
:1032000020F039F49F3F19F426F40C94B51A0EF40B
:10321000E095E7FB0C94861AE92F0E94D71A58F321
:10322000BA17620773078407950720F079F4A6F5AB
:103230000C94111B0EF4E0950B2EBA2FA02D0B0150
:10324000B90190010C01CA01A0011124FF27591BEB
:1032500099F0593F50F4503E68F11A16F040A22FF1
:10326000232F342F4427585FF3CF46953795279562
:10327000A795F0405395C9F77EF41F16BA0B620B61
:10328000730B840BBAF09150A1F0FF0FBB1F661FA8
:10329000771F881FC2F70EC0BA0F621F731F841FEB
:1032A00048F4879577956795B795F7959E3F08F011
:1032B000B0CF9395880F08F09927EE0F97958795D3
:1032C00008950E94621A08F481E008950E947A1914
:1032D0000C94C61A0E94BF1A58F00E94B81A40F007
:1032E00029F45F3F29F00C94861A51110C94121B9B
:1032F0000C94B51A0E94D71A68F39923B1F3552399
:1033000091F3951B550BBB27AA27621773078407F8
:1033100038F09F5F5F4F220F331F441FAA1FA9F38E
:1033200035D00E2E3AF0E0E832D091505040E6957C
:10333000001CCAF72BD0FE2F29D0660F771F881FDD
:10334000BB1F261737074807AB07B0E809F0BB0BD0
:10335000802DBF01FF2793585F4F3AF09E3F5105E4
:1033600078F00C94861A0C94121B5F3FE4F3983E9D
:10337000D4F3869577956795B795F7959F5FC9F7CD
:10338000880F911D9695879597F90895E1E0660F4E
:10339000771F881FBB1F621773078407BA0720F0C7
:1033A000621B730B840BBA0BEE1F88F7E095089530
:1033B0000E94DF196894B1110C94121B08950E94A9
:1033C000DF1A88F09F5798F0B92F9927B751B0F0BE
:1033D000E1F0660F771F881F991F1AF0BA95C9F799
:1033E00014C0B13091F00E94111BB1E008950C940B
:1033F000111B672F782F8827B85F39F0B93FCCF3BE
:10340000869577956795B395D9F73EF49095809515
:10341000709561957F4F8F4F9F4F0895E89409C035
:1034200097FB3EF490958095709561957F4F8F4FF7
:103430009F4F9923A9F0F92F96E9BB279395F6950D
:10344000879577956795B795F111F8CFFAF4BB0F8B
:1034500011F460FF1BC06F5F7F4F8F4F9F4F16C0EF
:10346000882311F096E911C0772321F09EE8872F79
:10347000762F05C0662371F096E8862F70E060E035
:103480002AF09A95660F771F881FDAF7880F9695AE
:10349000879597F908950E94F91A90F09F3748F49C
:1034A000911116F00C94121B60E070E080E89FEB25
:1034B000089526F41B16611D711D811D0C948C1A34
:1034C0000C94A71A990F0008550FAA0BE0E8FEEF1D
:1034D00016161706E807F907C0F012161306E407D8
:1034E000F50798F0621B730B840B950B39F40A26D1
:1034F00061F0232B242B252B21F408950A2609F4AF
:10350000A140A6958FEF811D811D089597F99F67B2
:1035100080E870E060E00895882371F4772321F05B
:103520009850872B762F07C0662311F499270DC07A
:103530009051862B70E060E02AF09A95660F771F15
:10354000881FDAF7880F9695879597F908959F3F1A
:1035500031F0915020F4879577956795B795880F4E
:10356000911D9695879597F908959FEF80EC0895A2
:1035700000240A9416161706180609060895002452
:103580000A9412161306140605060895092E0394CC
:10359000000C11F4882352F0BB0F40F4BF2B11F440
:1035A00060FF04C06F5F7F4F8F4F9F4F089557FD9F
:1035B0009058440F551F59F05F3F71F04795880FA1
:1035C00097FB991F61F09F3F79F087950895121638
:1035D00013061406551FF2CF4695F1DF08C01616E4
:1035E00017061806991FF1CF869571056105089495
:1035F00008950E94DF1AA0F0BEE7B91788F4BB2730
:103600009F3860F41616B11D672F782F8827985FB2
:10361000F7CF869577956795B11D93959639C8F341
:103620000895E894BB2766277727CB0197F908957B
:103630000E94621A08F48FEF08950E94301B0C94C8
:10364000C61A0E94B81A38F00E94BF1A20F09523BB
:1036500011F00C94861A0C94B51A11240C94121BB8
:103660000E94D71A70F3959FC1F3950F50E0551F34
:10367000629FF001729FBB27F00DB11D639FAA27C7
:10368000F00DB11DAA1F649F6627B00DA11D661F16
:10369000829F2227B00DA11D621F739FB00DA11D37
:1036A000621F839FA00D611D221F749F3327A00DF1
:1036B000611D231F849F600D211D822F762F6A2F8D
:1036C00011249F5750409AF0F1F088234AF0EE0FF2
:1036D000FF1FBB1F661F771F881F91505040A9F71F
:1036E0009E3F510580F00C94861A0C94121B5F3F8C
:1036F000E4F3983ED4F3869577956795B795F7955B
:10370000E7959F5FC1F7FE2B880F911D96958795D2
:1037100097F908950E94621A880B990B089597FBF8
:10372000072E16F4009407D077FD09D00E94C51B20
:1037300007FC05D03EF4909581959F4F08957095B4
:1037400061957F4F0895A1E21A2EAA1BBB1BFD01B4
:103750000DC0AA1FBB1FEE1FFF1FA217B307E40770
:10376000F50720F0A21BB30BE40BF50B661F771FC8
:10377000881F991F1A9469F76095709580959095A8
:103780009B01AC01BD01CF010895AA1BBB1B51E1F8
:1037900007C0AA1FBB1FA617B70710F0A61BB70BC1
:1037A000881F991F5A95A9F780959095BC01CD0166
:1037B0000895EE0FFF1F0590F491E02D09940F93EB
:1037C0001F93CF93DF938230910510F482E090E055
:1037D000E091B306F091B40630E020E0B0E0A0E064
:1037E000309799F42115310509F44AC0281B390B8B
:1037F00024303105D8F58A819B816115710589F1E5
:10380000FB0193838283FE0111C0408151810281BB
:10381000138148175907E0F04817590799F4109792
:1038200061F012960C93129713961C933296CF0167
:10383000DF91CF911F910F9108950093B3061093DC
:10384000B406F4CF2115310551F04217530738F073
:10385000A901DB019A01BD01DF01F801C1CFEF0130
:10386000F9CF9093B4068093B306CDCFFE01E20F5B
:10387000F31F819391932250310939832883D7CF45
:103880002091B1063091B206232B41F420919E0184
:1038900030919F013093B2062093B10620919C0194
:1038A00030919D012115310541F42DB73EB740916E
:1038B000A0015091A101241B350BE091B106F091BC
:1038C000B206E217F307A0F42E1B3F0B28173907A7
:1038D00078F0AC014E5F5F4F2417350748F04E0F6C
:1038E0005F1F5093B2064093B106819391939FCF8F
:1038F000F0E0E0E09CCFCF93DF930097E9F0FC018C
:10390000329713821282A091B306B091B406ED01F2
:1039100030E020E01097A1F420813181820F931FC5
:103920002091B1063091B2062817390709F061C01D
:10393000F093B206E093B106DF91CF910895EA01CA
:10394000CE17DF07E8F54A815B819E0141155105DD
:10395000B1F7E901FB83EA8349915991C40FD51F5F
:10396000EC17FD0761F4808191810296840F951F09
:10397000E90199838883828193819B838A83F0E024
:10398000E0E012968D919C9113970097B9F52D91D7
:103990003C911197CD010296820F931F2091B106A1
:1039A0003091B2062817390739F6309751F5109241
:1039B000B4061092B306B093B206A093B106BCCF82
:1039C000D383C28340815181840F951FC817D907C3
:1039D00061F44E5F5F4F88819981480F591F518371
:1039E00040838A819B81938382832115310509F06D
:1039F000B0CFF093B406E093B3069ECFFD01DC0197
:103A0000C0CF13821282D7CFFB01DC01415050405E
:103A100048F001900D920020C9F701C01D9241505D
:0A3A20005040E0F70895F894FFCF3E
:103A2A00010000B4420000B4420000B4423408006D
:103A3A00003408000034080000340800003408008C
:103A4A00003408000034080000340800003408007C
:103A5A00003408000034080000340800003408006C
:103A6A00000000B4420000B4420000B4420000B4B6
:103A7A00420000B4420000B442240807067E047ED5
:103A8A000434087E047E0434087E047E043408FF6D
:103A9A00FFFF00008841000088410000884148E19A
:103AAA007A3F48E17A3F0000403F0000403F000172
:103ABA0002030405060708090A0B0C010000B506F3
:103ACA008000000000007001D000FD00BD012E0141
:103ADA000C0120010000000078034B03410421037C
:103AEA0044033103220300000000EE026507EF02DF
:103AFA007F0667070D0A004F7269656E74204D6173
:103B0A007070696E672023002053657420546F3AE1
:103B1A002000205369676E733A20006E616E006957
:103B2A006E66006F766600424E4F303535004F6F35
:103B3A006F70732C206E6F20424E4F3035352064E3
:103B4A0065746563746564202E2E2E204368656350
:103B5A006B20796F757220776972696E67206F7250
:103B6A0020493243204144445221002D2D2D2D2D30
:103B7A002D2D2D2D2D2D2D2D2D2D2D2D2D2D2D2D6B
:103B8A002D2D2D2D2D2D2D2D2D2D2D2D2D2D2D0088
:103B9A0053656E736F723A20202020202020004443
:103BAA007269766572205665723A20202000556E39
:103BBA00697175652049443A20202020004D6178BA
:103BCA002056616C75653A20202020004D696E20D0
:103BDA0056616C75653A20202020005265736F6C1F
:103BEA007574696F6E3A20202000417869732052FB
:103BFA00656D61703A200041786973205369676E78
:103C0A003A2020202030780053657474696E6773F7
:103C1A0020736176656421004E657720626F617258
:103C2A0064202D20736176696E672064656661750C
:103C3A006C742076616C75657321004368616E6EE1
:103C4A00656C206D617070696E6720726563656965
:103C5A00766564002443524345525200244352433A
:103C6A004F4B3A48542053657474696E67732052F7
:103C7A0065747269657665640041584953205245F6
:103C8A004D415020546F00205349474E002D2D2D91
:103C9A002D2D2D20446562756720696E666F2D2D66
:103CAA002D2D2D2D0046572056657273696F6E3A79
:103CBA00200074696C74526F6C6C426574613A20AE
:103CCA000070616E426574613A2000736572766FA6
:103CDA0050616E43656E7465723A20007365727640
:103CEA006F54696C7443656E7465723A200073652B
:103CFA0072766F526F6C6C43656E7465723A20000F
:103D0A0074696C74466163746F723A200070616EF4
:103D1A00466163746F723A20006178697352656D07
:103D2A0061703A200052657365742056616C75653E
:103D3A007320436F6D706C6574652000436C656118
:103D4A0072696E67204F6666736574730053686F95
:103D5A0077696E67205261772053656E736F7220A0
:103D6A00446174610053686F77696E67204F6666B5
:103D7A007365742053656E736F72204461746100B9
:103D8A0046573A20002453455424002C00536574A6
:103D9A0074696E6773205265747269657665642109
:103DAA000024470054696D65722031204F56460041
:00000001FF
