:100000000C9462000C948A000C948A000C948A0070
:100010000C948A000C948A000C948A000C948A0038
:100020000C948A000C948A000C94F70B0C94B80C76
:100030000C948A000C94310D0C948F0C0C948A0053
:100040000C948E0A0C948A000C945C0A0C94360A68
:100050000C948A000C948A000C948A000C948A00F8
:100060000C94D80A0C948A00000000002400270099
:100070002A0000000000250028002B0000000000DE
:1000800023002600290004040404040404040202DA
:100090000202020203030303030301020408102007
:1000A0004080010204081020010204081020000012
:1000B0000008000201000003040700000000000027
:1000C0000000700D11241FBECFEFD8E0DEBFCDBF02
:1000D00014E0A0E0B1E0E2E9FCE302C005900D927B
:1000E000A033B107D9F726E0A0E3B4E001C01D9228
:1000F000A638B207E1F710E0C2E6D0E004C02197CD
:10010000FE010E94F91CC136D107C9F70E94BF0D3C
:100110000C94471E0C9400009091C8059111FCCFDF
:1001200091E09093C8059093C7052FEF2093C605E3
:100130001092C505260F2093C4059093C305909196
:10014000C305880F892B8093C3058091C205813038
:10015000F9F41092C2058091C3058093BB00809191
:10016000BC0083FDF8CF85EC8093BC008091C8056E
:100170008130E1F38091C505861710F46091C505C3
:10018000A2EAB5E0E2E8F5E080E0861303C0089556
:1001900085EEEACF9D9191938F5FF7CF08950895F3
:1001A000AF92BF92CF92DF92EF92FF920F931F9385
:1001B000CF93DF936C017B018B01040F151FEB01C3
:1001C0005E01AE18BF08C017D10759F06991D6017A
:1001D000ED91FC910190F081E02DC6010995892BEC
:1001E00079F7C501DF91CF911F910F91FF90EF90AB
:1001F000DF90CF90BF90AF900895FC01538D448D58
:10020000252F30E0842F90E0821B930B541710F0C1
:10021000CF96089501970895FC01918D828D9817CE
:1002200061F0A28DAE0FBF2FB11D5D968C91928DA6
:100230009F5F9F73928F90E008958FEF9FEF0895D7
:10024000FC01918D828D981731F0828DE80FF11DA0
:10025000858D90E008958FEF9FEF0895FC01918DBB
:10026000228D892F90E0805C9F4F821B91098F73B4
:10027000992708958DEC95E00E942E0121E0892BAD
:1002800009F420E0822F089580E090E0892B29F086
:100290000E943A0181110C9400000895FC01A48D84
:1002A000A80FB92FB11DA35ABF4F2C91848D90E098
:1002B00001968F739927848FA689B7892C93A0897B
:1002C000B1898C91837080648C93938D848D981305
:1002D00006C00288F389E02D80818F7D8083089598
:1002E000EF92FF920F931F93CF93DF93EC0181E086
:1002F000888F9B8D8C8D98131AC0E889F98980812D
:1003000085FF15C09FB7F894EE89FF896083E8895F
:10031000F98980818370806480839FBF81E090E051
:10032000DF91CF911F910F91FF90EF900895F62EDE
:100330000B8D10E00F5F1F4F0F731127E02E8C8D78
:100340008E110CC00FB607FCFACFE889F9898081BD
:1003500085FFF5CFCE010E944E01F1CFEB8DEC0F62
:10036000FD2FF11DE35AFF4FF0829FB7F8940B8FDA
:10037000EA89FB8980818062CFCFCF93DF93EC0144
:10038000888D8823B9F0AA89BB89E889F9898C917D
:1003900085FD03C0808186FD0DC00FB607FCF7CF39
:1003A0008C9185FFF2CF808185FFEDCFCE010E9439
:1003B0004E01E9CFDF91CF910895833081F028F489
:1003C000813099F08230A9F008958730A9F0883003
:1003D000C9F08430B1F4809180008F7D03C080919A
:1003E00080008F7780938000089584B58F7784BDD7
:1003F000089584B58F7DFBCF8091B0008F77809377
:10040000B00008958091B0008F7DF9CF1F93CF93F6
:10041000DF93282F30E0F901E255FF4F8491F90175
:10042000E656FF4FD491F901EA57FF4FC491CC2310
:10043000A9F0162F81110E94DD01EC2FF0E0EE0FE4
:10044000FF1FEE58FF4FA591B4918FB7F894EC9130
:10045000111108C0D095DE23DC938FBFDF91CF91BF
:100460001F910895DE2BF8CF109281051092800520
:100470001092CA051092C9051092C80581E08093B8
:10048000C7051092C20561E082E10E94060261E0A8
:1004900083E10E940602E9EBF0E080818E7F808399
:1004A00080818D7F808388E48093B80085E4809389
:1004B000BC008EEC90E090937F0580937E058FECDE
:1004C00090E090937D0580937C050895CF93DF9312
:1004D00090E0FC01E656FF4F24918A579F4FFC01A4
:1004E00084918823D1F090E0880F991FFC01E8598E
:1004F000FF4FA591B491FC01EE58FF4FC591D491E7
:1005000061110EC09FB7F8948C91E22FE0958E2375
:100510008C932881E223E8839FBFDF91CF910895D8
:100520008FB7F894EC91E22BEC938FBFF6CF3FB7E7
:10053000F89480919D0490919E04A0919F04B091A5
:10054000A00426B5A89B05C02F3F19F00196A11D58
:10055000B11D3FBFBA2FA92F982F8827BC01CD010D
:10056000620F711D811D911D42E0660F771F881F6C
:10057000991F4A95D1F708958F929F92AF92BF929B
:10058000CF92DF92EF92FF924B015C010E949702A3
:100590006B017C010E9497026C197D098E099F09ED
:1005A000683E734081059105A8F321E0821A910805
:1005B000A108B10888EEC80E83E0D81EE11CF11C2A
:1005C00081149104A104B10429F7FF90EF90DF900A
:1005D000CF90BF90AF909F908F9008950895089509
:1005E00085ED8093BC008091BC0084FDFCCF10920F
:1005F000C805089520917504260F3327331F213233
:100600003105ECF42091C805FC0190E080E0243035
:1006100069F082E00895A09175042191AC014B5AD4
:100620005B4FA40FB52FB11D2C930196861798F33D
:1006300080917504680F6093750480E0089581E0EF
:1006400008950895E091810580918005E81730F4C0
:10065000F0E0EE57FA4F808190E008958FEF9FEF22
:10066000089590918105809180052FEF3FEF9817B5
:1006700048F4E92FF0E0EE57FA4F208130E09F5F19
:1006800090938105C901089580918005909181051D
:10069000891B990B0895CF92DF92EF92FF920F93EF
:1006A0001F93CF93DF937C01CB018A012091CC056E
:1006B000222389F0EB016B01C40ED51ECC15DD059C
:1006C00069F06991D701ED91FC910190F081E02DE5
:1006D000C7010995F3CF642F0E94FA02C801DF9188
:1006E000CF911F910F91FF90EF90DF90CF900895E1
:1006F000CF93DF931F92CDB7DEB769832091CC05EE
:100700002223F9F02091C905203258F021E030E091
:10071000FC013383228390E080E00F90DF91CF9142
:1007200008958091CA05E82FF0E0EB5CFB4F9981BA
:1007300090838F5F8093CA058093C90581E090E024
:10074000ECCF61E0CE0101960E94FA02F7CF209132
:10075000C90581E0213208F044C08091C8058111AB
:10076000FCCF8091CB0592E09093C80591E09093E7
:10077000C7059FEF9093C6051092C5052093C40549
:10078000A5E3B4E0E2EAF5E090E0291331C010926D
:10079000C3059091C305880F892B8093C305809171
:1007A000C205813049F51092C2058091C30580933E
:1007B000BB008091BC0083FDF8CF85EC8093BC002A
:1007C0008091C8058230E1F38091C6058F3FB1F07A
:1007D0008091C6058032A1F08091C605803391F0EA
:1007E00084E01092CA051092C9051092CC050895B4
:1007F0003D9131939F5FC9CF85EEE0CF80E0F1CF8F
:1008000082E0EFCF83E0EDCF1F93CF93DF93162FDE
:10081000C6E7D6E0AC81BD819B8121E02093CC0569
:100820009093CB051092CA051092C905ED91FC91E9
:1008300011970190F081E02D682FCD0109958C81F1
:100840009D81DC01ED91FC910190F081E02D612F03
:1008500009958C819D810E94A70381E0DF91CF9152
:100860001F910895E6E7F6E082879387682F8DE36E
:1008700090E00E9404046EE170E080E090E00C944F
:10088000BC0290E080E00895FF920F931F93CF93F6
:10089000DF93F0905901C6E7D6E00A851B8590E00A
:1008A00080E00E94320469E170E080E090E00E9404
:1008B000BC026F2D81E490E00E9404046AE070E0C5
:1008C00080E090E00E94BC02C8010E94320464E112
:1008D00070E080E090E00E94BC02109108050A845C
:1008E000DB85C02D90E080E00E94320469E170E079
:1008F00080E090E00E94BC02612F82E490E00E94C0
:1009000004046AE070E080E090E00E94BC02CE0146
:100910000E94320464E170E080E090E0DF91CF91CA
:100920001F910F91FF900C94BC02FC0101900020DC
:10093000E9F73197AF01481B590BBC018DEC95E0ED
:100940000C94D00084ED91E00C9495048F929F92CA
:10095000AF92BF920F931F93CF93DF93CDB7DEB7C4
:10096000A1970FB6F894DEBF0FBECDBF19A24230DB
:1009700008F44AE08E010F5D1F4F842E912CB12C9C
:10098000A12CA50194010E94D71CE62FB901CA0130
:10099000EA30F4F4E05DD801EE938D01232B242B93
:1009A000252B79F790E080E0109719F0CD010E9497
:1009B0009504A1960FB6F894DEBF0FBECDBFDF91B0
:1009C000CF911F910F91BF90AF909F908F900895FE
:1009D000E95CE1CFCF93DF930E949504EC010E9484
:1009E000A2048C0F9D1FDF91CF9108950C94950464
:1009F000CF93DF93C6E7D6E0AC81BD819B8121E038
:100A00002093CC059093CB051092CA051092C9058E
:100A1000ED91FC9111970190F081E02D682FCD01AF
:100A200009958C819D810E94A70361E08B810E94C2
:100A30008C0010928105809380058C819D81DC0162
:100A4000ED91FC910284F385E02D0995DF91CF9122
:100A50000895682F70E090E080E04AE00C94A604CE
:100A6000CF93DF930E942905EC010E94A2048C0F12
:100A70009D1FDF91CF9108954F925F926F927F9269
:100A80008F929F92AF92BF92CF92DF92EF92FF929E
:100A90000F931F93CF936B017C01742EAC019B01CC
:100AA0000E94BE1C882399F087ED91E0CF911F91A1
:100AB0000F91FF90EF90DF90CF90BF90AF909F90FD
:100AC0008F907F906F905F904F900C9495044601AB
:100AD0005701E894B7F82FEF3FEF4FE75FE7C50105
:100AE000B4010E94BE1C81110DC02FEF3FEF4FE7F4
:100AF0005FE7C501B4010E94951A18161CF48BED2E
:100B000091E0D4CF2FEF3FEF4FE75FE4C701B6018D
:100B10000E944C1C18161CF48FED91E0C7CF2FEFEC
:100B20003FEF4FE75FECC701B6010E94951A87FDC2
:100B3000F3CF20E030E0A901C701B6010E94951A69
:100B400010E000E087FF0AC06DE28DEC95E00E94A6
:100B500070018C01F7FAF094F7F8F094C0E060E0CF
:100B600070E080E09FE37C1641F020E030E040E25E
:100B700051E40E949A1ACF5FF6CFA70196010E9416
:100B8000291A2B013C010E94131B4B015C014AE016
:100B90000E94A6047C01E00EF11ECC23C1F1C50128
:100BA000B4010E94421B9B01AC01C301B2010E942F
:100BB000281A4B015C016EE28DEC95E00E947001F9
:100BC000E80EF91EC15018F120E030E040E251E497
:100BD000C501B4010E94511C2B013C010E94131B52
:100BE0004B01B12CA12C4AE0C501B4010E94A6041E
:100BF000E80EF91EC501B4010E94421B9B01AC0125
:100C0000C301B2010E94281A4B015C01DBCFC7016E
:100C1000CF911F910F91FF90EF90DF90CF90BF90F9
:100C2000AF909F908F907F906F905F904F900895BE
:100C300042E00C943C05CF92DF92EF92FF92CF936B
:100C4000DF9397FF1BC06B017C016DE28DEC95E09B
:100C50000E947001EC0166277727CB016C197D0992
:100C60008E099F094AE00E94A6048C0F9D1FDF9108
:100C7000CF91FF90EF90DF90CF9008954AE0DF9101
:100C8000CF91FF90EF90DF90CF900C94A604BC0121
:100C9000990F880B990B0C941B068F929F92AF9221
:100CA000BF92CF92DF92EF92FF920F931F93CF9359
:100CB000DF93CDB7DEB762970FB6F894DEBF0FBEF5
:100CC000CDBF6C018B01FB01349680E2DF011D92E8
:100CD0008A95E9F784E290E0A0E0B0E0FB01808330
:100CE0009183A283B383F60186819781A085B18524
:100CF000FB0184839583A683B78383E090E0A0E023
:100D0000B0E080879187A287B3872FB7F89480914E
:100D1000990490919A04A0919B04B0919C042FBFD8
:100D2000808B918BA28BB38B8CE0FE013196DF011F
:100D30001D928A95E9F77E01BDE0EB0EF11C86E07D
:100D4000F70111928A95E9F7D60114968D919C913D
:100D5000159713962C9131E03093CC052093CB0559
:100D60001092CA051092C905DC01ED91FC91019029
:100D7000F081E02D6AE10995F601848195810E9458
:100D8000A70366E0D60113968C910E948C00109206
:100D90008105809380055E01B3E1AB0EB11CF601C5
:100DA00084819581DC01ED91FC910284F385E02D35
:100DB0000995F70181937F01EA15FB0581F76D85A0
:100DC0007E85072E000C880B990B0E94441B20E0A7
:100DD00030E040E85DE30E94511C4B015C016F85EF
:100DE0007889072E000C880B990B0E94441B20E089
:100DF00030E040E85DE30E94511C6B017C01698991
:100E00007A89072E000C880B990B0E94441B20E066
:100E100030E040E85DE30E94511CD80154968D9269
:100E20009D92AD92BC925797F801C08ED18EE28E02
:100E3000F38E5C966D937D938D939C935F9781E089
:100E400062960FB6F894DEBF0FBECDBFDF91CF9193
:100E50001F910F91FF90EF90DF90CF90BF90AF90D8
:100E60009F908F9008950C941A1ACF93DF9320E0EF
:100E700030E048EC52E460918A0170918B018091DE
:100E80008C0190918D010E94511C0E94131B81E0E6
:100E900090E00E94330720E030E048EC52E460919B
:100EA00086017091870180918801909189010E944B
:100EB000511C0E94131B82E090E00E943307609156
:100EC000090585E090E00E94330760916D0187E09D
:100ED00090E00E94330760916E0188E090E00E94EC
:100EE000330720E030E040E251E460917A017091F4
:100EF0007B0180917C0190917D010E94511C0E9498
:100F0000131B89E090E00E94330720E030E040E2CC
:100F100051E460917A0170917B0180917C01909104
:100F20007D010E94511C0E940C1B672F8AE090E0FB
:100F30000E94330720E030E040E251E46091760106
:100F40007091770180917801909179010E94511CF4
:100F50000E94131B8BE090E00E94330720E030E0FA
:100F600040E251E4609176017091770180917801BF
:100F7000909179010E94511C0E940C1B672F8CE0FC
:100F800090E00E94330720E030E040E251E46091BD
:100F900072017091730180917401909175010E94AA
:100FA000511C0E94131B8DE090E00E94330720E04B
:100FB00030E040E251E460917201709173018091E0
:100FC0007401909175010E94511C0E940C1B672FA7
:100FD0008EE090E00E9433076091670180E190E02D
:100FE0000E9433076091680181E190E00E9433071D
:100FF0006091610182E190E00E943307609162019B
:1010000083E190E00E9433076091690184E190E000
:101010000E94330760916A0185E190E00E943307E6
:1010200060916B0186E190E00E94330760916C0152
:1010300087E190E00E9433076091630188E190E0CE
:101040000E9433076091640189E190E00E943307B8
:10105000609165018AE190E00E943307609166012A
:101060008BE190E00E94330760915D018CE190E09C
:101070000E94330760915E018DE190E00E9433078A
:1010800060915F018EE190E00E9433076091600102
:101090008FE190E00E943307CAE5D1E0688180E2E9
:1010A00090E00E943307698181E290E00E9433075B
:1010B0006A8182E290E00E9433076091590183E2E5
:1010C00090E00E9433076091080584E290E00E945E
:1010D00033076FE090E080E00E94330783EE91E0F9
:1010E000DF91CF910C94EA040C94121A0C94AF1D6A
:1010F0000F931F93CF93DF938C01EB0188E2FB01E9
:1011000011928A95E9F74BE050E063EF71E0CE0170
:101110000E94381E1B8681E090E0A0E0B0E08C8742
:101120009D87AE87BF87F80186819781A085B185AD
:10113000888B998BAA8BBB8B83E090E0A0E0B0E01A
:101140008C8B9D8BAE8BBF8B1CA21DA21EA21FA2DF
:10115000188E198E1A8E1B8E1C8E1D8E1E8E1F8E43
:101160008AE097EDA3E2BCE388A399A3AAA3BBA35B
:10117000DF91CF911F910F910895EF92FF920F93FE
:101180001F93CF93DF93CDB7DEB76A970FB6F8946E
:10119000DEBF0FBECDBF0E94340290E080E00E940F
:1011A000F804803A69F068EE73E080E090E00E9415
:1011B000BC0290E080E00E94F804803A09F03BC154
:1011C00090E080E00E94320460E28FE390E00E94B1
:1011D00004046EE170E080E090E00E94BC0290E0C8
:1011E00080E00E94F804803A29F06AE070E080E034
:1011F00090E0F3CF62E370E080E090E00E94BC02F8
:1012000060E08EE390E00E9404046AE070E080E019
:1012100090E00E94BC0260E087E090E00E9404043D
:1012200060E08FE390E00E9404046AE070E080E0F8
:1012300090E00E94BC028CE090E00E94320464E1E5
:1012400070E080E090E00E94BC0200918006109166
:10125000810690E080E00E94320469E170E080E065
:1012600090E00E94BC0260E087E090E00E940404ED
:1012700060E88FE390E00E9404046AE070E080E0A0
:1012800090E00E94BC02C8010E94320464E170E058
:1012900080E090E00E94BC028CE090E00E9432046A
:1012A00065EA74E086E796E00E9478080E944404AC
:1012B00084E690E00E94121A8F8B85E690E00E94EF
:1012C000121A888F86E690E00E94121A898F87E6AC
:1012D00090E00E94121A8A8F4091B5045091B60492
:1012E0006091B7047091B8048F89988DA98DBA8DDB
:1012F000481759076A077B0709F0A8C0CE01019675
:101300007C0108E610E0C8010E94121AF7018193DF
:101310007F010F5F1F4F0E371105A9F7009180065F
:101320001091810690E080E00E94320469E170E053
:1013300080E090E00E94BC026981FA8085E590E03F
:101340000E9404046F2D86E590E00E9404046B81E6
:10135000FC8087E590E00E9404046F2D88E590E012
:101360000E9404046D81FE8089E590E00E940404DF
:101370006F2D8AE590E00E9404046F81F8848BE56C
:1013800090E00E9404046F2D8CE590E00E9404041C
:101390006985FA848DE590E00E9404046F2D8EE546
:1013A00090E00E9404046B85FC848FE590E00E942D
:1013B00004046F2D80E690E00E9404046D85FE8495
:1013C00081E690E00E9404046F2D82E690E00E9486
:1013D00004046F85F88883E690E00E9404046F2D72
:1013E00084E690E00E9404046989FA8885E690E02A
:1013F0000E9404046F2D86E690E00E9404046B892D
:10140000FC8887E690E00E9404046F2D88E690E057
:101410000E9404046D89FE8889E690E00E9404041D
:101420006F2D8AE690E00E940404C8010E943204F5
:101430008DE392E00DC08AEF91E00E94EA0468EE2D
:1014400073E080E090E00E94BC02F5CF82E292E07F
:101450006A960FB6F894DEBF0FBECDBFDF91CF9175
:101460001F910F91FF90EF900C94EA041F920F923E
:101470000FB60F9211242F933F934F935F936F9367
:101480007F938F939F93AF93BF93EF93FF938DECD5
:1014900095E00E944E01FF91EF91BF91AF919F9116
:1014A0008F917F916F915F914F913F912F910F900D
:1014B0000FBE0F901F9018951F920F920FB60F92AC
:1014C00011242F938F939F93EF93FF93E091DD056A
:1014D000F091DE058081E091E305F091E40582FD65
:1014E0001BC090818091E6058F5F8F732091E70587
:1014F000821741F0E091E605F0E0E353FA4F958F53
:101500008093E605FF91EF919F918F912F910F901E
:101510000FBE0F901F9018958081F4CF1F920F92ED
:101520000FB60F9211242F933F938F939F93AF93F6
:10153000BF938091990490919A04A0919B04B091DB
:101540009C043091980423E0230F2D3758F5019621
:10155000A11DB11D209398048093990490939A043F
:10156000A0939B04B0939C0480919D0490919E0451
:10157000A0919F04B091A0040196A11DB11D80937C
:101580009D0490939E04A0939F04B093A004BF91E8
:10159000AF919F918F913F912F910F900FBE0F9020
:1015A0001F90189526E8230F0296A11DB11DD2CFDA
:1015B0001F920F920FB60F9211242F933F934F93C8
:1015C0005F936F937F938F939F93AF93BF93EF93AB
:1015D000FF938091B900887F803609F44AC0F0F506
:1015E000883209F4A7C018F5803109F49BC0B8F41B
:1015F000882309F4F9C0883009F494C0FF91EF9171
:10160000BF91AF919F918F917F916F915F914F911A
:101610003F912F910F900FBE0F901F90189588311A
:1016200009F488C0803251F78093C60514C0803415
:1016300009F49DC040F48033B9F38833F9F6809300
:10164000C60585ECB0C0803509F485C0883509F43D
:1016500096C0883499F60E94F002D0CF883909F4F8
:101660008CC038F5883729F050F4883611F080376F
:1016700029F683E08093C8051092970457C08838F4
:1016800009F47BC0803919F0803809F0B7CF809118
:101690009704803208F071C0E091970481E08E0FCA
:1016A000809397048091BB00F0E0E958FB4F808362
:1016B0003DC0803B39F0E0F4803A09F479C0883AC3
:1016C00009F09CCF84E08093C805109276041092B4
:1016D0007504E0917E05F0917F0509958091750470
:1016E00081110FC081E0809375041092550409C0E8
:1016F000803C09F4A6CF883C09F4A3CF883B09F0CD
:101700007DCFE091760481E08E0F80937604F0E047
:10171000EB5AFB4F80818093BB00909176048091BF
:10172000750429C08091C3058093BB0085EC80932C
:10173000BC0064CF9091C5058091C405981758F5F9
:10174000E091C50581E08E0F8093C505F0E0EE5570
:10175000FA4F8081E9CFE091C50581E08E0F80933B
:10176000C5058091BB00F0E0EE55FA4F8083909163
:10177000C5058091C4059817C8F285E8D8CFE091D7
:10178000C50581E08E0F8093C5058091BB00F0E018
:10179000EE55FA4F80838091C70581115CCF81E0BF
:1017A0008093C20584EA8093BC001092C80526CFBE
:1017B00085EC8093BC001092C8058091970480321C
:1017C00030F4E0919704F0E0E958FB4F108260910B
:1017D000970470E0E0917C05F0917D0587E794E047
:1017E0000995109297040ACF1092C60534CF1F9224
:1017F0000F920FB60F9211242F933F934F935F9345
:101800008F939F93AF93BF93EF93FF9380916F005C
:101810008F7D80936F00809181008091810090E4A2
:101820008927809381008091860090918700209184
:10183000310430913204AC018217930750F54553BF
:101840005045421B530B5093340440933304909300
:1018500032048093310420913304309134042D37C5
:1018600055E13507E8F01092300480916F008062F6
:1018700080936F00FF91EF91BF91AF919F918F91F6
:101880005F914F913F912F910F900FBE0F901F903E
:101890001895421B530B5093340440933304D7CF15
:1018A000E0913004E4319CF5283E83E03807E8F20B
:1018B000203A4FE0340758F58E2F0E2E000C990B6E
:1018C000019640915A014817190679F240915B013F
:1018D0004817190651F240915C014817190629F280
:1018E000EF5FE09330040E2E000CFF0BE257FE4F2B
:1018F000E08154E0E59FF0011124E35FFE4FC90150
:10190000B0E0A0E080839183A283B383AECF293E71
:10191000334008F4AACFEF5FE0933004A6CF1F92C4
:101920000F920FB60F9211248F939F93AF93BF9393
:1019300016BC81E08093F80480917705909178053A
:10194000A0917905B0917A054096A11DB11D8093B3
:10195000770590937805A0937905B0937A05BF91A8
:10196000AF919F918F910F900FBE0F901F90189580
:101970001F920F920FB60F9211242F933F934F9304
:101980005F936F937F938F939F93AF93BF93EF93E7
:10199000FF9380918800909189008B3C9F4A91F43D
:1019A00080EC8093800081E08093000180E293E0EE
:1019B000909389008093880080918100877F809335
:1019C000810022C080910001813019F480E480936D
:1019D0008000409100014131D0F5E42FF0E0CF01CB
:1019E000019762E070E00E94C31C0197F1F48091BE
:1019F000880090918900805E9C4F9093890080932D
:101A000088004F5F40930001FF91EF91BF91AF912C
:101A10009F918F917F916F915F914F913F912F9106
:101A20000F900FBE0F901F90189580918800909195
:101A300089003196F595E795EE0FFF1FEE0FFF1F1A
:101A4000E35FFE4F20813181820F931FD6CF8BEC55
:101A50009FEA90938900809388008091810088603C
:101A6000AECF1F920F920FB60F9211242F933F9378
:101A70004F935F936F937F938F939F93AF93BF9396
:101A8000EF93FF9384E294E00E94F604FF91EF91BC
:101A9000BF91AF919F918F917F916F915F914F9186
:101AA0003F912F910F900FBE0F901F901895CF93DD
:101AB000DF9342E00E943C05EC010E94A2048C0FDF
:101AC0009D1FDF91CF910895CF93DF930E9447062A
:101AD000EC010E94A2048C0F9D1FDF91CF9108950D
:101AE000EDECF5E01382128248EE53E060E070E026
:101AF000448355836683778386EA91E0918380836C
:101B000085EC90E09587848784EC90E097878687C2
:101B100080EC90E0918B808B81EC90E0938B828BBA
:101B200082EC90E0958B848B86EC90E0978B868B93
:101B3000118E128E138E148EAAE6B6E013961C92A6
:101B40001E92129714964D935D936D937C93179705
:101B500088EB91E011969C938E93E6E7F6E08AEC91
:101B600091E0918380834FEF5FEFBA014683578303
:101B70006087718788E28383B583A4830895CF93B8
:101B8000DF93CDB7DEB7C654D1090FB6F894DEBFE8
:101B90000FBECDBF789484B5826084BD84B581606A
:101BA00084BD85B5826085BD85B5816085BD809128
:101BB0006E00816080936E001092810080918100A0
:101BC0008260809381008091810081608093810098
:101BD000809180008160809380008091B10084605A
:101BE0008093B1008091B00081608093B0008091BB
:101BF0007A00846080937A0080917A00826080937A
:101C00007A0080917A00816080937A0080917A00D6
:101C1000806880937A001092C100E091DD05F09118
:101C2000DE0512E01083E091DD05F091DE05108203
:101C3000E091D905F091DA051082E091DB05F09191
:101C4000DC0580E180831092E505E091E105F091EB
:101C5000E20586E08083E091DF05F091E005808178
:101C600080618083E091DF05F091E00580818860EC
:101C70008083E091DF05F091E005808180688083BA
:101C8000E091DF05F091E00580818F7D808361E048
:101C900089E00E94660261E082E00E94060261E043
:101CA00083E00E94060260E080E00E94660260E03D
:101CB00081E00E94660260E082E00E94660260E0CD
:101CC00083E00E94660260E086E00E94660260E0B7
:101CD00087E00E94660260E088E00E94660260E0A1
:101CE0008BE00E94660261E08BE00E94060260E0E9
:101CF00080E00E94060260E081E00E94060261E04E
:101D000082E00E94060261E083E00E94060261E038
:101D10008DE00E94660261E08DE00E94060268ECA0
:101D200070E080E090E00E94BC0260E08DE00E94E4
:101D3000060280E4809380008AEC809381001092F8
:101D4000820010936F0080E293E09093890080936B
:101D500088000E94340211E01093CC0508E2009341
:101D6000CB051092CA051092C9058AE696E00E943A
:101D7000A70381111EC210927806009379068AE6A5
:101D800096E090937B0680937A068FEF9FEFDC01BD
:101D900080937C0690937D06A0937E06B0937F0689
:101DA000109281061092800690E080E00E947408F4
:101DB0008F3041F088E592E00E94EA040E94BD085D
:101DC0000E94350781E090E00E947408682F70E05F
:101DD00090E080E00E94421B20E030E048EC52E4BA
:101DE0000E949A1A60938A0170938B0180938C01F0
:101DF00090938D0182E090E00E947408682F70E05B
:101E000090E080E00E94421B20E030E048EC52E489
:101E10000E949A1A609386017093870180938801CB
:101E20009093890181E08093710180937001809388
:101E30006F0185E090E00E94740880FF03C09FEF6F
:101E40009093710181FF03C09FEF9093700182FF17
:101E500003C08FEF80936F0187E090E00E947408C9
:101E6000182F88E090E00E94740890E0982F88274F
:101E7000810F911D90936E0180936D0189E090E038
:101E80000E947408182F8AE090E00E947408682F5E
:101E900070E0762F6627610F711D072E000C880BEE
:101EA000990B0E94441B20E030E040E251E40E9484
:101EB0009A1A60937A0170937B0180937C019093CE
:101EC0007D018BE090E00E947408182F8CE090E078
:101ED0000E947408682F70E0762F6627610F711DCD
:101EE000072E000C880B990B0E94441B20E030E069
:101EF00040E251E40E949A1A609376017093770150
:101F000080937801909379018DE090E00E947408AD
:101F1000182F8EE090E00E947408682F70E0762FF2
:101F20006627610F711D072E000C880B990B0E940C
:101F3000441B20E030E040E251E40E949A1A609392
:101F4000720170937301809374019093750180E125
:101F500090E00E947408182F81E190E00E947408BC
:101F600090E0982F8827810F911D909368018093AE
:101F7000670182E190E00E947408182F83E190E0ED
:101F80000E94740890E0982F8827810F911D9093EC
:101F900062018093610184E190E00E947408182F2F
:101FA00085E190E00E94740890E0982F8827810FC7
:101FB000911D90936A018093690186E190E00E94EF
:101FC0007408182F87E190E00E94740890E0982F21
:101FD0008827810F911D90936C0180936B0188E19C
:101FE00090E00E947408182F89E190E00E94740824
:101FF00090E0982F8827810F911D90936401809322
:1020000063018AE190E00E947408182F8BE190E050
:102010000E94740890E0982F8827810F911D90935B
:102020006601809365018CE190E00E947408182F8E
:102030008DE190E00E94740890E0982F8827810F2E
:10204000911D90935E0180935D018EE190E00E946E
:102050007408182F8FE190E00E94740890E0982F88
:102060008827810F911D9093600180935F0180E22A
:1020700090E00E94740880935A0181E290E00E94EF
:10208000740880935B0182E290E00E947408809360
:102090005C0183E290E00E947408809359010E94E1
:1020A000BD0881E080939B018093CD0482E084BDD4
:1020B00085E085BD83E080936E0080E888BD87BDA4
:1020C000BE016F5F7F4F7EA76DA733243394222418
:1020D0002A94E9EBF0E08491E5EAF0E00491E1E98B
:1020E000F0E01491111179C080917B05882309F4E7
:1020F00088C080917605811118C0809177059091F4
:102100007805A0917905B0917A058D3D9540A1059E
:10211000B10558F081E090917505911180E08093B0
:10212000750530929B01309276058DEC95E00E940A
:102130002E01892B09F407C210917405111106C0F4
:10214000AFE0B5E0E4E61D92EA95E9F780910E056F
:10215000813009F095C78DEC95E00E940C0151E0AB
:10216000510F50937405E12FF0E0E15FFA4F808347
:102170005E3009F053C080911B05833409F04EC0D6
:1021800080911C05883409F049C0AFE0B5E080E0DB
:10219000ED918F5FEE3334F40E2E000CFF0BE25AFC
:1021A000FE4F80838D30A1F78BE792E00E94EA0416
:1021B000C6C11093CC0519E21093CB051092CA0545
:1021C0001092C9058AE696E00E94A7038111ECCD22
:1021D0001092780610937906D2CD81110E94DD010C
:1021E000E12FF0E0EE0FFF1FE458FF4FA591B491EF
:1021F0008C91082309F478CF1092760510927B0514
:1022000094CF30929B01109277051092780510922E
:10221000790510927A0530927B056BCF252F30E03F
:10222000C901815F9A4FFC0132974081483409F01F
:10223000C9C431966081653409F0C4C4553008F4CE
:102240004BC090E080E024303105E9F0EFE0F5E0AC
:10225000B9018FEF9FEF419150E018E0DA01A82714
:1022600096958795A0FF04C0A8E08A27A4E89A273E
:1022700056954795115091F7615071096430710579
:1022800051F78095909590930D0580930C05255FEF
:102290003A4FF9018081918190930B0580930A0553
:1022A00020910A0530910B0580910C0590910D0548
:1022B00028173907B1F084E992E00E94EA0480E02F
:1022C00090E0892B09F405CF0E943A01882309F494
:1022D000FECE0E940000F9CE10920D0510920C0562
:1022E000DFCF8CE992E00E94EA04ADA5BEA5ECE246
:1022F0001D92EA95E9F7209174052450330B10E004
:1023000050E040E0812F90E08217930724F5815F31
:102310009A4FDC018C918C3221F44F5F5F4F1F5F2D
:10232000F1CFFA01EE0FFF1F61E070E06C0F7D1F2F
:10233000E60FF71FA081B1819AE09A9FB0019B9FA1
:10234000700D1124082E000C990BC097860F971F53
:1023500091838083E4CF69817A81072E000C880BFA
:10236000990B0E94441B20E030E048EC52E40E94AC
:102370009A1A60938A0170938B0180938C019093D9
:102380008D016B817C81072E000C880B990B0E94BC
:10239000441B20E030E048EC52E40E949A1A60931B
:1023A00086017093870180938801909389016D81E4
:1023B0007E81072E000C880B990B0E94441B20E0A5
:1023C00030E048EC52E40E949A1A609382017093C4
:1023D000830180938401909385016F817885072E16
:1023E000000C880B990B0E94441B20E030E048EC65
:1023F00052E40E949A1A60937E0170937F01809349
:1024000080019093810169857A85072E000C880BE5
:10241000990B0E94441B20E030E040E251E40E940E
:102420009A1A60937A0170937B0180937C01909358
:102430007D016B857C85072E000C880B990B0E9413
:10244000441B20E030E040E251E40E949A1A60937D
:1024500076017093770180937801909379016D856F
:102460007E85072E000C880B990B0E94441B20E0F0
:1024700030E040E251E40E949A1A60937201709336
:10248000730180937401909375018F858093090582
:10249000309271013092700182FD91C330926F01D0
:1024A00081FD2092700180FD2092710189899A89B5
:1024B00090936E0180936D018B899C8990936C0140
:1024C00080936B018D899E8990936A018093690145
:1024D0008F89988D9093680180936701898D9A8D7B
:1024E00090936601809365018B8D9C8D9093640120
:1024F000809363018D8D9E8D909362018093610125
:102500008F8D98A19093600180935F0189A19AA11A
:1025100090935E0180935D018BA180935A018DA100
:1025200080935B018FA180935C0189A58093590101
:102530008BA5809308050E9444040E9435071092E1
:10254000740510920E058091F804813009F0B7CE21
:10255000809175058111B3CE6EEC74E086E796E04C
:102560000E944D066091EA047091EB048091EC04A6
:102570009091ED046FA778AB89AB9AAB6093510152
:10258000709352018093530190935401C090E204E0
:10259000D090E304E090E404F090E5044090E60479
:1025A0005090E7046090E8047090E904409255016F
:1025B00050925601609257017092580180919B0190
:1025C0008130F1F410929B01409203055092040572
:1025D0006092050570920605C092FF04D092000536
:1025E000E0920105F09202058FA598A9A9A9BAA9C0
:1025F0008093FB049093FC04A093FD04B093FE042D
:102600006091030570910405809105059091060580
:102610006FAB78AF89AF9AAF8091FB049091FC04C7
:10262000A091FD04B091FE048BAF9CAFADAFBEAFE7
:102630002091FF0430910005409101055091020561
:10264000C701B6010E94281A20E030E044E353E4B9
:102650000E94291A6BAB7CAB8DAB9EAB20E030E0C7
:1026600044EB53E40E949A1A0E947F1B23966CAF9E
:102670007DAF8EAF9FAF239720E030E044E353E47B
:10268000C701B6010E94291A6B017C0120E030E0ED
:1026900044EB53E40E949A1A0E947F1B20E030E032
:1026A00044EB53E40E94511C9B01AC01C701B601ED
:1026B0000E94281A20E030E044E353E40E94281AE4
:1026C00060934D0170934E0180934F0190935001A0
:1026D0008091CD04882309F417C2C0908A01D0905C
:1026E0008B01E0908C01F0908D01A701960160E0D4
:1026F00070E080E89FE30E94281A4B015C01209162
:10270000090130910A0140910B0150910C010E9486
:10271000511C27966CAF7DAF8EAF9FAF27972FA927
:1027200038AD49AD5AADC301B2010E94281AA701C4
:1027300096010E94511C9B01AC0127966CAD7DADAA
:102740008EAD9FAD27970E94291A2B013C01409224
:10275000490150924A0160924B0170924C014092A3
:10276000090150920A0160920B0170920C012091B4
:102770000501309106014091070150910801C50102
:10278000B4010E94511C4B015C012BAD3CAD4DAD21
:102790005EAD6FA578A989A99AA90E94281AA701F8
:1027A00096010E94511C9B01AC01C501B4010E941D
:1027B000291A6FA778AB89AB9AAB609345017093E8
:1027C00046018093470190934801609305017093FF
:1027D00006018093070190930801C0908601D09074
:1027E0008701E0908801F090890120E030E044EB1F
:1027F00053E423966CAD7DAD8EAD9FAD23970E94C3
:10280000511C9B01AC016BA97CA98DA99EA90E94BA
:10281000281A20E030E044E353E40E94281AA7017C
:1028200096010E94511C4B015C01A701960160E0DA
:1028300070E080E89FE30E94281A20910101309106
:10284000020140910301509104010E94511C9B011F
:10285000AC01C501B4010E94291A6B017C01C09230
:102860004101D0924201E0924301F0924401C092B2
:102870000101D0920201E0920301F0920401609103
:102880006F01062E000C770B880B990B0E94441BDE
:10289000A70196010E94511C209176013091770189
:1028A00040917801509179010E94511C6B017C018B
:1028B00060916D0170916E01072E000C880B990BD1
:1028C0000E94441B9B01AC01C701B6010E94291A5A
:1028D0006B017C0160916B0170916C01072E000C03
:1028E000880B990B0E94441B5B018C019B01AC017E
:1028F000B601C7010E94951A87FD02C056018701E3
:102900006091690170916A01072E000C880B990B88
:102910000E94441B6B017C019501A8010E94951A3D
:1029200087FD02C06501780100915A0194E0099F7A
:1029300080011124035F1E4FB601C7010E940C1BCA
:10294000D8016D937D938D939C9313976091710142
:10295000062E000C770B880B990B0E94441BA301D9
:1029600092010E94511C20917A0130917B0140918B
:102970007C0150917D010E94511C6B017C01609192
:10298000670170916801072E000C880B990B0E945B
:10299000441B9B01AC01C701B6010E94291A6B01BF
:1029A0007C016091650170916601072E000C880B17
:1029B000990B0E94441B5B018C019B01AC01B60189
:1029C000C7010E94951A87FD02C0560187016091D8
:1029D000630170916401072E000C880B990B0E9413
:1029E000441B6B017C019501A8010E94951A87FD8B
:1029F00002C06501780100915B01B4E00B9F80018A
:102A00001124035F1E4FB601C7010E940C1BF80181
:102A1000608371838283938360917001062E000C22
:102A2000770B880B990B0E94441B2FA538A949A945
:102A30005AA90E94511C209172013091730140915A
:102A40007401509175010E94511C6B017C016091D1
:102A5000610170916201072E000C880B990B0E9496
:102A6000441B9B01AC01C701B6010E94291AB62E76
:102A7000C72ED82EE92E60915F0170916001072E5C
:102A8000000C880B990B0E94441BA62EF72E8C017C
:102A9000262F372FAC016B2D7C2D8D2D9E2D0E9466
:102AA000951A87FD04C0AB2CFC2C0D2D1E2D6091BA
:102AB0005D0170915E01072E000C880B990B0E943E
:102AC000441BB62EC72ED82EE92E2A2D3F2DA80145
:102AD0000E94951A87FD04C0BA2CCF2CD02EE12E6F
:102AE00000915C01F4E00F9F80011124035F1E4FF1
:102AF0006B2D7C2D8D2D9E2D0E940C1BD8016D936E
:102B00007D938D939C9313978091F504833009F006
:102B100093C38091F404833009F08EC38091F30451
:102B2000833009F089C38091F204833009F084C3B3
:102B300080910705882309F47FC365EA74E086E77E
:102B400096E00E9478088091B5049091B604A09117
:102B5000B704B091B8048093A1049093A204A09309
:102B6000A304B093A40485E390E00E94F804282F06
:102B700030E0A90164E0559547956A95E1F7437007
:102B800035952795359527952370382F337000910B
:102B9000800610918106F8013197EA30F10508F0BE
:102BA0000BC4EB52FA4E0C94F91C4A18E919E118BF
:102BB000E619DF18E418DC19DF18E619E11820928D
:102BC0006F016ECCFC013397208132973081343411
:102BD00009F083C031963081353409F07EC022344B
:102BE00009F07BC0453509F0BFC0339630813734DA
:102BF00009F0BAC00E94A2040E94A2040E94A2048A
:102C000089EB92E00E94EA0481ED92E00E94F604D2
:102C100060E070E080E090E40E94570D8EED92E05D
:102C20000E94F60460918A0170918B0180918C0161
:102C300090918D010E94570D8DEE92E00E94F60456
:102C4000609186017091870180918801909189013E
:102C50000E94570D87EF92E00E94F60480916D016B
:102C600090916E010E94640D88E093E00E94F6044A
:102C700080916701909168010E94640D8AE193E060
:102C80000E94F60480916101909162010E94640D9E
:102C90008CE293E00E94F60460917A0170917B01CE
:102CA00080917C0190917D010E94570D89E393E012
:102CB0000E94F6046091760170917701809178010D
:102CC000909179010E94570D85E493E00E94F604EB
:102CD000809159010E94300532CC223579F4433578
:102CE00009F042C0FC01319730813435E9F581E5C6
:102CF00093E00E94EA0430929B0125CC233571F4C5
:102D0000443591F5FC01319730813F3469F588E60F
:102D100093E00E94EA043092070515CC233421F594
:102D20004C3411F5FC01319730813235E9F486E9F4
:102D300093E00E94EA041092030510920405109299
:102D40000505109206051092FF04109200051092DE
:102D50000105109202051092FB041092FC041092DF
:102D6000FD041092FE04EFCBFC0134973081373420
:102D700029F5223581F4413409F05CC00197DC016A
:102D80008C91873509F056C087EA93E00E94EA04E7
:102D90003092FA04D8CB2F3409F050C0463409F0F1
:102DA00049C00197FC018081863409F043C08FEB54
:102DB00093E00E94EA041092FA04C5CB3635B1F4D0
:102DC0002534C1F54235B1F50197DC018C9183358D
:102DD00089F58AED93E00E94F60460E070E080E0FF
:102DE00090E40E94180686ED91E0E0C93035B1F418
:102DF0002C3401F5433541F40197FC018081843581
:102E0000C9F43092F9049BCB4534A1F40197DC015D
:102E10008C918E3479F41092F90491CB333551F4BE
:102E2000213441F4463531F40197FC018081853429
:102E300009F483CB553608F486CB81CB2335D1F703
:102E40004534C1F70197DC018C91843599F78FEDFA
:102E500093E00E94F60420E030E048EC52E46091F8
:102E60008A0170918B0180918C0190918D010E945B
:102E7000511C0E94180685EE93E00E94F60420E0A3
:102E800030E048EC52E460918601709187018091B6
:102E90008801909189010E94511C0E94180685EEBC
:102EA00093E00E94F60420E030E048EC52E46091A8
:102EB00082017091830180918401909185010E942B
:102EC000511C0E94180685EE93E00E94F60420E053
:102ED00030E048EC52E460917E0170917F01809176
:102EE0008001909181010E94511C0E94180685EE7C
:102EF00093E00E94F60420E030E040E251E460916B
:102F00007A0170917B0180917C0190917D010E94FA
:102F1000511C0E94180685EE93E00E94F60420E002
:102F200030E040E251E46091760170917701809148
:102F30007801909179010E94511C0E94180685EE3B
:102F400093E00E94F60420E030E040E251E460911A
:102F500072017091730180917401909175010E94CA
:102F6000511C0E94180685EE93E00E94F6048091A1
:102F700009050E94290585EE93E00E94F6048091E0
:102F80006D0190916E010E94470685EE93E00E94CC
:102F9000F60480916B0190916C010E94470685EECA
:102FA00093E00E94F6048091690190916A010E9469
:102FB000470685EE93E00E94F604809167019091A8
:102FC00068010E94470685EE93E00E94F604809116
:102FD0006501909166010E94470685EE93E00E948C
:102FE000F60480916301909164010E94470685EE8A
:102FF00093E00E94F60480916101909162010E9429
:10300000470685EE93E00E94F60480915F0190915F
:1030100060010E94470685EE93E00E94F6048091CD
:103020005D0190915E010E94470685EE93E00E944B
:10303000F60480915A010E94290585EE93E00E94D2
:10304000F60480915B010E94290585EE93E00E94C1
:10305000F60480915C010E94290585EE93E00E94B0
:10306000F604809159010E94290585EE93E00E94A3
:10307000F604809108050E94300587EE93E096C81B
:103080008DEC95E00E940C01849709F05CCA3092A7
:103090000E0559CA233009F099C090E080E00E94E3
:1030A000320469E170E080E090E00E94BC0286E5B5
:1030B00090E00E94F804F82E85E590E00E94F80464
:1030C0009F2D9A83898388E590E00E94F804F82E6A
:1030D00087E590E00E94F8049F2D9C838B838AE50E
:1030E00090E00E94F804F82E89E590E00E94F80430
:1030F0009F2D9E838D838CE590E00E94F804F82E2E
:103100008BE590E00E94F8049F2D98878F838EE5D1
:1031100090E00E94F804F82E8DE590E00E94F804FB
:103120009F2D9A87898780E690E00E94F804F82E08
:103130008FE590E00E94F8049F2D9C878B8782E6A4
:1031400090E00E94F804F82E81E690E00E94F804D6
:103150009F2D9E878D8784E690E00E94F804F82ECC
:1031600083E690E00E94F8049F2D988B8F8786E677
:1031700090E00E94F804F82E85E690E00E94F804A2
:103180009F2D9A8B898B88E690E00E94F804F82E98
:1031900087E690E00E94F8049F2D9C8B8B8B8AE63B
:1031A00090E00E94F804F82E89E690E00E94F8046E
:1031B0009F2D9E8B8D8BC8010E94320407C0233047
:1031C00029F4433019F469CF3330D9F386EF93E013
:1031D0000E94EA0451EAE52E54E0F52E04E610E0E0
:1031E000F701D1907F01C8010E94121AD81621F070
:1031F0006D2DC8010E941A1A0F5F1F4F0836110566
:1032000079F7BE016F5F7F4F7B01D701DD907D01B4
:10321000C8010E94121AD81621F06D2DC8010E9413
:103220001A1A0F5F1F4F0E37110579F789E194E0E5
:103230000E94EA04109207058091F6049091F70429
:103240009C012F5F3F4F3093F7042093F6040A97B9
:103250000CF4AEC08091F904813009F0A5C085E37B
:1032600090E00E94F804982F929596959695937009
:103270009093F504282F30E0A90194E055954795E7
:103280009A95E1F743704093F40435952795359569
:10329000279523702093F30483708093F20481E2D6
:1032A00094E00E94F6048091FA04882309F495C002
:1032B000609155017091560180915701909158018C
:1032C0000E94180685EE93E00E94F6046091510179
:1032D0007091520180915301909154010E941806FF
:1032E00085EE93E00E94F60460914D0170914E01CD
:1032F00080914F01909150010E94180685EE93E055
:103300000E94F604E0915A01B4E0EB9FF001112411
:10331000E35FFE4F60817181828193810E941B0671
:1033200085EE93E00E94F604E0915B0124E0E29FC9
:10333000F0011124E35FFE4F6081718182819381EE
:103340000E941B0685EE93E00E94F604E0915C016A
:1033500064E0E69FF0011124E35FFE4F608171811C
:10336000828193810E941B0685EE93E00E94F60401
:103370008091F5040E94290585EE93E00E94F604F1
:103380008091F4040E94290585EE93E00E94F604E2
:103390008091F3040E94290585EE93E00E94F604D3
:1033A0008091F2040E9430051092F7041092F60406
:1033B0001092F8040C945F1182958695869583701F
:1033C000833009F003CF433009F000CF233009F0F8
:1033D000FDCE333009F0FACE60CE60914901709194
:1033E0004A0180914B0190914C010E94180685EE94
:1033F00093E00E94F604609145017091460180912E
:103400004701909148010E94180685EE93E00E94C2
:10341000F6046091410170914201809143019091C5
:1034200044016ACFF999FECF92BD81BDF89A9927E0
:1034300080B50895262FF999FECF1FBA92BD81BDA0
:1034400020BD0FB6F894FA9AF99A0FBE0196089526
:103450005058BB27AA270E94401A0C94FA1B0E94BE
:10346000EC1B38F00E94F31B20F039F49F3F19F455
:1034700026F40C94E91B0EF4E095E7FB0C94BA1BC0
:10348000E92F0E940B1C58F3BA17620773078407D1
:10349000950720F079F4A6F50C94451C0EF4E09500
:1034A0000B2EBA2FA02D0B01B90190010C01CA01FE
:1034B000A0011124FF27591B99F0593F50F4503EA9
:1034C00068F11A16F040A22F232F342F4427585F9B
:1034D000F3CF469537952795A795F0405395C9F7B3
:1034E0007EF41F16BA0B620B730B840BBAF091506B
:1034F000A1F0FF0FBB1F661F771F881FC2F70EC00A
:10350000BA0F621F731F841F48F4879577956795DC
:10351000B795F7959E3F08F0B0CF9395880F08F0C8
:103520009927EE0F9795879508950E94961B08F4AA
:1035300081E008950E94AE1A0C94FA1B0E94F31BBE
:1035400058F00E94EC1B40F029F45F3F29F00C94E6
:10355000BA1B51110C94461C0C94E91B0E940B1CC5
:1035600068F39923B1F3552391F3951B550BBB27B2
:10357000AA2762177307840738F09F5F5F4F220FF7
:10358000331F441FAA1FA9F335D00E2E3AF0E0E8EE
:1035900032D091505040E695001CCAF72BD0FE2F38
:1035A00029D0660F771F881FBB1F261737074807CC
:1035B000AB07B0E809F0BB0B802DBF01FF27935884
:1035C0005F4F3AF09E3F510578F00C94BA1B0C9473
:1035D000461C5F3FE4F3983ED4F386957795679554
:1035E000B795F7959F5FC9F7880F911D96958795B9
:1035F00097F90895E1E0660F771F881FBB1F6217D8
:1036000073078407BA0720F0621B730B840BBA0B95
:10361000EE1F88F7E09508950E94131B6894B1117E
:103620000C94461C08950E94131C88F09F5798F034
:10363000B92F9927B751B0F0E1F0660F771F881FB7
:10364000991F1AF0BA95C9F714C0B13091F00E94D1
:10365000451CB1E008950C94451C672F782F8827EE
:10366000B85F39F0B93FCCF3869577956795B395F8
:10367000D9F73EF490958095709561957F4F8F4F67
:103680009F4F0895E89409C097FB3EF4909580956C
:10369000709561957F4F8F4F9F4F9923A9F0F92F18
:1036A00096E9BB279395F695879577956795B79596
:1036B000F111F8CFFAF4BB0F11F460FF1BC06F5F7C
:1036C0007F4F8F4F9F4F16C0882311F096E911C08E
:1036D000772321F09EE8872F762F05C0662371F0AF
:1036E00096E8862F70E060E02AF09A95660F771FC3
:1036F000881FDAF7880F9695879597F908950E94A5
:103700002D1C90F09F3748F4911116F00C94461C34
:1037100060E070E080E89FEB089526F41B16611DC1
:10372000711D811D0C94C01B0C94DB1B990F0008AC
:10373000550FAA0BE0E8FEEF16161706E807F90783
:10374000C0F012161306E407F50798F0621B730B1E
:10375000840B950B39F40A2661F0232B242B252B9F
:1037600021F408950A2609F4A140A6958FEF811D42
:10377000811D089597F99F6780E870E060E00895E3
:10378000882371F4772321F09850872B762F07C078
:10379000662311F499270DC09051862B70E060E0EC
:1037A0002AF09A95660F771F881FDAF7880F96958B
:1037B000879597F908959F3F31F0915020F48795B0
:1037C00077956795B795880F911D9695879597F989
:1037D00008959FEF80EC089500240A9416161706AA
:1037E00018060906089500240A94121613061406F2
:1037F00005060895092E0394000C11F4882352F055
:10380000BB0F40F4BF2B11F460FF04C06F5F7F4F0C
:103810008F4F9F4F089557FD9058440F551F59F0F3
:103820005F3F71F04795880F97FB991F61F09F3FAD
:1038300079F087950895121613061406551FF2CFD6
:103840004695F1DF08C0161617061806991FF1CF26
:10385000869571056105089408950E94131CA0F0D7
:10386000BEE7B91788F4BB279F3860F41616B11D60
:10387000672F782F8827985FF7CF8695779567957C
:10388000B11D93959639C8F30895E894BB27662730
:103890007727CB0197F908950E94961B08F48FEFC4
:1038A00008950E94641C0C94FA1B0E94EC1B38F0D3
:1038B0000E94F31B20F0952311F00C94BA1B0C947A
:1038C000E91B11240C94461C0E940B1C70F3959F5D
:1038D000C1F3950F50E0551F629FF001729FBB2707
:1038E000F00DB11D639FAA27F00DB11DAA1F649FA3
:1038F0006627B00DA11D661F829F2227B00DA11D56
:10390000621F739FB00DA11D621F839FA00D611DDB
:10391000221F749F3327A00D611D231F849F600DFC
:10392000211D822F762F6A2F11249F5750409AF025
:10393000F1F088234AF0EE0FFF1FBB1F661F771FB1
:10394000881F91505040A9F79E3F510580F00C947C
:10395000BA1B0C94461C5F3FE4F3983ED4F3869563
:1039600077956795B795F795E7959F5FC1F7FE2B1C
:10397000880F911D9695879597F908950E94961B3B
:10398000880B990B089597FB072E16F4009407D027
:1039900077FD09D00E94FF1C07FC05D03EF49095EE
:1039A00081959F4F0895709561957F4F0895A1E28D
:1039B0001A2EAA1BBB1BFD010DC0AA1FBB1FEE1FA9
:1039C000FF1FA217B307E407F50720F0A21BB30BF4
:1039D000E40BF50B661F771F881F991F1A9469F770
:1039E00060957095809590959B01AC01BD01CF01CC
:1039F0000895EE0FFF1F0590F491E02D0994AA1B86
:103A0000BB1B51E107C0AA1FBB1FA617B70710F0C9
:103A1000A61BB70B881F991F5A95A9F780959095FB
:103A2000BC01CD0108950F931F93CF93DF93823094
:103A3000910510F482E090E0E0918406F091850613
:103A400030E020E0B0E0A0E0309799F42115310596
:103A500009F44AC0281B390B24303105D8F58A8176
:103A60009B816115710589F1FB0193838283FE01BE
:103A700011C0408151810281138148175907E0F03C
:103A80004817590799F4109761F012960C93129702
:103A900013961C933296CF01DF91CF911F910F9116
:103AA00008950093840610938506F4CF21153105FF
:103AB00051F04217530738F0A901DB019A01BD010B
:103AC000DF01F801C1CFEF01F9CF90938506809314
:103AD0008406CDCFFE01E20FF31F81939193225014
:103AE000310939832883D7CF20918206309183060C
:103AF000232B41F420919E0130919F013093830646
:103B00002093820620919C0130919D012115310561
:103B100041F42DB73EB74091A0015091A101241B63
:103B2000350BE0918206F0918306E217F307A0F4CB
:103B30002E1B3F0B2817390778F0AC014E5F5F4F03
:103B40002417350748F04E0F5F1F509383064093AC
:103B50008206819391939FCFF0E0E0E09CCFCF93DA
:103B6000DF930097E9F0FC01329713821282A09153
:103B70008406B0918506ED0130E020E01097A1F4B5
:103B800020813181820F931F20918206309183061C
:103B90002817390709F061C0F0938306E093820685
:103BA000DF91CF910895EA01CE17DF07E8F54A814A
:103BB0005B819E0141155105B1F7E901FB83EA8361
:103BC00049915991C40FD51FEC17FD0761F480810D
:103BD00091810296840F951FE901998388838281E0
:103BE00093819B838A83F0E0E0E012968D919C9113
:103BF00013970097B9F52D913C911197CD0102963D
:103C0000820F931F2091820630918306281739076F
:103C100039F6309751F51092850610928406B093CC
:103C20008306A0938206BCCFD383C2834081518197
:103C3000840F951FC817D90761F44E5F5F4F8881C5
:103C40009981480F591F518340838A819B819383B7
:103C500082832115310509F0B0CFF0938506E093FA
:103C600084069ECFFD01DC01C0CF13821282D7CF24
:103C7000FB01DC014150504048F001900D920020C2
:103C8000C9F701C01D9241505040E0F70895F894E3
:023C9000FFCF64
:103C9200010000B4420000B4420000B44234080003
:103CA2000034080000340800003408000034080022
:103CB2000034080000340800003408000034080012
:103CC2000034080000340800003408000034080002
:103CD200000000B4420000B4420000B4420000B44C
:103CE200420000B4420000B44224080706800CB02F
:103CF200049808800CB0049808800CB0049808FF5F
:103D0200FFFF00008841000088410000884148E12F
:103D12007A3F48E17A3F0000403F0000403F000107
:103D220002030405060708090A0B0C0100008606B7
:103D32008000000000007001D000FD00BD012E01D6
:103D42000C0120010000000078034B034104210311
:103D520044033103220300000000EE027608EF0262
:103D62004D0678080D0A006E616E00696E66006F7E
:103D720076660053657474696E6773207361766545
:103D8200642100424E4F303535004E6F20424E4F77
:103D92003035352064657465637465642E2E2E207B
:103DA200436865636B20796F757220776972696EFB
:103DB20067004E6F2043616C6962726174696F6E55
:103DC20020446174612053746F726564005265739C
:103DD200746F7265642053617665642043616C6917
:103DE20062726174696F6E004E657720626F6172F4
:103DF20064202D20736176696E6720646566617543
:103E02006C742076616C75657321004368616E6E17
:103E1200656C206D617070696E672072656365699B
:103E22007665640024435243455252002443524370
:103E32004F4B3A48542053657474696E677320522D
:103E42006574726965766564002D2D2D2D2D2D20EA
:103E5200446562756720696E666F2D2D2D2D2D2D9F
:103E62000046572056657273696F6E3A2000746976
:103E72006C74526F6C6C426574613A200070616EB2
:103E8200426574613A2000736572766F50616E43C9
:103E9200656E7465723A2000736572766F54696C50
:103EA2007443656E7465723A2000736572766F5260
:103EB2006F6C6C43656E7465723A200074696C7441
:103EC200466163746F723A200070616E466163747A
:103ED2006F723A20006178697352656D61703A20A1
:103EE2000052657365742056616C75657320436F6B
:103EF2006D706C657465200043616C6962726174F7
:103F0200696F6E207361766564207768656E2061E3
:103F12006C6C2073656E736F7273206174206D61B7
:103F220078696D756D00436C656172696E67204FCB
:103F32006666736574730053686F77696E672052A3
:103F420061772053656E736F722044617461005310
:103F5200686F77696E67204F666673657420536574
:103F62006E736F7220446174610046573A200024D8
:103F720053455424002C0053657474696E67732092
:103F820053656E74210053746F72696E67206361AA
:103F92006C6962726174696F6E206461746120740D
:103FA2006F20454550524F4D002443414C534156DA
:103FB2000024470054696D65722031204F56460037
:00000001FF
