:100000000C9462000C948A000C948A000C948A0070
:100010000C948A000C948A000C948A000C948A0038
:100020000C948A000C948A000C948F0C0C94500D44
:100030000C948A000C94C90D0C94270D0C948A0022
:100040000C94260B0C948A000C94F40A0C94CE0A9F
:100050000C948A000C948A000C948A000C948A00F8
:100060000C94700B0C948A00000000002400270000
:100070002A0000000000250028002B0000000000DE
:1000800023002600290004040404040404040202DA
:100090000202020203030303030301020408102007
:1000A0004080010204081020010204081020000012
:1000B0000008000201000003040700000000000027
:1000C0000000EF0D11241FBECFEFD8E0DEBFCDBF83
:1000D00027E0AEEAB4E001C01D92A430B207E1F718
:1000E00014E0A0E0B1E0E4ECF1E402C005900D9270
:1000F000AE3AB107D9F710E0C2E6D0E004C02197CC
:10010000FE010E94C51EC136D107C9F70E943E0EEE
:100110000C94E0200C940000909146069111FCCFC5
:1001200091E090934606909345062FEF2093440666
:1001300010924306260F2093420690934106909119
:100140004106880F892B80934106809140068130BB
:10015000F9F410924006809141068093BB00809193
:10016000BC0083FDF8CF85EC8093BC0080914606EF
:100170008130E1F380914306861710F460914306C5
:10018000A0E2B6E0E0E0F6E080E0861303C0089568
:1001900085EEEACF9D9191938F5FF7CF08950895F3
:1001A000AF92BF92CF92DF92EF92FF920F931F9385
:1001B000CF93DF936C017B018B01040F151FEB01C3
:1001C0005E01AE18BF08C017D10759F06991D6017A
:1001D000ED91FC910190F081E02DC6010995892BEC
:1001E00079F7C501DF91CF911F910F91FF90EF90AB
:1001F000DF90CF90BF90AF900895FC01538D448D58
:10020000252F30E0842F90E0821B930B541710F0C1
:10021000CF96089501970895FC01918D828D9817CE
:1002200061F0A28DAE0FBF2FB11D5D968C91928DA6
:100230009F5F9F73928F90E008958FEF9FEF0895D7
:10024000FC01918D828D981731F0828DE80FF11DA0
:10025000858D90E008958FEF9FEF0895FC01918DBB
:10026000228D892F90E0805C9F4F821B91098F73B4
:10027000992708958BE496E00E942E0121E0892BB6
:1002800009F420E0822F089580E090E0892B29F086
:100290000E943A0181110C9400000895FC01A48D84
:1002A000A80FB92FB11DA35ABF4F2C91848D90E098
:1002B00001968F739927848FA689B7892C93A0897B
:1002C000B1898C91837080648C93938D848D981305
:1002D00006C00288F389E02D80818F7D8083089598
:1002E000EF92FF920F931F93CF93DF93EC0181E086
:1002F000888F9B8D8C8D98131AC0E889F98980812D
:1003000085FF15C09FB7F894EE89FF896083E8895F
:10031000F98980818370806480839FBF81E090E051
:10032000DF91CF911F910F91FF90EF900895F62EDE
:100330000B8D10E00F5F1F4F0F731127E02E8C8D78
:100340008E110CC00FB607FCFACFE889F9898081BD
:1003500085FFF5CFCE010E944E01F1CFEB8DEC0F62
:10036000FD2FF11DE35AFF4FF0829FB7F8940B8FDA
:10037000EA89FB8980818062CFCFCF93DF93EC0144
:10038000888D8823B9F0AA89BB89E889F9898C917D
:1003900085FD03C0808186FD0DC00FB607FCF7CF39
:1003A0008C9185FFF2CF808185FFEDCFCE010E9439
:1003B0004E01E9CFDF91CF910895833081F028F489
:1003C000813099F08230A9F008958730A9F0883003
:1003D000C9F08430B1F4809180008F7D03C080919A
:1003E00080008F7780938000089584B58F7784BDD7
:1003F000089584B58F7DFBCF8091B0008F77809377
:10040000B00008958091B0008F7DF9CF1F93CF93F6
:10041000DF93282F30E0F901E255FF4F8491F90175
:10042000E656FF4FD491F901EA57FF4FC491CC2310
:10043000A9F0162F81110E94DD01EC2FF0E0EE0FE4
:10044000FF1FEE58FF4FA591B4918FB7F894EC9130
:10045000111108C0D095DE23DC938FBFDF91CF91BF
:100460001F910895DE2BF8CF1092FF051092FE0524
:1004700010924806109247061092460681E080933B
:1004800045061092400661E082E10E94060261E0AA
:1004900083E10E940602E9EBF0E080818E7F808399
:1004A00080818D7F808388E48093B80085E4809389
:1004B000BC008EEC90E09093FD058093FC058FECE2
:1004C00090E09093FB058093FA050895CF93DF9316
:1004D00090E0FC01E656FF4F24918A579F4FFC01A4
:1004E00084918823D1F090E0880F991FFC01E8598E
:1004F000FF4FA591B491FC01EE58FF4FC591D491E7
:1005000061110EC09FB7F8948C91E22FE0958E2375
:100510008C932881E223E8839FBFDF91CF910895D8
:100520008FB7F894EC91E22BEC938FBFF6CF3FB7E7
:10053000F89480911B0590911C05A0911D05B09128
:100540001E0526B5A89B05C02F3F19F00196A11DD9
:10055000B11D3FBFBA2FA92F982F8827BC01CD010D
:10056000620F711D811D911D42E0660F771F881F6C
:10057000991F4A95D1F708958F929F92AF92BF929B
:10058000CF92DF92EF92FF924B015C010E949702A3
:100590006B017C010E9497026C197D098E099F09ED
:1005A000683E734081059105A8F321E0821A910805
:1005B000A108B10888EEC80E83E0D81EE11CF11C2A
:1005C00081149104A104B10429F7FF90EF90DF900A
:1005D000CF90BF90AF909F908F9008950895089509
:1005E00085ED8093BC008091BC0084FDFCCF10920F
:1005F000460608952091F304260F3327331F213236
:100600003105ECF420914606FC0190E080E02430B6
:1006100069F082E00895A091F3042191AC014D525C
:100620005B4FA40FB52FB11D2C930196861798F33D
:100630008091F304680F6093F30480E0089581E0F3
:1006400008950895E091FF058091FE05E81730F4C4
:10065000F0E0E050FA4F808190E008958FEF9FEF37
:1006600008959091FF058091FE052FEF3FEF9817B9
:1006700048F4E92FF0E0E050FA4F208130E09F5F2E
:100680009093FF05C90108958091FE059091FF05A3
:10069000891B990B0895CF92DF92EF92FF920F93EF
:1006A0001F93CF93DF937C01CB018A0120914A06EF
:1006B000222389F0EB016B01C40ED51ECC15DD059C
:1006C00069F06991D701ED91FC910190F081E02DE5
:1006D000C7010995F3CF642F0E94FA02C801DF9188
:1006E000CF911F910F91FF90EF90DF90CF900895E1
:1006F000CF93DF931F92CDB7DEB7698320914A066F
:100700002223F9F020914706203258F021E030E012
:10071000FC013383228390E080E00F90DF91CF9142
:10072000089580914806E82FF0E0ED54FB4F998141
:1007300090838F5F809348068093470681E090E026
:10074000ECCF61E0CE0101960E94FA02F7CF209132
:10075000470681E0213208F044C0809146068111AD
:10076000FCCF8091490692E09093460691E09093E9
:1007700045069FEF9093440610924306209342064D
:10078000A3EBB4E0E0E2F6E090E0291331C0109270
:10079000410690914106880F892B809341068091F4
:1007A0004006813049F510924006809141068093C1
:1007B000BB008091BC0083FDF8CF85EC8093BC002A
:1007C000809146068230E1F3809144068F3FB1F07C
:1007D000809144068032A1F080914406803391F0EC
:1007E00084E0109248061092470610924A06089537
:1007F0003D9131939F5FC9CF85EEE0CF80E0F1CF8F
:1008000082E0EFCF83E0EDCF1F93CF93DF93162FDE
:10081000C4EFD6E0AC81BD819B8121E020934A06E4
:10082000909349061092480610924706ED91FC916C
:1008300011970190F081E02D682FCD0109958C81F1
:100840009D81DC01ED91FC910190F081E02D612F03
:1008500009958C819D810E94A70381E0DF91CF9152
:100860001F910895E4EFF6E082879387682F8DE368
:1008700090E00E9404046EE170E080E090E00C944F
:10088000BC0290E080E00895FF920F931F93CF93F6
:10089000DF93F0905901C4EFD6E00A851B8590E004
:1008A00080E00E94320469E170E080E090E00E9404
:1008B000BC026F2D81E490E00E9404046AE070E0C5
:1008C00080E090E00E94BC02C8010E94320464E112
:1008D00070E080E090E00E94BC02109186050A84DE
:1008E000DB85C02D90E080E00E94320469E170E079
:1008F00080E090E00E94BC02612F82E490E00E94C0
:1009000004046AE070E080E090E00E94BC02CE0146
:100910000E94320464E170E080E090E0DF91CF91CA
:100920001F910F91FF900C94BC02DC0114966D9105
:100930007C9115974091F20550E0461757070CF14E
:1009400030E020E0461B570B26173707C4F4FA01A6
:10095000E20FF31FE357FA4F80812617370768F439
:10096000ED91FC911197309741F0E20FF31F9081C8
:10097000891307C02F5F3F4FE7CF90E0F9CF81E0A9
:10098000089580E00895FC0101900020E9F7319777
:10099000AF01481B590BBC018BE496E00C94D000CE
:1009A00084ED91E00C94C3048F929F92AF92BF921A
:1009B0000F931F93CF93DF93CDB7DEB7A1970FB6F9
:1009C000F894DEBF0FBECDBF19A2423008F44AE052
:1009D0008E010F5D1F4F842E912CB12CA12CA501EF
:1009E00094010E94841EE62FB901CA01EA30F4F492
:1009F000E05DD801EE938D01232B242B252B79F775
:100A000090E080E0109719F0CD010E94C304A196F8
:100A10000FB6F894DEBF0FBECDBFDF91CF911F910F
:100A20000F91BF90AF909F908F900895E95CE1CFB8
:100A30000C94C304CF93DF930E94C304EC010E9483
:100A4000D0048C0F9D1FDF91CF910895682F70E027
:100A500090E080E04AE00C94D404CF93DF930E94AE
:100A60002605EC010E94D0048C0F9D1FDF91CF91D1
:100A70000895CF92DF92EF92FF92CF93DF9397FF8B
:100A80001BC06B017C016DE28BE496E00E9470015B
:100A9000EC0166277727CB016C197D098E099F0928
:100AA0004AE00E94D4048C0F9D1FDF91CF91FF90EC
:100AB000EF90DF90CF9008954AE0DF91CF91FF90C3
:100AC000EF90DF90CF900C94D404BC01990F880B69
:100AD000990B0C943905CF93DF930E946505EC01C7
:100AE0000E94D0048C0F9D1FDF91CF9108954F92EB
:100AF0005F926F927F928F929F92AF92BF92CF92AE
:100B0000DF92EF92FF920F931F93CF936B017C01C3
:100B1000742EAC019B010E946B1E882399F087ED17
:100B200091E0CF911F910F91FF90EF90DF90CF90C8
:100B3000BF90AF909F908F907F906F905F904F90FD
:100B40000C94C30446015701E894B7F82FEF3FEF28
:100B50004FE75FE7C501B4010E946B1E81110DC014
:100B60002FEF3FEF4FE75FE7C501B4010E94881BFD
:100B700018161CF48BED91E0D4CF2FEF3FEF4FE729
:100B80005FE4C701B6010E94661E18161CF48FEDC3
:100B900091E0C7CF2FEF3FEF4FE75FECC701B60102
:100BA0000E94881B87FDF3CF20E030E0A901C70138
:100BB000B6010E94881B10E000E087FF0AC06DE2CA
:100BC0008BE496E00E9470018C01F7FAF094F7F83C
:100BD000F094C0E060E070E080E09FE37C1641F0BC
:100BE00020E030E040E251E40E94661DCF5FF6CF86
:100BF000A70196010E94FA1C2B013C010E94DF1DF7
:100C00004B015C014AE00E94D4047C01E00EF11E1D
:100C1000CC23C1F1C501B4010E948D1B9B01AC0125
:100C2000C301B2010E94F91C4B015C016EE28BE42E
:100C300096E00E947001E80EF91EC15018F120E004
:100C400030E040E251E4C501B4010E94EE1B2B01EB
:100C50003C010E94DF1D4B01B12CA12C4AE0C501D3
:100C6000B4010E94D404E80EF91EC501B4010E942B
:100C70008D1B9B01AC01C301B2010E94F91C4B0109
:100C80005C01DBCFC701CF911F910F91FF90EF90D7
:100C9000DF90CF90BF90AF909F908F907F906F909C
:100CA0005F904F90089542E00C947705CF93DF93C7
:100CB00042E00E947705EC010E94D0048C0F9D1F3A
:100CC000DF91CF910895CF93DF93C4EFD6E0AC814D
:100CD000BD819B8121E020934A06909349061092A2
:100CE000480610924706ED91FC9111970190F08112
:100CF000E02D682FCD0109958C819D810E94A7036D
:100D000061E08B810E948C001092FF058093FE05AC
:100D10008C819D81DC01ED91FC910284F385E02DB5
:100D20000995DF91CF9108958F929F92AF92BF92D4
:100D3000CF92DF92EF92FF920F931F93CF93DF93A7
:100D4000CDB7DEB762970FB6F894DEBF0FBECDBF4A
:100D50006C018B01FB01349680E2DF011D928A95C4
:100D6000E9F784E290E0A0E0B0E0FB0180839183AA
:100D7000A283B383F60186819781A085B185FB01AB
:100D800084839583A683B78383E090E0A0E0B0E0FE
:100D900080879187A287B3872FB7F8948091170532
:100DA00090911805A0911905B0911A052FBF808B5D
:100DB000918BA28BB38B8CE0FE013196DF011D92EB
:100DC0008A95E9F77E01BDE0EB0EF11C86E0F701A4
:100DD00011928A95E9F7D60114968D919C911597F9
:100DE00013962C9131E030934A06209349061092D5
:100DF000480610924706DC01ED91FC910190F081CC
:100E0000E02D6AE10995F601848195810E94A7038E
:100E100066E0D60113968C910E948C001092FF051B
:100E20008093FE055E01B3E1AB0EB11CF601848137
:100E30009581DC01ED91FC910284F385E02D09950B
:100E4000F70181937F01EA15FB0581F76D857E85AA
:100E5000072E000C880B990B0E948F1B20E030E0BE
:100E600040E85DE30E94EE1B4B015C016F857889D1
:100E7000072E000C880B990B0E948F1B20E030E09E
:100E800040E85DE30E94EE1B6B017C0169897A8971
:100E9000072E000C880B990B0E948F1B20E030E07E
:100EA00040E85DE30E94EE1BD80154968D929D921E
:100EB000AD92BC925797F801C08ED18EE28EF38E20
:100EC0005C966D937D938D939C935F9781E0629682
:100ED0000FB6F894DEBF0FBECDBFDF91CF911F914B
:100EE0000F91FF90EF90DF90CF90BF90AF909F90C9
:100EF0008F9008950C94B41CCF93DF9320E030E0E2
:100F000048EC52E460918A0170918B0180918C01D0
:100F100090918D010E94EE1B0E94DF1D81E090E008
:100F20000E947A0720E030E048EC52E460918601AC
:100F30007091870180918801909189010E94EE1B38
:100F40000E94DF1D82E090E00E947A076091870591
:100F500085E090E00E947A0760916D0187E090E063
:100F60000E947A0760916E0188E090E00E947A0703
:100F700020E030E040E251E460917A0170917B0121
:100F800080917C0190917D010E94EE1B0E94DF1DEB
:100F900089E090E00E947A0720E030E040E251E4EE
:100FA00060917A0170917B0180917C0190917D012B
:100FB0000E94EE1B0E94D81D672F8AE090E00E94DD
:100FC0007A0720E030E040E251E4609176017091D0
:100FD000770180917801909179010E94EE1B0E9427
:100FE000DF1D8BE090E00E947A0720E030E040E2D5
:100FF00051E4609176017091770180917801909130
:1010000079010E94EE1B0E94D81D672F8CE090E0B2
:101010000E947A0720E030E040E251E460917201E2
:101020007091730180917401909175010E94EE1B83
:101030000E94DF1D8DE090E00E947A0720E030E002
:1010400040E251E4609172017091730180917401EA
:10105000909175010E94EE1B0E94D81D672F8EE0B3
:1010600090E00E947A076091670180E190E00E9421
:101070007A076091680181E190E00E947A076091AF
:10108000610182E190E00E947A076091620183E150
:1010900090E00E947A076091690184E190E00E94EB
:1010A0007A0760916A0185E190E00E947A07609179
:1010B0006B0186E190E00E947A0760916C0187E104
:1010C00090E00E947A076091630188E190E00E94BD
:1010D0007A076091640189E190E00E947A0760914B
:1010E00065018AE190E00E947A07609166018BE1D8
:1010F00090E00E947A0760915D018CE190E00E948F
:101100007A0760915E018DE190E00E947A0760911C
:101110005F018EE190E00E947A07609160018FE1AB
:1011200090E00E947A07CAE5D1E0688180E290E011
:101130000E947A07698181E290E00E947A076A81C1
:1011400082E290E00E947A076091590183E290E088
:101150000E947A076091860584E290E00E947A07F7
:101160006FE090E080E00E947A0783EE91E0DF91EB
:10117000CF910C941A050C94AC1CFC0180819181D8
:10118000009711F00C947B1F08950C947B1FEF9235
:10119000FF920F931F93CF93DF93EC017B01198292
:1011A00018821B821A821D821C82FB010190002082
:1011B000E9F731978F01061B170BB8016F5F7F4F5F
:1011C00090E080E00E9404200097B9F09983888322
:1011D0001B830A832C813D81232B11F4FC01108297
:1011E0001D830C83B70188819981DF91CF911F9175
:1011F0000F91FF90EF900C94CA20888199810097FD
:1012000011F00E947B1F198218821D821C821B8292
:101210001A82DF91CF911F910F91FF90EF90089567
:101220000F931F93CF93DF938C01EB0188E2FB01B7
:1012300011928A95E9F74BE050E061E072E0CE014F
:101240000E94D1201B8681E090E0A0E0B0E08C8776
:101250009D87AE87BF87F80186819781A085B1857C
:10126000888B998BAA8BBB8B83E090E0A0E0B0E0E9
:101270008C8B9D8BAE8BBF8B1CA21DA21EA21FA2AE
:10128000188E198E1A8E1B8E1C8E1D8E1E8E1F8E12
:101290008AE097EDA3E2BCE388A399A3AAA3BBA32A
:1012A000DF91CF911F910F910895EF92FF920F93CD
:1012B0001F93CF93DF93CDB7DEB76A970FB6F8943D
:1012C000DEBF0FBECDBF0E94340290E080E00E94DE
:1012D0006306803A69F068EE73E080E090E00E9477
:1012E000BC0290E080E00E946306803A09F03BC1B6
:1012F00090E080E00E94320460E28FE390E00E9480
:1013000004046EE170E080E090E00E94BC0290E096
:1013100080E00E946306803A29F06AE070E080E095
:1013200090E0F3CF62E370E080E090E00E94BC02C6
:1013300060E08EE390E00E9404046AE070E080E0E8
:1013400090E00E94BC0260E087E090E00E9404040C
:1013500060E08FE390E00E9404046AE070E080E0C7
:1013600090E00E94BC028CE090E00E94320464E1B4
:1013700070E080E090E00E94BC020091FE061091B7
:10138000FF0690E080E00E94320469E170E080E0B6
:1013900090E00E94BC0260E087E090E00E940404BC
:1013A00060E88FE390E00E9404046AE070E080E06F
:1013B00090E00E94BC02C8010E94320464E170E027
:1013C00080E090E00E94BC028CE090E00E94320439
:1013D00063E275E084EF96E00E9410090E944404E5
:1013E00084E690E00E94AC1C8F8B85E690E00E9422
:1013F000AC1C888F86E690E00E94AC1C898F87E643
:1014000090E00E94AC1C8A8F4091330550913405C6
:1014100060913505709136058F89988DA98DBA8DAB
:10142000481759076A077B0709F0A8C0CE01019643
:101430007C0108E610E0C8010E94AC1CF701819312
:101440007F010F5F1F4F0E371105A9F70091FE06B0
:101450001091FF0690E080E00E94320469E170E0A4
:1014600080E090E00E94BC026981FA8085E590E00E
:101470000E9404046F2D86E590E00E9404046B81B5
:10148000FC8087E590E00E9404046F2D88E590E0E1
:101490000E9404046D81FE8089E590E00E940404AE
:1014A0006F2D8AE590E00E9404046F81F8848BE53B
:1014B00090E00E9404046F2D8CE590E00E940404EB
:1014C0006985FA848DE590E00E9404046F2D8EE515
:1014D00090E00E9404046B85FC848FE590E00E94FC
:1014E00004046F2D80E690E00E9404046D85FE8464
:1014F00081E690E00E9404046F2D82E690E00E9455
:1015000004046F85F88883E690E00E9404046F2D40
:1015100084E690E00E9404046989FA8885E690E0F8
:101520000E9404046F2D86E690E00E9404046B89FB
:10153000FC8887E690E00E9404046F2D88E690E026
:101540000E9404046D89FE8889E690E00E940404EC
:101550006F2D8AE690E00E940404C8010E943204C4
:101560008BE492E00DC088E092E00E941A0568EEDC
:1015700073E080E090E00E94BC02F5CF80E392E04F
:101580006A960FB6F894DEBF0FBECDBFDF91CF9144
:101590001F910F91FF90EF900C941A051F920F92DC
:1015A0000FB60F9211242F933F934F935F936F9336
:1015B0007F938F939F93AF93BF93EF93FF938BE4AE
:1015C00096E00E944E01FF91EF91BF91AF919F91E4
:1015D0008F917F916F915F914F913F912F910F90DC
:1015E0000FBE0F901F9018951F920F920FB60F927B
:1015F00011242F938F939F93EF93FF93E0915B06BA
:10160000F0915C068081E0916106F091620682FDB6
:101610001BC09081809164068F5F8F732091650657
:10162000821741F0E0916406F0E0E55BF94F958F99
:1016300080936406FF91EF919F918F912F910F906E
:101640000FBE0F901F9018958081F4CF1F920F92BC
:101650000FB60F9211242F933F938F939F93AF93C5
:10166000BF938091170590911805A0911905B0912D
:101670001A053091160523E0230F2D3758F50196F2
:10168000A11DB11D20931605809317059093180591
:10169000A0931905B0931A0580911B0590911C0524
:1016A000A0911D05B0911E050196A11DB11D80934D
:1016B0001B0590931C05A0931D05B0931E05BF91BB
:1016C000AF919F918F913F912F910F900FBE0F90EF
:1016D0001F90189526E8230F0296A11DB11DD2CFA9
:1016E0001F920F920FB60F9211242F933F934F9397
:1016F0005F936F937F938F939F93AF93BF93EF937A
:10170000FF938091B900887F803609F44AC0F0F5D4
:10171000883209F4A7C018F5803109F49BC0B8F4E9
:10172000882309F4F9C0883009F494C0FF91EF913F
:10173000BF91AF919F918F917F916F915F914F91E9
:101740003F912F910F900FBE0F901F9018958831E9
:1017500009F488C0803251F78093440614C0803465
:1017600009F49DC040F48033B9F38833F9F68093CF
:10177000440685ECB0C0803509F485C0883509F48D
:1017800096C0883499F60E94F002D0CF883909F4C7
:101790008CC038F5883729F050F4883611F080373E
:1017A00029F683E0809346061092150557C08838C5
:1017B00009F47BC0803919F0803809F0B7CF8091E7
:1017C0001505803208F071C0E091150581E08E0F9B
:1017D000809315058091BB00F0E0EB50FB4F8083B8
:1017E0003DC0803B39F0E0F4803A09F479C0883A92
:1017F00009F09CCF84E0809346061092F404109286
:10180000F304E091FC05F091FD0509958091F30446
:1018100081110FC081E08093F3041092D30409C0BA
:10182000803C09F4A6CF883C09F4A3CF883B09F09B
:101830007DCFE091F40481E08E0F8093F404F0E01A
:10184000ED52FB4F80818093BB009091F404809116
:10185000F30429C0809141068093BB0085EC8093FE
:10186000BC0064CF9091430680914206981758F5CA
:10187000E091430681E08E0F80934306F0E0E05E46
:10188000F94F8081E9CFE091430681E08E0F80938C
:1018900043068091BB00F0E0E05EF94F80839091B9
:1018A0004306809142069817C8F285E8D8CFE091A8
:1018B000430681E08E0F809343068091BB00F0E0E9
:1018C000E05EF94F80838091450681115CCF81E015
:1018D0008093400684EA8093BC001092460626CF8F
:1018E00085EC8093BC0010924606809115058032ED
:1018F00030F4E0911505F0E0EB50FB4F1082609161
:10190000150570E0E091FA05F091FB0585EF94E094
:101910000995109215050ACF1092440634CF1F92F4
:101920000F920FB60F9211242F933F934F935F9313
:101930008F939F93AF93BF93EF93FF9380916F002B
:101940008F7D80936F00809181008091810090E471
:101950008927809381008091860090918700209153
:10196000AF043091B004AC018217930750F5455392
:101970005045421B530B5093B2044093B1049093D3
:10198000B0048093AF042091B1043091B2042D379C
:1019900055E13507E8F01092AE0480916F00806247
:1019A00080936F00FF91EF91BF91AF919F918F91C5
:1019B0005F914F913F912F910F900FBE0F901F900D
:1019C0001895421B530B5093B2044093B104D7CFE8
:1019D000E091AE04E4319CF5283E83E03807E8F25C
:1019E000203A4FE0340758F58E2F0E2E000C990B3D
:1019F000019640915A014817190679F240915B010E
:101A00004817190651F240915C014817190629F24E
:101A1000EF5FE093AE040E2E000CFF0BE257FE4F7B
:101A2000E08154E0E59FF0011124E35FFE4FC9011E
:101A3000B0E0A0E080839183A283B383AECF293E40
:101A4000334008F4AACFEF5FE093AE04A6CF1F9215
:101A50000F920FB60F9211248F939F93AF93BF9362
:101A600016BC81E0809376058091F5059091F6058E
:101A7000A091F705B091F8054096A11DB11D809386
:101A8000F5059093F605A093F705B093F805BF917F
:101A9000AF919F918F910F900FBE0F901F9018954F
:101AA0001F920F920FB60F9211242F933F934F93D3
:101AB0005F936F937F938F939F93AF93BF93EF93B6
:101AC000FF9380918800909189008B3C9F4A91F40C
:101AD00080EC8093800081E08093000180E293E0BD
:101AE000909389008093880080918100877F809304
:101AF000810022C080910001813019F480E480933C
:101B00008000409100014131D0F5E42FF0E0CF0199
:101B1000019762E070E00E94701E0197F1F48091DD
:101B2000880090918900805E9C4F909389008093FB
:101B300088004F5F40930001FF91EF91BF91AF91FB
:101B40009F918F917F916F915F914F913F912F91D5
:101B50000F900FBE0F901F90189580918800909164
:101B600089003196F595E795EE0FFF1FEE0FFF1FE9
:101B7000E35FFE4F20813181820F931FD6CF8BEC24
:101B80009FEA90938900809388008091810088600B
:101B9000AECF1F920F920FB60F9211242F933F9347
:101BA0004F935F936F937F938F939F93AF93BF9365
:101BB000EF93FF9382EA94E00E941805FF91EF9162
:101BC000BF91AF919F918F917F916F915F914F9155
:101BD0003F912F910F900FBE0F901F901895EBE43F
:101BE000F6E01382128248EE53E060E070E0448336
:101BF00055836683778386EA91E09183808385ECC1
:101C000090E09587848784EC90E09787868780ECC6
:101C100090E0918B808B81EC90E0938B828B82ECB7
:101C200090E0958B848B86EC90E0978B868B118E61
:101C3000128E138E148EA8EEB6E013961C921E928E
:101C4000129714964D935D936D937C93179788EB41
:101C500091E011969C938E93E4EFF6E08AEC91E08C
:101C6000918380834FEF5FEFBA014683578360878C
:101C7000718788E28383B583A4830895CF93DF932C
:101C8000CDB7DEB7C655D1090FB6F894DEBF0FBE8B
:101C9000CDBF789484B5826084BD84B5816084BDF5
:101CA00085B5826085BD85B5816085BD80916E00FA
:101CB000816080936E00109281008091810082602B
:101CC0008093810080918100816080938100809168
:101CD00080008160809380008091B1008460809357
:101CE000B1008091B00081608093B00080917A0053
:101CF000846080937A0080917A00826080937A0079
:101D000080917A00816080937A0080917A00806867
:101D100080937A001092C100E0915B06F0915C061E
:101D200012E01083E0915B06F0915C061082E09176
:101D30005706F09158061082E0915906F0915A0624
:101D400080E1808310926306E0915F06F091600667
:101D500086E08083E0915D06F0915E06808180617F
:101D60008083E0915D06F0915E06808188608083CB
:101D7000E0915D06F0915E06808180688083E0914D
:101D80005D06F0915E0680818F7D808361E089E051
:101D90000E94660261E082E00E94060261E083E048
:101DA0000E94060260E080E00E94660260E081E03E
:101DB0000E94660260E082E00E94660260E083E0CA
:101DC0000E94660260E086E00E94660260E087E0B2
:101DD0000E94660260E088E00E94660260E08BE09C
:101DE0000E94660261E08BE00E94060260E080E0F3
:101DF0000E94060260E081E00E94060261E082E04B
:101E00000E94060261E083E00E94060261E08DE02C
:101E10000E94660261E08DE00E94060268EC70E0BC
:101E200080E090E00E94BC0260E08DE00E9406022B
:101E300080E4809380008AEC80938100109282007D
:101E400010936F0080E293E0909389008093880064
:101E50000E94340211E010934A0608E200934906FA
:101E6000109248061092470688EE96E00E94A7035B
:101E7000811124C21092F6060093F70688EE96E0D0
:101E80009093F9068093F8068FEF9FEFDC01809323
:101E9000FA069093FB06A093FC06B093FD06109201
:101EA000FF061092FE0690E080E00E94BB088F3093
:101EB00041F086E692E00E941A050E9455090E94B0
:101EC0007C0781E090E00E94BB08682F70E090E002
:101ED00080E00E948D1B20E030E048EC52E40E943C
:101EE000661D60938A0170938B0180938C0190939F
:101EF0008D0182E090E00E94BB08682F70E090E0C6
:101F000080E00E948D1B20E030E048EC52E40E940B
:101F1000661D60938601709387018093880190937A
:101F2000890181E0809371018093700180936F013A
:101F300085E090E00E94BB0880FF03C09FEF909374
:101F4000710181FF03C09FEF9093700182FF03C076
:101F50008FEF80936F0187E090E00E94BB08182FFD
:101F600088E090E00E94BB0890E0982F8827810FBE
:101F7000911D90936E0180936D0189E090E00E9425
:101F8000BB08182F8AE090E00E94BB08682F70E021
:101F9000762F6627610F711D072E000C880B990B99
:101FA0000E948F1B20E030E040E251E40E94661D59
:101FB00060937A0170937B0180937C0190937D0103
:101FC0008BE090E00E94BB08182F8CE090E00E940C
:101FD000BB08682F70E0762F6627610F711D072EF2
:101FE000000C880B990B0E948F1B20E030E040E230
:101FF00051E40E94661D609376017093770180938F
:102000007801909379018DE090E00E94BB08182F31
:102010008EE090E00E94BB08682F70E0762F662764
:10202000610F711D072E000C880B990B0E948F1BEE
:1020300020E030E040E251E40E94661D60937201AE
:1020400070937301809374019093750180E190E027
:102050000E94BB08182F81E190E00E94BB0890E02D
:10206000982F8827810F911D9093680180936701B5
:1020700082E190E00E94BB08182F83E190E00E946B
:10208000BB0890E0982F8827810F911D90936201E3
:102090008093610184E190E00E94BB08182F85E1E4
:1020A00090E00E94BB0890E0982F8827810F911D37
:1020B00090936A018093690186E190E00E94BB08D9
:1020C000182F87E190E00E94BB0890E0982F8827A6
:1020D000810F911D90936C0180936B0188E190E0DA
:1020E0000E94BB08182F89E190E00E94BB0890E095
:1020F000982F8827810F911D90936401809363012D
:102100008AE190E00E94BB08182F8BE190E00E94CA
:10211000BB0890E0982F8827810F911D909366014E
:10212000809365018CE190E00E94BB08182F8DE13F
:1021300090E00E94BB0890E0982F8827810F911DA6
:1021400090935E0180935D018EE190E00E94BB0858
:10215000182F8FE190E00E94BB0890E0982F88270D
:10216000810F911D9093600180935F0180E290E068
:102170000E94BB0880935A0181E290E00E94BB0854
:1021800080935B0182E290E00E94BB0880935C0137
:1021900083E290E00E94BB088093590184E290E0C2
:1021A0000E94BB08809386050E94550981E08093B8
:1021B0009B0180934B0582E084BD85E085BD83E073
:1021C00080936E0080E888BD87BD8E010F5F1F4F32
:1021D000332433948AE0282EE9EBF0E08491E5EA99
:1021E000F0E0E490E1E9F0E0F490F1107BC0809140
:1021F000F905882309F48AC08091F405811118C07B
:102200008091F5059091F605A091F705B091F8053C
:102210008D3D9540A105B10558F081E09091F30501
:10222000911180E08093F30530929B013092F40588
:102230008BE496E00E942E01892B09F42AC2E090DB
:10224000F205E11006C084E6ADE8B5E01D928A957E
:10225000E9F780918C05813011F00C948E198BE494
:1022600096E00E940C01FF24F394FE0CF092F2051C
:10227000EE2DF0E0E357FA4F8083BEE0FB1253C02F
:1022800080919905833409F04EC080919A05883475
:1022900009F049C0ADE8B5E080E0ED918F5FEE3325
:1022A00034F40E2E000CFF0BE25AFE4F80838D306B
:1022B000A1F789E892E00E941A05E7C110934A0647
:1022C00019E210934906109248061092470688EECC
:1022D00096E00E94A7038111E6CD1092F6061093B6
:1022E000F706CCCD81110E94DD01EF2DF0E0EE0F5D
:1022F000FF1FE458FF4FA591B4918C91E82209F497
:1023000076CF1092F4051092F90592CF30929B018E
:102310001092F5051092F6051092F7051092F80547
:102320003092F90569CF62EA72E0C8010E94C708DD
:10233000C8010E949504E82EC8010E94BD08EE2045
:1023400009F4F6C4E4E0EF1508F04AC0EDE8F5E062
:102350008F2D90E0BC012FEF3FEF419150E0A8E0BE
:10236000FA2EDA01A22736952795A0FF04C0A8E02F
:102370002A27A4E83A2756954795FA94F110F1CF09
:10238000615071096430710541F7209530953093A3
:102390008B0520938A0587579A4FFC018081918194
:1023A000909389058093880520918805309189054F
:1023B00080918A0590918B0528173907B1F085EA3D
:1023C00092E00E941A05A0E0B0E0AB2B09F404CF24
:1023D0000E943A01882309F4FBCE0E940000F8CE47
:1023E00010928B0510928A05DFCF8DEA92E00E9451
:1023F0001A058CE2D8011D928A95E9F72091F20521
:102400002450330BF12C50E040E08F2D90E08217E8
:102410009307FCF483579A4FFC0180818C3221F49E
:102420004F5F5F4FF394F1CFFA01EE0FFF1FE00F04
:10243000F11FA081B1812A9EB0012B9E700D112445
:10244000082E000C990BC097860F971F91838083ED
:10245000E9CF69817A81072E000C880B990B0E94C5
:102460008F1B20E030E048EC52E40E94661D609330
:102470008A0170938B0180938C0190938D016B8105
:102480007C81072E000C880B990B0E948F1B20E08B
:1024900030E048EC52E40E94661D60938601709320
:1024A000870180938801909389016D817E81072E39
:1024B000000C880B990B0E948F1B20E030E048EC49
:1024C00052E40E94661D60938201709383018093A1
:1024D0008401909385016F817885072E000C880B0D
:1024E000990B0E948F1B20E030E048EC52E40E94E0
:1024F000661D60937E0170937F01809380019093AD
:10250000810169857A85072E000C880B990B0E9442
:102510008F1B20E030E040E251E40E94661D609392
:102520007A0170937B0180937C0190937D016B8590
:102530007C85072E000C880B990B0E948F1B20E0D6
:1025400030E040E251E40E94661D60937601709392
:10255000770180937801909379016D857E85072EB0
:10256000000C880B990B0E948F1B20E030E040E2AA
:1025700051E40E94661D6093720170937301809311
:102580007401909375018F85809387053092710156
:102590003092700182FDC8C330926F0181FF03C089
:1025A0009FEF9093700180FF03C08FEF80937101C4
:1025B00089899A8980599140880F991F90936E015B
:1025C00080936D018B899C8980599140880F991F58
:1025D00090936C0180936B018D899E898059914005
:1025E000880F991F90936A01809369018F89988D54
:1025F00080599140880F991F9093680180936701DB
:10260000898D9A8D80599140880F991F909366010A
:10261000809365018B8D9C8D80599140880F991F07
:1026200090936401809363018D8D9E8D80599140BC
:10263000880F991F90936201809361018F8D98A1FB
:1026400080599140880F991F9093600180935F019A
:1026500089A19AA180599140880F991F90935E019A
:1026600080935D018BA180935A018DA180935B01C2
:102670008FA180935C0189A5809359018BA58093DC
:1026800086050E9444040E947C071092F205109275
:102690008C0580917605813009F095CE8091F30507
:1026A000811191CE6CE475E084EF96E00E9494066F
:1026B0008091680590916905A0916A05B0916B05BC
:1026C00023968CAF9DAFAEAFBFAF239780935101E0
:1026D00090935201A0935301B0935401C0906005B0
:1026E000D0906105E0906205F0906305409064052C
:1026F00050906505609066057090670540925501A1
:1027000050925601609257017092580180919B013E
:10271000813001F510929B01409281055092820513
:102720006092830570928405C0927D05D0927E05EB
:10273000E0927F05F092800523968CAD9DADAEAD05
:10274000BFAD23978093790590937A05A0937B057D
:10275000B0937C058091810590918205A0918305BD
:10276000B09184052B968CAF9DAFAEAFBFAF2B97CA
:102770008091790590917A05A0917B05B0917C05B7
:102780002F968CAF9DAFAEAFBFAF2F9720917D0539
:1027900030917E0540917F0550918005C701B601BB
:1027A0000E94F91C20E030E044E353E40E94FA1C4C
:1027B00027966CAF7DAF8EAF9FAF279720E030E0BC
:1027C00044EB53E40E94661D0E940E1E63966CAF9C
:1027D0007DAF8EAF9FAF639720E030E044E353E4DA
:1027E000C701B6010E94FA1C6B017C0120E030E0B9
:1027F00044EB53E40E94661D0E940E1E20E030E070
:1028000044EB53E40E94EE1B9B01AC01C701B601EF
:102810000E94F91C20E030E044E353E40E94F91CDC
:1028200060934D0170934E0180934F01909350013E
:1028300080914B05882309F41CC2C0908A01D09076
:102840008B01E0908C01F0908D01A701960160E072
:1028500070E080E89FE30E94F91C4B015C0120912D
:10286000090130910A0140910B0150910C010E9425
:10287000EE1B67966CAF7DAF8EAF9FAF67972B96C1
:102880002CAD3DAD4EAD5FAD2B97C301B2010E94A3
:10289000F91CA70196010E94EE1B9B01AC016796F3
:1028A0006CAD7DAD8EAD9FAD67970E94FA1C2B017C
:1028B0003C014092490150924A0160924B01709252
:1028C0004C014092090150920A0160920B017092F2
:1028D0000C012091050130910601409107015091B2
:1028E0000801C501B4010E94EE1B4B015C012F964B
:1028F0002CAD3DAD4EAD5FAD2F9723966CAD7DAD4C
:102900008EAD9FAD23970E94F91CA70196010E94EE
:10291000EE1B9B01AC01C501B4010E94FA1C239679
:102920006CAF7DAF8EAF9FAF2397609345017093DF
:1029300046018093470190934801DC01CB018093CD
:10294000050190930601A0930701B0930801C09080
:102950008601D0908701E0908801F090890120E005
:1029600030E044EB53E463966CAD7DAD8EAD9FAD2E
:1029700063970E94EE1B9B01AC0127966CAD7DAD69
:102980008EAD9FAD27970E94F91C20E030E044E314
:1029900053E40E94F91CA70196010E94EE1B4B0113
:1029A0005C01A701960160E070E080E89FE30E946F
:1029B000F91C2091010130910201409103015091D5
:1029C00004010E94EE1B9B01AC01C501B4010E94F1
:1029D000FA1C6B017C01C0924101D0924201E0924D
:1029E0004301F0924401C0920101D0920201E092B1
:1029F0000301F092040160916F01062E000C770B29
:102A0000880B990B0E948F1BA70196010E94EE1B59
:102A100020917601309177014091780150917901B0
:102A20000E94EE1B6B017C0160916D0170916E0143
:102A3000072E000C880B990B0E948F1B9B01AC0189
:102A4000C701B6010E94FA1C4B015C0160916B0149
:102A500070916C01072E000C880B990B0E948F1B44
:102A60006B017C019B01AC01B401C5010E94661E93
:102A7000181614F4640175016091690170916A017E
:102A8000072E000C880B990B0E948F1B4B015C01D9
:102A90009601A7010E94661E181614F064017501C4
:102AA000A0905A0194E0A99E50011124D501A35F82
:102AB000BE4F5D01B601C7010E94D81DF5016083BC
:102AC00071838283938360917101062E000C770BD2
:102AD000880B990B0E948F1BA30192010E94EE1B91
:102AE00020917A0130917B0140917C0150917D01D0
:102AF0000E94EE1B6B017C0160916701709168017F
:102B0000072E000C880B990B0E948F1B9B01AC01B8
:102B1000C701B6010E94FA1C4B017C01609165015E
:102B200070916601072E000C880B990B0E948F1B79
:102B30005B016C019B01AC01B401C7010E94661EE0
:102B4000181614F4540167016091630170916401D7
:102B5000072E000C880B990B0E948F1B4B017C01E8
:102B60009501A6010E94661E181614F05401670113
:102B7000E0905B01F4E0EF9E70011124C701835FD8
:102B80009E4F7C01B501C6010E94D81DD7016D93EF
:102B90007D938D939C93139760917001062E000C8A
:102BA000770B880B990B0E948F1B23962CAD3DADA4
:102BB0004EAD5FAD23970E94EE1B209172013091C4
:102BC000730140917401509175010E94EE1B6B01DD
:102BD0007C016091610170916201072E000C880BED
:102BE000990B0E948F1B9B01AC01C701B6010E948B
:102BF000FA1C4B017C0160915F0170916001072E0E
:102C0000000C880B990B0E948F1B5B016C019B01D0
:102C1000AC01B401C7010E94661E181614F45401D9
:102C2000670160915D0170915E01072E000C880BB9
:102C3000990B0E948F1B4B017C019501A6010E94FC
:102C4000661E181614F054016701E0905C01B4E0B0
:102C5000EB9E70011124F701E35FFE4F7F01B50188
:102C6000C6010E94D81DD7016D937D938D939C93CF
:102C7000139780917305833009F030C480917205F9
:102C8000833009F02BC480917105833009F026C48C
:102C900080917005833009F021C4809185058823D7
:102CA00009F41CC463E275E084EF96E00E94100909
:102CB0008091330590913405A0913505B09136058A
:102CC00080931F0590932005A0932105B0932205C2
:102CD00085E390E00E946306282F30E0A90174E0AC
:102CE000559547957A95E1F7437035952795359534
:102CF00027952370382F3370E090FE06F090FF0682
:102D0000F7013197EA30F10508F0CCC4E657F94EE7
:102D10000C94C51E98195F1B2F1A5C1B2D1A321AB2
:102D2000521B2D1A5C1B2F1A9FEF90936F0136CC0C
:102D300065ED72E0C8010E94C708C8010E949504B1
:102D4000E82EC8010E94BD08EE2009F473C00E945D
:102D5000D0040E94D0040E94D0048BED92E00E9427
:102D60001A0587EF92E00E9418056DEC7CEC8CEC64
:102D70009EE30E94560684E093E00E94180560914D
:102D80008A0170918B0180918C0190918D010E943C
:102D9000560683E193E00E941805609186017091C8
:102DA000870180918801909189010E9456068DE1EA
:102DB00093E00E94180580916D0190916E010E9430
:102DC0006B058EE293E00E94180580916701909157
:102DD00068010E946B0580E493E00E9418058091D1
:102DE0006101909162010E946B0582E593E00E946F
:102DF000180560917A0170917B0180917C0190911E
:102E00007D010E9456068FE593E00E9418056091AF
:102E100076017091770180917801909179010E94FB
:102E200056068BE693E00E941805809159010E9496
:102E30002D052BCC68E773E0C8010E94C708C801C4
:102E40000E949504E82EC8010E94BD08EE2059F0AA
:102E500087E793E00E9418056DEC7CEC8CEC9EE318
:102E60000E94560612CC6EE773E0C8010E94C708A4
:102E7000C8010E949504E82EC8010E94BD08EE20FA
:102E800039F08DE793E00E94180581E092E013CAC3
:102E900063E873E0C8010E94C708C8010E94950456
:102EA000E82EC8010E94BD08EE2039F087E893E0C3
:102EB0000E941A0530929B01E8CB6CE973E0C801CF
:102EC0000E94C708C8010E949504E82EC8010E940C
:102ED000BD08EE2039F080EA93E00E941A05309296
:102EE0008505D3CB62ED73E0C8010E94C708C80115
:102EF0000E949504E82EC8010E94BD08EE20E9F06A
:102F000086ED93E00E941A051092810510928205C9
:102F1000109283051092840510927D0510927E0513
:102F200010927F05109280051092790510927A0513
:102F300010927B0510927C05A8CB6BEE73E0C80164
:102F40000E94C708C8010E949504E82EC8010E948B
:102F5000BD08EE2039F080EF93E00E941A05309210
:102F6000780593CB6CE074E0C8010E94C708C801E3
:102F70000E949504E82EC8010E94BD08EE2039F099
:102F800081E194E00E941A05109278057ECB60E3FF
:102F900074E0C8010E94C708C8010E949504E82E89
:102FA000811131C065E374E0CE018D960E94C7089F
:102FB000CE018D960E949504E82E811120C06AE30F
:102FC00074E0CE01C3960E94C708CE01C3960E944A
:102FD0009504E82E81110FC06FE374E0CE01C9960D
:102FE0000E94C708CE01C9960E949504E82ECE0122
:102FF000C9960E94BD08CE01C3960E94BD08CE01AD
:103000008D960E94BD08C8010E94BD08EE2019F0EF
:10301000109277053ACB64E474E0C8010E94C708B7
:10302000C8010E949504E82EC8010E94BD08EE2048
:1030300019F03092770529CB69E474E0C8010E9449
:10304000C708C8010E949504E82EC8010E94BD0867
:10305000E11019CB6EE474E0C8010E94C708C801F2
:103060000E949504E82EC8010E94BD08EE2009F4D4
:1030700050C183E594E00E94180520E030E048EC60
:1030800052E460918A0170918B0180918C01909142
:103090008D010E94EE1B0E94530689E594E00E9478
:1030A000180520E030E048EC52E460918601709110
:1030B000870180918801909189010E94EE1B0E94F6
:1030C000530689E594E00E94180520E030E048ECC2
:1030D00052E460918201709183018091840190910A
:1030E00085010E94EE1B0E94530689E594E00E9430
:1030F000180520E030E048EC52E460917E017091C8
:103100007F0180918001909181010E94EE1B0E94BD
:10311000530689E594E00E94180520E030E040E283
:1031200051E460917A0170917B0180917C019091D2
:103130007D010E94EE1B0E94530689E594E00E94E7
:10314000180520E030E040E251E460917601709192
:10315000770180917801909179010E94EE1B0E9485
:10316000530689E594E00E94180520E030E040E233
:1031700051E460917201709173018091740190919A
:1031800075010E94EE1B0E94530689E594E00E949F
:103190001805809187050E94260589E594E00E9424
:1031A000180580916D0190916E0197FD019695959E
:1031B000879580579E4F0E94650589E594E00E949F
:1031C000180580916B0190916C0197FD0196959582
:1031D000879580579E4F0E94650589E594E00E947F
:1031E00018058091690190916A0197FD0196959566
:1031F000879580579E4F0E94650589E594E00E945F
:103200001805809167019091680197FD0196959549
:10321000879580579E4F0E94650589E594E00E943E
:103220001805809165019091660197FD019695952D
:10323000879580579E4F0E94650589E594E00E941E
:103240001805809163019091640197FD0196959511
:10325000879580579E4F0E94650589E594E00E94FE
:103260001805809161019091620197FD01969595F5
:10327000879580579E4F0E94650589E594E00E94DE
:10328000180580915F019091600197FD01969595D9
:10329000879580579E4F0E94650589E594E00E94BE
:1032A000180580915D0190915E0197FD01969595BD
:1032B000879580579E4F0E94650589E594E00E949E
:1032C000180580915A010E94260589E594E00E9424
:1032D000180580915B010E94260589E594E00E9413
:1032E000180580915C010E94260589E594E00E9402
:1032F0001805809159010E94260589E594E00E94F5
:103300001805809186050E942D058BE594E00C94AC
:103310005B11F4E6FF1508F0BCC9B7C98BE496E071
:103320000E940C01849709F0B4C930928C05B1C990
:10333000233009F099C090E080E00E94320469E1F6
:1033400070E080E090E00E94BC0286E590E00E9480
:103350006306D82E85E590E00E9463069D2D9A8332
:10336000898388E590E00E946306D82E87E590E087
:103370000E9463069D2D9C838B838AE590E00E94CA
:103380006306D82E89E590E00E9463069D2D9E83FA
:103390008D838CE590E00E946306D82E8BE590E04B
:1033A0000E9463069D2D98878F838EE590E00E9492
:1033B0006306D82E8DE590E00E9463069D2D9A87C6
:1033C000898780E690E00E946306D82E8FE590E022
:1033D0000E9463069D2D9C878B8782E690E00E9469
:1033E0006306D82E81E690E00E9463069D2D9E879D
:1033F0008D8784E690E00E946306D82E83E690E0F5
:103400000E9463069D2D988B8F8786E690E00E9430
:103410006306D82E85E690E00E9463069D2D9A8B68
:10342000898B88E690E00E946306D82E87E690E0BC
:103430000E9463069D2D9C8B8B8B8AE690E00E94F8
:103440006306D82E89E690E00E9463069D2D9E8B30
:103450008D8BC7010E94320407C0233029F443300A
:1034600019F469CF3330D9F384E794E00E941A0548
:103470005FE1C52E55E0D52E64E6E62EF12CF6016F
:10348000B1906F01C7010E94AC1CB81621F06B2DE2
:10349000C7010E94B41CFFEFEF1AFF0A28E6E216EC
:1034A000F10469F7CE0101966C01D601BD906D0162
:1034B000C7010E94AC1CB81621F06B2DC7010E94F9
:1034C000B41CBFEFEB1AFB0AEEE7EE16F10469F746
:1034D00087E994E00E941A05109285058091740591
:1034E000909175059C012F5F3F4F30937505209398
:1034F00074050A970CF4D2C080917705813009F0E9
:10350000C9C085E390E00E946306982F9295969536
:103510009695937090937305282F30E0A90194E05D
:10352000559547959A95E1F7437040937205359507
:103530002795359527952370209371058370809387
:1035400070058FE994E00E94180580917805882322
:1035500009F4B9C0609155017091560180915701ED
:10356000909158010E94530689E594E00E94180545
:1035700060915101709152018091530190915401D9
:103580000E94530689E594E00E94180560914D0160
:1035900070914E0180914F01909150010E9453060D
:1035A00089E594E00E941805E0915A0124E0E29F29
:1035B000F0011124E35FFE4F60817181828193816C
:1035C00022E030E040E050E00E94A61ECA01B901AE
:1035D00060577E4F8F4F9F4F0E94390589E594E0D9
:1035E0000E941805E0915B0184E0E89FF00111243E
:1035F000E35FFE4F608171818281938122E030E040
:1036000040E050E00E94A61ECA01B90160577E4FFB
:103610008F4F9F4F0E94390589E594E00E9418055D
:10362000E0915C0194E0E99FF0011124E35FFE4F1B
:10363000608171818281938122E030E040E050E03E
:103640000E94A61ECA01B90160577E4F8F4F9F4F3F
:103650000E94390589E594E00E9418058091730560
:103660000E94260589E594E00E9418058091720564
:103670000E94260589E594E00E9418058091710555
:103680000E94260589E594E00E9418058091700546
:103690000E942D0510927505109274051092760502
:1036A0000C94E3118295869586958370833009F09A
:1036B000DBCE433009F0D8CE233009F0D5CE3330FD
:1036C00009F0D2CE38CE6091490170914A018091C3
:1036D0004B0190914C010E94530689E594E00E94B1
:1036E00018056091450170914601809147019091C4
:1036F00048010E94530689E594E00E9418056091F4
:10370000410170914201809143019091440146CF63
:103710000E94CA1B08F481E00895E89409C097FB51
:103720003EF490958095709561957F4F8F4F9F4F98
:103730009923A9F0F92F96E9BB279395F6958795DC
:1037400077956795B795F111F8CFFAF4BB0F11F49F
:1037500060FF1BC06F5F7F4F8F4F9F4F16C0882346
:1037600011F096E911C0772321F09EE8872F762F7C
:1037700005C0662371F096E8862F70E060E02AF0BD
:103780009A95660F771F881FDAF7880F96958795A9
:1037900097F90895990F0008550FAA0BE0E8FEEF7E
:1037A00016161706E807F907C0F012161306E40705
:1037B000F50798F0621B730B840B950B39F40A26FE
:1037C00061F0232B242B252B21F408950A2609F4DC
:1037D000A140A6958FEF811D811D08950E94011CB7
:1037E0000C94721C0E94641C38F00E946B1C20F028
:1037F000952311F00C945B1C0C94611C11240C9407
:10380000A61C0E94831C70F3959FC1F3950F50E096
:10381000551F629FF001729FBB27F00DB11D639F82
:10382000AA27F00DB11DAA1F649F6627B00DA11D28
:10383000661F829F2227B00DA11D621F739FB00DCE
:10384000A11D621F839FA00D611D221F749F33273E
:10385000A00D611D231F849F600D211D822F762FD7
:103860006A2F11249F5750409AF0F1F088234AF0B4
:10387000EE0FFF1FBB1F661F771F881F9150504020
:10388000A9F79E3F510580F00C945B1C0C94A61C7C
:103890005F3FE4F3983ED4F3869577956795B795A7
:1038A000F795E7959F5FC1F7FE2B880F911D9695C1
:1038B000879597F9089597F99F6780E870E060E031
:1038C00008959FEF80EC089500240A9416161706B9
:1038D00018060906089500240A9412161306140601
:1038E00005060895092E0394000C11F4882352F064
:1038F000BB0F40F4BF2B11F460FF04C06F5F7F4F1C
:103900008F4F9F4F089557FD9058440F551F59F002
:103910005F3F71F04795880F97FB991F61F09F3FBC
:1039200079F087950895121613061406551FF2CFE5
:103930004695F1DF08C0161617061806991FF1CF35
:1039400086957105610508940895E894BB2766275C
:103950007727CB0197F90895F999FECF92BD81BDE4
:10396000F89A992780B50895262FF999FECF1FBAA6
:1039700092BD81BD20BD0FB6F894FA9AF99A0FBE98
:10398000019608952F923F924F925F926F927F928D
:103990008F929F92AF92BF92CF92DF92EF92FF925F
:1039A0000F931F93CF93DF93CDB7DEB7CA1BDB0B0B
:1039B0000FB6F894DEBF0FBECDBF09942A883988B0
:1039C00048885F846E847D848C849B84AA84B984B7
:1039D000C884DF80EE80FD800C811B81AA81B981C3
:1039E000CE0FD11D0FB6F894DEBF0FBECDBFED01D7
:1039F00008955058BB27AA270E94111D0C94721CD1
:103A00000E94641C38F00E946B1C20F039F49F3F28
:103A100019F426F40C94611C0EF4E095E7FB0C9469
:103A20005B1CE92F0E94831C58F3BA1762077307C7
:103A30008407950720F079F4A6F50C94A51C0EF4E4
:103A4000E0950B2EBA2FA02D0B01B90190010C01AE
:103A5000CA01A0011124FF27591B99F0593F50F4C6
:103A6000503E68F11A16F040A22F232F342F44271E
:103A7000585FF3CF469537952795A795F040539516
:103A8000C9F77EF41F16BA0B620B730B840BBAF0E6
:103A90009150A1F0FF0FBB1F661F771F881FC2F751
:103AA0000EC0BA0F621F731F841F48F48795779565
:103AB0006795B795F7959E3F08F0B0CF9395880F1F
:103AC00008F09927EE0F9795879508950E947A1D23
:103AD0000C94721C0E946B1C58F00E94641C40F0F5
:103AE00029F45F3F29F00C945B1C51110C94A61C27
:103AF0000C94611C0E94831C68F39923B1F3552335
:103B000091F3951B550BBB27AA27621773078407F0
:103B100038F09F5F5F4F220F331F441FAA1FA9F386
:103B200035D00E2E3AF0E0E832D091505040E69574
:103B3000001CCAF72BD0FE2F29D0660F771F881FD5
:103B4000BB1F261737074807AB07B0E809F0BB0BC8
:103B5000802DBF01FF2793585F4F3AF09E3F5105DC
:103B600078F00C945B1C0C94A61C5F3FE4F3983E29
:103B7000D4F3869577956795B795F7959F5FC9F7C5
:103B8000880F911D9695879597F90895E1E0660F46
:103B9000771F881FBB1F621773078407BA0720F0BF
:103BA000621B730B840BBA0BEE1F88F7E095089528
:103BB0000E94DF1D6894B1110C94A61C08950E9408
:103BC0008B1C88F09F5798F0B92F9927B751B0F008
:103BD000E1F0660F771F881F991F1AF0BA95C9F791
:103BE00014C0B13091F00E94A51CB1E008950C946E
:103BF000A51C672F782F8827B85F39F0B93FCCF321
:103C0000869577956795B395D9F73EF4909580950D
:103C1000709561957F4F8F4F9F4F08950E944E1E64
:103C200090F09F3748F4911116F00C94A61C60E0B8
:103C300070E080E89FEB089526F41B16611D711D4E
:103C4000811D0C94251E0C94401E882371F477234B
:103C500021F09850872B762F07C0662311F49927FF
:103C60000DC09051862B70E060E02AF09A95660FA7
:103C7000771F881FDAF7880F9695879597F908952B
:103C80009F3F31F0915020F4879577956795B795D0
:103C9000880F911D9695879597F908950E948B1C22
:103CA000A0F0BEE7B91788F4BB279F3860F416165A
:103CB000B11D672F782F8827985FF7CF8695779566
:103CC0006795B11D93959639C8F308950E94CA1B54
:103CD00008F48FEF08950E94CA1B880B990B089572
:103CE00097FB072E16F4009407D077FD09D00E94A9
:103CF000CB1E07FC05D03EF4909581959F4F08950B
:103D0000709561957F4F0895A1E21A2EAA1BBB1BE7
:103D1000FD010DC0AA1FBB1FEE1FFF1FA217B30797
:103D2000E407F50720F0A21BB30BE40BF50B661FAD
:103D3000771F881F991F1A9469F760957095809571
:103D400090959B01AC01BD01CF010895052E97FB15
:103D50001EF400940E94BD1E57FD07D00E94841ED1
:103D600007FC03D04EF40C94BD1E50954095309541
:103D700021953F4F4F4F5F4F0895909580957095D7
:103D800061957F4F8F4F9F4F0895EE0FFF1F059056
:103D9000F491E02D0994AA1BBB1B51E107C0AA1F97
:103DA000BB1FA617B70710F0A61BB70B881F991FDC
:103DB0005A95A9F780959095BC01CD0108950F9370
:103DC0001F93CF93DF938230910510F482E090E04F
:103DD000E0910207F091030730E020E0B0E0A0E0BE
:103DE000309799F42115310509F44AC0281B390B85
:103DF00024303105D8F58A819B816115710589F1DF
:103E0000FB0193838283FE0111C0408151810281B5
:103E1000138148175907E0F04817590799F410978C
:103E200061F012960C93129713961C933296CF0161
:103E3000DF91CF911F910F91089500930207109386
:103E40000307F4CF2115310551F04217530738F01D
:103E5000A901DB019A01BD01DF01F801C1CFEF012A
:103E6000F9CF9093030780930207CDCFFE01E20FB5
:103E7000F31F819391932250310939832883D7CF3F
:103E80002091000730910107232B41F420919E01DE
:103E900030919F01309301072093000720919C01EE
:103EA00030919D012115310541F42DB73EB7409168
:103EB000A0015091A101241B350BE0910007F09166
:103EC0000107E217F307A0F42E1B3F0B2817390751
:103ED00078F0AC014E5F5F4F2417350748F04E0F66
:103EE0005F1F5093010740930007819391939FCFE9
:103EF000F0E0E0E09CCFCF93DF930097E9F0FC0186
:103F0000329713821282A0910207B0910307ED014C
:103F100030E020E01097A1F420813181820F931FBF
:103F200020910007309101072817390709F061C077
:103F3000F0930107E0930007DF91CF910895EA0124
:103F4000CE17DF07E8F54A815B819E0141155105D7
:103F5000B1F7E901FB83EA8349915991C40FD51F59
:103F6000EC17FD0761F4808191810296840F951F03
:103F7000E90199838883828193819B838A83F0E01E
:103F8000E0E012968D919C9113970097B9F52D91D1
:103F90003C911197CD010296820F931F209100074B
:103FA000309101072817390739F6309751F51092EB
:103FB000030710920207B0930107A0930007BCCF3C
:103FC000D383C28340815181840F951FC817D907BD
:103FD00061F44E5F5F4F88819981480F591F51836B
:103FE00040838A819B81938382832115310509F067
:103FF000B0CFF0930307E09302079ECFFD01DC01F1
:10400000C0CF13821282D7CFB0E0A0E0EAE0F0E2A6
:104010000C94C41C8C01009751F4CB010E94DF1E4C
:104020008C01C801CDB7DEB7E0E10C94E01CFC01C7
:10403000E60FF71F9C0122503109E217F30708F43D
:104040009DC0D901CD91DC911197C617D70798F083
:10405000C530D10530F3CE0104978617970708F3D2
:10406000C61BD70B2297C193D1936D937C93CF013D
:104070000E947B1FD6CF5B01AC1ABD0A4C018C0E8F
:104080009D1EA0910207B0910307512C412CF12CE9
:10409000E12C109731F58091000790910107881568
:1040A000990509F05CC04616570608F058C0809183
:1040B0009C0190919D01009741F48DB79EB740916E
:1040C000A0015091A101841B950BE817F90708F096
:1040D00055C0F0930107E0930007F90171836083F5
:1040E000A0CF8D919C91119712966C901297139678
:1040F0007C901397A815B90559F56C0142E0C40EE0
:10410000D11CCA14DB0420F1AC014A195B09DA01A5
:104110001296159780F06282738251834083D90191
:104120006D937C93E114F10471F0D7011396FC9325
:10413000EE93129776CF22968C0F9D1FF9019183F3
:104140008083F301EFCFF0930307E093020769CF79
:104150004816590608F42C017D01D3019ACFCB01F2
:104160000E94DF1E7C01009749F0AE01B8010E9459
:10417000C120C8010E947B1F870153CF10E000E0DF
:1041800050CFFB01DC0102C001900D924150504024
:10419000D8F70895FB01DC0101900D920020E1F7B2
:1041A0000895FB01DC014150504048F001900D9210
:1041B0000020C9F701C01D9241505040E0F708951A
:0441C000F894FFCFA1
:1041C400010000B4420000B4420000B442340800CC
:1041D40000340800003408000034080000340800EB
:1041E40000340800003408000034080000340800DB
:1041F40000340800003408000034080000340800CB
:10420400000000B4420000B4420000B4420000B414
:10421400420000B4420000B44224080706800CB0F7
:10422400049808800CB0049808800CB0049808FF27
:10423400FFFF00008841000088410000884148E1F8
:104244007A3F48E17A3F0000403F0000403F0001D0
:1042540002030405060708090A0B0C010000040701
:104264008000000000007001D000FD00BD012E019F
:104274000C0120010000000078034B0341042103DA
:1042840044033103220300000000EE02C508EF02DC
:10429400940610090D0A006E616E00696E66006F67
:1042A40076660048543A2053657474696E677320C7
:1042B400736176656420746F20454550524F4D21DB
:1042C40000424E4F303535004E6F20424E4F303550
:1042D400352064657465637465642E2E2E204368EE
:1042E40065636B20796F757220776972696E6700F8
:1042F4004E6F2043616C6962726174696F6E204411
:104304006174612053746F72656400526573746FD5
:104314007265642053617665642043616C696272DE
:104324006174696F6E004E657720626F61726420FC
:104334002D20736176696E672064656661756C749F
:104344002076616C75657321004368616E6E656CDF
:10435400206D617070696E6720726563656976654A
:1043640064004845002443524345525200244352BA
:10437400434F4B0D0A48543A2053657474696E6771
:10438400732072656365697665642066726F6D205B
:10439400475549210044454255470048543A202D89
:1043A4002D2D2D2D2D20446562756720696E666F55
:1043B4002D2D2D2D2D2D0046572056657273696FB6
:1043C4006E3A200074696C74526F6C6C426574614F
:1043D4003A200070616E426574613A200073657220
:1043E400766F50616E43656E7465723A2000736532
:1043F40072766F54696C7443656E7465723A20000A
:10440400736572766F526F6C6C43656E7465723A45
:10441400200074696C74466163746F723A20007092
:10442400616E466163746F723A20006178697352F9
:10443400656D61703A20002456455253002448416A
:104444005244005253540048543A205265736574E0
:1044540074696E672063656E7465720053544F000F
:1044640048543A2043616C6962726174696F6E20CA
:104474007361766564207768656E20616C6C207367
:10448400656E736F7273206174206D6178696D75E8
:104494006D00434C520048543A20436C6561726984
:1044A4006E67204F66667365747300475241570008
:1044B40048543A2053686F77696E672052617720B9
:1044C40053656E736F72204461746100474F4646B2
:1044D4000048543A2053686F77696E67204F6666C8
:1044E4007365742053656E736F7220446174610048
:1044F400434D4145004341454E004752454E00500F
:104504004C454E00504C53540053415645004753BC
:104514004554002453455424002C0048543A205355
:10452400657474696E67732073656E7420746F208C
:104534004755490053746F72696E672063616C69F3
:1045440062726174696F6E206461746120746F209B
:10455400454550524F4D002443414C53415600248D
:0E456400470054696D65722031204F564600A5
:00000001FF
