:020000021000EC
:10000000000004208DBD0400C5BD0400017C040077
:10001000C9BD04000D7C0400137C04000000000036
:10002000000000000000000000000000B594040083
:10003000D1BD0400000000004D9504005D95040052
:10004000A5F5040091590400D7BD0400D7BD0400F4
:10005000D7BD0400D7BD0400D7BD0400D7BD040040
:10006000D7BD0400D7BD0400D7BD0400D7BD040030
:10007000D7BD040039F70400D7BD04004166040071
:10008000D7BD0400D7BD0400D7BD0400D7BD040010
:10009000D7BD0400D7BD0400D7BD0400D7BD040000
:1000A000D7BD0400D7BD0400D7BD0400D7BD0400F0
:1000B000D7BD0400D7BD0400000000000000000010
:1000C000D7BD0400D7BD0400D7BD0400D7BD0400D0
:1000D000D7BD0400D7BD0400D7BD0400D7BD0400C0
:1000E000D7BD0400D7BD0400D7BD04000000000048
:1000F00000000000D7BD040000000000D7BD0400D0
:100100000348044B834202D0034B03B118477047A6
:100110003809002038090020000000000548064981
:10012000091A891001EBD171491002D0034B03B1B8
:1001300018477047380900203809002000000000E7
:1001400010B5064C237843B9FFF7DAFF044B13B11F
:100150000448AFF300800123237010BD380900204C
:1001600000000000207B050008B5054B1BB10549C8
:100170000548AFF30080BDE80840FFF7CFBF00BFE0
:10018000000000003C090020207B0500154B002BDF
:1001900008BF134B9D46A3F5803A00218B460F46BE
:1001A0001348144A121A40F021FE0F4B002B00D0C6
:1001B00098470E4B002B00D09847002000210400E8
:1001C0000D000D48002802D00C4838F00DFB40F01F
:1001D000E7FC2000290038F0E5FF38F002FB00BF03
:1001E000000008000000042000000000019104004D
:1001F00038090020F80C0120E98704000000000005
:1002000070470B6803604B6843608B68836070477E
:1002100010B4D0E9013401686210E40701EB020078
:1002200048BF8A585DF8044B48BFD35818470000B0
:1002300008B5431C04D120220E490F4837F0B0FE08
:10024000012359B11F2886BF00F01F000B4A4FF051
:10025000A04203FA00F0C2F8080508BD1F2886BFB7
:1002600000F01F00054A4FF0A04203FA00F0C2F868
:100270000C05F2E724340500AB3405000003005000
:10028000C3680BB19B681847704700002DE9F04F19
:1002900090F88A308BB000F1680730F813A004465C
:1002A0003946684607F08DFA009BBAEB0308019BBC
:1002B0004FF0000B6BEB0309B9F1000F08BFB8F169
:1002C0001E0F05D294F8893013B1404638F0E0FD96
:1002D000B4F88E1094F98800B1FA81F14909A4F8B4
:1002E0008E10FFF7A5FF184B09930026174B0493B8
:1002F0000394059603AB93E8070094F8893006ADA4
:1003000085E8070034F813201E3AD317294604F174
:10031000280007F082F92846FFF7B2FF384607F0B9
:1003200074FA94F8893094F88B2084F88A30013379
:10033000DBB20132B3EB420F84F8893008BF84F896
:1003400089600BB0BDE8F08F183405008D02010004
:1003500038B500F128050446284607F031F904F1C4
:10036000680007F0F1F9074BA362284607F028F967
:1003700004F15000FFF784FF284607F0A9FA204651
:1003800038BD00BF6C3E0500002290F88B3030B5C0
:100390001146851CD4B2A34205D935F82240214428
:1003A00089B20132F6E71AB24FF4967503EB830374
:1003B00000EB820420F82250C3EB031346F27C02C8
:1003C000A2EB83035B1A638030BD013910B516D4EC
:1003D00090F88B308B4212DDB2F57A7F10D3B2F5F4
:1003E000FA6F28BF4FF4FA6200EB81034FF4967462
:1003F000A2F5967220F821405A80FFF7C5FF10BD84
:100400004FF47A72F0E700002DE9F043044600F162
:10041000280689B0304604F168079046894607F0FF
:1004200073F9384607F014FA2046002500F8885F73
:10043000494636F055FE84F88B8084F8905084F855
:1004400089504FF496704FF496616BB2434505F1B5
:10045000010506DA1BB204EB830224F82300518065
:10046000F3E72046FFF790FF0121A4F88E10002546
:1004700094F98800FFF7DCFE84F8895006F0F0F864
:10048000C4E92005384607F069F90D4B07930D4B79
:100490000194CDE9023501AB93E8070004AD85E88E
:1004A0000700002346F2A8122946304607F0D3F889
:1004B0002846FFF7E5FE204609B0BDE8F08300BFFF
:1004C000183405008D020100F0B58BB00C460620F3
:1004D000002101AD06F0ACF920462022294600F0AB
:1004E00055FB00240646B44204DA285D00F084FA85
:1004F0000134F8E71D4E1E4F354600242A88B2F518
:10050000FA6F28BF4FF4FA62B2F57A7F38BF4FF422
:100510007A72013425F8022B21463846FFF755FF41
:10052000082CEBD1134F144C0025394601352046D9
:1005300005F0C9FE0A222946204605F027FF0F498B
:10054000204605F0C0FE0A2236F8021B204605F0C0
:100550001DFF0B49204605F0B6FE082DE5D10949DF
:10056000054805F0C9FE0BB0F0BD00BFAC09002086
:10057000C0090020C3340500501C0020406B05005A
:10058000107B0500606B050008B5124800F0DCFB2D
:10059000114A12490F4838F022F9114800F09AFA2E
:1005A00010490D4A0E4838F01AF904F068FB0A2881
:1005B00088BF0D4B0D488CBF93F9A0104FF0FF3151
:1005C0000822FFF721FF044A09490848BDE808400E
:1005D00038F005B96009002000020020210C01005C
:1005E00054090020850A010004020020C0090020EF
:1005F000510301001FB501210D2006F07FF80121F4
:10060000062006F0B9F80121062006F011F910487D
:100610004FF4E13105F09EFC0E4800F053FF20B985
:100620000D490E4805F068FEFEE70D490B4805F040
:100630004AFE01A8074900F099FF01A9074805F003
:1006400051FE01A805F0BDFE05B05DF804FB00BF3A
:10065000981700207C0A0020B2360500501C0020AC
:10066000C6360500F0B50D2097B0012106F0B0F8B0
:10067000AA4800F06DFF60B9A94C25784DB9A94989
:10068000A94805F039FE2946A44800F099FF012346
:100690002370A24800F05CFF0646002840F0E88086
:1006A0009F4D2B78002B00F0E38003AC9B49204644
:1006B00000F092FF9D4B9DF810201A710522A15C5D
:1006C000995401320B2AFAD19DF81720DA729DF85D
:1006D00018201A730D22A15C995401324B2AFAD1C9
:1006E0009DF8572083F84B20204600F099FA8F4858
:1006F00000F0E4FA002800F0BB808C49204600F0AE
:10070000ABFA8B49204605F00BFF0746204605F063
:1007100058FE002F00F0BD808649834805F0D3FDC8
:100720008249204600F034FB8149204605F0F8FE5E
:100730000746204605F045FE002F00F0BA807E49AE
:10074000794805F0C0FD7949204600F097FB7849CB
:10075000204605F0E5FE0746204605F032FE002F54
:1007600000F0B7807549704805F0ADFD6E4805F0A2
:10077000B1FD6E49684600F00BFB7149684605F013
:10078000CFFE68B16949204600F078FB6D492046EC
:1007900005F0C6FE061C204618BF012605F011FE16
:1007A000684605F00EFE002E62D067495E4805F0EF
:1007B000A3FD66495C4805F09FFD584800F006FF20
:1007C0000023634958482B7005F096FD574800F008
:1007D0005DFB002800F09F805E49534805F08CFDCA
:1007E000642005F049FF5C494F4805F085FD4F48FE
:1007F00000F054FB002800F08C8058494A48584EBD
:1008000005F07AFD4F4A4949684600F081FB554A98
:100810006946204600F02BFC049B73602046059B34
:10082000B36000F02FF9684600F0B6FB304600F0E8
:1008300083F900286BD04C493B4805F05DFD4B4ADD
:100840000321304600F081F94949374805F054FD4D
:100850004849354805F050FD642005F00DFF30464D
:1008600000F0CCF9002844D043492F4805F044FD5E
:100870002A4800F06DFE18B90121062005F0D8FFC6
:10088000264800F05FFE00210D2005F0A1FF17B003
:10089000F0BD3A49244805F016FD2046234900F0F2
:1008A000DBF92146204805F009FD204605F089FDC9
:1008B00036E733491C4805F006FD20461B4900F089
:1008C00067FA2146184805F0F9FC204605F079FD45
:1008D00039E72C49144805F0F6FC2046134900F08E
:1008E000CDFA2146104805F0E9FC204605F069FDE7
:1008F0003CE725490C4805F0FFFC0C4800F0A4F942
:100900000021064800F05CFE01232B70B0E71F4970
:10091000F0E71F49EEE71F49ECE700BF7C0A002023
:10092000580A0020C6340500501C00206009002031
:10093000606B0500D43405000A3505003535050027
:100940006E3505007435050079350500A0350500C4
:10095000AE350500BC350500C6350500DD350500A2
:1009600054090020F3350500F8350500C9040100DD
:10097000103605002336050032360500EE3405003A
:1009800027350500543505003E3605004F36050075
:100990006C36050087360500064B1A781F2A07D8E3
:1009A000511C197004490A28885404BF00221A7087
:1009B000704700BF7B0A00205A0A00200D4A30B55C
:1009C00000F10C04837841781B0103F470630B443D
:1009D0001380C578837829021B01DBB201F47061B2
:1009E0000B43033003EB15138442538002F10402DE
:1009F000E8D130BDAC09002038B51F4C1F4D23781D
:100A0000032B13D8DFE803F032022C097E280BD128
:100A10000323237000232B7008E07D2802D10223DA
:100A2000237003E07E28F5D0FFF7B6FF2B780D2B5F
:100A300015D9134900231A46084611F8015B013302
:100A40000D2B82EA0502F8D1437B934205D103784E
:100A5000802B02D10A48FFF7B1FF0023237038BD75
:100A600080F02000FFF798FF0323D9E77E28DBD131
:100A700000232B700123D3E7590A00207B0A0020B2
:100A80005A0A00200D4B10B504460360406840B17F
:100A900000F017FB002804DC606810B103685B6895
:100AA0009847A06840B100F074FE002804DCA068FC
:100AB00010B103685B689847204610BDE436050016
:100AC00010B50446FFF7DEFF20460C2138F0C8F8C9
:100AD000204610BD024A02600022C0E90122704790
:100AE000E4360500064B10B5C0E90031002304468A
:100AF000836011B1084600F0DFFA204610BD00BF48
:100B0000E4360500064B10B5036000230446C0E937
:100B1000013111B1084600F037FE204610BD00BF7C
:100B2000E43605000346406808B100F0D2BA986880
:100B300008B100F053BE7047436823B980680030A5
:100B400018BF012070470120704770B50546406806
:100B50000C46164610B1C9B200F025FBA86828B1B2
:100B60003246E1B2BDE8704000F072BE70BD08B51B
:100B7000836823B1FFF7D6FFC0F3400008BD1846D5
:100B8000FCE7806808B100F037BE7047F8B505464D
:100B900040680E46174618B300F0A2FAB842A8BF44
:100BA00038460446686800F099FA22460146304605
:100BB00040F0F4F8A86888B100F016FE90B9A86873
:100BC00000F010FE87423C46A8BF0446A86800F02B
:100BD00007FE22460146304640F0E0F82046F8BDC8
:100BE0000446E7E72846FFF7C2FF0028E7D028467B
:100BF000FFF7C7FF0028E2D10446EFE710B584688D
:100C000064B1FFF78FFF10F0200F18BF02212046BC
:100C100008BF0121BDE8104000F08EBE204610BD87
:100C2000704710B54C21044638F01AF8204610BD24
:100C3000014803F049BC00BFCC0C0020014803F080
:100C4000DBBB00BFCC0C0020421D0179014801F044
:100C50006DBA00BF800A002010B58AB04B790393AB
:100C60008B790293CB7901930B7A009304464B7AEC
:100C70008A7A054905A840F0EFFE05A9204605F04F
:100C8000E6FB20460AB010BDEC36050010B5421D4B
:100C900001790446074801F0A1F94FF6FF73984225
:100CA000014604D00448BDE8104003F066BA94F948
:100CB0004B0010BD800A0020CC0C002007B500239B
:100CC0000622694605300093ADF8043040F058F82C
:100CD000003018BF012003B05DF804FB08B50279AD
:100CE0000B799A4208D106220531053040F048F8C8
:100CF000B0FA80F0400908BD0020FCE710B50446BA
:100D0000074803F0E1FB236820461B6A984730B18F
:100D1000621D21790348BDE8104001F0ADB910BD56
:100D2000CC0C0020800A002008B502790B799A4289
:100D300008D106220531053040F022F8003018BFF6
:100D4000012008BD0120FCE7064A02607F21002245
:100D5000C272027380F84B10C0F80520A0F8092079
:100D6000704700BF1437050010B501710021C17232
:100D70000173064C04607F2180F84B101168C0F8A5
:100D800005109288A0F8092010BD00BF1437050097
:100D9000F8B50F461249064605F059FB397B002489
:100DA000A1421ADD3B19A21C5D7B9B7B083B012BFA
:100DB00005F1FF350FD82946304605F021FB0F34E9
:100DC0003C440027BD4208DD14F8011B304605F005
:100DD00078FB0137F6E7AC18E2E73046F8BD00BF14
:100DE000606B05002DE9F04F85B0884622490192DD
:100DF000834605F02CFB0024A14698F80C30A34252
:100E000035D908EB0403671CFFB25E7B08EB0703D0
:100E10005B7B9A1E012A25D9063B012B24D810257D
:100E200005FB05F30234009358FA84F44FF0000AEE
:100E3000731EEAB2534517DD019989450CD111465D
:100E400004F10D000393029202F07EFC0146584625
:100E500005F00FFBDDE90223009909F10109AA441D
:100E60000C44E7E70225DBE73E44F4B2C5E7584609
:100E700005B0BDE8F08F00BF606B050010B5002223
:100E80000446FFF7AFFF204610BD0000421D017968
:100E9000014801F0FBB800BF800A0020421D017923
:100EA0000148002302F075BB800A00202DE9F84FAD
:100EB0000546914615484A1D09799A4601F0ADF854
:100EC0000746F0B100F053FE002480462646444514
:100ED00017DA2146384600F04CFE834600F052FCFB
:100EE0000146484640F01CFE48B9564506D15946D1
:100EF000284600F081F82846BDE8F88F0136013415
:100F0000E5E7284600F070F8F5E700BF800A00200A
:100F100010B500230446FFF7C9FF204610BD08B5F1
:100F2000134602798A4208D10622194605303FF05D
:100F300027FFB0FA80F0400908BD0020FCE710B59B
:100F40000446012000FA01F1E1722273194604F10E
:100F50000D003FF023FF9DF9083084F84B3010BDA1
:100F600070B50D461146C27A42F010020446C272B4
:100F7000007B0D302A4620441E463FF00FFF237BA6
:100F800084F84B601D44257370BDC37A13F0180FAD
:100F900014BF0120002070470D4B10B504460360BC
:100FA000406840B100F08DF8002804DC606810B1A2
:100FB00003685B689847A06840B100F0EAFB00282E
:100FC00004DCA06810B103685B689847204610BD38
:100FD0004837050010B50446FFF7DEFF20460C2118
:100FE00037F03EFE204610BD024A02600022C0E9F2
:100FF0000122704748370500064B10B503600023F7
:101000000446C0E9013111B1084600F0BDFB20469D
:1010100010BD00BF483705002DE9F84F0546886828
:101020000F4691469A46F0B100F01AFE0024804621
:101030002646444517DA2146B86800F013FE834679
:1010400000F0A0FB0146484640F06AFD48B956450D
:1010500006D159462846FFF755FD2846BDE8F88FCA
:1010600001360134E5E72846FFF734FDF5E710B512
:1010700000230446FFF7D0FF204610BD7047002034
:10108000704710B52021044637F0EAFD204610BD18
:1010900010B5054B044640F8043B02F017FB002353
:1010A000E361204610BD00BF58370500043002F050
:1010B00047BB043002F046BBC3690133C361184625
:1010C0007047C369013BC3611846704742F603008D
:1010D000704790F820007047406A7047806A7047F8
:1010E000808D704770B51546426AAA42A8BF2A464D
:1010F0000446828592B2806A0E463FF04FFE94F815
:101100002E300BB1636AA38594F8203098060BD576
:10111000A28E910708D5218EA38DA26A18480131AD
:1011200089B201F083F870BDDA060BD5A38EDB0718
:1011300008D5218EA38DA26A1148013189B201F030
:101140002FF8F0E794F832300BB90120EBE7214695
:101150000C4802F044FE2B46014632460A4802F093
:1011600019FC074800F079FF0028EED1064802F08C
:1011700043FB0028E9D0044802F040FBE5E700BF4C
:10118000800A0020600B0020040B002038B50546C3
:1011900008460C4640F0F2FC214602462846BDE8CF
:1011A0003840FFF79FBF03299CBF00EB81004264DA
:1011B000704701867047008E7047008E013080B204
:1011C0007047806B7047836B994208D2C36B0022D3
:1011D000914202D05B680132FAE71868704700203C
:1011E0007047000030B5114B03600B7903710B465B
:1011F00001F1490453F8052FC0F805209B88A0F899
:101200000930CB7AC3720B7B037300F10D0201F13D
:101210000D0353F8045B42F8045BA342F9D11B8829
:10122000138091F94B3080F84B3030BD14370500F6
:1012300038B5044608200D4637F0E0FC0023C0E92D
:10124000005363682BB960602368A060013323609A
:1012500038BDA3685860F7E770B504461D461646CA
:10126000FFF716FFB5F5007F184B23602B46A8BF8C
:101270004FF40073002163629DF8103084F8206001
:10128000A18584F82E302163A186C4E90E11216462
:10129000102204F144003FF0A9FD16F0300F0ED0EB
:1012A0002C2037F0ABFC0A490646022304F1340235
:1012B00000F0D6F8314604F13800FFF7B9FF2846B0
:1012C0003FF0FAFCA062204670BD00BF74370500F5
:1012D0006437050070B50446406800252368AB42BA
:1012E00006D94668082137F0BBFC01353046F5E7E2
:1012F0000023C4E90033A36070BD0000164B70B535
:10130000044603600025A36B9D4213D2E36B0022C9
:10131000954202D05B680132FAE71E683046FFF75B
:10132000D0FE002804DC1EB1336830465B68984765
:101330000135E8E704F138052846FFF7CBFFA06A3E
:1013400008B13FF0C1FC2846FFF7C4FF2046FFF775
:1013500095FE204670BD00BF7437050010B50446E9
:10136000FFF7CCFF2046542137F07AFC204610BD11
:10137000F0B5C56C97B0044617461E467DB103A86C
:10138000FFF730FF21466846FFF7ACFB694603A82C
:10139000A8476846FFF776FB03A8FFF741FCA16A60
:1013A0001C9A394430463FF0F9FC17B0F0BD70B5D7
:1013B00004460E461146012280F8332096B01A46A4
:1013C000FFF790FE256D85B1314603A8FFF70AFFB0
:1013D00021466846FFF786FB694603A8A84768468A
:1013E000FFF750FB03A8FFF71BFC16B070BD30B52C
:1013F000838E02F00302934297B0044617D0828690
:10140000002A0CBF44224022024455687DB103A843
:10141000FFF7E8FE21466846FFF764FB694603A82C
:10142000A8476846FFF72EFB03A8FFF7F9FB17B0A4
:1014300030BD4FF42450704710B5034B0360044691
:10144000FFF71CFE204610BD8837050010B5044686
:10145000FFF7F2FF20462C2137F002FC204610BD9A
:1014600070B504461D461646FFF712FE064B236074
:10147000B5F5007FA8BF4FF40075002326626562B2
:101480002385204670BD00BF88370500406A70473D
:10149000006A704701857047704710B50421044603
:1014A00037F0DEFB204610BD08B5044802F07FFC93
:1014B0000348BDE8084002F0A5BD00BF600B002056
:1014C000CC0C002010B5044686B01C4802F090FDFC
:1014D00028B92046FFF7E8FF002006B010BD6420C1
:1014E00005F0CAF8154802F015FE0028F1D105AB49
:1014F00001930DF11203009304AA0DF10E030DF1F7
:101500000D010E4802F00CFE0028E2D14FF0FF3230
:101510006FF04043094802F049FE0028D9D10DF18F
:101520000F020DF11601054802F04CFE0028D0D143
:10153000034802F0F9FC0120CFE700BFCC0C0020EB
:10154000600B0020014802F0BFBF00BFCC0C0020A0
:1015500008B5044802F0B8FF0348BDE8084000F0B1
:101560007CBD00BFCC0C0020800A002010B58CB0E0
:101570000446002305A910480593ADF8183002F081
:10158000EBFD9DF8143003939DF8153002939DF800
:10159000163001939DF8173000939DF819209DF89F
:1015A0001830064907A840F057FA07A9204604F06A
:1015B0004EFF20460CB010BDCC0C0020EC360500D0
:1015C000014802F0C5B900BF040B0020014802F039
:1015D00065BA00BF040B002010B50446044802F0B1
:1015E00073FF2046034902F099FA204610BD00BF60
:1015F000CC0C0020040B00200348044B044A05498E
:10160000036037F0ECB800BF7C0A00209C3705006F
:1016100000020020991401004FF420507047000090
:1016200010B50446FFF734FD044B23600023C4E9E2
:101630000833C4E90A33204610BD00BFAC370500AB
:10164000018442847047008C7047408C7047406A28
:101650007047436A994208D2836A0022914202D0BD
:101660005B680132FAE7186870470020704738B5A8
:10167000044608460D46FFF71FFD082037F0BEFA66
:101680000023C0E90053A36A2BB9A062636AE06239
:101690000133636238BDE36A5860F7E770B504460A
:1016A000406800252368AB4206D94668082137F018
:1016B000D7FA01353046F5E70023C4E90033A360CB
:1016C00070BD0000144B70B5044603600025636ACA
:1016D0009D4213D2A36A0022954202D05B68013278
:1016E000FAE71E683046FFF7ECFC002804DC1EB168
:1016F000336830465B6898470135E8E704F1240514
:101700002846FFF7CBFF2846FFF7C8FF2046FFF724
:10171000B5FC204670BD00BFAC37050010B50446CF
:10172000FFF7D0FF2046302137F09AFA204610BD4F
:1017300010B5044B044640F8043B04F042FE20463A
:1017400010BD00BFC037050010B50446FFF7F0FF1D
:101750002046142137F084FA204610BD38B50446DF
:101760002546074B45F8043B0846114601F0ECFFBF
:101770000146284604F06BFE00232361204638BD55
:10178000C03705004068704703690133036118469C
:1017900070470369013B03611846704738B504463A
:1017A0001D46FFF7DBFF0C4B2360BDF81030E382D2
:1017B0009DF814302376BDF8183063834FF480729F
:1017C0000023A582C4E90733A284C4E90A33C4E92B
:1017D0000C33204638BD00BFD0370500007E70476F
:1017E000C0697047006A70470346012290F82500DF
:1017F00083F825207047000030B5818AC1B00446C7
:10180000114800F07DFC054640B16B46628BA18A11
:101810000D4801F020FF20B900252562284641B07F
:1018200030BD9DF80030012BF6D0411E2162E069E9
:101830003FF0ECFFE0610028EED0226A0DF10101DB
:101840003FF0ACFAEAE700BF800A0020408B704707
:10185000032908BF4263704738B5044608460D4661
:10186000FFF792FF082037F0C9F90023C0E90053C1
:10187000E36A2BB9E062A36A20630133A36238BD37
:10188000236B5860F7E770B504464068002523686D
:10189000AB4206D94668082137F0E2F901353046F7
:1018A000F5E70023C4E90033A36070BD03688B42F1
:1018B00008D9436800228A4202D05B680132FAE705
:1018C0001868704700207047F8B50546144B45F876
:1018D000283B04460026A36A9E420FD23146284682
:1018E000FFF7E4FF0746FFF754FF002804DC1FB1B1
:1018F0003B6838465B6898470136ECE72846FFF7B7
:10190000C2FFE06918B13FF0DFF90023E361284628
:10191000FFF7B9FF2046FFF70BFF2046F8BD00BFD9
:10192000D037050010B50446FFF7CEFF204638211A
:1019300037F096F9204610BD2DE9F04306468DB0EC
:1019400056F8287FDFF87880ADF80E1005460024A1
:10195000BC4219DA21463046FFF7A8FF8146FFF75F
:1019600011FF414640F0F8F860B902220DF10E0176
:10197000484600F0A3F8041C18BF012420460DB00F
:10198000BDE8F0830134E3E72C7E14F03004F5D099
:101990006B8B013300229BB200931146AB8A04A8E3
:1019A00000F07AF802220DF10E0104A800F086F88A
:1019B000041C04A818BF012400F052F8DEE700BFA1
:1019C0006437050070B50446036296B00D46C069E1
:1019D000194616463FF01AFFE06110B9206216B0B2
:1019E00070BD01233146A384226A3FF0D7F9666BAC
:1019F000002EF4D0194B03932B798DF810302B4621
:101A000005F1490153F8052FCDF811209B88ADF859
:101A10001530EB7A8DF817302B7B8DF818300DF1DF
:101A2000190205F10D0353F8040B42F8040B8B4225
:101A3000F9D11B88138095F84B308DF8573021462B
:101A40006846FFF75FF8694603A8B0476846FFF7A6
:101A500019F803A8FFF7E4F8C1E700BF1437050041
:101A6000074B10B504460360806918B13FF02CF9AC
:101A70000023A3612046FFF75BFE204610BD00BF98
:101A8000E037050010B50446FFF7EAFF20462021A5
:101A900037F0E6F8204610BD38B504461D46FFF77E
:101AA0005DFE054B2360BDF81030E3820023A58264
:101AB000C4E90633204638BDE0370500F0B50446DA
:101AC00085B00E46818A1848174600F019FB10B9F8
:101AD000002005B0F0BDA18A134800F04DFB03388B
:101AE00085B2BD42A8BF3D462946A0693FF08EFEA3
:101AF000A0610028ECD003AB0193EBB20093E28A23
:101B0000A18A0948334601F0B3FD0028E0D09DF8D2
:101B10000C30012BDCD02A463146A0693FF03EF95B
:101B2000E5610120D5E700BF800A0020034A02607A
:101B30000022C0E90122C260704700BFF0370500F3
:101B400038B5044608460D46FFF71EFE082037F05C
:101B500055F80023C0E90053A3682BB9A06063685F
:101B6000E0600133636038BDE3685860F7E74068C0
:101B700070474368994208D283680022914202D09C
:101B80005B680132FAE7186870470020704770B54B
:101B90000446406800252368AB4206D94668082100
:101BA00037F05EF801353046F5E70023C4E900332D
:101BB000A36070BD70B50646002473689C4213D2C2
:101BC000B3680022944202D05B680132FAE71D68D4
:101BD0002846FFF7DEFD002804DC1DB12B682846EF
:101BE0005B6898470134E8E7301DFFF7D0FF70BD10
:101BF00038B50446054B44F8043B0546FFF7DAFFC9
:101C00002046FFF7C4FF284638BD00BFF037050067
:101C100010B50446FFF7ECFF2046102137F020F8FE
:101C2000204610BD38B504461D46FFF797FD084B0A
:101C30002360BDF81030E382A582064904F1180044
:101C400004F005FC0023C4E90933E362204638BDF3
:101C500000380500606B0500808A7047C08A7047B5
:101C6000406A7047436A994208D2836A00229142CF
:101C700002D05B680132FAE71868704700207047AD
:101C800038B5044608460D46FFF77EFD082036F0BD
:101C9000B5FF0023C0E90053A36A2BB9A062636AB1
:101CA000E0620133636238BDE36A5860F7E770B5FC
:101CB0000446406800252368AB4206D946680821DF
:101CC00036F0CEFF01353046F5E70023C4E9003396
:101CD000A36070BD164B70B5044603600025636AAF
:101CE0009D4213D2A36A0022954202D05B68013262
:101CF000FAE71E683046FFF74CFD002804DC1EB1F1
:101D0000336830465B6898470135E8E704F12405FD
:101D10002846FFF7CCFF2846FFF7C9FF04F118005B
:101D200004F04FFB2046FFF703FD204670BD00BFC7
:101D30000038050010B50446FFF7CCFF20463021DF
:101D400036F08EFF204610BD10B5044B03600446EC
:101D5000006C08B13EF0B8FF204610BD10380500F9
:101D600010B50446FFF7F0FF20465C2136F078FFFF
:101D7000204610BD1FB58DF80C3002AB8DF8091050
:101D8000ADF80A20009301460124052304220348EC
:101D90008DF8084002F09CFB04B010BDCC0C002074
:101DA000114B036041F2883317218360002330B563
:101DB0008180C3870364A0F8443000F1100200F171
:101DC00040044FF6FF7522F8045C02F8023C02F86A
:101DD000013C13609380D18093601032A242F2D113
:101DE0004365836530BD00BF1038050081807047B2
:101DF00070B5858994B04FF6FF74A5421646189ABF
:101E000007D0858BA54220D0858DA5421BD1022409
:101E100000E0002400EB041501342401A98101191C
:101E2000AE731726CE80EB731568055194888C80AD
:101E3000446D44B1194601A8FEF796FF01A8A047DA
:101E400001A8FEF7EDFE14B070BD0124E2E700002A
:101E50002DE9F04F00230446A9B098464FF0FF3516
:101E60000C304FF6FF761A01825A8A4208BF1D468F
:101E7000B24203F1010318BF08F10108032BF2D1AC
:101E80006B1C00F0A3806E1C2F01E319360104EBDC
:101E900006094A46D97B02A8FEF766FFB8F1010F92
:101EA0004FD1DFF834A14FF0000842F6030B1FFAC0
:101EB00088F15046019101F065FF019988423CD9B3
:101EC000504601F087FF026801909268904758459C
:101ED000019B2FD13F4A15929DF80C208DF8582078
:101EE000DDF80D20CDF85920BDF81120ADF85D20AA
:101EF0009DF813208DF85F209DF814208DF8602048
:101F00000DF161010DF115020DF1510052F804CBF4
:101F100041F804CB8242F9D112880A809DF85320FF
:101F20008DF89F201846002215A9FFF760FA15A822
:101F3000FEF776FE08F10108B9E70023E387A4F86D
:101F40004430A16D61B3234B15939DF80C308DF88F
:101F50005830DDF80D30CDF85930BDF81130ADF8FE
:101F60005D309DF813308DF85F309DF814308DF89A
:101F700060300DF161020DF115030DF1510053F8C0
:101F800004CB42F804CB8342F9D11B8813809DF81F
:101F900053308DF89F3015A8884715A8FEF740FEEE
:101FA00027444FF6FF73FB600023A35104EB051495
:101FB000A9F80430A0691723E38210B103685B68B5
:101FC00098470023A36102A8FEF72AFE29B0BDE8C6
:101FD000F08F00BF14370500600B00202DE9F041A1
:101FE00006460F46904600F11005002415F8013C06
:101FF000BB420AD10622414628463EF0C1FE20B926
:1020000006EB0414A089BDE8F0810134032C05F12E
:102010001005EBD14FF6FF70F5E72DE9F0410646CC
:1020200000F110050F469046002015F8013CBB4218
:1020300000F101040AD10622414628463EF0A0FEE6
:1020400020B906EB04108068BDE8F081032C20461F
:1020500005F11005E9D10020F6E782894FF6FF73FC
:102060009A4207D1838B934204D1808DC01A18BF46
:10207000012070470120704708B5FFF7AFFF4FF60A
:10208000FF73C01A18BF012008BD00002DE9F04100
:1020900006238AB0174604220024CDE90723C8226C
:1020A000CDE905420C22CDE9033205460E460091EA
:1020B000CDE90174234630226021104802F0E4FA91
:1020C000D0B904F0BBFA0D4C804604F0B7FAAB6807
:1020D000A0EB080098420CD2204602F0F5F93A46EF
:1020E00031462846FFF7C8FF0028EED00AB0BDE809
:1020F000F081024802F0FFFA0020F7E7CC0C002044
:1021000038B5054608480C4602F0DEF9AB89A34213
:1021100007D0AB8BA34204D0A88D031B5842584173
:1021200038BD0120FCE700BFCC0C0020F8B5054607
:10213000FFF754FF4FF6FF739842044618D001464C
:102140000C480C4E02F0FBFA04F078FA074604F053
:1021500075FAAB68C01B98420AD2304602F0B4F957
:1021600021462846FFF7CCFF0028F0D10120F8BD1A
:102170000020FCE7CC0C002083898B420AD0838BA3
:102180008B4209D0838D8B4208D1022300EB0310D0
:10219000C08A70470023F9E70123F7E7172070474B
:1021A0002DE9F04F85B002AF1D4600F1300389469E
:1021B000924604467B600026B4F80C804FF6FF730D
:1021C0009845EB4624D0E28AD31DDB08033AADB232
:1021D00092B2ABEBC3039D46954228BF15464FF024
:1021E0001B0102AB8DF80810ADF809902A46514644
:1021F0000DF10B003B603EF0D1FD3B680093EA1C03
:10220000D3B241460422084802F062F90136DD46A5
:102210007B6810349C42CFD1002ED4BF0020012017
:102220000C37BD46BDE8F08FCC0C00202DE9F04FF7
:1022300087B002AF1D46DFF8B490796000F140032B
:102240000646934600F11004BB604FF0000834F8D6
:1022500004ACC7F80CD04FF6FF739A4539D0E2882A
:10226000D31D6946DB08A1EBC303033A9D46ADB21B
:1022700092B295424FF01D0128BF15468DF8081007
:102280007968ADF8091002AB2A4659460DF10B00EA
:102290003B603EF083FD002286F83C203B680093C3
:1022A000EA1CD3B251460422484602F011F996F8CE
:1022B0003C3053B9484602F007F9224614F8011C95
:1022C0003046FFF7D9FE0028F1D1D7F80CD008F13D
:1022D0000108BB681034A342B9D1B8F1000FD4BFD4
:1022E000002001201437BD46BDE8F08FCC0C002043
:1022F000042A13D1B0F848208A420FD190F84A201E
:102300001978013A8A4209D1C26C01211170C26C5C
:102310001B68C2F80130052380F850307047000078
:10232000022A1FB50446084606D0042300220221D3
:10233000FFF720FD04B010BD1B88A188994228BF7B
:102340001946A389834215D0A38B834214D0A38D51
:10235000834202D104EB0214E18203AA0323ADF805
:102360000D1000920146042204488DF80C3002F052
:10237000AFF8DFE70022EDE70122EBE7CC0C00200D
:10238000022A10B51CD184898C421AD0848B8C42CD
:1023900019D0848D8C4203D100EB02121C88D482A8
:1023A000B0F848208A420BD190F84A20032A07D17E
:1023B000C16C0A70C16C1B88A1F8013080F85020F4
:1023C00010BD0022E8E70122E6E700002DE9F04F0A
:1023D00087B002AF042BFA60BA6BC7F808D08A4600
:1023E000128808D0042319465046FFF7C3FC14375F
:1023F000BD46BDE8F08FFB6807336946DB08A1EBFB
:10240000C3039D460DF1080805238DF80830013AF5
:10241000002388F8013094B20225394801F0B2FC5B
:10242000844244D2BB6B5B88A34240D921463448E6
:1024300001F0D0FC026892688346904742F603029E
:1024400001349042A4B23ED05846FEF732FE022834
:1024500006464FF000020CBF0121022198F801004E
:1024600008B988F8011098F8010088421FD105F1D9
:1024700002091FFA89F908EB090328F805407B6077
:1024800052BBDBF80020584692689047B0F5245FB5
:1024900022D0DBF8002058469268904728F80900BF
:1024A0000435ADB20236FB682E44B342B5DA022DD4
:1024B0001DD1BA6B0A23128804215046FFF75AFC3B
:1024C000D7F808D093E75846FEF777FE8442BBD191
:1024D000012202261146C1E75846FEF7E7FD3246C3
:1024E000014678683EF05AFC09EB0605D9E7CDF8BD
:1024F0000080EBB204225146024801F0E9FFDFE719
:10250000600B0020CC0C0020012A38B5044615468B
:1025100011D9B0F8480088420DD194F84A00052836
:1025200009D1E16C0870E06C1946013001353EF0CC
:1025300035FC84F8505038BD2DE9F04F87B002AF1C
:10254000052BBE6BC7F808D093468946328808D859
:10255000042307214846FFF70DFC1437BD46BDE8AC
:10256000F08F0BF107016846C908A0EBC1018D4649
:1025700007218DF80810B188B1F5205F0DF1080A28
:1025800008D00A23328807214846FFF7F3FBD7F823
:1025900008D0E2E7063B9BB2FB60013AB31D94B260
:1025A00001257B601F4801F0EDFB84422FD2738828
:1025B000A3422CD921461B4801F00CFC03689B6800
:1025C00080469847B38883421BD14046FEF771FD91
:1025D000FB68984215D14046FEF768FDFA687968B5
:1025E0003EF0CEFB68B94046FFF72DF82AF805000B
:1025F0004046FFF72AF8AB1C9BB204352AF80300CB
:10260000ADB2EB1C9B4502DD0134A4B2CAE7012D3B
:10261000B7D0CDF800A0EBB204224946024801F041
:1026200057FFB4E7600B0020CC0C00202DE9F04FE1
:1026300087B002AF062BBA60BA6BC7F80CD08A46D7
:10264000128805D1BB6B9B88A3F52053012B0AD9B7
:10265000102310215046FFF78DFBD7F80CD014370C
:10266000BD46BDE8F08FBB6807336946DB08A1EBC8
:10267000C3039D4602AE11238DF80830013A0023B2
:10268000737095B202242A4801F07CFB854241D246
:10269000BB6B5B88AB423DD92946254801F09AFBCC
:1026A000BB6BB3F8048003689B68814698478045FC
:1026B0002DD14846FEF7FDFC7378022883460CBFF7
:1026C0004FF006084FF014080BB986F801807378B4
:1026D00043451FD14846FEF7B6FF30534846FEF744
:1026E000B4FFA31C9BB20434A4B2F0523319484681
:1026F0007B60FEF7DBFC7B6801465A4618465C446B
:102700003EF04CFBA4B2BB68A044434502DB01355C
:10271000ADB2B8E7022C03D1BA6B0A23128898E74E
:102720000096E3B204225146024801F0D1FE94E73C
:10273000600B0020CC0C0020012A38B50446154659
:1027400011D9B0F8480088420DD194F84A001128F8
:1027500009D1E16C0870E06C1946013001353EF09A
:102760001DFB84F8505038BD2DE9F04F9BB09846C2
:1027700002AFB8F10A0F934681460D4697F88820BC
:10278000D7F88C30C7F808D005D1022A11D004231D
:102790000022414604E0042A0BD0042300220C212D
:1027A0002846FFF7E7FAD7F808D06437BD46BDE8FA
:1027B000F08FB8F10A0FB3F800A0674814BF5E8825
:1027C000002601F0DFFA0AF1FF318BB2834202D911
:1027D0000A235246DDE70BF107036A46DB08A2EB4A
:1027E000C3039D46B8F10A0F6A460CBF0B230D23A5
:1027F00002F8083F5848FA6001F0ECFA03689B6859
:1028000004469847B0F5205F1FD11EB104235246FD
:102810000B21C5E72046FEF74CFC80462046FEF71C
:1028200045FC424601460DF109003EF0B7FA08F1B9
:1028300001081FFA88F8FB68009304225FFA88F306
:102840002946464801F044FEADE742F603039842AC
:102850000BF1FF3B5FD12046FEF7ADFC50451BD18D
:102860000EB10B23B5E72046FEF733FCFB6858702A
:102870002046FEF7A2FCFB6858802046FEF719FCB4
:1028800080462046FEF712FC4246014603A83EF071
:1028900085FA08F10408CCE72046FEF71AFC830706
:1028A00001D4022395E72046FEF71AFC83B29E422C
:1028B00001D307238DE780B2801B8345A8BF8346E1
:1028C0001FFA8BFA09F130037B604FF00108D34601
:1028D000B9F80C30AB4218D109F1100299F80F1079
:1028E00007F11400FEF740FACDF800B0FB6832465D
:1028F000434407F114012046FEF73AFD07F11400A6
:10290000FEF78EF9D0441FFA88F87B6809F11009A8
:102910009945DDD18FE7B0F5245F1AD12046FEF747
:10292000B5FD83B29E42C4D280B2A0EB0608C34577
:102930002046A8BFC346FEF7ABFD1FFA8BF28119F4
:102940000BF1010B0DF109003EF028FA1FFA8BF88C
:1029500071E74FF001086EE7600B0020CC0C0020FF
:1029600038B50446B0F84800884215460DD194F8B1
:102970004A100B2909D1E06C0170E06C1946013056
:1029800001353EF00BFA84F8505038BD2DE9F04F78
:1029900087B002AF9146BA6BF960062BC7F808D032
:1029A000128808D004230821F868FFF7E3F91437E8
:1029B000BD46BDE8F08F09F107036946DB08A1EBCE
:1029C000C3039D460DF1080809238DF80830002344
:1029D00088F80130BB6B013A043395B202247B6066
:1029E000624801F0CFF9854280F08180BB6B5B8843
:1029F000AB427CD929465D4801F0ECF903689B683D
:102A000006469847BB6B9B888342336805F1010AF1
:102A10001FFA8AFA9B68304675D1984742F603033D
:102A200098423DD13046FEF7C8FB824535D030464E
:102A3000FEF73FFB98F80120022803460CBF4FF039
:102A4000070B4FF0150B0AB988F801B098F8012070
:102A50003B605A454BD128F804A03046FEF739FBBD
:102A6000A21CE11C92B289B2023508F8020028F8D3
:102A700001503046FEF71AFB05343B68A4B208EB60
:102A800004051A46014628463EF088F93B681C4476
:102A9000A4B2A344D9452ADB55460135ADB29FE720
:102AA000336830469B68984742F602139842F4D147
:102AB00028F804A03046FEF7E9FC0234A4B2A9EBE2
:102AC000040980B21FFA89F9814528BF8146304642
:102AD00008EB0405FEF7DCFC4A4601464C44284658
:102AE00009F102093EF05AF9A4B288F80190022CCB
:102AF00033D1BA6BF86812880A230821FFF73AF934
:102B0000D7F808D053E7984742F603039842C4D158
:102B10003046FEF7CEFA02288346BED13046FEF795
:102B2000C5FA5A46014678683EF02AF90028B4D121
:102B300028F804A03046FEF7D3FA0234A4B2A9EB79
:102B400004091FFA89F980B2814528BF81463046C1
:102B500008EB0405FEF7C2FABEE7CDF80080E3B249
:102B60000422F968024801F0B3FCC9E7600B0020B9
:102B7000CC0C002038B5044615468AB1B0F84800A0
:102B800088420DD194F84A00092809D1E16C0870F7
:102B9000E06C1946013001353EF000F984F85050E0
:102BA00038BD00002DE9F04F99B002AF064697F806
:102BB00080A07A60BAF1010F0D461C460BD8122B8B
:102BC00005D10423002221462846FFF7D3F85C37BD
:102BD000BD46BDE8F08FD7F884305648B3F8009072
:102BE00001F0D0F809F1FF318BB2834204D9122CE5
:102BF000EDD10A234A46E6E74E4801F0EBF80368B8
:102C00009B688046984742F6030B58454DD1404695
:102C1000FEF7D3FA8145404601D1122C36D1FEF79A
:102C200058FA02074ED5B389AB4234D100235A1C5F
:102C300006EB031306EB0212D97B07F10C00FEF73B
:102C400093F8D7F88420AAF10203DBB2023207F12D
:102C50000C014046FEF7ABFB07F10C00FDF7E0FF6F
:102C6000122CB4D17B68344807336C46DB08A4EBE4
:102C7000C3039D4602AB13228DF808200093042263
:102C80000123294601F024FCA546A0E7FEF721FA1E
:102C90004307C8D49BE7B38BAB4204D0B38DAB42A0
:102CA000DED10223C3E70123C1E7D8F80030404654
:102CB0009B689847B0F5245F04D14046FEF7F9F9C8
:102CC000022803D0122C82D1032393E74046FEF75B
:102CD000EDF9028842F602139A42F3D1A9F10201FA
:102CE000144801F077F803689B6880469847584578
:102CF000E8D1B389AB4207D0B38BAB4218D0B38DC8
:102D0000AB42ADD1022300E000235A1C06EB0313B3
:102D100006EB0212D97B07F10C00FEF725F8D7F875
:102D2000843007F10C015A884046FEF760FB93E7B8
:102D30000123EAE7600B0020CC0C002062B9B0F858
:102D400048308B4208D190F84A30132B01BFC26C37
:102D50001370012380F85030704700002DE9F04FC8
:102D600087B002AF032B04460D467A601E46C7F8B3
:102D70000CD00BD80423002216212846FEF7FAFFB8
:102D8000D7F80CD01437BD46BDE8F08FBB6B404878
:102D90001B883B811FFA83F8BB6BB3F802B000F0CD
:102DA000F1FF08F1FF318BB2834202D90A23424678
:102DB000E2E7374801F00EF803689B6881469847C0
:102DC00042F60303984201D00B23F0E74846FEF792
:102DD000F4F940458246F7D14846FEF77AF90307F1
:102DE00002D403235246C7E7E38FC3B948463B608A
:102DF000FEF772F901468246206C3EF007FD3B6803
:102E00003A89E2872064A4F84430524619463DF0DE
:102E1000EDFFB4F844305B4505D00723C7E75345C1
:102E2000F7D00E23DEE7331F5FFA83FA0BEB0A02BB
:102E30004846BA60FEF750F9BA6880B28242ECDCCC
:102E4000BB6B206C5246191D58443DF0A7FFB4F8E7
:102E50004420B96B0AEB0203A4F844307B680733C3
:102E60006A46DB08A2EBC3039D4617238DF80830A2
:102E700032460DF109003DF091FF02AC731C009445
:102E8000DBB204222946034801F022FB78E700BFA9
:102E9000600B0020CC0C00202DE9F047012B96B0F0
:102EA000044602AF0E4690461D46E94609D004236B
:102EB000002218213046FEF75DFF5037BD46BDE8C1
:102EC000F087C18F29B33B6F1B78DB0721D5013910
:102ED0001E4800F07FFFA389B342824632D0A38B05
:102EE000B34231D0A38DB34213D102235A1C04EB59
:102EF000031304EB0212D97B381DFDF735FF504652
:102F0000B4F84430226C391DFEF751FA381DFDF734
:102F100087FE002308F10708E387A4F844304FEA4E
:102F2000D8086B46A3EBC8039D4602AB19228DF867
:102F300008200093042201233146054801F0C8FA15
:102F4000CD46BAE70023D1E72B46CFE7600B002040
:102F5000CC0C00202DE9F04F9DB0012B07468A468E
:102F60000792039319D9269B1E8800F1300305466A
:102F70000693F6B2AB89534557D1AC6984B9079B28
:102F80001D2B0AD11E238DF8243009AB0093042297
:102F900001235146274801F09BFA1DB0BDE8F08F90
:102FA0002046FEF7E4FD4FF0000B8046C3453CDAB7
:102FB00059462046FEF7DDFD8146FEF74DFEB04244
:102FC00030D24846FEF74AFEB0422BD34846FEF7C1
:102FD00047FE0BF1010307EB0313059004934FF039
:102FE000000807EB0B14059B98451EDA414648463E
:102FF000FEF738FE8346FEF729FCB0420FD1049A53
:10300000E17B09A8FDF7B0FE039B269A5846023BD8
:10301000023209A9FEF7D6FC09A8FDF701FE08F166
:103020000108E0E70BF1010BC0E7069B1035AB424E
:10303000A0D1A4E7CC0C00207FB513F8014B013AD6
:10304000CDE9023306460D46D2B2FFF795F80C2CB7
:10305000029B00F0968034D8052C79D019D8022C28
:103060006AD00AD8012C61D00623002221462846C6
:1030700004B0BDE87040FEF77DBE032C62D0042C86
:10308000F2D10093134602463046FFF79FF904B091
:1030900070BD092C69D00AD8062C5FD0082CE3D16A
:1030A0000093134602463046FFF770FCEFE70A2C08
:1030B00067D00B2CD8D1304604B0BDE87040FFF784
:1030C0004FBC162C66D015D8112C54D008D8102C13
:1030D000CAD10093134602463046FFF7A7FAD6E757
:1030E000122C1AD0132CBFD1304604B0BDE870406A
:1030F000FFF724BE1D2C04D00BD8182C51D01B2C4C
:10310000B2D100932946134630462246FFF722FFEC
:10311000BDE71E2C4CD0522CA6D1CDE90023294668
:10312000024623463046FFF73DFDB0E7304604B087
:10313000BDE87040FFF7DCB8304604B0BDE8704031
:10314000FFF7EEB8304604B0BDE87040FFF718B99D
:10315000304604B0BDE87040FFF7D6B9009313467F
:1031600002463046FFF7E8F991E7304604B0BDE883
:103170007040FFF7FFBC304604B0BDE87040FFF779
:10318000DBBACDE900232946024623463046FFF745
:10319000EBFA7CE70093134602463046FFF7DEFD6C
:1031A00075E70093134602463046FFF775FE6EE75B
:1031B000012386F83C306AE7F7B50546089CA5F878
:1031C000481010780092013085F84A00002085F8F8
:1031D0005000EC64DBB2042214480E4601F078F98A
:1031E0000CB303F02BFA114F044603F027FAAB6837
:1031F000001B984211D2384601F066F93146284644
:10320000FEF77EFF48B195F850000028EDD04FF64C
:10321000FF73A5F8483003B0F0BD4FF6FF73A5F873
:1032200048300020F7E72046F5E700BFCC0C00202F
:103230001FB50224ADF80D20009303AA03238DF8D7
:103240000C40FFF7B9FF04B010BD80B58288D31DD4
:10325000EC46DB08ACEBC30300AF9D46FFF7E8FF8D
:10326000003018BF0120BD4680BD1FB5ADF80B3042
:10327000069BADF8092000930424052302AA8DF8CB
:103280000840FFF799FF04B010BD2DE9F04F8FB053
:10329000838802AF07333A61DB086A46A2EBC303B7
:1032A000C7E905109D463869FEF761FC0DF1080974
:1032B000F8604FF00008FB68984566DA41463869C7
:1032C000FEF757FCB862FEF7C9FCB860B86AFEF7B3
:1032D000C7FC431E786200267B607B6A9E4251DAFF
:1032E0003146B86AFEF7BEFC7B6838629E4242D027
:1032F0003146B86AFEF7B6FC0546386AFEF7A6FA0C
:10330000013084B2002D38D02846FEF79FFAF862CB
:10331000FB6AA34234D3CDF80090FB6A2246D7E97A
:103320000510FFF7A2FF054680B399F80030052B82
:1033300026D199F801309B00FB6109F1020A4FF098
:10334000020BAB45E7DA202035F058FC5146044625
:1033500031F8023B00937B690222FEF79DFB214678
:10336000386AFEF779FABAF80040FB690134A4B272
:103370009B449A44E5E70025BFE7BB68FB62C7E7CB
:103380000136AAE708F1010895E701203437BD4668
:10339000BDE8F08F1FB5ADF80B30BDF81830ADF8B3
:1033A0000D30079BADF8092000931024072302AAD3
:1033B0008DF80840FFF700FF04B010BD2DE9F04F75
:1033C0008FB002AFC7E90021FB6083883861073303
:1033D0006A46DB08A2EBC30307F118059D46F968AE
:1033E000284600F073F90DF108090124BD604FF47F
:1033F00020530093CDF804904FF6FF73224679686E
:103400003869FFF7C7FF054620B199F80030112B46
:1034100004D001203437BD46BDE8F08F99F8013063
:103420007B61A3F104085FFA88F809F102064FF006
:10343000020A4FF6FF7BAA4504DB4FF6FF739B455C
:10344000D5D0E6E7FB68D3B9302035F0D7FB31465D
:10345000728831F8043B009204464246FEF7E2FBD4
:1034600021463868FEF76CFB74887B690134A4B28E
:10347000002C08BF4FF0000B9A441E44DBE7B868ED
:1034800000F060F94045EFD1B86800F059F94246C4
:103490000146301D3DF074FC0028D5D0E4E71FB58F
:1034A000ADF80B30BDF81830ADF80D300824079B8F
:1034B000ADF8092000930DEB040207238DF80840B6
:1034C000FFF77AFE04B010BD2DE9F04F8DB0838870
:1034D00004AF07333A61DB086A46A2EBC303C7E9CE
:1034E00005109D463869FEF742FB0DF11009F860A2
:1034F0004FF00008FB68984546DA41463869FEF708
:1035000038FBF861FEF7A8FB0646F869FEF7A6FB54
:10351000B86042F60303CDF804900093BB683246CE
:10352000D7E90510FFF7BBFF054670B399F80030E7
:10353000092B26D199F801A0AAF10503DBB27B6023
:1035400009F102044FF0020BAB45E2DA382035F006
:1035500055FBB4F803300293A378019323880093BA
:103560000646611D7B697A68FEF718F93146F869ED
:10357000FEF786FBB4F803600136B6B2D344544478
:10358000E2E708F10108B5E701202437BD46BDE8B0
:10359000F08F2DE9F04799460446FEF71FFD4FF6E0
:1035A000FF739842054604D14FF000084046BDE83D
:1035B000F08701462046FFF748FE80460028F3D0FA
:1035C000A389AB4230D0A38BAB422FD0A38DAB42AB
:1035D000EAD1022604EB0616B36933B9102035F0A0
:1035E0000DFB0746FEF7A2FAB761B669002EDBD0E5
:1035F0003046B9F1000F1BD1FEF7DCFA4B463246DC
:1036000029462046FFF7DAFE0028CDD0324629466B
:103610002046FFF759FF0028C6D0324629462046EB
:10362000BDE8F047FFF731BE0026D3E70126D1E71A
:10363000FEF79DFA002782465745DFDA39463046C5
:10364000FEF797FAFEF79EF849463EF069FA002821
:10365000ACD00137F0E71FB50A24ADF80D20009378
:1036600003AA03238DF80C40FFF7A6FD04B010BD9C
:1036700070B5C4B00E469DF82041ADF80D20122162
:1036800005468DF80C10224619460DF10F003DF04D
:1036900085FB499B009303AAE31C31462846FFF7AC
:1036A0008BFD44B070BD000010B5054C2046FEF700
:1036B00077FB2046034A0449BDE8104035F08FB837
:1036C000800A002000020020491D010073B500257A
:1036D00004460E4640F8041B10222946ADF804505B
:1036E0008DF806503DF082FB257530463EF046FAD7
:1036F000451E002D237D19DB0F2B1FD8735D2D2B4D
:1037000002D10135023DF4E77219002112F8012CB3
:103710008DF8042001A810228DF805303EF0BCFA87
:10372000237DE218013310712375EBE7032B34BFBF
:10373000022310232046237502B070BD1023F9E741
:1037400004307047007D70472DE9F047144C8046E7
:103750004D1E4FF4AA594FF02D0A6A1C1AD018F8C2
:10376000057010222146380902F030FF1022611C3A
:1037700007F00F0002F02AFF0C2D04F1020606DC10
:1037800029FA05F3DB0744BFE61C84F802A0013DDB
:103790003446E2E7002323700148BDE8F08700BF0C
:1037A000DC0A002038B5A022114D124B03600283C1
:1037B0000023012204468380C0E90233C0E90433B8
:1037C0008276C0E90833C0E90A33C0E90C332946E0
:1037D000383002F03CFE294604F1440002F037FE86
:1037E000294604F1500002F032FE204638BD00BFE9
:1037F000606B0500203805000079704770B50546FC
:1038000098B006A8AA7E00230693838022B96B692C
:10381000002B14BF022303232A8B002107242971C4
:103820000491CDE90204CDE900114848114600F0A9
:10383000E7FC10B1002018B070BD4FF48173A96887
:10384000ADF8203006238DF8223000296ED010A864
:10385000FFF73CFF10A8FFF775FF431C02288DF807
:10386000233004468CBF0623022310A88DF8243091
:10387000FFF766FF224601460DF125003DF08EFA66
:10388000631DDBB2296A11B36A6A002A1FDDD01CEE
:1038900098421CDA18A8D6B21844F41C00F8404C20
:1038A000581C18AC54FA80F0162400F8404C0DF166
:1038B000600C981C5CFA80F0AC8B20F8404C1C1D0E
:1038C000E4B208AB18193DF069FA3319DBB208AA63
:1038D00019461E4800F0BAFC0028ABD16C69002CD8
:1038E00032D020463EF04AF91D2893BF02461D22E1
:1038F00008230923D6B28DF841302146731C0DF1FF
:1039000042008DF840303DF049FAB11CC9B210AA0E
:103910000E4800F0B7FC00288CD101210B4800F0C4
:10392000CDFC002886D12871012084E7E96849B1DF
:103930002A693AB1D4B2631C8DF82330FF238DF885
:10394000243099E703239DE72146E0E7CC0C0020D3
:1039500073B5012206460D460D48002100F086FE93
:1039600000241023CDE900441A460121084800F044
:1039700065FE58B90121717185EA0102044800F021
:1039800075FEB0FA80F0400902B070BD2046FBE73A
:10399000CC0C00208183C0E9082370477FB5836D7C
:1039A00004460D4683B10B6801A89B69984701A99D
:1039B00004F1500002F0C6FD064601A802F001FD28
:1039C00016B9002004B070BD236C73B1294601A85C
:1039D000FDF7DEF901A904F1380002F094FD064676
:1039E00001A802F0EEFC002EEBD0E36C83B1294677
:1039F00001A8FDF743FA01A904F1440002F0A2FD79
:103A0000044601A802F0DDFC201C18BF0120D9E704
:103A10000120D7E703688B4208D9436800228A4215
:103A200002D05B680132FAE71868704700207047DF
:103A300070B50446406800252368AB4206D9466845
:103A4000082135F00DF901353046F5E70023C4E9CA
:103A50000033A36070BD000010B50A4B044640F867
:103A6000503B02F0AEFC04F1440002F0AAFC04F169
:103A7000380002F0A6FC04F12C00FFF7D9FF204625
:103A800010BD00BF2038050010B50446FFF7E4FF65
:103A900020465C2135F0E4F8204610BD70B50022C8
:103AA000054611460B48002400F0E0FD05F12C0608
:103AB0006C71EB6A9C4209D221463046FFF7AAFF9F
:103AC00010B103685B6898470134F2E73046FFF7AE
:103AD000AFFF70BDCC0C002003688B4270B504466C
:103AE0001AD90022406813468A42456803D003462B
:103AF00001322846F8E7066863B96560A268824229
:103B000008BFA360082135F0ABF82368013B2360B0
:103B1000304670BD5D60F1E70026F9E72DE9F04120
:103B2000064694B00F46002401F12C08FB6A9C4223
:103B300029D221464046FFF76DFF0546FDF725FADD
:103B4000F8B1294601A8FDF74DFB21464046FFF795
:103B5000C3FF1DB12B6828465B68984701A938460A
:103B6000FFF71CFF50B101A93046FDF73BFB01A850
:103B7000FDF756F8304614B0BDE8F08101A8FDF716
:103B80004FF80134D2E73046FDF7DEF8F2E72DE9D1
:103B9000F04F9B46ABB043799DF8D0809DF9D8900B
:103BA00004460F46924613B3856A25B3032921D1F3
:103BB0005A46514604A8FDF7D7F8CDF80090359B3A
:103BC0004246394604A8FDF7BAF904A92046FFF792
:103BD000E5FE48B104A917A8A46AFDF703FB17A8DE
:103BE000A04717A8FDF71CF804A8FDF719F82BB09B
:103BF000BDE8F08F002504F12C03E26A95420DD256
:103C0000184629460393FFF705FF5A4651460646D4
:103C1000FDF785F9039B002838D0BEB9E36A042B71
:103C2000E5D84C2034F0EAFF5A4651460646FDF7E7
:103C30009BF8082034F0E2FF0023C0E90063236B07
:103C400033BB2063E56A60636B1CE362042F22D000
:103C5000CDF80090359B424639463046FDF76FF966
:103C60003046FDF792F90028C1D0A36A002BBED0E0
:103C7000314604A8FDF7B6FA294604F12C00FFF7F7
:103C80002BFF336830465B6898479EE70135B4E701
:103C9000636B5860D6E74B46359A41463046FDF790
:103CA0005FF9DDE710B5054C2046FFF77BFD2046A8
:103CB000034A0449BDE8104034F091BD040B0020D4
:103CC00000020020593A01002DE9F347214B03601F
:103CD0000446002500F11006C0E90155C56004F155
:103CE000400A1D493046FDF79BFC00951423022233
:103CF0001A495046FDF7B0FA04F1940902231A4616
:103D000004F1E807009516494846FDF7A5FA04F5C1
:103D10008C7814493846FDF783FC0423202212498D
:103D200000954046FDF798FA3046FDF7C5F938464C
:103D3000FDF7C2F951463046FDF799FC4946304639
:103D4000FDF795FC38464146FDF791FC204602B050
:103D5000BDE8F087543805003038050035380500D7
:103D60003A3805003F3805004438050007B50222FF
:103D7000ADF8061094300DF10601FDF7B3F903B06C
:103D80005DF804FB4068704770B504464068002544
:103D90002368AB4206D94668082134F061FF01353B
:103DA0003046F5E70023C4E90033A36070BD08B5D1
:103DB0000430FFF7E9FF08BD03688B4208D9436868
:103DC00000228A4202D05B680132FAE71868704725
:103DD0000020704708B50430FFF7EEFF08BD2DE95D
:103DE000F8430025074688462C4600F104097B6805
:103DF0009D4210D229464846FFF7DEFF03689B68C4
:103E000006469847B0F5205F02D0B04503D026465D
:103E100001353446EBE720463CB1FDF74AF902286C
:103E2000204604D1FDF742F90088BDE8F883FDF78C
:103E30003DF94089F9E7F8B507460024061D7B687F
:103E40009C420FD221463046FFF7B6FF0546FDF7EC
:103E500038F9002804DC1DB12B6828465B689847B8
:103E60000134ECE73046FFF78FFFF8BD38B5044664
:103E700008200D4634F0C2FE0023C0E900536368F9
:103E80002BB960602368A0600133236038BDA3684C
:103E90005860F7E72DE9F84F05460C46084605F14E
:103EA0000408FDF709F921464046FFF7DFFFB5F8A2
:103EB00004B000272046FDF7CAFBB8422DD9394689
:103EC0002046FDF7C6FB0646FDF7F6F831464046AC
:103ED000FFF7CCFFA9883046FDF76BF93146404625
:103EE000FFF7C4FF4FF000093046FDF76AF9484577
:103EF00011D949463046FDF766F98246FDF7DCF8F0
:103F000051464046FFF7B2FFA9885046FDF7C2FA76
:103F100009F10109E8E70137CCE7AA8859462046AC
:103F2000BDE8F84FFDF78CBB10B50C490446403096
:103F3000FDF72CF900212046FFF718FF2046FFF778
:103F40007AFF04F110012046FFF7A4FF04F1E80115
:103F50002046BDE81040FFF79DBF00BF2838050090
:103F600010B5054C2046FFF7AFFE2046034A044932
:103F7000BDE8104034F033BC600B0020000200208C
:103F8000853F01000F4B10B504460360FFF753FF58
:103F900004F58C70FDF7B2F904F1E800FDF792FB2F
:103FA00004F19400FDF7AAF904F14000FDF7A6F929
:103FB00004F11000FDF786FB201DFFF7E5FE20460B
:103FC00010BD00BF5438050010B50446FFF7DAFFF6
:103FD00020464FF4B67134F043FE204610BD7047C2
:103FE00010B54FF40871044634F03AFE204610BD77
:103FF00000238360024B186803681B68184700BFE2
:10400000C4380500024B186803685B68184700BF96
:10401000C438050032B190F81D319342C6BF9A1AD8
:10402000D2B2002280F81D21704700002DE9F04136
:104030000546406816461C46E0B102F044F9DFF838
:1040400038802644A64268680CD014F8017B0F2FF4
:1040500002D8414602F037F910223946686802F06A
:10406000A4F9EFE702F036F968680368BDE8F041AB
:10407000DB681847BDE8F0811D3905002DE9F041E6
:104080000D46114682B00B3101F4FC7100AF0446BD
:10409000ADEB010D01203871A7F80550FA716846A3
:1040A000796840F8041B1946161D3CF077FE6368DA
:1040B000E8462BB16B46F2B214492046FFF7B6FF33
:1040C000134B1868036832469B69414698474FF680
:1040D000FF73A4F80E314FF0FF33C4F8103102F033
:1040E000ADFA00F57A76B4F80E31AB4207D002F0A3
:1040F000A5FAB04203D2204600F0E6F9F3E7D4F87F
:1041000010010837BD46BDE8F08100BF6F380500DB
:10411000C438050000231A4640F60341FFF7AEBF3E
:10412000F8B51C4600230E46154641F201011A4619
:104130000746FFF7A3FF70B9D7F818311A78327025
:10414000B3F801202A80DA782270069A99881180C3
:10415000DA88079B1A80F8BD38B500230C461A464A
:1041600041F209010546FFF789FF28B9D5F8183152
:104170001A6822609B88A38038BD13B50222ADF86F
:1041800006100DF1060341F205410446FFF776FFE4
:1041900050B9D4F81831BDF806201988914203D1DE
:1041A00093F9020002B010BD7F20FBE707B540F68F
:1041B0000141CDE900236B460822FFF75FFF03B002
:1041C0005DF804FBF8B500230D46174642F20201E4
:1041D0001A460646FFF752FF044668B9D6F818316A
:1041E00006481A882A809B783B7086F81C312988FB
:1041F000093989B2FDF7FAFD2046F8BD800A002092
:104200001FB5089C8DF804309DF818308DF80530E6
:104210009DF81C308DF806302368CDF80730A38850
:10422000ADF80B309DF824308DF80D309DF8283016
:10423000ADF80010ADF802208DF80E300F226B465D
:1042400042F20601FFF71AFF04B010BDF0B52024BA
:1042500089B00D46064617460021224668463CF0C6
:10426000C5FD2A4639460DF101008DF800503CF09D
:1042700095FD6B46224642F208013046FFF7FEFEEE
:1042800009B0F0BDF0B5202489B00D4606461746AA
:104290000021224668463CF0A9FD2A4639460DF128
:1042A00001008DF800503CF079FD6B46224642F249
:1042B00009013046FFF7E2FE09B0F0BD07B5012263
:1042C0008DF807100DF1070342F20A01FFF7D6FE41
:1042D00003B05DF804FB000070B51378052B86B0C1
:1042E0000546144613D1B4F8031052793E48FDF741
:1042F000AFFDB4F8031062793C48C9B200F04CFC41
:104300003B48012106B0BDE87040FFF7D7BF0E2B38
:104310000FD1B2F80330A0F80E315379C0F8103144
:1043200053780634043B80F81431C0F8184106B0C5
:1043300070BD0F2B09D19388A0F80E319378C0F887
:104340001031002380F81431F1E7132B0DD196784A
:1043500002EB8606A642EAD0B4F80520B4F80310B2
:104360002846FFF757FE0434F4E73E2BDFD193785D
:10437000012B23D1D378002BD9D1137D0493538AF9
:104380000393138A0293D389174802F10805CDE9F4
:104390000053D379A1889279FDF72AFD237D0493F8
:1043A000638A0393238A0293E3891048CDE900537B
:1043B000E379A279A18800F0C7FBB8E7022BB6D158
:1043C000D378012BB3D1137B0A481A4492F90D20FC
:1043D000029204F10D02CDE90032A31D6279217928
:1043E000FFF7D5FBA3E700BF800A0020D010002014
:1043F000CC0C0020040B0020304B2DE9F04104468A
:104400001D6819B12B6828469B6898472C4FDFF828
:10441000B48000262B682846DB68984700284BD0DC
:104420002B6828465B699847A3685A1C2344C1B28D
:10443000A2601973237B022B1BD1052AEADD217CA4
:10444000E37B03EB012304339A42E3DD636833B17A
:1044500004F10C03D2B241462046FFF7E7FDA16804
:10446000A660013904F10D02C9B2204600F082F8BD
:10447000D0E7042B18D1032ACCDDA37B02339A4268
:10448000C8DD636833B104F10C03D2B2394620466B
:10449000FFF7CCFDA168A660013904F10D02C9B295
:1044A0002046FFF719FFB5E76068A6600028B1D085
:1044B000102201F07CFFADE7BDE8F081C4380500B3
:1044C00095380500823805000021FFF795BF0000F0
:1044D0002DE9F04784B0044600AF8A4691461D4658
:1044E00094F81D2194F81C319A4203D32046FFF71B
:1044F000EBFFF5E705F1100303F4FC73ADEB030DDF
:1045000002233B712B1DDBB2A7F80730A7F80B90F5
:10451000A7F805A0A7F809503B1D03CB2A461B7836
:10452000009001910DF10900396B8DF808303CF0D5
:1045300035FC636805F10906E8462BB16B46F2B21B
:104540000A492046FFF772FD94F81D31013384F8C3
:104550001D31074B1868036832469B6941469847EE
:1045600000201037BD46BDE8F08700BF5C3805006D
:10457000C4380500F0B5154616885288AB88111F5F
:10458000994287B004464FEA163609D0012E00F54D
:104590008F771DD000F10D01043238463CF0FEFB50
:1045A0006A88AB88043A9A4210D1E888298883B295
:1045B000042BC1F30B011CD1012ED2B20CBF04F5A8
:1045C000937304F115031B48FEF736FD07B0F0BDE9
:1045D000B0F8200100F5917004F1110120443CF085
:1045E000DDFB6A88B4F820311344A4F820313D463D
:1045F000D6E7052B06D104F11503D2B20E4800F020
:1046000005FBE3E700220392ADF8142001228DF8A8
:104610000C20062203ABADF80E200222ADF81020CC
:10462000ADF81200009305220A232046FFF750FF41
:10463000CCE700BF800A0020D010002007B5ADF8FD
:1046400003309DF810308DF805309DF814308DF84A
:104650000010ADF801208DF8063007226B4642F2BB
:104660000B01FFF70BFD03B05DF804FB07B58DF8F8
:1046700004108DF8052001AB022242F20C01FFF775
:10468000FDFC03B05DF804FB10B588B00B9C8DF801
:1046900008309DF828308DF809302368CDF80A30AD
:1046A000A388ADF80E309DF830308DF81030BDF88D
:1046B0003430ADF81130BDF83830ADF81330BDF8F6
:1046C0003C30ADF81530BDF84030ADF81730BDF8CE
:1046D0004430ADF81930BDF84830ADF80410ADF8ED
:1046E0000620ADF81B30192201AB42F20D01FFF795
:1046F000C5FC08B010BD00231A4642F20E01FFF7B8
:10470000BDBC1FB5ADF80430BDF81830ADF80630AB
:10471000BDF81C30ADF808300423ADF80A3006238C
:10472000ADF80010ADF80220ADF80C300E226B464B
:1047300042F21301FFF7A2FC05B05DF804FB07B5D8
:1047400013238DF80630ADF8041001AB032240F2BC
:104750000641FFF793FC03B05DF804FB0548064BE8
:104760000360064A06490023C0E9013380F81D3181
:1047700034F035B8CC0C0020B03805000002002021
:10478000DF3F01007047D0F80831D0F80C01181A4B
:1047900048BF00F580707047D0F80C21D0F8083180
:1047A0009A421DBFD0F80C31C018007A4FF0FF308C
:1047B0007047D0F80C21D0F808319A420BD0D0F8CD
:1047C0000C3103441A7AD0F80C310133DBB2C0F853
:1047D0000C31104670474FF0FF30704710B54FF462
:1047E0008871044634F03CFA204610BD2DE9F04FA4
:1047F00089B002A803F037F802A802F0AFFF002446
:10480000254642F2107AA34602A802F0F4FF2418CB
:1048100041EB050502A802F0F8FF42F210720023F6
:10482000204629463BF0F2FC50B115F047F82046EF
:1048300029464FF47A7200233BF0E8FC14461D46EB
:1048400015F014FA01A832F0CFFE15F005FA8046F3
:1048500001A832F0D1FE02A802F0CDFFB8F1000F9E
:10486000D2D0002342F20F728B4208BF8242CBD3D8
:10487000BAEB00066BEB01074FF47A720023304667
:1048800039463BF0C3FC994600239046BB4240F2B8
:10489000E73208BFB24208D24FF47A7200233046A2
:1048A00039463BF0B3FC36F03DFE58EA0903ABD085
:1048B000404634F0EDFAA7E710B50446044836F058
:1048C000FBFE30F0AFFF04F0BBFF0023237110BDEF
:1048D0001010002010B50368DB680C46984738B903
:1048E0000123224619460348BDE8104034F028BB96
:1048F00010BD00BFFC0F0020F8B50079C0B1013A2F
:10490000D4B20D46102C2046B8BF102015F8016B0C
:1049100014F0A2FE2946224607463CF03FFA30F04A
:1049200081FF4069036822461D6931463B46A8471E
:10493000F8BD03681847000038B5114B1A78EAB97A
:104940000122104D1A70104C03682B608168436877
:10495000007B236014F0C4FD83B223B95C220B49B1
:104960000B4833F01DFB2B6880B203442B60236897
:10497000181A2060BDE8384014F072BF38BD00BF7F
:10498000CC100020481F0020441F0020C83805001C
:104990000F39050030B5002489B0C0F80841C0F8CF
:1049A0000C41054630F03EFF036801469B686846AF
:1049B00098476846FFF7C0FF30F034FF04F034FF3B
:1049C00030F030FF0368DB6898470C4B07930C4BC3
:1049D0000C48069404A9CDE9043436F009FE079B7F
:1049E00013B19B6804A8984730F01CFF064805F0F7
:1049F000BBF80120287109B030BD00BFB8380500F0
:104A0000ED47010010100020A54A0100704700008A
:104A100038B504460025074B036005714FF48072DA
:104A2000294608303CF0E2F9C4F808512046C4F8A1
:104A30000C5138BD2839050070B4D0F80841D0F8C1
:104A40000C319C42ADBFD0F80831D0F80C31D0F811
:104A50000841D0F80C41ABBFC3F1FF031B1B1B196E
:104A600003F1FF339A4218DC0024A24210DDD0F893
:104A70000831D0F80C510133DBB2AB4206D0D0F88C
:104A800008510E5D05442E72C0F808310134ECE780
:104A90000121034870BC34F035BA70BC704700BFC8
:104AA000FC0F00200A4601460148FFF7C5BF00BFC2
:104AB000EC0E002073B5184C184E204634F012FA54
:104AC0002046174C17493246002533F088FE164B16
:104AD0002561294604F14000236034F0E1FA04F135
:104AE000540034F07BFA2B46204600954FF4805258
:104AF000182136F071FD20460C4C0D49324633F03A
:104B00006EFE2046FFF784FF0A493246204602B077
:104B1000BDE8704033F063BEFC0F002000020020AF
:104B2000101000200B8F04004C750500EC0E0020C7
:104B3000FDB6040085470100704710B50821044602
:104B400034F08EF8204610BD10B586B0012ABDF8AD
:104B500024401AD18288C2B1C388B3B1A24201D81D
:104B6000A34212D20020ADF8140009480390ADF81A
:104B70001230C82003ABADF81600ADF8102000933A
:104B800005220C230348FFF7A3FC06B010BD00BFAD
:104B900012010800CC0C00207047000030B585B031
:104BA000072B0D46089C2CD90023ADF80C308DF84E
:104BB0000920132382888DF808300223ADF80A30CB
:104BC00052B1C38843B12188914202D362889A428C
:104BD00002D90123ADF80C3002AB00930522062365
:104BE00029460948FFF774FCBDF80C304BB9E3883F
:104BF0000193A38800936388228803482946FFF71E
:104C000080FD05B030BD00BFCC0C0020032A37B5B5
:104C10001C460CD95B881D1DAA4208D12278122A95
:104C200005D1221D0092DBB26278FFF7B7FF03B017
:104C300030BD00000448054B036000234360044A74
:104C4000044933F0CCBD00BFD0100020543905001A
:104C500000020020394B010030B5A1F110040025FD
:104C600000F00F02D3B2092ACCBF373330338B7335
:104C7000CD7302398C424FEA1010F1D130BD2220A1
:104C80007047000030B5012185B0192001F036FDD4
:104C90000121192001F09CFD204A0023D3604FF030
:104CA00080420121C2F85C3503F1804303F588336B
:104CB0004FF48032C3F848232120C3F8082301F0C1
:104CC0001DFD0121202001F019FD0121212001F00D
:104CD0007FFD0121202001F07BFD114B01221A6094
:104CE000104A1368002BFCD00F4B0024C3F800457A
:104CF000C3F800450D4B0FCB6D4685E80F002346EA
:104D000020464FF0FF3155F8042B0133042BC2F835
:104D10000005C2F86015F6D105B030BDF0ED00E039
:104D20000420004044210040002000405C39050080
:104D300038B54FF0805504462146D5F8A800FFF756
:104D40008BFFD5F8A40004F11001FFF785FF2020A8
:104D500038BD000072B64FF08043B022C3F81C2566
:104D6000BFF34F8F0549064BCA6802F4E062134354
:104D7000CB60BFF34F8F00BFFDE700BF00ED00E049
:104D80000400FA050020704710B50446806920B180
:104D90000368DB6898470023A36110BD70470120BA
:104DA0007047D0F82031D0F82401181A48BF00F518
:104DB00080707047D0F82421D0F820319A421DBF6E
:104DC000D0F82431C01890F820004FF0FF30704721
:104DD000D0F82421D0F820319A420CD0D0F82431D8
:104DE000034493F82020D0F824310133DBB2C0F81B
:104DF0002431104670474FF0FF30704770B503689C
:104E00001446DB690546984704F47063B3F5407FA8
:104E100004F0F0030CBF0721082104F00F02302B2F
:104E20000CBF02230123012A07D0901E42424241B7
:104E3000A869BDE8704002F027BA0222F8E7000036
:104E400070B5836988B004460E4663B94FF480702C
:104E500033F0D4FE3346054694F91D2094F91C1016
:104E600002F0CAFDA56194F91E20531C05D094F9E7
:104E70001F30A069032102F0CFFDA569B5B10C4B2D
:104E8000079300260B4B01940293039601AB93E822
:104E9000070004AC84E8070032462146284602F0A9
:104EA0002CFA079B13B19B682046984708B070BD49
:104EB0006C390500B94E010013B50446A06902F033
:104EC000FAF9C0B1A069036801225B690DF107011D
:104ED0009847D4F82031D4F824210133DBB293422F
:104EE000ECD0D4F820219DF80710224482F820103D
:104EF000C4F82031E2E702B010BD13B504468DF8C6
:104F00000710A06902F0E8F90028FAD0A069036848
:104F100001221B690DF107019847013018BF0120DC
:104F200002B010BD70B504460E461546A06902F0E9
:104F3000D3F90028FAD0A069D0F8FC3001211B6B0E
:104F4000FC309847A06903682A461B693146984798
:104F5000431C14BF2846002070BD10B4D0E90134B2
:104F600001686210E40701EB020048BF8A585DF84F
:104F7000044B48BFD358184770B5FFF780FE50B3B5
:104F8000164B93F90060164CFFF779FE012888BF95
:104F9000124B4FF000054FF47A7288BF93F910302E
:104FA0002677C4E901520F4A226098BF4FF0FF33C1
:104FB0002022C4E9052563774FF480724FF6FF7312
:104FC000294604F12000E3833BF010FFC4F8205190
:104FD000C4F8245170BD4FF0FF36D4E7040200201E
:104FE000D81000208039050038B50546064B45F835
:104FF000283B044602F0E4FA2846FBF741F9204634
:1050000002F066FC204638BD6C3E0500002070476B
:105010007047704710B5D0F88C452CB123682046F6
:105020005B689847A468F8E710BD38B5D0F88C45A0
:105030000D4634B1236820469B6829469847A468EA
:10504000F7E738BD00487047403A050010B5054BFA
:105050000360044603F0DBFF204603F0F1FF204627
:1050600010BD00BFC039050010B50446FFF7EEFFC4
:1050700020464FF4B26133F0F3FD204610BDF7B582
:10508000D0F88C4505460E460023A4B1236831466E
:10509000DF680DF1030201AB2046B8479DF803100D
:1050A0000429034605D0019A284603F00DFA03B0FF
:1050B000F0BDA468E9E7019A9DF80310F4E770B524
:1050C00005460E4622B10021BDE8704002F0F2BF55
:1050D000D0F88C455CB1236800221B69314620461C
:1050E000984710B101212846EEE7A468F2E721466F
:1050F000F9E770B5D0F88C450E46054600213CB165
:105100002368314620465B699847A4680146F6E764
:105110002846BDE8704003F0CDB8F8B5D0F88C450E
:1051200005460E4617463CB1236820469B693A4621
:1051300031469847A468F6E728460121BDE8F840C3
:1051400003F016B970B5002186B0044603F0B8FB31
:105150000023ADF806304FF489712389ADF80410AF
:10516000ADF81030022140F201238DF80710ADF8A0
:10517000123040F2EF2140F203136268ADF80810DC
:10518000ADF81430012104F10A038DF80A108DF8EE
:105190000B00039201AD05AE1C462A4603CAB2427B
:1051A00018605960154603F10803F6D112881A8079
:1051B000204606B070BD2DE9F041002406460D469C
:1051C0004F1CA04630463CF0D9FCA04206D9335DC6
:1051D00005F8143007F814800134F3E7400000F0BC
:1051E000FE00BDE8F08138B5D0F88C55044635B1E5
:1051F0002B6828461B6A984710B9AD68F7E7284620
:1052000040F20233A4F8483504F24A51FFF7D3FFC5
:1052100094F84835184484F8480504F5A96038BD69
:1052200040F2023310B500F20A510446A0F80835E6
:105230000548FFF7C0FF94F80835184484F80805BE
:1052400004F5A16010BD00BFAC39050040F2023387
:1052500010B50446A0F8C83400F2CA40FFF768FD54
:1052600094F8C834184484F8C80404F5996010BD53
:105270002DE9FF4100238DF80A3090F888351A4A4D
:105280008DF80830012301928DF809303222C023B5
:105290008DF80B308DF80C2001AB044600F54E78EC
:1052A00003CBC4F83803C8F8041088F80820D4F8F1
:1052B0008C5509268DB12B6800211B68284698471C
:1052C000478806F54E73093F00F109013A46E01898
:1052D0003BF064FD3E44AD68ECE74046A4F83A6319
:1052E00004B0BDE8F08100BF0902FFFF73B50446BA
:1052F0000D46164636F0FAFB4FF4807300930146D4
:1053000033462A46204603F0A3FA024B2360204688
:1053100002B070BDC0390500D0F88C355BB9C0F85B
:105320008C1590F888354A790B71134480F88835CC
:105330000120704713469A68002AFBD19960F0E774
:105340001FB5044603F07EFA0146684602F020FCD1
:105350004021684602F08CFCD4F88C4534B12368B7
:105360002046DB6969469847A468F7E7684602F07B
:1053700016FC04B010BD10B50446FFF7E1FF20464F
:10538000BDE8104003F0CEB910B50D4C2378BFF343
:105390005B8FDB0712D4204633F034FA70B148F249
:1053A0005A0242F241310748FFF7A0FF204633F08E
:1053B0004BFA054A0549034833F011FA014810BD7C
:1053C0000412002008120020000200204D500100AD
:1053D00010B5FFF7D9FF0368BDE810405B6F1847B1
:1053E00010B5FFF7D1FF0368BDE810409B6F184769
:1053F00010B5FFF7C9FF0368BDE81040DB6F184721
:1054000002F084BD02F046BD02F070BD70477047E7
:105410007047436A93F870007047D0F89C04704757
:1054200000487047983B05002DE9F041044694B0D0
:105430000D464B22002101A83BF0D8FCD4F89C3447
:10544000002B14BF4FF005084FF00008002D40F06E
:10545000898009254FF481708DF815500425217934
:10546000ADF808008DF81650802001258DF80B004E
:105470008DF8195040F632008DF81C508DF81D80C3
:1054800042F2054540F2015894F80EE0ADF80C00E8
:1054900040F202264B1C40F209220B20ADF81E50B0
:1054A000ADF82280ADF82C50DFF8BC80ADF80420B8
:1054B0000625DBB24B228DF80E008DF80F1002206E
:1054C000ADF810608DF81710ADF81A60CDF8248093
:1054D00010268DF82E508DF82F10072505218DF8F8
:1054E00033E0DFF8888094F80CC0677B8DF80620E5
:1054F00044F2030E8DF812008DF821608DF83030E3
:105500008DF83210CDF828808DF83150ADF834E0A8
:105510008DF83A3040F60223ADF83C3044F20203F5
:10552000ADF844301D3440F207538DF837608DF8E4
:105530004210ADF848308DF84B00402340F2094648
:1055400001A92046ADF838608DF841508DF843C070
:105550008DF84A708DF84C303BF020FC204614B09A
:10556000BDE8F0810020FAE72401030104240206CB
:105570000A4B10B503600446FFF706FF03F047FD32
:1055800004F5227002F00EFC04F1740002F00AFC33
:1055900004F1680002F006FC204610BD5C3B0500EB
:1055A00010B50446FFF7E4FF20464FF4946133F052
:1055B00057FB204610BDFFF71BBF000010B5034B83
:1055C0000360044602F06CFA204610BD883A0500DC
:1055D00010B50446FFF7F2FF2046282133F040FBC8
:1055E000204610BD10B5034B0360044602F058FA84
:1055F000204610BD583A050010B50446FFF7F2FFEB
:105600002046342133F02CFB204610BD10B5034B4F
:105610000360044602F044FA204610BD703A0500CB
:1056200010B50446FFF7F2FF2046382133F018FB8F
:10563000204610BD38B51C4B0D461968C0F80F1038
:1056400099889B7943750446A0F8131040220221E3
:10565000284602F003FB402220730221284602F074
:1056600002FB402260730321284602F0F7FAA07380
:10567000284602F095FA20B9B6220C490C4832F0BF
:105680008FFC002304F17D02C4E9A02304F29122DF
:1056900084F8703084F87C3084F89032C4F8942414
:1056A000C4F8983438BD00BFA43A0500E03A0500BC
:1056B000403B05002DE9F34104460E461546FFF731
:1056C00097FEF28823799A4237D1002D35D1777829
:1056D000012F2ED1F378202B27D13289072A24D10C
:1056E00004F10F0804F11605294640463BF048FB3B
:1056F000D0B1D4F81630C4F80F30638BA4F813304F
:10570000237F6375E17B237CA07CE27C009201EB2C
:105710000321637C627D01EB0341236801EB00619F
:105720001D6B237D2046A8473D46F378212B08BFFB
:105730000125284602B0BDE8F0810025F9E710B543
:105740000446FFF755FEFFF71FFE217B03F0FCFA2E
:1057500004F17D03C4F880320023C4F8843284F855
:105760007C3004F1740002F0D2FA94F87C302BB94A
:10577000236820469B6BBDE81040184710BD000011
:1057800070B50446FFF734FED4F898542DB14FF4A9
:10579000F1720F490F4832F003FC04F29123C4F870
:1057A0009434FFF7F1FD617B03F02CFA84F89052FA
:1057B000C4F8980404F5227002F0A9FA94F8903223
:1057C0002BB9236820465B6BBDE87040184770BD5D
:1057D000E03A0500B03A050010B4D0E901340168A0
:1057E0006210E40701EB020048BF8A585DF8044BE1
:1057F00048BFD35818470000F0B505468DB008AC37
:10580000FFF7F6FD0026FFF7BFFDA97B00940323F9
:1058100040220B9602F0A0FF2046FAF731FDFFF779
:10582000B3FD1D4B0595CDE9063605AB844693E8DF
:1058300007001A4F0B97022384E80700297B009486
:105840004022604602F088FF2046FAF719FDFFF774
:105850009BFD134B0295CDE9033602AB844693E8DA
:1058600007000B97022384E80700697B00946046D9
:10587000402202F071FF2046FAF702FDFFF784FD97
:105880004FF40073D5F89424697B03F05DF901208F
:1058900085F890020DB0F0BD3F570100983A050021
:1058A0008157010038B502234371002383600C4BFC
:1058B000044640F8683B154602F01CFA04F17400F7
:1058C00002F018FA04F5227002F014FAC4F89C549D
:1058D000FFF75AFD2146FFF71FFD204638BD00BFE8
:1058E0005C3B050070B504460D46FFF781FD84F86A
:1058F0007050002D3ED194F87C3033B1FFF744FD59
:10590000217B02F0F9FF84F87C5004F17D0304F15F
:10591000740600253046C4F88032C4F8845202F080
:10592000F6F9304602F0ECF928B91549154840F26D
:10593000491232F035FB94F8903233B1FFF724FD71
:10594000217B02F0D9FF84F8905204F29123C4F82D
:10595000943404F5227500232846C4F8983402F0E4
:10596000D6F9284602F0CCF920B940F25312044986
:105970000548DEE704F16800BDE8704002F0C7B9F1
:10598000E03A0500BE3A0500CF3A050010B50446DE
:10599000FFF72EFD20460021BDE81040FFF7A2BF13
:1059A00038B50D460446FFF723FD042D05D02046EB
:1059B0000021BDE83840FFF795BF38BDF8B5154662
:1059C00004460E461F46FFF713FD04232B70F28892
:1059D00023799A421DD1717801291AD1F278212AAE
:1059E00008D0222A0BD0202A4FF0000013D12870B3
:1059F000163401E029700F343C600720F8BDB388ED
:105A000013F0010308BF19462046FFF76BFF02237E
:105A10002B700020F2E703232B70EFE710B58AB05C
:105A20000446FFF7D5FC684602F02EF80A4B0093B7
:105A3000694604F16800099402F081F92046FFF7F5
:105A4000CFFC064B00211A68684602F067F86846EA
:105A5000FFF7B4FD0AB010BD883A0500AC3A050066
:105A600070B58EB0154604460E46FFF7B1FC01A88E
:105A700002F00AF80E4B0C9501A9002504F1740000
:105A80000193CDE90A468DF8345002F058F92046CA
:105A9000FFF7A6FC074B29461A6801A802F03EF85A
:105AA00001A89DF83440FFF79DFD20460EB070BD63
:105AB000583A0500AC3A050010B50446FFF798FCCB
:105AC00094F87C307BB9D4F8843263B1FFF75CFC86
:105AD000D4F88432217B04F17D0203F0D3F810B1B5
