:100000000C9462000C948A000C948A000C948A0070
:100010000C948A000C948A000C948A000C948A0038
:100020000C948A000C948A000C94C20B0C94830CE0
:100030000C948A000C94FC0C0C945A0C0C948A00BE
:100040000C94590A0C948A000C94270A0C94010A07
:100050000C948A000C948A000C948A000C948A00F8
:100060000C94A30A0C948A000000000024002700CE
:100070002A0000000000250028002B0000000000DE
:1000800023002600290004040404040404040202DA
:100090000202020203030303030301020408102007
:1000A0004080010204081020010204081020000012
:1000B0000008000201000003040700000000000027
:1000C00000002F0D11241FBECFEFD8E0DEBFCDBF43
:1000D00014E0A0E0B1E0EEE9F9E302C005900D9272
:1000E000A039B107D9F726E0A0E9B4E001C01D921C
:1000F000A53BB207E1F710E0C2E6D0E004C02197CB
:10010000FE010E94931BC136D107C9F70E947E0DE4
:100110000C94CD1C0C940000982F2091FB0581E0DD
:10012000213208F043C08091D7058111FCCF809126
:10013000FA0532E03093D7059093D6059FEF909360
:10014000D5051092D4052093D305AAEDB5E0E3EBD5
:10015000F5E090E0291331C01092B2059091B205FC
:10016000880F892B8093B2058091B105813049F5C4
:100170001092B1058091B2058093BB008091BC00C4
:1001800083FDF8CF85EC8093BC008091D705823049
:10019000E1F38091D5058F3FB1F08091D505803294
:1001A000A1F08091D505803391F084E01092D905BB
:1001B0001092FB051092D80508953D9131939F5FF1
:1001C000C9CF85EEE0CF80E0F1CF82E0EFCF83E0D2
:1001D000EDCF1F93CF93DF93162FC5EAD6E0AC8106
:1001E000BD819B8121E02093D8059093FA05109260
:1001F000D9051092FB05ED91FC9111970190F081CA
:10020000E02D682FCD0109958C819D81DC01ED9158
:10021000FC910190F081E02D612F099581E00E9411
:100220008C0081E0DF91CF911F9108959091D705C7
:100230009111FCCF91E09093D7059093D6052FEFC5
:100240002093D5051092D405260F2093D3059093C3
:10025000B2059091B205880F892B8093B2058091E9
:10026000B1058130F9F41092B1058091B205809307
:10027000BB008091BC0083FDF8CF85EC8093BC006F
:100280008091D7058130E1F38091D405861710F471
:100290006091D405A3EBB5E0E1E9F5E080E08613D9
:1002A00003C0089585EEEACF9D9191938F5FF7CFBC
:1002B00008950895AF92BF92CF92DF92EF92FF928E
:1002C0000F931F93CF93DF936C017B018B01040F7E
:1002D000151FEB015E01AE18BF08C017D10759F01A
:1002E0006991D601ED91FC910190F081E02DC6015C
:1002F0000995892B79F7C501DF91CF911F910F9156
:10030000FF90EF90DF90CF90BF90AF900895FC01E9
:10031000538D448D252F30E0842F90E0821B930B6A
:10032000541710F0CF96089501970895FC01918D10
:10033000828D981761F0A28DAE0FBF2FB11D5D9613
:100340008C91928D9F5F9F73928F90E008958FEFB5
:100350009FEF0895FC01918D828D981731F0828D69
:10036000E80FF11D858D90E008958FEF9FEF0895C0
:10037000FC01918D228D892F90E0805C9F4F821B24
:1003800091098F73992708958CEF95E00E94B80129
:1003900021E0892B09F420E0822F089580E090E08D
:1003A000892B29F00E94C40181110C94000008954A
:1003B000FC01A48DA80FB92FB11DA35ABF4F2C91DA
:1003C000848D90E001968F739927848FA689B789D1
:1003D0002C93A089B1898C91837080648C93938DC8
:1003E000848D981306C00288F389E02D80818F7D6B
:1003F00080830895EF92FF920F931F93CF93DF9323
:10040000EC0181E0888F9B8D8C8D98131AC0E88950
:10041000F989808185FF15C09FB7F894EE89FF891F
:100420006083E889F98980818370806480839FBFBD
:1004300081E090E0DF91CF911F910F91FF90EF90BD
:100440000895F62E0B8D10E00F5F1F4F0F731127CD
:10045000E02E8C8D8E110CC00FB607FCFACFE88908
:10046000F989808185FFF5CFCE010E94D801F1CFB7
:10047000EB8DEC0FFD2FF11DE35AFF4FF0829FB77C
:10048000F8940B8FEA89FB8980818062CFCFCF936C
:10049000DF93EC01888D8823B9F0AA89BB89E889AC
:1004A000F9898C9185FD03C0808186FD0DC00FB652
:1004B00007FCF7CF8C9185FFF2CF808185FFEDCFD0
:1004C000CE010E94D801E9CFDF91CF91089583300A
:1004D00081F028F4813099F08230A9F008958730B6
:1004E000A9F08830C9F08430B1F4809180008F7D0C
:1004F00003C0809180008F7780938000089584B539
:100500008F7784BD089584B58F7DFBCF8091B00037
:100510008F778093B00008958091B0008F7DF9CFE0
:100520001F93CF93DF93282F30E0F901E255FF4F5F
:100530008491F901E656FF4FD491F901EA57FF4F34
:10054000C491CC23A9F0162F81110E946702EC2FD1
:10055000F0E0EE0FFF1FEE58FF4FA591B4918FB75B
:10056000F894EC91111108C0D095DE23DC938FBF75
:10057000DF91CF911F910895DE2BF8CF1092900557
:1005800010928F051092D9051092FB051092D70595
:1005900081E08093D6051092B10561E082E10E946E
:1005A000900261E083E10E949002E9EBF0E080813B
:1005B0008E7F808380818D7F808388E48093B800E4
:1005C00085E48093BC0088E591E090938E0580934C
:1005D0008D0589E591E090938C0580938B050895B6
:1005E000CF93DF9390E0FC01E656FF4F24918A57AA
:1005F0009F4FFC0184918823D1F090E0880F991FD0
:10060000FC01E859FF4FA591B491FC01EE58FF4F52
:10061000C591D49161110EC09FB7F8948C91E22FCF
:10062000E0958E238C932881E223E8839FBFDF919E
:10063000CF9108958FB7F894EC91E22BEC938FBF94
:10064000F6CF3FB7F8948091DD049091DE04A0913D
:10065000DF04B091E00426B5A89B05C02F3F19F038
:100660000196A11DB11D3FBFBA2FA92F982F882732
:10067000BC01CD01620F711D811D911D42E0660F0D
:10068000771F881F991F4A95D1F708958F929F92DF
:10069000AF92BF92CF92DF92EF92FF924B015C013B
:1006A0000E9421036B017C010E9421036C197D09CA
:1006B0008E099F09683E734081059105A8F321E0EA
:1006C000821A9108A108B10888EEC80E83E0D81EEE
:1006D000E11CF11C81149104A104B10429F7FF90DD
:1006E000EF90DF90CF90BF90AF909F908F90089544
:1006F000E5EAF6E082879387682F8DE390E00E9419
:10070000E9006EE170E080E090E00C94460308950B
:10071000089585ED8093BC008091BC0084FDFCCFE2
:100720001092D70508952091B504260F3327331F63
:1007300021323105ECF42091D705FC0190E080E0F6
:10074000243069F082E00895A091B5042191AC01B4
:100750004B565B4FA40FB52FB11D2C9301968617F6
:1007600098F38091B504680F6093B50480E0089514
:1007700081E008950895E091900580918F05E81734
:1007800030F4F0E0EF56FA4F808190E008958FEF5B
:100790009FEF08959091900580918F052FEF3FEF87
:1007A000981748F4E92FF0E0EF56FA4F208130E037
:1007B0009F5F90939005C901089580918F05909156
:1007C0009005891B990B0895CF92DF92EF92FF92CB
:1007D0000F931F93CF93DF937C01CB018A0120916C
:1007E000D805222389F0EB016B01C40ED51ECC1570
:1007F000DD0569F06991D701ED91FC910190F081DF
:10080000E02DC7010995F3CF642F0E949303C8011F
:10081000DF91CF911F910F91FF90EF90DF90CF90DC
:100820000895CF93DF931F92CDB7DEB769832091F0
:10083000D8052223F9F02091FB05203258F021E061
:1008400030E0FC013383228390E080E00F90DF9161
:10085000CF9108958091D905E82FF0E0E652FA4F44
:10086000998190838F5F8093D9058093FB0581E008
:1008700090E0ECCF61E0CE0101960E949303F7CFA8
:1008800090E080E00895FC0101900020E9F73197A5
:10089000AF01481B590BBC018CEF95E00C945A0139
:1008A00084ED91E00C9443048F929F92AF92BF929B
:1008B0000F931F93CF93DF93CDB7DEB7A1970FB6FA
:1008C000F894DEBF0FBECDBF19A2423008F44AE053
:1008D0008E010F5D1F4F842E912CB12CA12CA501F0
:1008E00094010E945D1BE62FB901CA01EA30F4F4BD
:1008F000E05DD801EE938D01232B242B252B79F776
:1009000090E080E0109719F0CD010E944304A19679
:100910000FB6F894DEBF0FBECDBFDF91CF911F9110
:100920000F91BF90AF909F908F900895E95CE1CFB9
:10093000CF92DF92EF92FF92CF93DF934A3051052F
:10094000F1F44AE097FF1BC06B017C016DE28CEF74
:1009500095E00E94FA01EC0166277727CB016C191C
:100960007D098E099F094AE00E9454048C0F9D1F47
:10097000DF91CF91FF90EF90DF90CF900895DF91BE
:10098000CF91FF90EF90DF90CF900C945404AB0187
:10099000BC01990F880B990B0C949804CF93DF93AB
:1009A0000E94C704EC010E9450048C0F9D1FDF9130
:1009B000CF910895462F682F70E090E080E00C946E
:1009C0005404CF93DF930E94DA04EC010E94500498
:1009D0008C0F9D1FDF91CF910895CF93DF930E94DD
:1009E0004304EC010E9450048C0F9D1FDF91CF91B6
:1009F00008950C944304FF920F931F93CF93DF93BA
:100A0000F0905901C5EAD6E00A851B8590E080E0A8
:100A10000E94780369E170E080E090E00E94460364
:100A20006F2D81E490E00E94E9006AE070E080E0D0
:100A300090E00E944603C8010E94780364E170E0E0
:100A400080E090E00E944603109117050A84DB8540
:100A5000C02D90E080E00E94780369E170E080E0C2
:100A600090E00E944603612F82E490E00E94E9003A
:100A70006AE070E080E090E00E944603CE010E94B0
:100A8000780364E170E080E090E00E94460387ED27
:100A900091E00E94F9046AE070E0809159010E949F
:100AA000DA0488EE91E00E94F90460E170E0809140
:100AB00059010E94DA0482EF91E00E94F90460E19A
:100AC00070E0809117050E94DA0486ED91E0DF91D5
:100AD000CF911F910F91FF900C94ED044F925F9274
:100AE0006F927F928F929F92AF92BF92CF92DF923E
:100AF000EF92FF920F931F93CF936B017C01742EA3
:100B0000AC019B010E94441B882399F08BEF91E07C
:100B1000CF911F910F91FF90EF90DF90CF90BF90FA
:100B2000AF909F908F907F906F905F904F900C94BC
:100B3000430446015701E894B7F82FEF3FEF4FE722
:100B40005FE7C501B4010E94441B81110DC02FEF66
:100B50003FEF4FE75FE7C501B4010E941B1918166C
:100B60001CF48FEF91E0D4CF2FEF3FEF4FE75FE41E
:100B7000C701B6010E94D21A18161CF483E092E055
:100B8000C7CF2FEF3FEF4FE75FECC701B6010E94E1
:100B90001B1987FDF3CF20E030E0A901C701B601A2
:100BA0000E941B1910E000E087FF0AC06DE28CEF85
:100BB00095E00E94FA018C01F7FAF094F7F8F094AE
:100BC000C0E060E070E080E09FE37C1641F020E050
:100BD00030E040E251E40E942019CF5FF6CFA70138
:100BE00096010E94AF182B013C010E9499194B01FC
:100BF0005C014AE00E9454047C01E00EF11ECC230B
:100C0000C1F1C501B4010E94C8199B01AC01C30127
:100C1000B2010E94AE184B015C016EE28CEF95E0D0
:100C20000E94FA01E80EF91EC15018F120E030E0F0
:100C300040E251E4C501B4010E94D71A2B013C01E6
:100C40000E9499194B01B12CA12C4AE0C501B401B5
:100C50000E945404E80EF91EC501B4010E94C8198F
:100C60009B01AC01C301B2010E94AE184B015C01B3
:100C7000DBCFC701CF911F910F91FF90EF90DF90D5
:100C8000CF90BF90AF909F908F907F906F905F902C
:100C90004F90089542E00C946E05CF93DF93C5EA20
:100CA000D6E0AC81BD819B8121E02093D805909353
:100CB000FA051092D9051092FB05ED91FC91119760
:100CC0000190F081E02D682FCD01099581E00E940F
:100CD0008C0061E08B810E94160110929005809338
:100CE0008F058C819D81DC01ED91FC910284F3855F
:100CF000E02D0995DF91CF9108958F929F92AF9249
:100D0000BF92CF92DF92EF92FF920F931F93CF93F8
:100D1000DF93CDB7DEB762970FB6F894DEBF0FBE94
:100D2000CDBF6C018B01FB01349680E2DF011D9287
:100D30008A95E9F784E290E0A0E0B0E0FB018083CF
:100D40009183A283B383F60186819781A085B185C3
:100D5000FB0184839583A683B78383E090E0A0E0C2
:100D6000B0E080879187A287B3872FB7F8948091EE
:100D7000D9049091DA04A091DB04B091DC042FBF78
:100D8000808B918BA28BB38B8CE0FE013196DF01BF
:100D90001D928A95E9F77E01BDE0EB0EF11C86E01D
:100DA000F70111928A95E9F7D60114968D919C91DD
:100DB000159713962C9131E03093D8052093FA05BE
:100DC0001092D9051092FB05DC01ED91FC91019088
:100DD000F081E02D6AE1099581E00E948C0066E0D7
:100DE000F60183810E9416011092900580938F0571
:100DF0005E01F3E1AF0EB11CD60114968D919C916A
:100E0000DC01ED91FC910284F385E02D0995F70159
:100E100081937F01EA15FB0579F76D857E85072EA5
:100E2000000C880B990B0E94CA1920E030E040E8C2
:100E30005DE30E94D71A4B015C016F857889072E0C
:100E4000000C880B990B0E94CA1920E030E040E8A2
:100E50005DE30E94D71A6B017C0169897A89072EAC
:100E6000000C880B990B0E94CA1920E030E040E882
:100E70005DE30E94D71AD80154968D929D92AD924F
:100E8000BC925797F801C08ED18EE28EF38E5C969D
:100E90006D937D938D939C935F9781E062960FB6DF
:100EA000F894DEBF0FBECDBFDF91CF911F910F91A0
:100EB000FF90EF90DF90CF90BF90AF909F908F907A
:100EC00008950C94351C0F931F93CF93DF938C01DF
:100ED000EB0188E2FB0111928A95E9F74BE050E0C3
:100EE00067E072E0CE010E94BE1C1B8681E090E0AC
:100EF000A0E0B0E08C879D87AE87BF87F801868130
:100F00009781A085B185888B998BAA8BBB8B83E059
:100F100090E0A0E0B0E08C8B9D8BAE8BBF8B1CA2D1
:100F20001DA21EA21FA2188E198E1A8E1B8E1C8E39
:100F30001D8E1E8E1F8E8AE097EDA3E2BCE388A370
:100F400099A3AAA3BBA3DF91CF911F910F910895FD
:100F50000F931F93CF93DF93CDB7DEB7A8970FB64C
:100F6000F894DEBF0FBECDBF0E94BE0290E080E0CD
:100F70000E944D06803A89F068EE73E080E090E0D0
:100F80000E94460390E080E00E944D06803A29F0DE
:100F90008EE092E00E94ED04FFCF90E080E00E949E
:100FA000780360E28FE390E00E94E9006EE170E078
:100FB00080E090E00E94460390E080E00E944D06B1
:100FC000803A29F06AE070E080E090E0F3CF62E3DD
:100FD00070E080E090E00E94460360E08EE390E0E5
:100FE0000E94E9006AE070E080E090E00E94460321
:100FF00060E087E090E00E94E90060E08FE390E02D
:101000000E94E9006AE070E080E090E00E94460300
:101010008CE090E00E94780364E170E080E090E072
:101020000E9446030091AF061091B00690E080E068
:101030000E94780369E170E080E090E00E9446033E
:1010400060E087E090E00E94E90060E88FE390E0D4
:101050000E94E9006AE070E080E090E00E944603B0
:10106000C8010E94780364E170E080E090E00E9493
:101070004603BE016F5F7F4F85EA96E00E946307DB
:101080008BE492E00E94ED0480E792E00E94F90474
:10109000CE0101960E94ED048FE792E00E94F904D0
:1010A0006D857E858F8598894AE050E00E9498047E
:1010B0000E9450048EE892E00E94F90469897A89BE
:1010C0008B899C894AE050E00E9498040E94500459
:1010D0008DE992E00E94F904698D7A8D8B8D9C8D4B
:1010E0000E944A0686ED91E00E94ED048CEA92E0AF
:1010F0000E94F9046D8D7E8D8F8D98A10E944A0605
:1011000086ED91E00E94ED048BEB92E00E94F904E1
:1011100069A17AA18BA19CA10E944A0686ED91E06B
:101120000E94ED048BE492E00E94ED040E94FB0417
:101130008AEC92E00E94F90484EE92E00E94F904A5
:1011400060E170E0809159010E94E10487ED92E036
:101150000E94F9048091170560E170E0082E000CF0
:10116000990B0E94CE04A8960FB6F894DEBF0FBE6E
:10117000CDBFDF91CF911F910F9108950C94A018CE
:10118000CF93DF9320E030E048EC52E460918A0195
:1011900070918B0180918C0190918D010E94D71AE2
:1011A0000E94991981E090E00E94BE0820E030E0A2
:1011B00048EC52E46091860170918701809188012A
:1011C000909189010E94D71A0E94991982E090E0BB
:1011D0000E94BE086091180585E090E00E94BE085C
:1011E00060916D0187E090E00E94BE0860916E0101
:1011F00088E090E00E94BE0820E030E040E251E448
:1012000060917A0170917B0180917C0190917D01C8
:101210000E94D71A0E94991989E090E00E94BE08A6
:1012200020E030E040E251E460917A0170917B016E
:1012300080917C0190917D010E94D71A0E949219A1
:10124000672F8AE090E00E94BE0820E030E040E294
:1012500051E46091760170917701809178019091CD
:1012600079010E94D71A0E9499198BE090E00E94A0
:10127000BE0820E030E040E251E4609176017091D8
:10128000770180917801909179010E94D71A0E948C
:101290009219672F8CE090E00E94BE0820E030E0B9
:1012A00040E251E460917201709173018091740188
:1012B000909175010E94D71A0E9499198DE090E0D3
:1012C0000E94BE0820E030E040E251E460917201EB
:1012D0007091730180917401909175010E94D71AE9
:1012E0000E949219672F8EE090E00E94BE086091E4
:1012F000670180E190E00E94BE086091680181E191
:1013000090E00E94BE086091610182E190E00E943D
:10131000BE086091620183E190E00E94BE08609186
:10132000690184E190E00E94BE0860916A0185E154
:1013300090E00E94BE0860916B0186E190E00E94FF
:10134000BE0860916C0187E190E00E94BE08609148
:10135000630188E190E00E94BE086091640189E128
:1013600090E00E94BE08609165018AE190E00E94D1
:10137000BE08609166018BE190E00E94BE0860911A
:101380005D018CE190E00E94BE0860915E018DE1FC
:1013900090E00E94BE0860915F018EE190E00E94A3
:1013A000BE08609160018FE190E00E94BE08CAE52E
:1013B000D1E0688180E290E00E94BE08698181E20C
:1013C00090E00E94BE086A8182E290E00E94BE081E
:1013D0006091590183E290E00E94BE086091170578
:1013E00084E290E00E94BE0868E090E080E00E9405
:1013F000BE0888EE92E0DF91CF910C94ED040C943E
:1014000098181F920F920FB60F9211242F933F93AB
:101410004F935F936F937F938F939F93AF93BF93FC
:10142000EF93FF938CEF95E00E94D801FF91EF912D
:10143000BF91AF919F918F917F916F915F914F91EC
:101440003F912F910F900FBE0F901F9018951F92F4
:101450000F920FB60F9211242F938F939F93EF93B8
:10146000FF93E0910C06F0910D068081E091120649
:10147000F091130682FD1BC09081809115068F5F4D
:101480008F7320911606821741F0E0911506F0E067
:10149000E450FA4F958F80931506FF91EF919F913D
:1014A0008F912F910F900FBE0F901F9018958081F4
:1014B000F4CF1F920F920FB60F9211242F933F93E8
:1014C0008F939F93AF93BF938091D9049091DA0447
:1014D000A091DB04B091DC043091D80423E0230F09
:1014E0002D3758F50196A11DB11D2093D804809386
:1014F000D9049093DA04A093DB04B093DC048091C8
:10150000DD049091DE04A091DF04B091E004019627
:10151000A11DB11D8093DD049093DE04A093DF0430
:10152000B093E004BF91AF919F918F913F912F9124
:101530000F900FBE0F901F90189526E8230F02966C
:10154000A11DB11DD2CF1F920F920FB60F92112481
:101550002F933F934F935F936F937F938F939F93BB
:10156000AF93BF93EF93FF938091B900887F80364C
:1015700009F44AC0F0F5883209F4A7C018F58031A3
:1015800009F49BC0B8F4882309F4F9C0883009F441
:1015900094C0FF91EF91BF91AF919F918F917F91F7
:1015A0006F915F914F913F912F910F900FBE0F90D0
:1015B0001F901895883109F488C0803251F78093C4
:1015C000D50514C0803409F49DC040F48033B9F3CC
:1015D0008833F9F68093D50585ECB0C0803509F4E1
:1015E00085C0883509F496C0883499F60E9489032D
:1015F000D0CF883909F48CC038F5883729F050F4F9
:10160000883611F0803729F683E08093D705109251
:10161000D70457C0883809F47BC0803919F0803866
:1016200009F0B7CF8091D704803208F071C0E09103
:10163000D70481E08E0F8093D7048091BB00F0E047
:10164000E954FB4F80833DC0803B39F0E0F4803AA1
:1016500009F479C0883A09F09CCF84E08093D705DB
:101660001092B6041092B504E0918D05F0918E05AC
:1016700009958091B50481110FC081E08093B50474
:101680001092950409C0803C09F4A6CF883C09F467
:10169000A3CF883B09F07DCFE091B60481E08E0FA7
:1016A0008093B604F0E0EB56FB4F80818093BB0043
:1016B0009091B6048091B50429C08091B2058093C1
:1016C000BB0085EC8093BC0064CF9091D4058091E1
:1016D000D305981758F5E091D40581E08E0F8093DB
:1016E000D405F0E0ED54FA4F8081E9CFE091D405C4
:1016F00081E08E0F8093D4058091BB00F0E0ED5423
:10170000FA4F80839091D4058091D3059817C8F241
:1017100085E8D8CFE091D40581E08E0F8093D40581
:101720008091BB00F0E0ED54FA4F80838091D605A4
:1017300081115CCF81E08093B10584EA8093BC0085
:101740001092D70526CF85EC8093BC001092D70568
:101750008091D704803230F4E091D704F0E0E9546E
:10176000FB4F10826091D70470E0E0918B05F091FF
:101770008C0587EB94E009951092D7040ACF10925C
:10178000D50534CF1F920F920FB60F9211242F93CD
:101790003F934F935F938F939F93AF93BF93EF9339
:1017A000FF9380916F008F7D80936F008091810007
:1017B0008091810090E48927809381008091860048
:1017C000909187002091910430919204AC0182178E
:1017D000930750F545535045421B530B50939404C7
:1017E00040939304909392048093910420919304E6
:1017F000309194042D3755E13507E8F010929004AC
:1018000080916F00806280936F00FF91EF91BF9194
:10181000AF919F918F915F914F913F912F910F9039
:101820000FBE0F901F901895421B530B50939404BA
:1018300040939304D7CFE0919004E4319CF5283E87
:1018400083E03807E8F2203A4FE0340758F58E2F4E
:101850000E2E000C990B019640915A01481719065B
:1018600079F240915B014817190651F240915C01F1
:101870004817190629F2EF5FE09390040E2E000C32
:10188000FF0BE257FE4FE08154E0E59FF001112489
:10189000E35FFE4FC901B0E0A0E080839183A283A3
:1018A000B383AECF293E334008F4AACFEF5FE09375
:1018B0009004A6CF1F920F920FB60F9211248F9310
:1018C0009F93AF93BF9316BC81E0809308058091EE
:1018D000860590918705A0918805B091890540966D
:1018E000A11DB11D8093860590938705A09388055F
:1018F000B0938905BF91AF919F918F910F900FBECB
:101900000F901F9018951F920F920FB60F921124EF
:101910002F933F934F935F936F937F938F939F93F7
:10192000AF93BF93EF93FF938091880090918900CC
:101930008B3C9F4A91F480EC8093800081E08093FF
:10194000000180E293E09093890080938800809169
:101950008100877F8093810022C0809100018130C7
:1019600019F480E480938000409100014131D0F56A
:10197000E42FF0E0CF01019762E070E00E94491B84
:101980000197F1F48091880090918900805E9C4FCE
:1019900090938900809388004F5F40930001FF91EE
:1019A000EF91BF91AF919F918F917F916F915F91D7
:1019B0004F913F912F910F900FBE0F901F90189550
:1019C00080918800909189003196F595E795EE0F0A
:1019D000FF1FEE0FFF1FE35FFE4F20813181820F5B
:1019E000931FD6CF8BEC9FEA909389008093880059
:1019F000809181008860AECF1F920F920FB60F9238
:101A000011242F933F934F935F936F937F938F9303
:101A10009F93AF93BF93EF93FF9384E894E00E946A
:101A2000F904FF91EF91BF91AF919F918F917F91B9
:101A30006F915F914F913F912F910F900FBE0F903B
:101A40001F901895CF93DF9342E00E946E05EC0142
:101A50000E9450048C0F9D1FDF91CF910895ECEFF1
:101A6000F5E01382128248EE53E060E070E04483B8
:101A700055836683778386EA91E09183808385EC42
:101A800090E09587848784EC90E09787868780EC48
:101A900090E0918B808B81EC90E0938B828B82EC39
:101AA00090E0958B848B86EC90E0978B868B118EE3
:101AB000128E138E148EA9E9B6E013961C921E9214
:101AC000129714964D935D936D937C93179788EBC3
:101AD00091E011969C938E93E5EAF6E08AEC91E012
:101AE000918380834FEF5FEFBA014683578360870E
:101AF000718788E28383B583A4830895CF93DF93AE
:101B0000CDB7DEB7C654D1090FB6F894DEBF0FBE0D
:101B1000CDBF789484B5826084BD84B5816084BD76
:101B200085B5826085BD85B5816085BD80916E007B
:101B3000816080936E0010928100809181008260AC
:101B400080938100809181008160809381008091E9
:101B500080008160809380008091B10084608093D8
:101B6000B1008091B00081608093B00080917A00D4
:101B7000846080937A0080917A00826080937A00FA
:101B800080917A00816080937A0080917A008068E9
:101B900080937A001092C100E0910C06F0910D063E
:101BA00012E01083E0910C06F0910D061082E09196
:101BB0000806F09109061082E0910A06F0910B06E2
:101BC00080E1808310921406E0911006F0911106D6
:101BD00086E08083E0910E06F0910F06808180619F
:101BE0008083E0910E06F0910F06808188608083EB
:101BF000E0910E06F0910F06808180688083E0916D
:101C00000E06F0910F0680818F7D808361E089E070
:101C10000E94F00261E082E00E94900261E083E0B5
:101C20000E94900260E080E00E94F00260E081E0AB
:101C30000E94F00260E082E00E94F00260E083E037
:101C40000E94F00260E086E00E94F00260E087E01F
:101C50000E94F00260E088E00E94F00260E08BE009
:101C60000E94F00261E08BE00E94900260E080E060
:101C70000E94900260E081E00E94900261E082E0B8
:101C80000E94900261E083E00E94900261E08DE09A
:101C90000E94F00261E08DE00E94900268EC70E02A
:101CA00080E090E00E94460360E08DE00E94900298
:101CB00080E4809380008AEC8093810010928200FF
:101CC00010936F0080E293E09093890080938800E6
:101CD0000E94BE0290E080E00E94FF09883041F03F
:101CE00088EF92E00E94ED040E94A8070E94C008BD
:101CF00081E090E00E94FF09682F70E090E080E0B2
:101D00000E94C81920E030E048EC52E40E942019FB
:101D100060938A0170938B0180938C0190938D0165
:101D200082E090E00E94FF09682F70E090E080E080
:101D30000E94C81920E030E048EC52E40E942019CB
:101D40006093860170938701809388019093890145
:101D500081E0809371018093700180936F0185E031
:101D600090E00E94FF0980FF03C09FEF90937101F4
:101D700081FF03C09FEF9093700182FF03C08FEF3C
:101D800080936F0187E090E00E94FF09182F88E0A0
:101D900090E00E94FF0990E0982F8827810F911D05
:101DA00090936E0180936D0189E090E00E94FF099D
:101DB000182F8AE090E00E94FF09682F70E0762FCC
:101DC0006627610F711D072E000C880B990B0E946E
:101DD000CA1920E030E040E251E40E9420196093EB
:101DE0007A0170937B0180937C0190937D018BE05D
:101DF00090E00E94FF09182F8CE090E00E94FF09FC
:101E0000682F70E0762F6627610F711D072E000C7A
:101E1000880B990B0E94CA1920E030E040E251E49F
:101E20000E94201960937601709377018093780166
:101E3000909379018DE090E00E94FF09182F8EE0C9
:101E400090E00E94FF09682F70E0762F6627610FEF
:101E5000711D072E000C880B990B0E94CA1920E0F7
:101E600030E040E251E40E942019609372017093C7
:101E70007301809374019093750180E190E00E945A
:101E8000FF09182F81E190E00E94FF0990E0982F50
:101E90008827810F911D909368018093670182E1EB
:101EA00090E00E94FF09182F83E190E00E94FF0953
:101EB00090E0982F8827810F911D90936201809365
:101EC000610184E190E00E94FF09182F85E190E014
:101ED0000E94FF0990E0982F8827810F911D909311
:101EE0006A018093690186E190E00E94FF09182F42
:101EF00087E190E00E94FF0990E0982F8827810FEA
:101F0000911D90936C0180936B0188E190E00E9499
:101F1000FF09182F89E190E00E94FF0990E0982FB7
:101F20008827810F911D90936401809363018AE15A
:101F300090E00E94FF09182F8BE190E00E94FF09BA
:101F400090E0982F8827810F911D909366018093D0
:101F500065018CE190E00E94FF09182F8DE190E06F
:101F60000E94FF0990E0982F8827810F911D909380
:101F70005E0180935D018EE190E00E94FF09182FC1
:101F80008FE190E00E94FF0990E0982F8827810F51
:101F9000911D9093600180935F0180E290E00E9428
:101FA000FF0980935A0181E290E00E94FF0980932B
:101FB0005B0182E290E00E94FF0980935C0183E272
:101FC00090E00E94FF09809359010E94A80781E0D8
:101FD00080939B018093E10482E084BD85E085BD10
:101FE00083E080936E0080E888BD87BDBE016F5F8F
:101FF0007F4F7EA76DA73324339422242A94E9EBE4
:10200000F0E08491E5EAF0E00491E1E9F0E0149178
:10201000111165C080918A05882309F474C08091EC
:102020008505811118C08091860590918705A09142
:102030008805B09189058D3D9540A105B10558F001
:1020400081E090918405911180E080938405309225
:102050009B01309285058CEF95E00E94B801892B99
:1020600009F409C210918305111106C0AEE1B5E073
:10207000E4E61D92EA95E9F780911D05813011F0A3
:102080000C9469188CEF95E00E94960151E0510F75
:1020900050938305E12FF0E0E25EFA4F80835E30DB
:1020A00009F03EC080912A05833409F039C080913F
:1020B0002B058834A9F5AEE1B5E080E0ED918F5FA6
:1020C000EE3334F40E2E000CFF0BE25AFE4F8083E9
:1020D0008D30A1F78BE193E00E94ED04C8C181111E
:1020E0000E946702E12FF0E0EE0FFF1FE458FF4F60
:1020F000A591B4918C91082309F48CCF1092850599
:1021000010928A05A8CF30929B01109286051092FA
:102110008705109288051092890530928A057FCF35
:10212000252F30E0C901825E9A4FFC013297408131
:10213000483409F04AC531966081653409F045C5D7
:10214000553008F44BC090E080E024303105E9F0D0
:10215000EEE1F5E0B9018FEF9FEF419150E018E01B
:10216000DA01A82796958795A0FF04C0A8E08A27E2
:10217000A4E89A2756954795115091F76150710937
:102180006430710551F78095909590931C0580936C
:102190001B05265E3A4FF9018081918190931A05C3
:1021A000809319052091190530911A0580911B051E
:1021B00090911C0528173907B1F084E393E00E9441
:1021C000ED0480E090E0892B09F419CF0E94C4014E
:1021D000882309F412CF0E9400000DCF10921C0535
:1021E00010921B05DFCF8CE393E00E94ED04ADA5B8
:1021F000BEA5ECE21D92EA95E9F7209183052450F3
:10220000330B10E050E040E0812F90E082179307FD
:1022100024F5825E9A4FDC018C918C3221F44F5F61
:102220005F4F1F5FF1CFFA01EE0FFF1F61E070E01B
:102230006C0F7D1FE60FF71FA081B1819AE09A9F76
:10224000B0019B9F700D1124082E000C990BC097B4
:10225000860F971F91838083E4CF69817A81072E4F
:10226000000C880B990B0E94CA1920E030E048EC62
:1022700052E40E94201960938A0170938B0180932D
:102280008C0190938D016B817C81072E000C880B53
:10229000990B0E94CA1920E030E048EC52E40E94F9
:1022A0002019609386017093870180938801909331
:1022B00089016D817E81072E000C880B990B0E948D
:1022C000CA1920E030E048EC52E40E9420196093E3
:1022D00082017093830180938401909385016F81C3
:1022E0007885072E000C880B990B0E94CA1920E0F4
:1022F00030E048EC52E40E94201960937E01709314
:102300007F01809380019093810169857A85072EF2
:10231000000C880B990B0E94CA1920E030E040E2C3
:1023200051E40E94201960937A0170937B0180939D
:102330007C0190937D016B857C85072E000C880BBA
:10234000990B0E94CA1920E030E040E251E40E945B
:1023500020196093760170937701809378019093B0
:1023600079016D857E85072E000C880B990B0E94E4
:10237000CA1920E030E040E251E40E942019609345
:1023800072017093730180937401909375018F852E
:1023900080931805309271013092700182FD12C451
:1023A00030926F0181FD2092700180FD20927101B9
:1023B00089899A8990936E0180936D018B899C899C
:1023C00090936C0180936B018D899E8990936A0133
:1023D000809369018F89988D90936801809367013C
:1023E000898D9A8D90936601809365018B8D9C8D6C
:1023F00090936401809363018D8D9E8D9093620113
:10240000809361018F8D98A19093600180935F010B
:1024100089A19AA190935E0180935D018BA1809325
:102420005A018DA180935B018FA180935C0189A5E6
:10243000809359018BA58093170589E593E00E944D
:10244000F9046AE070E0809159010E94DA0487E69D
:1024500093E00E94F9046AE070E0809117050E9401
:10246000DA0486ED91E00E94ED040E94FB041092D4
:10247000830510921D0580910805813009F0A1CED9
:102480008091840581119DCE62EE74E085EA96E02C
:102490000E947D066091FE047091FF04809100050A
:1024A000909101056FA778AB89AB9AAB609351010E
:1024B000709352018093530190935401C090F6049D
:1024C000D090F704E090F804F090F9044090FA04FA
:1024D0005090FB046090FC047090FD044092550104
:1024E00050925601609257017092580180919B0161
:1024F0008130F1F410929B01409213055092140523
:102500006092150570921605C0920F05D0921005C5
:10251000E0921105F09212058FA598A9A9A9BAA970
:1025200080930B0590930C05A0930D05B0930E05B9
:102530006091130570911405809115059091160511
:102540006FAB78AF89AF9AAF80910B0590910C0576
:10255000A0910D05B0910E058BAF9CAFADAFBEAF96
:1025600020910F05309110054091110550911205F1
:10257000C701B6010E94AE1820E030E044E353E406
:102580000E94AF186BAB7CAB8DAB9EAB20E030E014
:1025900044EB53E40E9420190E94051A23966CAF65
:1025A0007DAF8EAF9FAF239720E030E044E353E44C
:1025B000C701B6010E94AF186B017C0120E030E03A
:1025C00044EB53E40E9420190E94051A20E030E0F9
:1025D00044EB53E40E94D71A9B01AC01C701B6013A
:1025E0000E94AE1820E030E044E353E40E94AE18AD
:1025F00060934D0170934E0180934F019093500171
:102600008091E104882309F417C2C0908A01D09018
:102610008B01E0908C01F0908D01A701960160E0A4
:1026200070E080E89FE30E94AE184B015C012091AE
:10263000090130910A0140910B0150910C010E9457
:10264000D71A27966CAF7DAF8EAF9FAF27972FA974
:1026500038AD49AD5AADC301B2010E94AE18A70111
:1026600096010E94D71A9B01AC0127966CAD7DADF7
:102670008EAD9FAD27970E94AF182B013C01409271
:10268000490150924A0160924B0170924C01409274
:10269000090150920A0160920B0170920C01209185
:1026A0000501309106014091070150910801C501D3
:1026B000B4010E94D71A4B015C012BAD3CAD4DAD6E
:1026C0005EAD6FA578A989A99AA90E94AE18A70145
:1026D00096010E94D71A9B01AC01C501B4010E946A
:1026E000AF186FA778AB89AB9AAB60934501709335
:1026F00046018093470190934801609305017093D0
:1027000006018093070190930801C0908601D09044
:102710008701E0908801F090890120E030E044EBEF
:1027200053E423966CAD7DAD8EAD9FAD23970E9493
:10273000D71A9B01AC016BA97CA98DA99EA90E9407
:10274000AE1820E030E044E353E40E94AE18A70145
:1027500096010E94D71A4B015C01A701960160E027
:1027600070E080E89FE30E94AE1820910101309153
:10277000020140910301509104010E94D71A9B016C
:10278000AC01C501B4010E94AF186B017C01C0927D
:102790004101D0924201E0924301F0924401C09283
:1027A0000101D0920201E0920301F09204016091D4
:1027B0006F01062E000C770B880B990B0E94CA192B
:1027C000A70196010E94D71A2091760130917701D6
:1027D00040917801509179010E94D71A6B017C01D8
:1027E00060916D0170916E01072E000C880B990BA2
:1027F0000E94CA199B01AC01C701B6010E94AF1823
:102800006B017C0160916B0170916C01072E000CD3
:10281000880B990B0E94CA195B018C019B01AC01CA
:10282000B601C7010E941B1987FD02C0560187012E
:102830006091690170916A01072E000C880B990B59
:102840000E94CA196B017C019501A8010E941B1905
:1028500087FD02C06501780100915A0194E0099F4B
:1028600080011124035F1E4FB601C7010E94921917
:10287000D8016D937D938D939C9313976091710113
:10288000062E000C770B880B990B0E94CA19A30126
:1028900092010E94D71A20917A0130917B014091D8
:1028A0007C0150917D010E94D71A6B017C016091DF
:1028B000670170916801072E000C880B990B0E942C
:1028C000CA199B01AC01C701B6010E94AF186B0188
:1028D0007C016091650170916601072E000C880BE8
:1028E000990B0E94CA195B018C019B01AC01B601D6
:1028F000C7010E941B1987FD02C056018701609124
:10290000630170916401072E000C880B990B0E94E3
:10291000CA196B017C019501A8010E941B1987FD52
:1029200002C06501780100915B01B4E00B9F80015A
:102930001124035F1E4FB601C7010E949219F801CE
:10294000608371838283938360917001062E000CF3
:10295000770B880B990B0E94CA192FA538A949A992
:102960005AA90E94D71A20917201309173014091A7
:102970007401509175010E94D71A6B017C0160911E
:10298000610170916201072E000C880B990B0E9467
:10299000CA199B01AC01C701B6010E94AF18B62E3F
:1029A000C72ED82EE92E60915F0170916001072E2D
:1029B000000C880B990B0E94CA19A62EF72E8C01C9
:1029C000262F372FAC016B2D7C2D8D2D9E2D0E9437
:1029D0001B1987FD04C0AB2CFC2C0D2D1E2D609106
:1029E0005D0170915E01072E000C880B990B0E940F
:1029F000CA19B62EC72ED82EE92E2A2D3F2DA80192
:102A00000E941B1987FD04C0BA2CCF2CD02EE12EBA
:102A100000915C01F4E00F9F80011124035F1E4FC1
:102A20006B2D7C2D8D2D9E2D0E949219D8016D93BA
:102A30007D938D939C931397809106059091070544
:102A40009C012F5F3F4F30930705209306050A979F
:102A50000CF4B5C080910905813009F0ACC085E364
:102A600090E00E944D06E82EE294E694E69493E00E
:102A7000E922282F30E0A90164E0559547956A9531
:102A8000E1F7B42FB370FB2E359527953595279533
:102A9000122F1370082F037081E894E00E94F9044C
:102AA00080910A05882309F41EC360915501709135
:102AB000560180915701909158010E944A068BE679
:102AC00094E00E94F904609151017091520180914B
:102AD0005301909154010E944A068BE694E00E94B3
:102AE000F90460914D0170914E0180914F019091D8
:102AF00050010E944A068BE694E00E94F904E0919E
:102B00005A0124E0E29FF0011124E35FFE4F60814F
:102B10007181828193814AE050E00E9498048BE6A3
:102B200094E00E94F904E0915B0164E0E69FF0010B
:102B30001124E35FFE4F60817181828193814AE0BD
:102B400050E00E9498048BE694E00E94F904E09122
:102B50005C0174E0E79FF0011124E35FFE4F6081A8
:102B60007181828193814AE050E00E9498048BE653
:102B700094E00E94F9046AE070E08E2D0E94DA046D
:102B80008BE694E00E94F9046AE070E08F2D0E94C9
:102B9000DA048BE694E00E94F9046AE070E0812F89
:102BA0000E94DA048BE694E00E94F9046AE070E087
:102BB000802F0E94E10410920705109206051092E2
:102BC0000805FFCA20926F01EDCBFC0133972081ED
:102BD00032973081343409F08BC0319630813534EE
:102BE00009F086C0223409F083C0453509F0B6C02B
:102BF00033963081373409F0B1C00E9450040E94EE
:102C000050040E9450048DE693E00E94ED0485E894
:102C100093E00E94F90460E070E080E090E40E949C
:102C2000220D82E993E00E94F90460918A0170917B
:102C30008B0180918C0190918D010E94220D81EA7F
:102C400093E00E94F9046091860170918701809160
:102C50008801909189010E94220D8BEA93E00E94E5
:102C6000F9046AE070E080916D0190916E010E941C
:102C7000CE048CEB93E00E94F9046AE070E080914E
:102C80006701909168010E94CE048EEC93E00E944F
:102C9000F9046AE070E080916101909162010E9404
:102CA000CE0480EE93E00E94F90460917A01709165
:102CB0007B0180917C0190917D010E94220D8DEE1F
:102CC00093E00E94F9046091760170917701809100
:102CD0007801909179010E94220D89EF93E00E9482
:102CE000F9046AE070E0809159010E94E104BFCBD1
:102CF000223571F4433591F5FC013197308134353B
:102D000069F585E094E00E94ED0430929B01B3CB1D
:102D1000233421F54C3411F5FC01319730813235E3
:102D2000E9F48CE194E00E94ED04109213051092F6
:102D30001405109215051092160510920F051092A9
:102D40001005109211051092120510920B051092A9
:102D50000C0510920D0510920E058DCBFC013497D9
:102D60003081373429F5223581F4413409F0ADC181
:102D70000197DC018C91873509F0A7C18DE294E0C1
:102D80000E94ED0430920A0576CB2F3409F059C029
:102D9000463409F09AC10197FC018081863409F01C
:102DA00094C185E494E00E94ED0410920A0563CB7F
:102DB0003635C9F4253409F088C1423509F085C19A
:102DC0000197DC018C91833509F07FC180E694E0A6
:102DD0000E94F90460E070E080E090E40E944A06FE
:102DE00086ED91E079C93035D1F42C3409F06DC10C
:102DF000433549F40197FC018081843509F065C1B0
:102E00003092090534CB453409F05FC10197DC01EC
:102E10008C918E3409F059C11092090528CB3335B5
:102E200009F053C1213409F050C1463509F04DC1B4
:102E30000197FC018081853409F047C10E94C008D8
:102E400016CB233509F041C1453409F03EC1019745
:102E5000DC018C91843509F038C185E694E00E944C
:102E6000F90420E030E048EC52E460918A0170916E
:102E70008B0180918C0190918D010E94D71A0E9444
:102E80004A068BE694E00E94F90420E030E048EC2A
:102E900052E4609186017091870180918801909140
:102EA00089010E94D71A0E944A068BE694E00E948C
:102EB000F90420E030E048EC52E460918201709126
:102EC000830180918401909185010E94D71A0E940C
:102ED0004A068BE694E00E94F90420E030E048ECDA
:102EE00052E460917E0170917F0180918001909108
:102EF00081010E94D71A0E944A068BE694E00E9444
:102F0000F90420E030E040E251E460917A017091F0
:102F10007B0180917C0190917D010E94D71A0E94D3
:102F20004A068BE694E00E94F90420E030E040E29B
:102F300051E46091760170917701809178019091D0
:102F400079010E94D71A0E944A068BE694E00E94FB
:102F5000F90420E030E040E251E4609172017091A8
:102F6000730180917401909175010E94D71A0E949B
:102F70004A068BE694E00E94F9046AE070E08091D2
:102F800018050E94DA048BE694E00E94F9046AE0D6
:102F900070E080916D0190916E010E94C7048BE6F4
:102FA00094E00E94F9046AE070E080916B019091D6
:102FB0006C010E94C7048BE694E00E94F9046AE069
:102FC00070E08091690190916A010E94C7048BE6CC
:102FD00094E00E94F9046AE070E0809167019091AA
:102FE00068010E94C7048BE694E00E94F9046AE03D
:102FF00070E080916501909166010E94C7048BE6A4
:1030000094E00E94F9046AE070E08091630190917D
:1030100064010E94C7048BE694E00E94F9046AE010
:1030200070E080916101909162010E94C7048BE67B
:1030300094E00E94F9046AE070E080915F01909151
:1030400060010E94C7048BE694E00E94F9046AE0E4
:1030500070E080915D0190915E010E94C7048BE653
:1030600094E00E94F9046AE070E080915A010E94A5
:10307000DA048BE694E00E94F9046AE070E0809143
:103080005B010E94DA048BE694E00E94F9046AE096
:1030900070E080915C010E94DA048BE694E00E946B
:1030A000F9046AE070E0809159010E94DA048BE62D
:1030B00094E00E94F9046AE070E0809117050E9494
:1030C000E1048DE694E00C946C10553608F4D3C9F5
:1030D000CEC98CEF95E00E949601849709F0CBC988
:1030E00030921D05C8C96091490170914A018091D3
:1030F0004B0190914C010E944A068BE694E00E949D
:10310000F9046091450170914601809147019091C9
:1031100048010E944A068BE694E00E94F9046091FF
:103120004101709142018091430190914401E1CCB1
:10313000F999FECF92BD81BDF89A992780B508957F
:10314000262FF999FECF1FBA92BD81BD20BD0FB6C3
:10315000F894FA9AF99A0FBE019608955058BB2731
:10316000AA270E94C6180C94801A0E94721A38F07E
:103170000E94791A20F039F49F3F19F426F40C9438
:103180006F1A0EF4E095E7FB0C94401AE92F0E94A9
:10319000911A58F3BA17620773078407950720F04E
:1031A00079F4A6F50C94CB1A0EF4E0950B2EBA2FF9
:1031B000A02D0B01B90190010C01CA01A00111243D
:1031C000FF27591B99F0593F50F4503E68F11A16E9
:1031D000F040A22F232F342F4427585FF3CF46957A
:1031E00037952795A795F0405395C9F77EF41F169C
:1031F000BA0B620B730B840BBAF09150A1F0FF0F66
:10320000BB1F661F771F881FC2F70EC0BA0F621F51
:10321000731F841F48F4879577956795B795F79541
:103220009E3F08F0B0CF9395880F08F09927EE0FD6
:103230009795879508950E941C1A08F481E00895D7
:103240000E9434190C94801A0E94791A58F00E9436
:10325000721A40F029F45F3F29F00C94401A511182
:103260000C94CC1A0C946F1A0E94911A68F399234B
:10327000B1F3552391F3951B550BBB27AA27621772
:103280007307840738F09F5F5F4F220F331F441F7F
:10329000AA1FA9F335D00E2E3AF0E0E832D09150B3
:1032A0005040E695001CCAF72BD0FE2F29D0660FA0
:1032B000771F881FBB1F261737074807AB07B0E8E3
:1032C00009F0BB0B802DBF01FF2793585F4F3AF0E9
:1032D0009E3F510578F00C94401A0C94CC1A5F3F35
:1032E000E4F3983ED4F3869577956795B795F7956F
:1032F0009F5FC9F7880F911D9695879597F9089557
:10330000E1E0660F771F881FBB1F621773078407F2
:10331000BA0720F0621B730B840BBA0BEE1F88F701
:10332000E09508950E9499196894B1110C94CC1AF3
:1033300008950E94991A88F09F5798F0B92F9927FD
:10334000B751B0F0E1F0660F771F881F991F1AF090
:10335000BA95C9F714C0B13091F00E94CB1AB1E010
:1033600008950C94CB1A672F782F8827B85F39F00F
:10337000B93FCCF3869577956795B395D9F73EF429
:1033800090958095709561957F4F8F4F9F4F0895D1
:10339000E89409C097FB3EF49095809570956195EF
:1033A0007F4F8F4F9F4F9923A9F0F92F96E9BB27A5
:1033B0009395F695879577956795B795F111F8CF21
:1033C000FAF4BB0F11F460FF1BC06F5F7F4F8F4F8C
:1033D0009F4F16C0882311F096E911C0772321F082
:1033E0009EE8872F762F05C0662371F096E8862F1A
:1033F00070E060E02AF09A95660F771F881FDAF771
:10340000880F9695879597F908950E94B31A90F0C2
:103410009F3748F4911116F00C94CC1A60E070E0DC
:1034200080E89FEB089526F41B16611D711D811D18
:103430000C94461A0C94611A990F0008550FAA0BA8
:10344000E0E8FEEF16161706E807F907C0F01216B7
:103450001306E407F50798F0621B730B840B950BBA
:1034600039F40A2661F0232B242B252B21F408950F
:103470000A2609F4A140A6958FEF811D811D0895AC
:1034800097F99F6780E870E060E00895882371F401
:10349000772321F09850872B762F07C0662311F4ED
:1034A00099270DC09051862B70E060E02AF09A9524
:1034B000660F771F881FDAF7880F9695879597F91B
:1034C00008959F3F31F0915020F487957795679547
:1034D000B795880F911D9695879597F908959FEF59
:1034E00080EC089500240A9416161706180609069B
:1034F000089500240A94121613061406050608956A
:10350000092E0394000C11F4882352F0BB0F40F4F1
:10351000BF2B11F460FF04C06F5F7F4F8F4F9F4F31
:10352000089557FD9058440F551F59F05F3F71F0B3
:103530004795880F97FB991F61F09F3F79F087951A
:103540000895121613061406551FF2CF4695F1DFA3
:1035500008C0161617061806991FF1CF8695710533
:103560006105089408950E94991AA0F0BEE7B91762
:1035700088F4BB279F3860F41616B11D672F782F8B
:103580008827985FF7CF869577956795B11D9395B6
:103590009639C8F30895E894BB2766277727CB01AF
:1035A00097F908950E941C1A08F48FEF08950E945D
:1035B000EA1A0C94801A0E94721A38F00E94791A42
:1035C00020F0952311F00C94401A0C946F1A1124DA
:1035D0000C94CC1A0E94911A70F3959FC1F3950F29
:1035E00050E0551F629FF001729FBB27F00DB11D87
:1035F000639FAA27F00DB11DAA1F649F6627B00D17
:10360000A11D661F829F2227B00DA11D621F739FFF
:10361000B00DA11D621F839FA00D611D221F749F0D
:103620003327A00D611D231F849F600D211D822F54
:10363000762F6A2F11249F5750409AF0F1F088237B
:103640004AF0EE0FFF1FBB1F661F771F881F9150A8
:103650005040A9F79E3F510580F00C94401A0C94FD
:10366000CC1A5F3FE4F3983ED4F38695779567953F
:10367000B795F795E7959F5FC1F7FE2B880F911DD2
:103680009695879597F908950E941C1A880B990BB7
:10369000089597FB072E16F4009407D077FD09D004
:1036A0000E947F1B07FC05D03EF4909581959F4FAB
:1036B0000895709561957F4F0895A1E21A2EAA1B77
:1036C000BB1BFD010DC0AA1FBB1FEE1FFF1FA217D2
:1036D000B307E407F50720F0A21BB30BE40BF50BCF
:1036E000661F771F881F991F1A9469F76095709558
:1036F000809590959B01AC01BD01CF010895AA1B57
:10370000BB1B51E107C0AA1FBB1FA617B70710F0CC
:10371000A61BB70B881F991F5A95A9F780959095FE
:10372000BC01CD010895EE0FFF1F0590F491E02D2F
:1037300009940F931F93CF93DF938230910510F478
:1037400082E090E0E091B306F091B40630E020E032
:10375000B0E0A0E0309799F42115310509F44AC092
:10376000281B390B24303105D8F58A819B816115DE
:10377000710589F1FB0193838283FE0111C04081B1
:1037800051810281138148175907E0F04817590702
:1037900099F4109761F012960C93129713961C935C
:1037A0003296CF01DF91CF911F910F910895009331
:1037B000B3061093B406F4CF2115310551F042172A
:1037C000530738F0A901DB019A01BD01DF01F801BF
:1037D000C1CFEF01F9CF9093B4068093B306CDCF5C
:1037E000FE01E20FF31F8193919322503109398337
:1037F0002883D7CF2091B1063091B206232B41F414
:1038000020919E0130919F013093B2062093B10622
:1038100020919C0130919D012115310541F42DB776
:103820003EB74091A0015091A101241B350BE091BE
:10383000B106F091B206E217F307A0F42E1B3F0B7E
:103840002817390778F0AC014E5F5F4F2417350712
:1038500048F04E0F5F1F5093B2064093B10681931C
:1038600091939FCFF0E0E0E09CCFCF93DF93009760
:10387000E9F0FC01329713821282A091B306B09155
:10388000B406ED0130E020E01097A1F420813181F1
:10389000820F931F2091B1063091B2062817390785
:1038A00009F061C0F093B206E093B106DF91CF91C9
:1038B0000895EA01CE17DF07E8F54A815B819E0192
:1038C00041155105B1F7E901FB83EA83499159910B
:1038D000C40FD51FEC17FD0761F48081918102961A
:1038E000840F951FE90199838883828193819B834B
:1038F0008A83F0E0E0E012968D919C9113970097F7
:10390000B9F52D913C911197CD010296820F931F2D
:103910002091B1063091B2062817390739F6309751
:1039200051F51092B4061092B306B093B206A0936C
:10393000B106BCCFD383C28340815181840F951FD0
:10394000C817D90761F44E5F5F4F88819981480F8E
:10395000591F518340838A819B81938382832115E0
:10396000310509F0B0CFF093B406E093B3069ECFD3
:10397000FD01DC01C0CF13821282D7CFFB01DC0135
:103980004150504048F001900D920020C9F701C00D
:0E3990001D9241505040E0F70895F894FFCF8B
:10399E00010000B4420000B4420000B442340800FA
:1039AE000034080000340800003408000034080019
:1039BE000034080000340800003408000034080009
:1039CE0000340800003408000034080000340800F9
:1039DE00000000B4420000B4420000B4420000B443
:1039EE00420000B4420000B442240807067E047E62
:1039FE000434087E047E0434087E047E043408FFFA
:103A0E00FFFF00008841000088410000884148E126
:103A1E007A3F48E17A3F0000403F0000403F0001FE
:103A2E0002030405060708090A0B0C010000B5067F
:103A3E00800000000000FA015A0187014702B80118
:103A4E009601AA01000000001104E4034004BA0329
:103A5E00DD03CA03BB030000000087036107880370
:103A6E007D0663070D0A004F7269656E74204D6105
:103A7E007070696E672023002053657420546F3A6E
:103A8E002000205369676E733A20006E616E0069E4
:103A9E006E66006F766600424E4F303535004F6FC2
:103AAE006F70732C206E6F20424E4F303535206470
:103ABE0065746563746564202E2E2E2043686563DD
:103ACE006B20796F757220776972696E67206F72DD
:103ADE0020493243204144445221002D2D2D2D2DBD
:103AEE002D2D2D2D2D2D2D2D2D2D2D2D2D2D2D2DF8
:103AFE002D2D2D2D2D2D2D2D2D2D2D2D2D2D2D0015
:103B0E0053656E736F723A202020202020200044CF
:103B1E007269766572205665723A20202000556EC5
:103B2E00697175652049443A20202020004D617846
:103B3E002056616C75653A20202020004D696E205C
:103B4E0056616C75653A20202020005265736F6CAB
:103B5E007574696F6E3A2020200041786973205287
:103B6E00656D61703A200041786973205369676E04
:103B7E003A2020202030780053657474696E677384
:103B8E0020736176656421004E657720626F6172E5
:103B9E0064202D20736176696E6720646566617599
:103BAE006C742076616C75657321004368616E6E6E
:103BBE00656C206D617070696E67207265636569F2
:103BCE0076656400244352434552520024435243C7
:103BDE004F4B3A48542053657474696E6773205284
:103BEE006574726965766564004158495320524583
:103BFE004D415020546F00205349474E002D2D2D1E
:103C0E002D2D2D20446562756720696E666F2D2DF2
:103C1E002D2D2D2D0046572056657273696F6E3A05
:103C2E00200074696C74526F6C6C426574613A203A
:103C3E000070616E426574613A2000736572766F32
:103C4E0050616E43656E7465723A200073657276CC
:103C5E006F54696C7443656E7465723A20007365B7
:103C6E0072766F526F6C6C43656E7465723A20009B
:103C7E0074696C74466163746F723A200070616E81
:103C8E00466163746F723A20006178697352656D94
:103C9E0061703A200052657365742056616C7565CB
:103CAE007320436F6D706C6574652000436C6561A5
:103CBE0072696E67204F6666736574730053686F22
:103CCE0077696E67205261772053656E736F72202D
:103CDE00446174610053686F77696E67204F666642
:103CEE007365742053656E736F7220446174610046
:103CFE0046573A20002453455424002C0053657433
:103D0E0074696E6773205265747269657665642195
:103D1E000024470054696D65722031204F564600CD
:00000001FF
